:100000000C946D0A0C949A0A0C949A0A0C949A0A0D
:100010000C949A0A0C949A0A0C949A0A0C949A0AD0
:100020000C949A0A0C949A0A0C949A0A0C949A0AC0
:100030000C949A0A0C949A0A0C949A0A0C949A0AB0
:100040000C949A0A0C94EC630C949A0A0C949A0AF5
:100050000C949A0A0C949A0A0C94DF6C0C945B7BB7
:100060000C949A0A0C94BA490C949A0A0C949A0A21
:100070000C949A0A0C949A0A0C949A0A0C949A0A70
:100080000C949A0A0C949A0A0C949A0A0C949A0A60
:100090000C949A0A0C949A0A0C949A0A0C94AA79D1
:1000A0000C949A0A0C949A0A0C949A0A0C949A0A40
:1000B0000C949A0A0C949A0A0C949A0A0C949A0A30
:1000C0000C949A0A0C949A0A0C949A0A0C949A0A20
:1000D0000C949A0A0C949A0A0C949A0A0C949A0A10
:1000E0000C949A0A084AD73B3BCE016E84BCBFFDF4
:1000F000C12F3D6C74319ABD56833DDA3D00C77FF8
:1001000011BED9E4BB4C3E916BAAAABE0000008090
:100110003F05A84CCDB2D44EB93836A9020C50B91F
:10012000918688083CA6AAAA2ABE000000803F65E6
:1001300063686F3A0048617264636F646564204469
:10014000656661756C742053657474696E6773209D
:100150004C6F616465640053746F726564207365ED
:100160007474696E6773207265747269657665640C
:1001700000204200204500205A0020590020204D38
:100180003930372058004932432064696769706FFD
:10019000742073657474696E67733A00204400209C
:1001A000490020204D333031205000504944207305
:1001B000657474696E67733A00205A0020590020F4
:1001C000204D363636205800456E6473746F7020AB
:1001D00061646A757374656D656E7420286D6D2930
:1001E0003A00205A0020590020204D323036205845
:1001F00000486F6D65206F666673657420286D6DAD
:10020000293A00204500205A0020580020420020B2
:10021000540020204D323035205300416476616E09
:10022000636564207661726961626C65733A20531C
:100230003D4D696E20666565647261746520286D48
:100240006D2F73292C20543D4D696E207472617698
:10025000656C20666565647261746520286D6D2F1C
:1002600073292C20423D6D696E696D756D20736533
:10027000676D656E742074696D6520286D73292C17
:1002800020583D6D6178696D756D205859206A65FB
:10029000726B20286D6D2F73292C20205A3D6D61C3
:1002A00078696D756D205A206A65726B20286D6DB6
:1002B0002F73292C2020453D6D6178696D756D2067
:1002C00045206A65726B20286D6D2F7329002054BC
:1002D0000020204D323034205300416363656C654B
:1002E000726174696F6E3A20533D616363656C653A
:1002F000726174696F6E2C20543D72657472616313
:100300007420616363656C65726174696F6E00204F
:100310004500205A0020590020204D32303120580D
:10032000004D6178696D756D20416363656C657220
:100330006174696F6E20286D6D2F7332293A002029
:100340004500205A0020590020204D3230332058DB
:10035000004D6178696D756D2066656564726174C4
:10036000657320286D6D2F73293A00204500205AAF
:100370000020590020204D393220580053746570F8
:10038000732070657220756E69743A0053657474D9
:10039000696E67732053746F726564006563686F7C
:1003A0003A004572726F723A005072696E746572EB
:1003B0002073746F707065642064756520746F209D
:1003C0006572726F72732E2046697820746865209A
:1003D0006572726F7220616E6420757365204D398D
:1003E000393920746F20726573746172742E2028FD
:1003F00054656D70657261747572652069732072E1
:10040000657365742E205365742069742061667469
:1004100065722072657374617274696E6729005029
:1004200072696E7465722068616C7465642E206BED
:10043000696C6C28292063616C6C656421006F6BAA
:1004400000526573656E643A20002200556E6B6E33
:100450006F776E20636F6D6D616E643A2022007A53
:100460005F6D61783A20007A5F6D696E3A2000799D
:100470005F6D61783A2000785F6D61783A200020E6
:100480005A3A0020593A0020436F756E7420583A4A
:10049000200020453A00205A3A0020593A00583AA4
:1004A000004649524D574152455F4E414D453A4DE8
:1004B00061726C696E2056313B20537072696E74A4
:1004C00065722F6772626C206D617368757020664B
:1004D0006F722067656E36204649524D574152452E
:1004E0005F55524C3A68747470733A2F2F67697471
:1004F0006875622E636F6D2F4572696B5A616C6D02
:100500002F4D61726C696E2F2050524F544F434FE4
:100510004C5F56455253494F4E3A312E30204D4193
:100520004348494E455F545950453A4D656E6465A0
:100530006C2045585452554445525F434F554E54D4
:100540003A3120555549443A30303030303030302F
:100550002D303030302D303030302D303030302DA7
:100560003030303030303030303030300A002042DF
:100570003A0020453A00543A0020573A0020453AC4
:1005800000543A002042403A0020403A00202F0018
:100590003A00205400202F0020423A00202F006F04
:1005A0006B20543A002569206D696E2C2025692046
:1005B000736563000A00205A3A200020593A20004F
:1005C00020583A2000426564000101010000884380
:1005D00000008843000096430000A0400000A040B7
:1005E0000000A04000000000000000000000964352
:1005F000000008C3000008C300000000000008431A
:1006000000000843000096430A00207A3A200020A8
:10061000793A200020783A200042656400203D208D
:10062000005D202B20005D5B005B000A00207A3A11
:10063000200020793A200020783A20002000200075
:100640002C005072696E7465722073746F707065DF
:10065000642064756520746F206572726F72732EEA
:100660002046697820746865206572726F72206117
:100670006E6420757365204D39393920746F20728E
:100680006573746172742E202854656D7065726193
:10069000747572652069732072657365742E2053BA
:1006A0006574206974206166746572207265737464
:1006B000617274696E6729006F6B004E6F204C6920
:1006C0006E65204E756D626572207769746820636F
:1006D0006865636B73756D2C204C617374204C6975
:1006E0006E653A20004E6F20436865636B73756DCD
:1006F0002077697468206C696E65206E756D62651F
:10070000722C204C617374204C696E653A20006332
:100710006865636B73756D206D69736D6174636873
:100720002C204C617374204C696E653A20004C6932
:100730006E65204E756D626572206973206E6F74F0
:10074000204C617374204C696E65204E756D626536
:10075000722B312C204C617374204C696E653A20E9
:10076000004D313130002020506C616E6E65724258
:10077000756666657242797465733A200020467228
:100780006565204D656D6F72793A20004A756C2061
:100790003238203230313400436F6D70696C6564DB
:1007A0003A20002844656C74614D616B65722C20A1
:1007B000444D312042657461332900207C2041750D
:1007C00074686F723A20004A756C203238203230DB
:1007D00031342031313A35363A333300204C6173AD
:1007E0007420557064617465643A2000312E302E97
:1007F00030004D61726C696E0020536F66747761D2
:100800007265205265736574002057617463686473
:100810006F67205265736574002042726F776E2097
:100820006F75742052657365740020457874657225
:100830006E616C20526573657400506F77657255F8
:1008400070007374617274002200656E7175656961
:100850006E672022002200656E717565696E6720E3
:1008600022006563686F3A0020746F6F206C6F6EB2
:100870006720657874727573696F6E207072657623
:10088000656E7465640020636F6C642065787472B3
:100890007573696F6E2070726576656E746564003D
:1008A00045313A200045303A20005A3A2000593A62
:1008B0002000583A20004D53312C4D5332205069BE
:1008C0006E730A0024F404D9201BC40C5C0E980437
:1008D000C4095F0265077101F405F900FB04B30068
:1008E00048048700C103690058035500030345000D
:1008F000BE023A008402310053022A002902250078
:1009000004022000E4011C00C8011900AF01170017
:10091000980114008401130071011000610110009E
:1009200051010E0043010D0036010B002B010B009D
:1009300020010B00150109000C010900030108004A
:10094000FB000800F3000800EB000700E4000600CD
:10095000DE000600D8000600D2000600CC0005002C
:10096000C7000500C2000500BD000400B900040076
:10097000B5000400B1000400AD000400A9000400AB
:10098000A5000300A20003009F0004009B000300D9
:1009900098000300950002009300030090000300FC
:1009A0008D0002008B000300880002008600020018
:1009B00084000300810002007F0002007D0002002D
:1009C0007B0002007900020077000100760002003F
:1009D0007400020072000100710002006F0002004A
:1009E0006D0001006C0002006A0001006900020055
:1009F000670001006600010065000100640002005C
:100A00006200010061000100600001005F0002005F
:100A10005D0001005C0001005B0001005A00010064
:100A20005900010058000100570001005600010064
:100A30005500010054000100530000005300010064
:100A40005200010051000100500001004F00010060
:100A50004E0000004E0001004D0001004C0001005E
:100A60004B0000004B0001004A000100490001005A
:100A70004800000048000100470001004600000057
:100A8000460001004500000045000100440001004F
:100A9000430000004300010042000000420001004A
:100AA0004100000041000100400001003F00000043
:100AB0003F0001003E0000003E0001003D0000003C
:100AC0003D0001003C0000003C0000003C00010033
:100AD0003B0000003B0001003A0000003A0001002A
:100AE0003900000039000100380000003800000023
:100AF0003800010037000000370001003600000018
:100B0000360000003600010035000000350000000E
:100B10003500010034000000340000003400010002
:100B200033000000330000003300010032000000F9
:100B300032000000320001003100000031000000EE
:100B400031000100300000003000000030000100E2
:100B50002F0000002F0000002F0000002F000100D8
:100B60002E0000002E0000002E0001002D000000CD
:100B70002D0000002D0000002D0001002C000000C1
:100B80002C0000002C0000002C0001002B000000B5
:100B90002B0000002B0000002B0001002A000000A9
:100BA0002A0000002A0000002A000100290000009D
:100BB0002900000029000000290000002900010090
:100BC0002800000028000000280000002800000085
:100BD0002800010027000000270000002700000077
:100BE000270000002700010026000000260000006A
:100BF000260000002600000026000100250000005D
:100C00002500000025000000250000002500000050
:100C10002500010024000000240000002400000042
:100C20002400000024000100230000002300000035
:100C30002300000023000000230000002300000028
:100C4000230001002200000022000000220000001A
:100C5000220000002200000022000100210000000C
:100C60002100000021000000210000002100000000
:100C700021000000210001002000000020000000F1
:100C800020000000200000002000000020000000E4
:100C900020000000200001001F0000001F000000D5
:100CA0001F0000001F0000001F0000001F000000C8
:100CB0001F0001001E0000001E0000001E000000BA
:100CC0001E00000024F4D43050C38E20C2A240176E
:100CD000828B7011127A910D816CD90AA861E1089A
:100CE000C7586607615143061E4B5D05C145A70401
:100CF0001A411104093D9803713931034036DB0272
:100D000065339102D4305402802E1D02632CEE0113
:100D1000752AC501B028A001102781018F25640123
:100D20002B244B01E0223401AC211F018D200D0149
:100D3000801FFC00841EED00971DDF00B81CD20050
:100D4000E61BC600201BBC00641AB200B219A80042
:100D50000A19A0006A189900D117910040178B005A
:100D6000B516840031167E00B31579003A1573006C
:100D7000C7146F0058146A00EE13660088136300EE
:100D800025135E00C7125B006C1257001512540049
:100D9000C111510070114F0021114B00D6104900B4
:100DA0008D1047004610440002104200C00F400062
:100DB000800F3E00420F3C00060F3B00CB0E380078
:100DC000930E37005C0E3500270E3400F30D320011
:100DD000C10D3100900D3000600D2E00320D2D0040
:100DE000050D2C00D90C2B00AE0C2900850C290018
:100DF0005C0C2700350C27000E0C2600E80B2400A5
:100E0000C40B2400A00B23007D0B23005A0B2100F0
:100E1000390B2100180B2000F80A1F00D90A1E0008
:100E2000BB0A1E009D0A1D00800A1D00630A1C00EB
:100E3000470A1B002C0A1B00110A1A00F7091A00A6
:100E4000DD091900C4091900AB091900920917003E
:100E50007B091800630917004C09160036091600B3
:100E6000200916000A091500F5081500E00814000D
:100E7000CC081400B8081400A4081400900813004B
:100E80007D0812006B081300580812004608120073
:100E90003408110023081100120811000108110084
:100EA000F0071000E0071000D0071000C007100086
:100EB000B0070F00A107100091070E0083070F0075
:100EC00074070F0065070E0057070E0049070E0054
:100ED0003B070D002E070E0020070D0013070D0025
:100EE00006070D00F9060C00ED060D00E0060C00EB
:100EF000D4060C00C8060C00BC060C00B0060C00A2
:100F0000A4060B0099060C008D060B0082060B0050
:100F100077060B006C060B0061060A0057060B00F3
:100F20004C060A0042060A0038060A002E060A008D
:100F300024060A001A060A001006090007060A001D
:100F4000FD050900F4050900EB050900E2050900AB
:100F5000D9050900D0050900C7050900BE0509002B
:100F6000B5050800AD050800A50509009C050800A9
:100F7000940508008C050800840508007C0508001D
:100F8000740508006C050700650508005D0507008D
:100F9000560508004E0507004705070040050800F4
:100FA00038050700310507002A050700230507005B
:100FB0001C050600160507000F05070008050600BA
:100FC00002050700FB040600F5040700EE04060016
:100FD000E8040600E2040700DB040600D50406006E
:100FE000CF040600C9040600C3040600BD040600C1
:100FF000B7040600B1040500AC040600A604060010
:10100000A00405009B04060095040500900406005A
:101010008A04050085040500800406007A040500A2
:1010200075040500700405006B04050066040500E6
:10103000610405005C040500570405005204050026
:101040004D04050048040500430405003E04040067
:101050003A04050035040500300404002C040500A2
:1010600027040400230405001E0404001A040400DD
:1010700016040500110404000D0404000904050011
:101080000404040000040400FC030400F80304004A
:10109000F4030400F0030400EC030400E80304007C
:1010A000E4030400E0030400DC030400D8030400AC
:1010B000D4030400D0030400CC030400C8030300DD
:1010C000C50303006563686F3A00205A3A0020594F
:1010D0003A0020583A00656E6473746F707320682C
:1010E00069743A20004572726F723A0054656D70EF
:1010F00065726174757265206865617465642062EB
:101100006564207377697463686564206F66662E12
:10111000204D415854454D5020747269676765727F
:101120006564202121003A204578747275646572E7
:10113000207377697463686564206F66662E204D3E
:10114000494E54454D5020747269676765726564F5
:101150002021003A20457874727564657220737797
:10116000697463686564206F66662E204D4158542B
:10117000454D50207472696767657265642021006F
:10118000202D20496E76616C6964206578747275D3
:10119000646572206E756D62657220210070012C8D
:1011A0000190012701B0012201C0011D01F00118C9
:1011B000011002130130020E0160020901900204C5
:1011C00001C002FF000003FA004003F5008003F0B5
:1011D00000D003EB002004E6007004E100E004DC32
:1011E000004005D700C005D2004006CD00D006C89B
:1011F000008007C3003008BE00F008B900C009B481
:1012000000B00AAF00B00BAA00D00CA500000EA0E1
:1012100000500F9B00C01096005012910000148CDB
:1012200000C0158700B0178200B0197D00D01B7870
:1012300000001E730040206E0090226900F02464BC
:101240000040275F0090295A00E02B5500102E50D7
:101250000020304B0010324600E033410090353C16
:10126000001037370070383200A0392D00B03A280E
:1012700000A03B2300603C1E00103D1900903D146F
:1012800000103E0F00703E0A00C03E0500003F0007
:1012900000504944204175746F74756E652066690D
:1012A0006E697368656421205075742074686520C8
:1012B0004B702C204B6920616E64204B6420636F5F
:1012C0006E7374616E747320696E746F20436F6EF9
:1012D00066696775726174696F6E2E680050494463
:1012E000204175746F74756E65206661696C656404
:1012F000212074696D656F75740020403A006F6B32
:1013000020543A006F6B20423A0050494420417506
:10131000746F74756E65206661696C656421205414
:10132000656D706572617475726520746F6F206889
:1013300069676800204B643A2000204B693A20001E
:10134000204B703A200020436C6173696320504940
:101350004420002054753A2000204B753A2000208C
:101360006D61783A2000206D696E3A200020643A61
:10137000200020626961733A2000000021002400EF
:1013800027002A002D003000330001010000040175
:1013900007010A0100002200250028002B002E0072
:1013A0003100340002010000050108010B010000BA
:1013B00020002300260029002C002F00320000010D
:1013C00000000301060109010505050507050808D8
:1013D0000808020202020A0A0808040404040101BF
:1013E00001010101010103030303030303030407D4
:1013F00007070C0C0C0C0C0C0C0C0202020206066B
:101400000606060606060B0B0B0B0B0B0B0B01025D
:101410001020200808102040102040800201020106
:1014200008040201010204081020408080402010BE
:101430000804020180040201804020100804020117
:10144000080402010102040810204080010204087F
:10145000102040800000090A02080B0C0D0706034B
:101460000401000000000000000000000000000077
:10147000000000000000000000000000000000006C
:1014800011100F000000000000000000000000002C
:1014900000000000000000000000494E46494E498F
:1014A00054594E414ECDCCCC3D0AD7233C17B7D131
:1014B0003877CC2B329595E6241FB14F0A000020D7
:1014C000410000C84200401C4620BCBE4CCA1B0E56
:1014D0005AAEC59D74004E4AA77811241FBECFEFA7
:1014E000D1E2DEBFCDBF00E00CBF14E0A0E0B2E06F
:1014F000EAE8F7E001E00BBF02C007900D92A03BC5
:10150000B107D9F71BBE1EE1A0EBB4E001C01D92EC
:10151000A53DB107E1F714E1CAEDD4E104C022977B
:10152000FE010E947D83C63DD107C9F70E945E7E01
:101530000C94C3830C940000A0E0B0E0E2EAFAE06F
:101540000C949283EC015B016115710519F0FB01AC
:1015500091838083F9908F2D90E00E948183892B65
:10156000C9F7FDE2FF1621F4F990EE24E39405C0DB
:101570002BE2F21609F4F990EE248E01015010408E
:10158000C8016AE974E143E050E062D2892BF9F4C2
:101590008E010E5F1F4FC8016DE974E145E050E018
:1015A00057D2892B19F48E01095F1F4FA114B10482
:1015B00019F0F50111830083E0FC04C070E090E0B5
:1015C00080E813C070E090E080E86FEF07C1C801C9
:1015D00062EA74E143E050E03BD2892B69F4A11444
:1015E000B10429F470E090E080EC6FE7F7C0229638
:1015F000F501D183C083F6CF8824992440E050E0E0
:1016000060E070E0EF2DE053EA30A0F5F2E0EF2A61
:101610008E2D90E09C0128703070E2FE06C0232BD6
:1016200079F50894811C911C2BC0232B19F0089488
:1016300081089108DB01CA0112E0880F991FAA1FD7
:10164000BB1F1A95D1F7480F591F6A1F7B1F440F04
:10165000551F661F771F4E0F511D611D711D4839A3
:1016600029E9520729E9620729E1720748F084E075
:10167000E82A06C0EE3F31F4E3FC39C098E0E92ADD
:10168000F990C0CFE53311F0E53189F529912D327C
:1016900019F4E0E1EE2A05C02B3219F081E090E068
:1016A00003C0299182E090E0E22FE053EA3018F085
:1016B000C81BD90B1CC020E030E0FCE020383F07FD
:1016C0005CF4C901880F991F880F991F280F391FD3
:1016D000220F331F2E0F311DE991E053EA3068F3DA
:1016E000E4FE03C0309521953F4F820E931ECE2C11
:1016F000DD24E1FE07C0A114B10421F02197F5011A
:10170000D183C083CB01BA010E94E67F7B018C01AB
:10171000F3E0CF22DD2423E0C216D10421F417FB2D
:10172000109517F9109557016801C801B70120E01D
:1017300030E040E050E00E94467F882309F44AC030
:1017400097FE0DC029EBE22E24E1F22E90948194B5
:1017500091089394C0E2D0E000E010E012C091ED57
:10176000E92E94E1F92EF6CFF701259135914591B7
:101770005491C601B5010E9426825B016C018C1A4E
:101780009D0A8C169D0684F7D595C7950F5F1F4F50
:101790000630110529F08CEF9FEFE80EF91EF1CF0E
:1017A000C501D6017C018D018C2D880F8D2D881FE0
:1017B0008F3F51F0C601B50120E030E040E050E03D
:1017C0000E94467F882331F482E290E09093D41EF9
:1017D0008093D31E7E2D9F2D802F612F272F392F91
:1017E000482F562FB901CA01CDB7DEB7ECE00C94F3
:1017F000AE832F923F925F926F927F928F929F92D1
:10180000AF92BF92CF92DF92EF92FF920F931F930E
:10181000CF93DF938C011B01EA016115710519F06B
:10182000FB0191838083209749F0CE010297839733
:1018300028F020E030E040E050E0F6C0F801A19050
:101840008F018A2D90E00E948183892BB9F7FDE2F8
:10185000AF1631F4F801A1908F015524539407C0BD
:10186000FBE2AF1619F4F801A1908F0155242097DF
:1018700019F0C031D105C1F4F0E3AF1679F4F801E5
:101880008081883711F0883549F4F801A1800E5F16
:101890001F4FF2E05F2AC0E1D0E006C0209721F49C
:1018A00080E3A816E9F427C0C830D10531F1C9306A
:1018B000D10524F4C230D10531F50CC0CA30D105B0
:1018C00089F0C031D105F9F4C12CD12CE12CB8E05C
:1018D000FB2E28C0C12CD12CE12CA0E4FA2E22C072
:1018E000CAE0D0E0FCECCF2EFCECDF2EFCECEF2EBF
:1018F000FCE0FF2E17C0C8E0D0E0C12CD12CE12CB9
:10190000E0E1FE2E0FC09E01442737FD4095542F85
:1019100060E070E080E090E80E942A83C901DA016B
:101920006C017D0120E030E040E050E060E03E01ED
:10193000882477FC8094982C70EDB72EBA0CE9E0DF
:10194000EB1570F48A2D81548A3118F499ECB92E74
:1019500006C08A2D81568A3150F589EAB82EBA0C14
:101960008B2D90E08C179D0714F56F3FE1F0C216A8
:10197000D306E406F506B0F0CA01B901A40193014B
:101980000E94F8829B01AC012B0D311D411D511DA0
:101990002130F0E03F07F0E04F07F0E85F0710F478
:1019A00061E001C06FEFF801A1908F01C5CF211454
:1019B000310481F0662331F001501040F1011183B0
:1019C000008308C051FE1AC002501040F10111837B
:1019D000008314C067FF12C050FC05C02FEF3FEF1B
:1019E0004FEF5FE704C020E030E040E050E882E2E3
:1019F00090E09093D41E8093D31E16C050FE08C072
:101A000050954095309521953F4F4F4F5F4F0CC0FB
:101A100057FF0AC082E290E09093D41E8093D31EB9
:101A20002FEF3FEF4FEF5FE7B901CA01DF91CF9191
:101A30001F910F91FF90EF90DF90CF90BF90AF90EC
:101A40009F908F907F906F905F903F902F90089520
:101A5000FB01DC014150504088F08D9181341CF035
:101A60008B350CF4805E659161341CF06B350CF4A1
:101A7000605E861B611171F3990B0895881BFCCF82
:101A8000FB0155915523A9F0BF01DC014D9145178C
:101A90004111E1F759F4CD010590002049F04D9135
:101AA00040154111C9F3FB014111EFCF81E090E0F6
:101AB00001970895FC018191861721F08823D9F7B9
:101AC000992708953197CF010895FB01DC0141501A
:101AD000504030F08D910190801919F40020B9F731
:101AE000881B990B0895AEE0B0E0E9E7FDE00C94A7
:101AF0009A830E891F898EE08C831A8309838FEF66
:101B00009FE79E838D839E01265E3F4FCE01019607
:101B1000688D798DA9010AD02F813885020F131F96
:101B2000F80110822E96E4E00C94B683ABE0B0E0AE
:101B3000ECE9FDE00C948C833C012B015A01FC0183
:101B400017821682838181FD03C06FEF7FEFB9C1D9
:101B50009AE0892E1E010894211C311CF301238177
:101B6000F20123FD859123FF81912F01882309F440
:101B7000A5C1853239F423FD859123FF81912F0181
:101B8000853221F490E0B301B7D1E8CF982FFF243C
:101B9000EE249924FFE1FF15D0F09B3269F09C32CE
:101BA00028F4903259F0933291F40EC09D3249F0EE
:101BB000903369F441E024C052E0F52A84E0F82A29
:101BC00028C098E0F92A25C0E0E1FE2A22C0F7FCEF
:101BD00029C0892F80538A3070F4F6FE05C0989C86
:101BE000902C1124980E15C0E89CE02C1124E80ECE
:101BF000F0E2FF2A0EC09E3229F4F6FC5FC140E4F9
:101C0000F42A07C09C3619F450E8F52A02C0983629
:101C100049F4F20123FD959123FF91912F0199231E
:101C200009F0B8CF892F8554833018F08052833063
:101C300038F444E050E0A40EB51E5FE359830FC0B2
:101C4000933631F0933779F0933509F052C01FC0C5
:101C5000F5018081898342E050E0A40EB51E610148
:101C600001E010E011C0F501C080D180F6FC03C096
:101C70006FEF7FEF02C0692D70E042E050E0A40EEC
:101C8000B51EC6012ED18C015FE7F52213C0F50108
:101C9000C080D180F6FC03C06FEF7FEF02C0692DDA
:101CA00070E042E050E0A40EB51EC6010FD18C01D9
:101CB00050E8F52AF3FE06C018C080E290E0B301B8
:101CC0001BD1EA948E2D90E008171907B0F30DC0D0
:101CD000F601F7FC8591F7FE81916F0190E0B30169
:101CE0000BD1E110EA94015010400115110581F764
:101CF000E2C0943611F0993661F5F7FE08C0F5019F
:101D0000208131814281538184E090E00AC0F50155
:101D1000808191819C01442737FD4095542F82E0BA
:101D200090E0A80EB91E9FE6F92257FF09C0509512
:101D30004095309521953F4F4F4F5F4FE0E8FE2A89
:101D4000CA01B901A1012AE030E002D1D82ED2188F
:101D50003FC0953729F41F2D1F7E2AE030E01DC0BB
:101D60001F2D197F9F3661F0903720F4983509F0C8
:101D7000A5C00FC0903739F0983709F09FC004C054
:101D800028E030E00AC0106114FD146020E130E06A
:101D900004C014FD166020E132E017FF08C0F50111
:101DA000608171818281938144E050E008C0F50137
:101DB00080819181BC0180E090E042E050E0A40E7F
:101DC000B51EA101C5D0D82ED2188FE7F82EF1226A
:101DD000F6FE0BC05EEFF522D91438F4F4FE07C00E
:101DE000F2FC05C08FEEF82202C01D2D01C0192D96
:101DF000F4FE0DC0FE01ED0DF11D8081803319F45C
:101E000099EEF92208C01F5FF2FE05C003C08F2DB6
:101E1000867809F01F5F0F2DF3FC13C0F0FE0EC093
:101E20001E1510F09D2C0AC09D2C9E0C911A1E2D83
:101E300005C080E290E0B3015FD01F5F1E15C8F3BC
:101E400004C01E1510F4E11A01C0EE2404FF0EC0F8
:101E500080E390E0B30150D002FF1BC001FD03C03E
:101E600088E790E00EC088E590E00BC0802F867870
:101E700081F001FF02C08BE201C080E2F7FC8DE23D
:101E800090E0B30139D005C080E390E0B30134D0D5
:101E90009A94D914C8F3DA94F101ED0DF11D808103
:101EA00090E0B30129D0DD20B1F705C080E290E0D9
:101EB000B30122D0EA94EE20C9F750CEF301668137
:101EC0007781CB012B96E2E10C94A883FC0105906D
:101ED000615070400110D8F7809590958E0F9F1F2C
:101EE0000895FC016150704001900110D8F7809571
:101EF00090958E0F9F1F08950F931F93CF93DF939D
:101F00008C01EB018B8181FF1BC082FF0DC02E81F4
:101F10003F818C819D812817390764F4E881F9811C
:101F20000193F983E88306C0E885F985802F199528
:101F3000892B31F48E819F8101969F838E8302C00D
:101F40000FEF1FEFC801DF91CF911F910F910895FF
:101F5000FA01AA27283051F1203181F1E8946F93DA
:101F60006E7F6E5F7F4F8F4F9F4FAF4FB1E03ED080
:101F7000B4E03CD0670F781F891F9A1FA11D680F1E
:101F8000791F8A1F911DA11D6A0F711D811D911D51
:101F9000A11D20D009F468943F912AE0269F1124C6
:101FA0003019305D3193DEF6CF010895462F47702A
:101FB000405D4193B3E00FD0C9F7F6CF462F4F7085
:101FC000405D4A3318F0495D31FD4052419302D0E3
:101FD000A9F7EACFB4E0A695979587957795679589
:101FE000BA95C9F700976105710508959B01AC0189
:101FF0000A2E06945795479537952795BA95C9F7B0
:10200000620F731F841F951FA01D08954F925F924A
:102010006F927F928F929F92AF92BF92CF92DF92F8
:10202000EF92FF920F931F93CF93DF93C0E0D0E026
:102030006EC0F201608171818281938120E030E085
:1020400048EC52E40E9426827B018C0120E030E0C3
:1020500040E050E00E94548188234CF0C801B70151
:1020600020E030E040E05FE30E946D7E08C0C801E0
:10207000B70120E030E040E05FE30E946C7E0E9408
:10208000B57FF40171836083F50160817181828184
:10209000938120E030E048EC52E40E9426827B01EC
:1020A0008C0120E030E040E050E00E945481882321
:1020B0004CF0C801B70120E030E040E05FE30E944F
:1020C0006D7E08C0C801B70120E030E040E05FE36A
:1020D0000E946C7E0E94B57FF30171836083089437
:1020E000C11CD11C8CE190E0480E591EEEE0F0E0DE
:1020F0006E0E7F1E8E0E9F1EA80EB91EF7E0CF1625
:10210000D10409F096CF2196C730D10519F19E016F
:10211000220F331F220F331F08EB402E05E0502EF5
:10212000420E531ECE01880F991FB2E16B2EB5E00F
:102130007B2E680E791EA0EB8A2EA4E09A2E880EC4
:10214000991EFCE7AF2EF6E0BF2EA20EB31ECC24E4
:10215000DD246FCFDF91CF911F910F91FF90EF9012
:10216000DF90CF90BF90AF909F908F907F906F90B7
:102170005F904F9008958F929F92AF92BF92CF92AF
:10218000DF92EF92FF920F931F93CF93DF93C0E004
:10219000D0E03DC0F40160817181882777FD809592
:1021A000982F0E94E87F20E030E048EC52E40E9443
:1021B0004D7FF5016083718382839383F601608193
:1021C0007181882777FD8095982F0E94E87F20E015
:1021D00030E048EC52E40E944D7FF7016083718348
:1021E000828393830F5F1F4F8EE090E0880E991ECD
:1021F000ECE1F0E0AE0EBF1EC80ED91EEE0EFF1EC3
:102200000730110539F62196C730D10519F19E0125
:10221000220F331F70EB872E74E0972E820E931ED1
:10222000CE01880F991F880F991F58EBA52E55E0F6
:10223000B52EA80EB91E42E1C42E45E0D42EC20E22
:10224000D31E2CE7E22E26E0F22EE80EF91E00E067
:1022500010E0A0CFDF91CF911F910F91FF90EF90F1
:10226000DF90CF90BF90AF909F908F9008950F9385
:102270001F93DF93CF93CDB7DEB766970FB6F89471
:10228000DEBF0FBECDBF8091000290910102A091F0
:102290000202B09103028F87988BA98BBA8BFE0143
:1022A0003F9604E610E08081F999FECF1FBA12BD77
:1022B00001BD80BD0FB6F894FA9AF99A0FBE0F5F70
:1022C0001F4F0836110511F03196EDCFEFEAF9E016
:1022D0008081F999FECF1FBA12BD01BD80BD0FB636
:1022E000F894FA9AF99A0FBE0F5F1F4F083711053D
:1022F00011F03196EDCFEFE9F9E08081F999FECF49
:102300001FBA12BD01BD80BD0FB6F894FA9AF99AB2
:102310000FBE0F5F1F4F0838110511F03196EDCF3A
:10232000EFEBF9E08081F999FECF1FBA12BD01BD34
:1023300080BD0FB6F894FA9AF99A0FBE0F5F1F4F3F
:102340000839110511F03196EDCFE3EDF9E0808108
:10235000F999FECF1FBA12BD01BD80BD0FB6F8942A
:10236000FA9AF99A0FBE0F5F1F4F0C39110511F041
:102370003196EDCFE7EDF9E08081F999FECF1FBAF4
:1023800012BD01BD80BD0FB6F894FA9AF99A0FBE3E
:102390000F5F1F4F003A110511F03196EDCFEFECB2
:1023A000F9E08081F999FECF1FBA12BD01BD80BD51
:1023B0000FB6F894FA9AF99A0FBE0F5F1F4F043ABE
:1023C000110511F03196EDCFE7EEF9E08081F99932
:1023D000FECF1FBA12BD01BD80BD0FB6F894FA9AA8
:1023E000F99A0FBE0F5F1F4F083A110511F0319691
:1023F000EDCFEBE9F9E08081F999FECF1FBA12BD6C
:1024000001BD80BD0FB6F894FA9AF99A0FBE0F5F1E
:102410001F4F0C3A110511F03196EDCFEBEDF9E0BD
:102420008081F999FECF1FBA12BD01BD80BD0FB6E4
:10243000F894FA9AF99A0FBE0F5F1F4F003B1105EF
:1024400011F03196EDCFEFEDF9E08081F999FECFF3
:102450001FBA12BD01BD80BD0FB6F894FA9AF99A61
:102460000FBE0F5F1F4F043B110511F03196EDCFEA
:10247000E3EEF9E08081F999FECF1FBA12BD01BDEC
:1024800080BD0FB6F894FA9AF99A0FBE0F5F1F4FEE
:10249000083B110511F03196EDCFEAE8F5E08081B7
:1024A000F999FECF1FBA12BD01BD80BD0FB6F894D9
:1024B000FA9AF99A0FBE0F5F1F4F043C110511F0F5
:1024C0003196EDCFE6E9F5E08081F999FECF1FBAAC
:1024D00012BD01BD80BD0FB6F894FA9AF99A0FBEED
:1024E0000F5F1F4F003D110511F03196EDCF84EBCA
:1024F00090E09A83898386E490E09C838B832FEF1E
:1025000030E03E832D8380EF90E098878F8384E6D0
:1025100090E09A8789873C872B87FE0131968081DE
:10252000F999FECF1FBA12BD01BD80BD0FB6F89458
:10253000FA9AF99A0FBE0F5F1F4F023D110571F70E
:10254000FE0133968081F999FECF1FBA12BD01BDFD
:1025500080BD0FB6F894FA9AF99A0FBE0F5F1F4F1D
:10256000043D110511F03196EDCFFE0135968081C5
:10257000F999FECF1FBA12BD01BD80BD0FB6F89408
:10258000FA9AF99A0FBE0F5F1F4F063D110511F021
:102590003196EDCFFE0137968081F999FECF1FBAB3
:1025A00012BD01BD80BD0FB6F894FA9AF99A0FBE1C
:1025B0000F5F1F4F083D110511F03196EDCFFE0161
:1025C00039968081F999FECF1FBA12BD01BD80BD39
:1025D0000FB6F894FA9AF99A0FBE0F5F1F4F0A3D93
:1025E000110511F03196EDCFFE013B968081F999EE
:1025F000FECF1FBA12BD01BD80BD0FB6F894FA9A86
:10260000F99A0FBE0F5F1F4F0C3D110511F0319667
:10261000EDCFE5EAF5E08081F999FECF1FBA12BD52
:1026200001BD80BD0FB6F894FA9AF99A0FBE0F5FFC
:102630001F4F003E110511F03196EDCFE7E0F4E0B9
:102640008081F999FECF1FBA12BD01BD80BD0FB6C2
:10265000F894FA9AF99A0FBE0F5F1F4F043E1105C6
:1026600011F03196EDCFEBE0F4E08081F999FECFE7
:102670001FBA12BD01BD80BD0FB6F894FA9AF99A3F
:102680000FBE0F5F1F4F083E110511F03196EDCFC1
:10269000EFE0F4E08081F999FECF1FBA12BD01BDD1
:1026A00080BD0FB6F894FA9AF99A0FBE0F5F1F4FCC
:1026B0000C3E110511F03196EDCF80E290E09E873F
:1026C0008D87FE013D968081F999FECF1FBA12BD1C
:1026D00001BD80BD0FB6F894FA9AF99A0FBE0F5F4C
:1026E0001F4F0E3E110511F03196EDCF8FDCE0EB60
:1026F000F4E08081F999FECF1FBA12BD01BD80BD03
:102700000FB6F894FA9AF99A0FBE0F5F1F4F81E047
:102710000035180711F03196ECCFE2E1F5E0808149
:10272000F999FECF1FBA12BD01BD80BD0FB6F89456
:10273000FA9AF99A0FBE0F5F1F4F81E0023B18070C
:1027400011F03196ECCFE1EBF3E08081F999FECF07
:102750001FBA12BD01BD80BD0FB6F894FA9AF99A5E
:102760000FBE81E0053C180721F00F5F1F4F319627
:10277000ECCF8091040290910502A0910602B091E5
:1027800007028B8B9C8BAD8BBE8BFE01739684E610
:1027900090E02081F999FECF1FBA92BD81BD20BD86
:1027A0000FB6F894FA9AF99A0FBE8736910519F088
:1027B00001963196EECFEFE2F1E0949108C080915E
:1027C000C00085FFFCCF9093C60031969491992369
:1027D000B1F7ECE8F3E0949108C08091C00085FF68
:1027E000FCCF9093C600319694919923B1F78091D4
:1027F000C00085FFFCCF8AE08093C60066960FB6C6
:10280000F894DEBF0FBECDBFCF91DF911F910F9126
:102810000895EF92FF920F931F93DF93CF93CDB75D
:10282000DEB7E0970FB6F894DEBF0FBECDBFDE0176
:102830001196E1E5F4E080E101900D928150E1F71D
:10284000DE015196E1E4F4E080E101900D928150C7
:10285000E1F7DE019196E1E3F4E080E101900D9271
:102860008150E1F789819A81AB81BC818093AF0966
:102870009093B009A093B109B093B20989899A895C
:10288000AB89BC8980939F099093A009A093A1096B
:10289000B093A20989A19AA1ABA1BCA18093BF0961
:1028A0009093C009A093C109B093C2098D819E8104
:1028B000AF81B8858093B3099093B409A093B5090B
:1028C000B093B6098D899E89AF89B88D8093A3098D
:1028D0009093A409A093A509B093A6098DA19EA1E8
:1028E000AFA1B8A58093C3099093C409A093C5096B
:1028F000B093C60989859A85AB85BC858093B70955
:102900009093B809A093B909B093BA09898D9A8DAB
:10291000AB8DBC8D8093A7099093A809A093A909BA
:10292000B093AA0989A59AA5ABA5BCA58093C709B0
:102930009093C809A093C909B093CA098D859E8553
:10294000AF85B8898093BB099093BC09A093BD095A
:10295000B093BE098D8D9E8DAF8DB8A18093AB09CC
:102960009093AC09A093AD09B093AE098DA59EA537
:10297000AFA5B8A98093CB099093CC09A093CD09BA
:10298000B093CE090E94C95080E090E0AAEFB3E472
:102990008093D3099093D409A093D509B093D60915
:1029A00080E090E8ABE3B5E48093D7099093D80931
:1029B000A093D909B093DA0920E030E040E050E07C
:1029C0002093CF093093D0094093D1095093D20975
:1029D00080E29EE4A0E0B0E080939B0990939C0984
:1029E000A0939D09B0939E092093E7093093E809CD
:1029F0004093E9095093EA0980E090E0A0EAB1E44D
:102A00008093DB099093DC09A093DD09B093DE0984
:102A10008093DF099093E009A093E109B093E20964
:102A20008093E3099093E409A093E509B093E60944
:102A30002093920530939305409394055093950508
:102A400020938E0530938F05409390055093910508
:102A500020938A0530938B0540938C0550938D0508
:102A600020939E0530939F054093A0055093A105A8
:102A700020939A0530939B0540939C0550939D05A8
:102A800020939605309397054093980550939905A8
:102A900080E090E0A0E0BFE38093A5059093A605B9
:102AA000A093A705B093A80587ED93EAA4E4B1E449
:102AB0008093070490930804A0930904B0930A0438
:102AC00061EE7AE784E59FE30E941C6C60930B043F
:102AD00070930C0480930D0490930E046EEA77E4D7
:102AE00085E392E40E94286C60930F0470931004B5
:102AF00080931104909312040E94256B80E090E073
:102B0000A0E8BFE38093130490931404A0931504EA
:102B1000B093160420E030E00F2EF0E0EF2EF0E04E
:102B2000FF2EF0E20F2FF2E41F2FF02D40E050E0D7
:102B300060E07FEB19C0ED92FD920D931C9313970B
:102B4000408351836283738301965C967C968730C1
:102B5000910589F72F5F3F4F2730310529F4EDE1CB
:102B6000F4E021EB33E018C0C901880F991F880FEA
:102B7000991FDC01A854BA4FFC01E458F94F80E0DA
:102B800090E0D9CF4191519161917191D9014D93CB
:102B90005D936D937D939D01B4E0E533FB0791F761
:102BA000EFE2F1E0949108C08091C00085FFFCCF76
:102BB0009093C600319694919923B1F7E5E3F1E043
:102BC000949108C08091C00085FFFCCF9093C6000F
:102BD000319694919923B1F78091C00085FFFCCF85
:102BE0008AE08093C600E0960FB6F894DEBF0FBE71
:102BF000CDBFCF91DF911F910F91FF90EF9008957E
:102C0000CF93DF93CFE2D1E0FE01949108C0809191
:102C1000C00085FFFCCF9093C60031969491992314
:102C2000B1F7ECE7F3E0949108C08091C00085FF14
:102C3000FCCF9093C600319694919923B1F780917F
:102C4000C00085FFFCCF8AE08093C600FE0194910E
:102C5000EFE2F1E008C08091C00085FFFCCF9093C7
:102C6000C600319694919923B1F74091AF095091E4
:102C7000B0096091B1097091B20984E793E00E94B4
:102C8000362B4091B3095091B4096091B509709108
:102C9000B60981E793E00E94362B4091B709509125
:102CA000B8096091B9097091BA098EE693E00E9463
:102CB000362B4091BB095091BC096091BD097091C0
:102CC000BE098BE693E00E94362BE8E0F2E007C0F5
:102CD0008091C00085FFFCCF31969093C600908113
:102CE0009923B1F78091C00085FFFCCF8AE08093E3
:102CF000C600FE019491EFE2F1E008C08091C000AF
:102D000085FFFCCF9093C600319694919923B1F73B
:102D1000E1E5F3E0949108C08091C00085FFFCCF0D
:102D20009093C600319694919923B1F78091C00099
:102D300085FFFCCF8AE08093C600FE019491EFE20C
:102D4000F1E008C08091C00085FFFCCF9093C600E1
:102D5000319694919923B1F740919F095091A00920
:102D60006091A1097091A20988E493E00E94362B3A
:102D70004091A3095091A4096091A5097091A609F9
:102D800085E493E00E94362B4091A7095091A80951
:102D90006091A9097091AA0982E493E00E94362B00
:102DA0004091AB095091AC096091AD097091AE09A9
:102DB0008FE393E00E94362BE8E0F2E007C08091B9
:102DC000C00085FFFCCF31969093C6009081992377
:102DD000B1F78091C00085FFFCCF8AE08093C600E8
:102DE000FE019491EFE2F1E008C08091C00085FF00
:102DF000FCCF9093C600319694919923B1F7E1E20C
:102E0000F3E0949108C08091C00085FFFCCF9093BF
:102E1000C600319694919923B1F78091C00085FF47
:102E2000FCCF8AE08093C600FE019491EFE2F1E0CE
:102E300008C08091C00085FFFCCF9093C6003196FA
:102E400094919923B1F74091BF095091C0096091C5
:102E5000C1097091C20988E193E00E943C2D409124
:102E6000C3095091C4096091C5097091C60985E1F3
:102E700093E00E943C2D4091C7095091C809609190
:102E8000C9097091CA0982E193E00E943C2D4091EA
:102E9000CB095091CC096091CD097091CE098FE09A
:102EA00093E00E943C2DE8E0F2E007C08091C00072
:102EB00085FFFCCF31969093C60090819923B1F79E
:102EC0008091C00085FFFCCF8AE08093C600FE01A0
:102ED0009491EFE2F1E008C08091C00085FFFCCF43
:102EE0009093C600319694919923B1F7EAEDF2E000
:102EF000949108C08091C00085FFFCCF9093C600DC
:102F0000319694919923B1F78091C00085FFFCCF51
:102F10008AE08093C600FE019491EFE2F1E008C0E0
:102F20008091C00085FFFCCF9093C60031969491AC
:102F30009923B1F74091D3095091D4096091D509F3
:102F40007091D60981ED92E00E94362B4091D7090D
:102F50005091D8096091D9097091DA098EEC92E00C
:102F60000E94362BE8E0F2E007C08091C00085FFA8
:102F7000FCCF31969093C60090819923B1F7809150
:102F8000C00085FFFCCF8AE08093C600FE019491CB
:102F9000EFE2F1E008C08091C00085FFFCCF909384
:102FA000C600319694919923B1F7EBE1F2E0949148
:102FB00008C08091C00085FFFCCF9093C600319679
:102FC00094919923B1F78091C00085FFFCCF8AE0EE
:102FD0008093C600FE019491EFE2F1E008C0809179
:102FE000C00085FFFCCF9093C60031969491992341
:102FF000B1F74091CF095091D0096091D1097091FA
:10300000D20982E192E00E94362B4091E70950916B
:10301000E8096091E9097091EA098FE092E00E9465
:10302000362B40919B0950919C0960919D097091AC
:103030009E098CE092E00E943C2D4091DB0950916A
:10304000DC096091DD097091DE0989E092E00E945F
:10305000362B4091DF095091E0096091E1097091B0
:10306000E20986E092E00E94362B4091E3095091FC
:10307000E4096091E5097091E60983E092E00E941D
:10308000362BE8E0F2E007C08091C00085FFFCCF5E
:1030900031969093C60090819923B1F78091C0003A
:1030A00085FFFCCF8AE08093C600FE019491EFE299
:1030B000F1E008C08091C00085FFFCCF9093C6006E
:1030C000319694919923B1F7E1EFF1E0949108C022
:1030D0008091C00085FFFCCF9093C60031969491FB
:1030E0009923B1F78091C00085FFFCCF8AE08093DF
:1030F000C600FE019491EFE2F1E008C08091C000AB
:1031000085FFFCCF9093C600319694919923B1F737
:1031100040918A0550918B0560918C0570918D05C9
:1031200088EE91E00E94362B40918E0550918F05DC
:10313000609190057091910585EE91E00E94362B8B
:103140004091920550919305609194057091950579
:1031500082EE91E00E94362BE8E0F2E007C0809119
:10316000C00085FFFCCF31969093C60090819923D3
:10317000B1F78091C00085FFFCCF8AE08093C60044
:10318000FE019491EFE2F1E008C08091C00085FF5C
:10319000FCCF9093C600319694919923B1F7E8EC57
:1031A000F1E0949108C08091C00085FFFCCF90931E
:1031B000C600319694919923B1F78091C00085FFA4
:1031C000FCCF8AE08093C600FE019491EFE2F1E02B
:1031D00008C08091C00085FFFCCF9093C600319657
:1031E00094919923B1F7409196055091970560917C
:1031F0009805709199058FEB91E00E94362B4091D4
:103200009A0550919B0560919C0570919D058CEBF2
:1032100091E00E94362B40919E0550919F05609150
:10322000A0057091A10589EB91E00E94362BE8E0A2
:10323000F2E007C08091C00085FFFCCF31969093EB
:10324000C60090819923B1F78091C00085FFFCCF23
:103250008AE08093C600FE019491EFE2F1E008C09D
:103260008091C00085FFFCCF9093C6003196949169
:103270009923B1F7EBEAF1E0949108C08091C00086
:1032800085FFFCCF9093C600319694919923B1F7B6
:103290008091C00085FFFCCF8AE08093C600FE01CC
:1032A0009491EFE2F1E008C08091C00085FFFCCF6F
:1032B0009093C600319694919923B1F740910704F9
:1032C000509108046091090470910A0482EA91E027
:1032D0000E94362B60910B0470910C0480910D04B8
:1032E00090910E040E94226CAB01BC018FE991E029
:1032F0000E94362B60910F0470911004809111048C
:10330000909112040E942E6CAB01BC018CE991E0FB
:103310000E94362BE8E0F2E007C08091C00085FFF4
:10332000FCCF31969093C60090819923B1F780919C
:10333000C00085FFFCCF8AE08093C600FE01949117
:10334000EFE2F1E008C08091C00085FFFCCF9093D0
:10335000C600319694919923B1F7E6E8F1E0949193
:1033600008C08091C00085FFFCCF9093C6003196C5
:1033700094919923B1F78091C00085FFFCCF8AE03A
:103380008093C600FE019491EFE2F1E008C08091C5
:10339000C00085FFFCCF9093C6003196949199238D
:1033A000B1F74091B1035091B2036091B3037091B2
:1033B000B4038DE791E00E94362B4091B503509104
:1033C000B6036091B7037091B8038AE791E00E9459
:1033D000362B4091B9035091BA036091BB037091B1
:1033E000BC0387E791E00E94362B4091BD035091CA
:1033F000BE036091BF037091C00384E791E00E9417
:10340000362B4091C1035091C2036091C303709168
:10341000C40381E791E00E94362BE8E0F2E007C0A8
:103420008091C00085FFFCCF31969093C6009081BB
:103430009923B1F78091C00085FFFCCF8AE080938B
:10344000C600DF91CF9108950F931F93DF93CF9321
:10345000CDB7DEB766970FB6F894DEBF0FBECDBF0F
:103460008091040290910502A0910602B09107029A
:103470008B8B9C8BAD8BBE8BFE013F9604E610E0E0
:10348000F999FECF12BD01BDF89A80B580830F5F18
:103490001F4F0836110511F03196F2CFCE01439639
:1034A000BE01615F7F4F43E050E00E94650D0097D1
:1034B00009F0DBC1EFEAF9E0F999FECF12BD01BDD9
:1034C000F89A80B580830F5F1F4F0837110511F000
:1034D0003196F2CFEFE9F9E0F999FECF12BD01BDC7
:1034E000F89A80B580830F5F1F4F0838110511F0DF
:1034F0003196F2CFEFEBF9E0F999FECF12BD01BDA5
:10350000F89A80B580830F5F1F4F0839110511F0BD
:103510003196F2CF0E94C950E3EDF9E0F999FECF60
:1035200012BD01BDF89A80B580830F5F1F4F0C3923
:10353000110511F03196F2CFE7EDF9E0F999FECFE0
:1035400012BD01BDF89A80B580830F5F1F4F003A0E
:10355000110511F03196F2CFEFECF9E0F999FECFB9
:1035600012BD01BDF89A80B580830F5F1F4F043AEA
:10357000110511F03196F2CFE7EEF9E0F999FECF9F
:1035800012BD01BDF89A80B580830F5F1F4F083AC6
:10359000110511F03196F2CFEBE9F9E0F999FECF80
:1035A00012BD01BDF89A80B580830F5F1F4F0C3AA2
:1035B000110511F03196F2CFEBEDF9E0F999FECF5C
:1035C00012BD01BDF89A80B580830F5F1F4F003B8D
:1035D000110511F03196F2CFEFEDF9E0F999FECF38
:1035E00012BD01BDF89A80B580830F5F1F4F043B69
:1035F000110511F03196F2CFE3EEF9E0F999FECF23
:1036000012BD01BDF89A80B580830F5F1F4F083B44
:10361000110511F03196F2CFEAE8F5E0F999FECF05
:1036200012BD01BDF89A80B580830F5F1F4F043C27
:10363000110511F03196F2CFE6E9F5E0F999FECFE8
:1036400012BD01BDF89A80B580830F5F1F4F003D0A
:10365000110511F03196F2CFFE013196F999FECFA6
:1036600012BD01BDF89A80B580830F5F1F4F023DE8
:10367000110599F7FE013396F999FECF12BD01BDF0
:10368000F89A80B580830F5F1F4F043D110511F03C
:103690003196F2CFFE013596F999FECF12BD01BDEC
:1036A000F89A80B580830F5F1F4F063D110511F01A
:1036B0003196F2CFFE013796F999FECF12BD01BDCA
:1036C000F89A80B580830F5F1F4F083D110511F0F8
:1036D0003196F2CFFE013996F999FECF12BD01BDA8
:1036E000F89A80B580830F5F1F4F0A3D110511F0D6
:1036F0003196F2CFFE013B96F999FECF12BD01BD86
:10370000F89A80B580830F5F1F4F0C3D110511F0B3
:103710003196F2CFE5EAF5E0F999FECF12BD01BD91
:10372000F89A80B580830F5F1F4F003E110511F09E
:103730003196F2CFE7E0F4E0F999FECF12BD01BD7A
:10374000F89A80B580830F5F1F4F043E110511F07A
:103750003196F2CFEBE0F4E0F999FECF12BD01BD56
:10376000F89A80B580830F5F1F4F083E110511F056
:103770003196F2CFEFE0F4E0F999FECF12BD01BD32
:10378000F89A80B580830F5F1F4F0C3E110511F032
:103790003196F2CFFE013D96F999FECF12BD01BDE3
:1037A000F89A80B580830F5F1F4F0E3E110511F010
:1037B0003196F2CFE0EBF4E0F999FECF12BD01BDF6
:1037C000F89A80B580830F5F1F4F81E0003518079E
:1037D00011F03196F1CFE2E1F5E0F999FECF12BD9B
:1037E00001BDF89A80B580830F5F1F4F81E0023BD7
:1037F000180711F03196F1CF0E94BB10E1EBF3E016
:10380000F999FECF12BD01BDF89A80B5808381E0A1
:10381000053C180721F00F5F1F4F3196F1CF0E9432
:10382000256BEFE2F1E0949108C08091C00085FF24
:10383000FCCF9093C600319694919923B1F7E7E5B8
:10384000F1E0949108C08091C00085FFFCCF909377
:10385000C600319694919923B1F78091C00085FFFD
:10386000FCCF8AE08093C60002C00E940914C8D928
:1038700066960FB6F894DEBF0FBECDBFCF91DF9135
:103880001F910F910895EF92FF920F931F93282F8E
:10389000F62EE42E0CE41EE1C801622F0E946D7822
:1038A000C8016F2D0E94EE78C8016E2D0E94EE783F
:1038B000C8010E942F791F910F91FF90EF900895FA
:1038C000BF92CF92DF92EF92FF920F931F93DF93FD
:1038D000CF9300D00F92CDB7DEB76C017A018B0188
:1038E000CB01BA0120E030E040E050E00E9454817A
:1038F0001816ACF4C801B70120E030E040E250E413
:103900000E94467F87FD15C00F2EF0E0EF2EF0E0FD
:10391000FF2EF0E20F2FF0E41F2FF02D0AC00F2E24
:10392000F0E0EF2EF0E0FF2EF0E00F2FF0E01F2F81
:10393000F02DF601EE0FFF1FEE0FFF1FEF54FC4FAF
:10394000E082F1820283138384E0C816D1041CF460
:103950009CE2B92E06C0ECEFFFEFCE0EDF1E8EE22A
:10396000B82E8B2D60E44FEF8EDF8B2D60EA4FEF8A
:103970008ADF198280E18A8380E68B8380E78C83EB
:10398000C801B70126E636E645ED52E40E942682DC
:103990000E94337F9E012F5F3F4FC20ED31E0E94B5
:1039A000BA7F9B01AC018B2DF6016081422F6BDF4A
:1039B0000F900F900F900F90CF91DF911F910F916B
:1039C000FF90EF90DF90CF90BF9008950F931F93DB
:1039D000CF93DF938CE49EE10E94317901EB13E0F9
:1039E000C0E0D0E0F80141915191619171918F0156
:1039F000CE0166DF2196C630D105A1F7DF91CF91C8
:103A00001F910F9108952F923F924F925F926F9264
:103A10007F928F929F92AF92BF92CF92DF92EF925E
:103A2000FF920F931F93DF93CF9300D00F92CDB7E8
:103A3000DEB79C838B837A8369838A0139014C01C9
:103A4000E3E0880C991CEA95E1F7881A990AFB01D2
:103A5000E80DF91DEE0FFF1FEE0FFF1FE854FA4FA0
:103A6000608171818281938120E030E040E050E00C
:103A70000E94467F882309F0EAC08B819C81800FD9
:103A8000911F6801CC0CDD1C2B813C81C20ED31E22
:103A90007C0153E0EE0CFF1C5A95E1F7E81AF90A95
:103AA000E981FA81EE0DFF1DEE0FFF1FEE0FFF1FE4
:103AB000E854FA4F2081318142815381CA01B90112
:103AC0000E946D7E860133E0000F111F3A95E1F7E9
:103AD0000C191D09E981FA81E00FF11FEE0FFF1F9C
:103AE000EE0FFF1FE854FA4F20813181428153814C
:103AF0000E946C7E1B012C01A980BA80A60CB71C09
:103B00006301CC0CDD1C89819A81C80ED91EF40199
:103B1000EA0DFB1DEE0FFF1FEE0FFF1FE854FA4FDB
:103B20002081318142815381CA01B9010E946D7E99
:103B3000F401EC0DFD1DEE0FFF1FEE0FFF1FE8540B
:103B4000FA4F20813181428153810E946C7E3B017A
:103B50004C01EA0CFB1CEE0CFF1CEE0CFF1CA8EB4E
:103B6000B5E0EA0EFB1EF7012081318142815381CD
:103B7000CA01B9010E946D7E0C0D1D1D000F111FA1
:103B8000000F111F08541A4FD8012D913D914D91EE
:103B90005C910E946C7E7B018C01C201B101A40189
:103BA00093010E94467F8823B4F4C401B301A801A5
:103BB00097010E94467F88232CF4B62CD72CA82C82
:103BC000C92C04C0BE2CDF2CA02EC12EC801B70109
:103BD000A201910115C0C801B701A40193010E947F
:103BE000467F88232CF4B62CD72CA82CC92C04C0D3
:103BF000BE2CDF2CA02EC12EC201B101A80197015D
:103C00000E94467F882324F4B22CD32CA42CC52CEC
:103C1000EB81FC8143E0EE0FFF1F4A95E1F72B811A
:103C20003C81E21BF30B89819A81E80FF91FEE0FAB
:103C3000FF1FEE0FFF1FE854FA4F2B2D3D2D4A2D8D
:103C40005C2DC901DA0180839183A283B3830F9035
:103C50000F900F900F90CF91DF911F910F91FF90D8
:103C6000EF90DF90CF90BF90AF909F908F907F901C
:103C70006F905F904F903F902F900895EF92FF923A
:103C80000F931F93CF93DF93EC01E0909903F09093
:103C90009A0300919B0310919C03688179818A812A
:103CA0009B81A80197010E94467F882324F4E88223
:103CB000F9820A831B83E0909D03F0909E0300919C
:103CC0009F031091A0036C817D818E819F81A8014B
:103CD00097010E94467F882324F4EC82FD820E83A4
:103CE0001F83E090A103F090A2030091A303109121
:103CF000A403688579858A859B85A80197010E9420
:103D0000467F882324F4E886F9860A871B87E0909B
:103D1000A503F090A6030091A7031091A803688162
:103D200079818A819B81A80197010E94548118168C
:103D300024F4E882F9820A831B83E090A903F090BF
:103D4000AA030091AB031091AC036C817D818E813D
:103D50009F81A80197010E945481181624F4EC82D7
:103D6000FD820E831F83E090AD03F090AE030091BF
:103D7000AF031091B003688579858A859B85A8017A
:103D800097010E945481181624F4E886F9860A8760
:103D90001B87DF91CF911F910F91FF90EF900895B6
:103DA00080914A0708950E94F86B80914A07882302
:103DB00009F036C081E080934A0780914D079091C9
:103DC0004E07A0914F07B0915007809351079093F1
:103DD0005207A0935307B0935407E2EAF3E094919B
:103DE00008C08091C00085FFFCCF9093C60031963B
:103DF00094919923B1F7E9EAF3E0949108C0809196
:103E0000C00085FFFCCF9093C60031969491992312
:103E1000B1F78091C00085FFFCCF8AE08093C60097
:103E20000895F8940E94F86B5F9A1092A2058A9AFE
:103E30001092A3058FB7F894909108019160909328
:103E400008018FBF1092A405129A8CE060E00E94D6
:103E50004A7DE2EAF3E0949108C08091C00085FFBA
:103E6000FCCF9093C600319694919923B1F7EFE17E
:103E7000F4E0949108C08091C00085FFFCCF90933E
:103E8000C600319694919923B1F78091C00085FFC7
:103E9000FCCF8AE08093C600FFCF0E94A37B609393
:103EA0005507709356078093570790935807EEE392
:103EB000F4E0949108C08091C00085FFFCCF9093FE
:103EC000C600319694919923B1F78091C00085FF87
:103ED000FCCF8AE08093C6000895EF92FF920F9383
:103EE0001F930E94A37BE0905907F0905A0700911E
:103EF0005B0710915C072091550730915607409160
:103F0000570750915807621B730B840B950BE616ED
:103F1000F7060807190730F4E114F104010511054B
:103F200009F07FDF8091C6039091C703A091C80379
:103F3000B091C9030097A105B10591F10E94A37B3F
:103F400020915507309156074091570750915807D7
:103F5000621B730B840B950B2091C6033091C70332
:103F60004091C8035091C9032617370748075907DE
:103F7000B8F490914C1D80914D1D981789F45F9A6B
:103F80001092A2058A9A1092A3059FB7F894809187
:103F900008018160809308019FBF1092A405129AC6
:103FA0000E947E531F910F91FF90EF9008956F92A2
:103FB0007F928F929F92AF92BF92CF92DF92EF92B9
:103FC000FF920F931F93F82E60915D0770915E072B
:103FD00080915F079091600720916107309162079F
:103FE00040916307509164070E9461813B014C013D
:103FF00000D000D00DB71EB70F5F1F4F6091910327
:1040000070919203882777FD8095982F0E94E87F12
:104010002091CA033091CB034091CC035091CD0342
:104020000E94268220E030E040E752E40E944D7F6B
:1040300020E030E048EC52E40E944D7F5B016C01CF
:10404000F8016082718282829382F4828091A90554
:1040500085838AE795E069E677E04DE557E020E063
:1040600001E0F2E0EF2E0E940B4C809169079091E5
:104070006A07A0916B07B0916C0780937A059093C3
:104080007B05A0937C05B0937D0580916D07909191
:104090006E07A0916F07B091700780937E05909393
:1040A0007F05A0938005B093810580917107909161
:1040B0007207A0917307B091740780938205909363
:1040C0008305A0938405B093850580917507909131
:1040D0007607A0917707B091780780938605909333
:1040E0008705A0938805B09389058DB79EB706967E
:1040F0000FB6F8949EBF0FBE8DBF0E94A37B609346
:1041000055077093560780935707909358071F9150
:104110000F91FF90EF90DF90CF90BF90AF909F9066
:104120008F907F906F9008958F929F92AF92BF92E1
:10413000CF92DF92EF92FF920F931F934C016AECA4
:1041400074E08DEB92ECF401208131814281538146
:104150000E946C7E7B018C0160E972E48AE592EC3E
:10416000F40124813581468157810E946C7E5B0178
:104170006C01C801B701A80197010E9426829B012A
:10418000AC0160E878E289E897E40E946C7E7B01EC
:104190008C01C601B501A60195010E9426829B01F2
:1041A000AC01C801B7010E946C7E0E949382F401A9
:1041B00020853185428553850E946D7E6093AC05D4
:1041C0007093AD058093AE059093AF056AEC74E0F3
:1041D0008DEB92E4F40120813181428153810E9470
:1041E0006C7E7B018C0160E972E48AE592ECF4015B
:1041F00024813581468157810E946C7E5B016C0170
:10420000C801B701A80197010E9426829B01AC0159
:1042100060E878E289E897E40E946C7E7B018C017B
:10422000C601B501A60195010E9426829B01AC0141
:10423000C801B7010E946C7E0E949382F401208520
:104240003185428553850E946D7E6093B0057093E1
:10425000B1058093B2059093B30560E070E080E013
:1042600090E0F40120813181428153810E946C7E73
:104270007B018C0160E972E48AED92E4F40124810F
:104280003581468157810E946C7E5B016C01C801BB
:10429000B701A80197010E9426829B01AC0160E84A
:1042A00078E289E897E40E946C7E7B018C01C6016C
:1042B000B501A60195010E9426829B01AC01C801AF
:1042C000B7010E946C7E0E949382F40120853185A3
:1042D000428553850E946D7E6093B4057093B50549
:1042E0008093B6059093B7051F910F91FF90EF90C3
:1042F000DF90CF90BF90AF909F908F9008952F92B6
:104300003F924F925F926F927F928F929F92AF9265
:10431000BF92CF92DF92EF92FF920F931F93DF93A2
:10432000CF9300D00F92CDB7DEB70E94A37B6093EE
:104330005507709356078093570790935807A9E63F
:10434000CA2EA7E0DA2EC601EFDE0F920F922DB62D
:104350003EB60894211C311C4090AC055090AD0530
:104360006090AE057090AF058091B0059091B10559
:10437000A091B205B091B30589839A83AB83BC83C6
:10438000E090B405F090B5050091B6051091B70521
:10439000ACE0B0E0CA0EDB1E609191037091920315
:1043A000882777FD8095982F0E94E87F2091CA0387
:1043B0003091CB034091CC035091CD030E942682D3
:1043C00020E030E040E752E40E944D7F20E030E002
:1043D00048EC52E40E944D7F4B015C0189EA95E074
:1043E000F10191838083C301B20129813A814B811C
:1043F0005C810E945F568091690790916A07A09145
:104400006B07B0916C0780937A0590937B05A0931E
:104410007C05B0937D0580916D0790916E07A0910A
:104420006F07B091700780937E0590937F05A093EE
:104430008005B09381058091710790917207A091DA
:104440007307B09174078093820590938305A093BE
:104450008405B09385058091750790917607A091AA
:104460007707B09178078093860590938705A0938E
:104470008805B09389050F900F900F900F900F90C3
:104480000F90CF91DF911F910F91FF90EF90DF90F0
:10449000CF90BF90AF909F908F907F906F905F90E4
:1044A0004F903F902F9008952F923F924F925F929E
:1044B0006F927F928F929F92AF92BF92CF92DF9234
:1044C000EF92FF920F931F93DF93CF93CDB7DEB799
:1044D00064970FB6F894DEBF0FBECDBF8C01DC0130
:1044E0006D917D918D919C9120E030E040E252E40D
:1044F0000E944D7F69837A838B839C832EE93FEEF4
:104500004FE350E40E94548118168CF069817A813F
:104510008B819C812EE93FEE4FE350EC0E94467F59
:1045200088236CF48EE99FEEAFE3B0EC04C08EE913
:104530009FEEAFE3B0E489839A83AB83BC83D80159
:1045400014966D917D918D919C91179720E030E0AC
:1045500040E252E40E944D7F2B013C012EE93FEEE8
:104560004FE350E40E9454811816ACF0C301B2012D
:104570002EE93FEE4FE350EC0E94467F8823ACF4D7
:104580000F2EFEE94F2EFFEE5F2EFFE36F2EF0ECB5
:104590007F2EF02D0AC00F2EFEE94F2EFFEE5F2E6C
:1045A000FFE36F2EF0E47F2EF02D69817A818B81FD
:1045B0009C810E9423800E94B57F6B017C01C30116
:1045C000B2010E9423800E94B57F4B015C01B601BD
:1045D000882777FD8095982F0E94E87F9B01AC018A
:1045E00069817A818B819C810E946C7E6D837E8340
:1045F0008F839887B401882777FD8095982F0E9434
:10460000E87F9B01AC01C301B2010E946C7E698707
:104610007A878B879C8763E0462E512C4C0C5D1C5F
:1046200053E0652E712C680C791CE4E0F0E08E0EEE
:104630009F1ECE0EDF1E60E070E080E89FE32985BC
:104640003A854B855C850E946C7E6D877E878F875F
:10465000988B60E070E080E89FE32D813E814F8180
:1046600058850E946C7E698B7A8B8B8B9C8B820128
:1046700043E0000F111F4A95E1F704191509F801ED
:10468000E60DF71DEE0FFF1FEE0FFF1FE854FA4F68
:104690006D857E858F859889208131814281538106
:1046A0000E9426821B012C01080D191D000F111FED
:1046B000000F111F08541A4F69857A858B859C85D8
:1046C000D8012D913D914D915C910E9426829B01D4
:1046D000AC01C201B1010E946D7E9B01AC016989F0
:1046E0007A898B899C890E9426821B012C01860174
:1046F00093E0000F111F9A95E1F70C191D09600E48
:10470000711E660C771C660C771CE8EBF5E06E0EEC
:104710007F1E6D857E858F859889D3012D913D9172
:104720004D915C910E9426826B017C01080D191D40
:10473000000F111F000F111F08541A4F69857A8549
:104740008B859C85F80120813181428153810E94B3
:1047500026829B01AC01C701B6010E946D7E9B01C0
:10476000AC016D817E818F8198850E9426829B019C
:10477000AC01C201B1010E946D7E2B013C01209170
:10478000AC053091AD054091AE055091AF050E944A
:104790006D7E7B018C0120E23FE547E054E40E94FE
:1047A0005481181654F40F2EF0E2EF2EFFE5FF2E81
:1047B000F7E00F2FF4E41F2FF02DE092AC05F092FC
:1047C000AD050093AE051093AF05C301B201209172
:1047D000B0053091B1054091B2055091B3050E94EA
:1047E0006D7E7B018C0120E23FE547E054E40E94AE
:1047F0005481181654F40F2EF0E2EF2EFFE5FF2E31
:10480000F7E00F2FF4E41F2FF02DE092B005F092A7
:10481000B1050093B2051093B305C301B201209115
:10482000B4053091B5054091B6055091B7050E9489
:104830006D7E7B018C0120E23FE547E054E40E945D
:104840005481181654F40F2EF0E2EF2EFFE5FF2EE0
:10485000F7E00F2FF4E41F2FF02DE092B405F09253
:10486000B5050093B6051093B70564960FB6F89496
:10487000DEBF0FBECDBFCF91DF911F910F91FF9093
:10488000EF90DF90CF90BF90AF909F908F907F90F0
:104890006F905F904F903F902F9008952F923F928E
:1048A0004F925F926F927F928F929F92AF92BF9240
:1048B000CF92DF92EF92FF920F931F93DF93CF93EC
:1048C000CDB7DEB7A6970FB6F894DEBF0FBECDBF4B
:1048D00089E697E0D3D90E94A37B60935507709334
:1048E00056078093570790935807EE24FF246E01D4
:1048F0000894C11CD11C86010E0D1F1DF701E7593C
:10490000F84FD701A658BA4F608171818281938197
:104910002D913D914D915C910E946C7ED8016D93DB
:104920007D938D939C931397E4E0F0E0EE0EFF1ED1
:10493000F0E1EF16F104F9F689819A81AB81BC812F
:104940008B8F9C8FAD8FBE8F8D819E81AF81B885FF
:104950008F8B988FA98FBA8F89859A85AB85BC85F7
:104960008B8B9C8BAD8BBE8B6B8D7C8D8D8D9E8D43
:104970009B01AC010E9426827B018C016F89788D9E
:10498000898D9A8D9B01AC010E9426829B01AC010E
:10499000C801B7010E946D7E7B018C016B897C8907
:1049A0008D899E899B01AC010E9426829B01AC01EE
:1049B000C801B7010E946D7E0E9493827B018C0129
:1049C0002DEB37E346E855E30E94467F882394F4B5
:1049D000ED84FE840F851889C801B70120E030E01E
:1049E00040E050E00E945481181624F017FB109507
:1049F00017F91095C801B7012DEB37E346E855E3E9
:104A00000E94467F87FD71C1C801B70120E030E8F0
:104A10004BEB55E40E9426822091CA033091CB03D0
:104A20004091CC035091CD030E944D7F7B018C01BE
:104A30006091910370919203882777FD8095982F5C
:104A40000E94E87F9B01AC01C801B7010E944D7F25
:104A500020E030E040E253E40E9426820E94B57FCD
:104A60007A8B698B1616170624F0A1E0B0E0BA8B9A
:104A7000A98BF1E02F2E312C89899A89AA2797FDDD
:104A8000A095BA2F8BA39CA3ADA3BEA3E8C0B10190
:104A9000882777FD8095982F0E94E87F7B018C0105
:104AA0006BA17CA18DA19EA10E94E87F9B01AC011E
:104AB000C801B7010E944D7F7B018C016B8D7C8DFD
:104AC0008D8D9E8DA80197010E9426829B01AC01CD
:104AD00060917A0570917B0580917C0590917D05B0
:104AE0000E946D7E6093690770936A0780936B07DD
:104AF00090936C076F89788D898D9A8DA8019701A5
:104B00000E9426829B01AC0160917E0570917F0519
:104B100080918005909181050E946D7E60936D0764
:104B200070936E0780936F07909370076B897C89F1
:104B30008D899E89A80197010E9426829B01AC0164
:104B4000609182057091830580918405909185051F
:104B50000E946D7E60937107709372078093730754
:104B600090937407C801B7012D853E854F855889FC
:104B70000E9426829B01AC01609186057091870599
:104B800080918805909189050E946D7E60937507DC
:104B900070937607809377079093780789E697E07C
:104BA000C3DA89E697E080DC0F920F92CDB6DEB6CD
:104BB0000894C11CD11C4090AC055090AD0560908C
:104BC000AE057090AF058091B0059091B105A091B0
:104BD000B205B091B3058F8F98A3A9A3BAA3E090B3
:104BE000B405F090B5050091B6051091B705609138
:104BF000910370919203882777FD8095982F0E94EA
:104C0000E87F2091CA033091CB034091CC035091AF
:104C1000CD030E94268220E030E040E752E40E946B
:104C20004D7F20E030E048EC52E40E944D7F4B0184
:104C30005C01E9EAF5E0D601ED93FC93C301B20112
:104C40002F8D38A149A15AA1E5E7CE2EE7E0DE2E4F
:104C50000E945F560894211C311C0F900F90898987
:104C60009A89821593050CF012CF80916907909173
:104C70006A07A0916B07B0916C0780937A059093B7
:104C80007B05A0937C05B0937D0580916D07909185
:104C90006E07A0916F07B091700780937E05909387
:104CA0007F05A0938005B093810580917107909155
:104CB0007207A0917307B091740780938205909357
:104CC0008305A0938405B093850580917507909125
:104CD0007607A0917707B091780780938605909327
:104CE0008705A0938805B0938905A6960FB6F8941A
:104CF000DEBF0FBECDBFCF91DF911F910F91FF900F
:104D0000EF90DF90CF90BF90AF909F908F907F906B
:104D10006F905F904F903F902F9008958AE999E0AF
:104D20000E94454AE1E4F4E0949108C08091C000FB
:104D300085FFFCCF9093C600319694919923B1F7EB
:104D400040914D0750914E0760914F077091500769
:104D50004F5F5F4F6F4F7F4F8AE999E02AE030E065
:104D60000E94034B8091C00085FFFCCF8AE08093B6
:104D7000C60093C88091810390918203A091830320
:104D8000B09184038093CA039093CB03A093CC0388
:104D9000B093CD0380E090E0A0E0B0E0809369079D
:104DA00090936A07A0936B07B0936C0780936D078D
:104DB00090936E07A0936F07B093700780E090E028
:104DC000A0E2B2E48093710790937207A0937307F7
:104DD000B093740794DA0C94CD6380918103909121
:104DE0008203A0918303B09184038093CA039093BC
:104DF000CB03A093CC03B093CD0360918205709157
:104E00008305809184059091850520E030E040EA9B
:104E100051E40E946D7E60937107709372078093D6
:104E20007307909374076BDA80E090E0A0E0B0E045
:104E30008093690790936A07A0936B07B0936C0700
:104E400080936D0790936E07A0936F07B0937007E0
:104E500080E090E0A0E2B2E4809371079093720743
:104E6000A0937307B09374074ADA0C94CD6380E083
:104E70000E94E26280917E0790917F07A091800757
:104E8000B09181078093CA039093CB03A093CC0386
:104E9000B093CD038091780590917905909392031A
:104EA000809391030E94A37B6093550770935607EC
:104EB000809357079093580708952F923F924F92EF
:104EC0005F926F927F928F929F92AF92BF92CF929A
:104ED000DF92EF92FF920F931F93DF93CF93CDB7A3
:104EE000DEB7A0970FB6F894DEBF0FBECDBF9E838E
:104EF0008D838330910508F0D4C2FC01E753FA4F4B
:104F0000B490880F991F880F991F98A38F8FBAE7C5
:104F10002B2EB5E03B2E280E391E20E030E040E07D
:104F200050E0D1012D933D934D935C931397609185
:104F30007A0570917B0580917C0590917D0520918B
:104F40007E0530917F054091800550918105E0906C
:104F50008205F09083050091840510918505A6E8EF
:104F6000CA2EA5E0DA2E0E94115120E030E040E088
:104F700050E0D1012D933D934D935C931397609135
:104F80007A0570917B0580917C0590917D0520913B
:104F90007E0530917F054091800550918105E0901C
:104FA0008205F090830500918405109185050E948B
:104FB0001151EF8DF8A1E453FA4FE590F59005916A
:104FC00014916B2D772767FD7095882777FD809565
:104FD000982F0E94E87F69837A838B839C83EF8D6F
:104FE000F8A1E759F84FF887EF83C801B70120E02F
:104FF00030E040EC5FE30E94268229813A814B81B8
:105000005C810E942682AF81B8856D937D938D93DC
:105010009C931397EF8DF8A1EF57FC4FFA87E98720
:1050200060817181828193816093CA037093CB0305
:105030008093CC039093CD030F920F92CDB6DEB642
:105040000894C11CD11C4090690750906A07609079
:105050006B0770906C0720916D0730916E0740913F
:105060006F07509170072B873C874D875E87E090D4
:105070007107F0907207009173071091740720E098
:1050800030E040E752E40E944D7F4B015C01E9EAC9
:10509000F5E0D601ED93FC93C301B2012B853C856D
:1050A0004D855E85F5E7CF2EF7E0DF2E0E945F5637
:1050B0000F900F900E94CD6380E00E94E26220E09A
:1050C00030E040E050E0D1012D933D934D935C934F
:1050D000139760917A0570917B0580917C05909182
:1050E0007D0520917E0530917F054091800550918E
:1050F0008105E0908205F090830500918405109170
:105100008505E6E8CE2EE5E0DE2E0E941151EF8DFA
:10511000F8A1E852FA4F4590559065907490C301FC
:10512000B201905829813A814B815C810E9426828C
:10513000EF81F88560837183828393830F920F924E
:10514000CDB6DEB60894C11CD11C20916907309100
:105150006A0740916B0750916C072F87388B498BFA
:105160005A8B80916D0790916E07A0916F07B09157
:1051700070078B8B9C8BAD8BBE8BE0907107F09092
:10518000720700917307109174076091CA037091C0
:10519000CB038091CC039091CD0320E030E040E739
:1051A00052E40E944D7F4B015C01E9EAF5E0D60133
:1051B000ED93FC936F85788989899A892B893C893D
:1051C0004D895E89B5E7CB2EB7E0DB2E0E945F5696
:1051D0000F900F900E94CD6381E00E94E262C301B4
:1051E000B201A30192010E946D7E29813A814B8117
:1051F0005C810E942682AF81B8856D937D938D93EB
:105200009C931397E985FA856081718182819381EE
:1052100020E030E040E85EE30E9426826093CA030B
:105220007093CB038093CC039093CD030F920F9296
:10523000CDB6DEB60894C11CD11C409069075090D1
:105240006A0760906B0770906C0720916D07309132
:105250006E0740916F07509170072F8B388F498FE1
:105260005A8FE0907107F0907207009173071091C8
:10527000740720E030E040E752E40E944D7F4B018C
:105280005C01E9EAF5E0D601ED93FC93C301B201BC
:105290002F89388D498D5A8DA5E7CA2EA7E0DA2EC1
:1052A0000E945F560F900F900E94CD63AF8CB8A004
:1052B00026E935E0A20EB31E69817A818B819C813B
:1052C000D5012D913D914D915C910E94268220E067
:1052D00030E040E050E00E94467F88230CF071C02F
:1052E00060917A0570917B0580917C0590917D0598
:1052F00020917E0530917F05409180055091810578
:10530000E0908205F0908305009184051091850559
:10531000F6E8CF2EF5E0DF2E0E941151F5018081D5
:105320009181A281B381EF81F88580839183A283EB
:10533000B3830F920F92CDB6DEB60894C11CD11C78
:105340004090690750906A0760906B0770906C07F7
:1053500020916D0730916E0740916F075091700753
:105360002B8F3C8F4D8F5E8FE0907107F09072070E
:1053700000917307109174076091CA037091CB0379
:105380008091CC039091CD0320E030E040E752E4DF
:105390000E944D7F4B015C01E9EAF5E0D601ED93F7
:1053A000FC93C301B2012B8D3C8D4D8D5E8DE5E7E5
:1053B000CE2EE7E0DE2E0E945F560F900F900E94E7
:1053C000CD63CD80DE80CC0CDD1CCC0CDD1CF60169
:1053D000EC51FA4F6591759185919491F601E657DC
:1053E000FA4F80809180A280B380A50194010E9431
:1053F0006D7E7B018C01F601E658FA4FCB01D80196
:1054000080839183A283B383F601E051FA4F6591C3
:10541000759185919491B9E96B2EB3E07B2E6C0C5C
:105420007D1CA50194010E946D7ED3016D937D9337
:105430008D939C931397F601E450FA4F6591759103
:1054400085919491A5EA6A2EA3E07A2E6C0C7D1CBE
:10545000A50194010E946D7EF301608371838283B4
:10546000938329E637E0C20ED31EC701D801F601A7
:1054700080839183A283B38380E090E0A0E0B0E0DA
:105480008093CA039093CB03A093CC03B093CD0336
:105490000E94DB622D813E812E553A4F81E0D90179
:1054A0008C93A0960FB6F894DEBF0FBECDBFCF9100
:1054B000DF911F910F91FF90EF90DF90CF90BF9001
:1054C000AF909F908F907F906F905F904F903F90A4
:1054D0002F900895CF92DF92EF92FF920F931F9338
:1054E000CF93DF93EE24FF24ECE3F6E0D4908AE040
:1054F000C82E38C0488159816A817B818AE999E048
:1055000022E030E00E94094C9D2DECE3F6E008C05B
:105510008091C00085FFFCCF9093C6003196949196
:105520009923B1F70F5F1F4F6C960730110511F7E4
:10553000E9E0F2E007C08091C00085FFFCCF319622
:105540009093C60090819923B1F78091C00085FFA8
:10555000FCCFC092C6000894E11CF11C87E0E8165D
:10556000F10451F0E701CC0FDD1FCC0FDD1FC85453
:10557000DA4F00E010E0BECFDF91CF911F910F9185
:10558000FF90EF90DF90CF900895BF92CF92DF927F
:10559000EF92FF920F931F93CF93DF93EE24FF249C
:1055A000E0E4F6E0C490EEE3F6E0D4902AE0B22E18
:1055B00049C0488159816A817B818AE999E022E06A
:1055C00030E00E94094C0630110571F09C2DE0E49A
:1055D000F6E008C08091C00085FFFCCF9093C60024
:1055E000319694919923B1F79D2DEEE3F6E008C032
:1055F0008091C00085FFFCCF9093C60031969491B6
:105600009923B1F70F5F1F4F6C960730110589F68C
:10561000E9E0F2E007C08091C00085FFFCCF319641
:105620009093C60090819923B1F78091C00085FFC7
:10563000FCCFB092C6000894E11CF11C87E0E8168C
:10564000F10451F0E701CC0FDD1FCC0FDD1FC45872
:10565000D94F00E010E0ADCFDF91CF911F910F91B6
:10566000FF90EF90DF90CF90BF900895FC01949150
:1056700008C08091C00085FFFCCF9093C600319692
:1056800094919923B1F78AE999E022E030E00C94F3
:10569000094C8F929F92AF92BF92CF92DF92EF927E
:1056A000FF920F931F93CF93DF93EC014B015901AE
:1056B0006A018C0173E0000F111F7A95E1F7081B56
:1056C000190B080D191D000F111F000F111F58EBAA
:1056D000E52E55E0F52EE00EF11EF7016081718197
:1056E00082819381A60195010E946D7EF7016083FE
:1056F0007183828393830458194FF801608171810B
:1057000082819381A60195010E946D7EF8016083DC
:10571000718382839383E9E2F6E0949108C08091DB
:10572000C00085FFFCCF9093C600319694919923D9
:10573000B1F78AE999E0BE014AE050E00E94364B99
:10574000E6E2F6E0949108C08091C00085FFFCCFAE
:105750009093C600319694919923B1F78AE999E024
:10576000B4014AE050E00E94364BE1E2F6E0949149
:1057700008C08091C00085FFFCCF9093C600319691
:1057800094919923B1F78AE999E0B601A50122E045
:1057900030E00E94094CEDE1F6E0949108C0809160
:1057A000C00085FFFCCF9093C60031969491992359
:1057B000B1F7FE0143E0EE0FFF1F4A95E1F7EC1B46
:1057C000FD0BE80DF91DEE0FFF1FEE0FFF1FE45854
:1057D000F94F40815181628173818AE999E022E029
:1057E00030E00E94094C8091C00085FFFCCF8AE028
:1057F0008093C600DF91CF911F910F91FF90EF90A2
:10580000DF90CF90BF90AF909F908F9008952F9290
:105810003F924F925F926F927F928F929F92AF9240
:10582000BF92CF92DF92EF92FF920F931F93CF938D
:10583000DF931B012C018091400790914107019655
:1058400061E370E00E941783BC018093400770936E
:105850004107EAE0F2E007C08091C00085FFFCCF7D
:1058600031969093C60090819923B1F78AE999E027
:105870004AE050E00E94364B8091C00085FFFCCF8B
:105880008AE08093C6002091400730914107C9010A
:1058900067E070E00E941783FB01C90167E070E0D8
:1058A0000E941783EC01E0FF05C086E090E08C1BAE
:1058B0009D0BEC01BF01882777FD8095982F0E94F2
:1058C000E87F20E030E040E252E40E94268220E0BF
:1058D00030E040EF52E40E946C7E3B014C01BE017F
:1058E000882777FD8095982F0E94E87F20E030E0A0
:1058F00040E252E40E94268220E030E040EF52E491
:105900000E946C7E5B016C01A60195010E942682BB
:105910007B018C01C401B301A40193010E94268282
:105920009B01AC01C801B7010E946D7E0E94938269
:1059300020E030E040EF52E40E94548118160CF44D
:105940007ACFE090CA03F090CB030091CC03109182
:10595000CD0380E090E4ACE9B5E48093CA03909372
:10596000CB03A093CC03B093CD03A0926907B09270
:105970006A07C0926B07D0926C0760926D077092B5
:105980006E0780926F079092700720927107309295
:10599000720740927307509274070E944E240E942F
:1059A000CD63E092CA03F092CB030093CC03109333
:1059B000CD03E7E3F6E0949108C08091C00085FF35
:1059C000FCCF9093C600319694919923B1F78AE960
:1059D00099E0B601A50122E030E00E94094CE2E323
:1059E000F6E0949108C08091C00085FFFCCF9093B1
:1059F000C600319694919923B1F78AE999E0B401F0
:105A0000A30122E030E00E94094CEDE2F6E094911F
:105A100008C08091C00085FFFCCF9093C6003196EE
:105A200094919923B1F78AE999E0B201A10122E0AA
:105A300030E00E94094CEBE2F6E0949108C08091BE
:105A4000C00085FFFCCF9093C600319694919923B6
:105A5000B1F7DF91CF911F910F91FF90EF90DF9001
:105A6000CF90BF90AF909F908F907F906F905F90FE
:105A70004F903F902F900895FC01949108C0809121
:105A8000C00085FFFCCF9093C60031969491992376
:105A9000B1F78AE999E02AE030E00C94E74AEF9206
:105AA000FF920F931F937C0184E060E00E94FD7DD4
:105AB0000027F7FC0095102FC801B7010E94B17BA9
:105AC0001F910F91FF90EF900895EF92FF920F9327
:105AD0001F937C0184E061E00E94FD7D0027F7FCBC
