:100000000C944F0A0C947C0A0C947C0A0C947C0A85
:100010000C947C0A0C947C0A0C947C0A0C947C0A48
:100020000C947C0A0C947C0A0C947C0A0C947C0A38
:100030000C947C0A0C947C0A0C947C0A0C947C0A28
:100040000C947C0A0C946F610C947C0A0C947C0ACE
:100050000C947C0A0C947C0A0C945A6A0C943878A0
:100060000C947C0A0C943D470C947C0A0C947C0AFA
:100070000C947C0A0C947C0A0C947C0A0C947C0AE8
:100080000C947C0A0C947C0A0C947C0A0C947C0AD8
:100090000C947C0A0C947C0A0C947C0A0C94A37635
:1000A0000C947C0A0C947C0A0C947C0A0C947C0AB8
:1000B0000C947C0A0C947C0A0C947C0A0C947C0AA8
:1000C0000C947C0A0C947C0A0C947C0A0C947C0A98
:1000D0000C947C0A0C947C0A0C947C0A0C947C0A88
:1000E0000C947C0A084AD73B3BCE016E84BCBFFD12
:1000F000C12F3D6C74319ABD56833DDA3D00C77FF8
:1001000011BED9E4BB4C3E916BAAAABE0000008090
:100110003F05A84CCDB2D44EB93836A9020C50B91F
:10012000918688083CA6AAAA2ABE000000803F65E6
:1001300063686F3A0048617264636F646564204469
:10014000656661756C742053657474696E6773209D
:100150004C6F616465640053746F726564207365ED
:100160007474696E6773207265747269657665640C
:10017000002044002049002020204D333031205001
:10018000005049442073657474696E67733A0020A7
:100190005A0020590020204D363636205800456E32
:1001A0006473746F702061646A757374656D656ED5
:1001B0007420286D6D293A00205A00205900202013
:1001C0004D323036205800486F6D65206F6666737B
:1001D000657420286D6D293A00204500205A0020C2
:1001E000580020420020540020204D32303520534A
:1001F00000416476616E6365642076617269616254
:100200006C65733A20533D4D696E20666565647276
:1002100061746520286D6D2F73292C20543D4D6924
:100220006E2074726176656C2066656564726174B7
:100230006520286D6D2F73292C20423D6D696E69F4
:100240006D756D207365676D656E742074696D657D
:1002500020286D73292C20583D6D6178696D756D6E
:10026000205859206A65726B20286D6D2F73292CD8
:1002700020205A3D6D6178696D756D205A206A6540
:10028000726B20286D6D2F73292C2020453D6D61E8
:1002900078696D756D2045206A65726B20286D6DDB
:1002A0002F73290020540020204D32303420530079
:1002B000416363656C65726174696F6E3A20533D8A
:1002C000616363656C65726174696F6E2C20543D67
:1002D0007265747261637420616363656C657261D9
:1002E00074696F6E00204500205A002059002020BC
:1002F0004D3230312058004D6178696D756D204167
:100300006363656C65726174696F6E20286D6D2F13
:100310007332293A00204500205A0020590020203D
:100320004D3230332058004D6178696D756D20660F
:10033000656564726174657320286D6D2F73293A49
:1003400000204500205A0020590020204D3932203D
:10035000580053746570732070657220756E6974EF
:100360003A0053657474696E67732053746F7265D5
:1003700064006563686F3A004572726F723A0050AC
:1003800072696E7465722073746F70706564206436
:10039000756520746F206572726F72732E204669C6
:1003A0007820746865206572726F7220616E6420B7
:1003B000757365204D39393920746F2072657374F7
:1003C0006172742E202854656D7065726174757247
:1003D000652069732072657365742E2053657420DF
:1003E00069742061667465722072657374617274D9
:1003F000696E6729005072696E7465722068616C5D
:100400007465642E206B696C6C28292063616C6CA8
:10041000656421006F6B00526573656E643A20005D
:100420002200556E6B6E6F776E20636F6D6D616E1F
:10043000643A2022007A5F6D61783A20007A5F6D1D
:10044000696E3A2000795F6D61783A2000785F6DBF
:1004500061783A2000205A3A0020593A0020436F30
:10046000756E7420583A200020453A00205A3A0010
:1004700020593A00583A004649524D574152455F7B
:100480004E414D453A4D61726C696E2056313B20AC
:10049000537072696E7465722F6772626C206D6141
:1004A0007368757020666F722067656E36204649E6
:1004B000524D574152455F55524C3A6874747073AF
:1004C0003A2F2F6769746875622E636F6D2F4572BE
:1004D000696B5A616C6D2F4D61726C696E2F205083
:1004E000524F544F434F4C5F56455253494F4E3A2B
:1004F000312E30204D414348494E455F54595045B7
:100500003A4D656E64656C204558545255444552C9
:100510005F434F554E543A3120555549443A303097
:100520003030303030302D303030302D30303030D1
:100530002D303030302D30303030303030303030C1
:1005400030300A0020423A0020453A00543A002058
:10055000573A0020453A00543A002042403A0020E1
:10056000403A00202F003A00205400202F00204263
:100570003A00202F006F6B20543A002569206D69E6
:100580006E2C20256920736563000A00205A3A20EA
:100590000020593A200020583A20004265640001AA
:1005A00001010000804300008043000096430000EA
:1005B000A0400000A0400000A0400000000000009B
:1005C000000000009643000000C3000000C30000CC
:1005D00000000000004300000043000096430A00B2
:1005E000207A3A200020793A200020783A200042F0
:1005F000656400203D20005D202B20005D5B005BDA
:1006000000200020002C005072696E746572207307
:10061000746F707065642064756520746F206572F6
:10062000726F72732E204669782074686520657237
:10063000726F7220616E6420757365204D3939398F
:1006400020746F20726573746172742E2028546553
:100650006D7065726174757265206973207265735F
:1006600065742E2053657420697420616674657208
:100670002072657374617274696E6729006F6B0014
:100680004E6F204C696E65204E756D6265722077E5
:1006900069746820636865636B73756D2C204C61A9
:1006A0007374204C696E653A20004E6F2043686574
:1006B000636B73756D2077697468206C696E652053
:1006C0006E756D6265722C204C617374204C696E7E
:1006D000653A2000636865636B73756D206D69739F
:1006E0006D617463682C204C617374204C696E6575
:1006F0003A20004C696E65204E756D626572206906
:1007000073206E6F74204C617374204C696E652089
:100710004E756D6265722B312C204C617374204CC8
:10072000696E653A20004D313130002020506C61F7
:100730006E6E657242756666657242797465733A6B
:1007400020002046726565204D656D6F72793A20F4
:1007500000417072203133203230313400436F6DEC
:1007600070696C65643A20002844656C74614D6161
:100770006B65722C20444D31204265746132290032
:10078000207C20417574686F723A2000417072209D
:10079000313320323031342031313A32333A343748
:1007A00000204C61737420557064617465643A2054
:1007B00000312E302E30004D61726C696E00205376
:1007C0006F66747761726520526573657400205797
:1007D00061746368646F67205265736574002042BA
:1007E000726F776E206F7574205265736574002088
:1007F00045787465726E616C205265736574005043
:100800006F776572557000737461727400220065B1
:100810006E717565696E672022002200656E7175C4
:1008200065696E672022006563686F3A0020746F07
:100830006F206C6F6E6720657874727573696F6E68
:100840002070726576656E7465640020636F6C64F9
:1008500020657874727573696F6E20707265766545
:100860006E7465640045313A200045303A20005AE4
:100870003A2000593A2000583A20004D53312C4D6F
:1008800053322050696E730A0024F404D9201BC42B
:100890000C5C0E9804C4095F0265077101F405F948
:1008A00000FB04B30048048700C1036900580355E6
:1008B0000003034500BE023A008402310053022ABD
:1008C000002902250004022000E4011C00C80119CF
:1008D00000AF01170098011400840113007101108A
:1008E000006101100051010E0043010D0036010BA3
:1008F000002B010B0020010B00150109000C010960
:100900000003010800FB000800F3000800EB0007EB
:1009100000E4000600DE000600D8000600D2000653
:1009200000CC000500C7000500C2000500BD0004A2
:1009300000B9000400B5000400B1000400AD0004DB
:1009400000A9000400A5000300A20003009F00040A
:10095000009B000300980003009500020093000331
:1009600000900003008D0002008B0003008800024D
:10097000008600020084000300810002007F000264
:10098000007D0002007B0002007900020077000178
:100990000076000200740002007200010071000283
:1009A000006F0002006D0001006C0002006A00018F
:1009B0000069000200670001006600010065000197
:1009C000006400020062000100610001006000019B
:1009D000005F0002005D0001005C0001005B00019F
:1009E000005A0001005900010058000100570001A1
:1009F00000560001005500010054000100530000A2
:100A0000005300010052000100510001005000019C
:100A1000004F0001004E0000004E0001004D00019B
:100A2000004C0001004B0000004B0001004A000197
:100A30000049000100480000004800010047000193
:100A4000004600000046000100450000004500018E
:100A50000044000100430000004300010042000088
:100A6000004200010041000000410001004000017F
:100A7000003F0000003F0001003E0000003E00017A
:100A8000003D0000003D0001003C0000003C000073
:100A9000003C0001003B0000003B0001003A000068
:100AA000003A000100390000003900010038000060
:100AB0000038000000380001003700000037000156
:100AC000003600000036000000360001003500004E
:100AD0000035000000350001003400000034000043
:100AE0000034000100330000003300000033000137
:100AF000003200000032000000320001003100002E
:100B00000031000000310001003000000030000022
:100B100000300001002F0000002F0000002F000017
:100B2000002F0001002E0000002E0000002E00010A
:100B3000002D0000002D0000002D0000002D000100
:100B4000002C0000002C0000002C0000002C0001F4
:100B5000002B0000002B0000002B0000002B0001E8
:100B6000002A0000002A0000002A0000002A0001DC
:100B700000290000002900000029000000290000D1
:100B800000290001002800000028000000280000C3
:100B900000280000002800010027000000270000B6
:100BA00000270000002700000027000100260000A9
:100BB000002600000026000000260000002600019C
:100BC0000025000000250000002500000025000091
:100BD0000025000000250001002400000024000082
:100BE0000024000000240000002400010023000075
:100BF0000023000000230000002300000023000069
:100C00000023000000230001002200000022000059
:100C1000002200000022000000220000002200014B
:100C20000021000000210000002100000021000040
:100C30000021000000210000002100010020000030
:100C40000020000000200000002000000020000024
:100C5000002000000020000000200001001F000014
:100C6000001F0000001F0000001F0000001F000008
:100C7000001F0000001F0001001E0000001E0000F9
:100C8000001E0000001E00000024F4D43050C38E6B
:100C900020C2A24017828B7011127A910D816CD9FB
:100CA0000AA861E108C7586607615143061E4B5DFB
:100CB00005C145A7041A411104093D980371393152
:100CC000034036DB0265339102D4305402802E1D7E
:100CD00002632CEE01752AC501B028A001102781FE
:100CE000018F2564012B244B01E0223401AC211F2C
:100CF000018D200D01801FFC00841EED00971DDF7B
:100D000000B81CD200E61BC600201BBC00641AB24F
:100D100000B219A8000A19A0006A189900D1179109
:100D20000040178B00B516840031167E00B315798C
:100D3000003A157300C7146F0058146A00EE13666A
:100D4000008813630025135E00C7125B006C125706
:100D50000015125400C111510070114F0021114BA8
:100D600000D61049008D1047004610440002104282
:100D700000C00F4000800F3E00420F3C00060F3BBA
:100D800000CB0E3800930E37005C0E3500270E3472
:100D900000F30D3200C10D3100900D3000600D2EBA
:100DA00000320D2D00050D2C00D90C2B00AE0C29A6
:100DB00000850C29005C0C2700350C27000E0C2642
:100DC00000E80B2400C40B2400A00B23007D0B23A0
:100DD000005A0B2100390B2100180B2000F80A1FC4
:100DE00000D90A1E00BB0A1E009D0A1D00800A1DB4
:100DF00000630A1C00470A1B002C0A1B00110A1A78
:100E000000F7091A00DD091900C4091900AB091916
:100E100000920917007B091800630917004C091696
:100E20000036091600200916000A091500F50815F4
:100E300000E0081400CC081400B8081400A408143A
:100E400000900813007D0812006B08130058081268
:100E5000004608120034081100230811001208117E
:100E60000001081100F0071000E0071000D0071083
:100E700000C0071000B0070F00A107100091070E77
:100E80000083070F0074070F0065070E0057070E59
:100E90000049070E003B070D002E070E0020070D2E
:100EA0000013070D0006070D00F9060C00ED060DF6
:100EB00000E0060C00D4060C00C8060C00BC060CB2
:100EC00000B0060C00A4060B0099060C008D060B62
:100ED0000082060B0077060B006C060B0061060A09
:100EE0000057060B004C060A0042060A0038060AA4
:100EF000002E060A0024060A001A060A0010060937
:100F00000007060A00FD050900F4050900EB0509C4
:100F100000E2050900D9050900D0050900C7050947
:100F200000BE050900B5050800AD050800A50509C6
:100F3000009C050800940508008C0508008405083D
:100F4000007C050800740508006C050700650508AD
:100F5000005D050700560508004E05070047050718
:100F6000004005080038050700310507002A05077D
:100F700000230507001C050600160507000F0507DE
:100F8000000805060002050700FB040600F504073B
:100F900000EE040600E8040600E2040700DB040695
:100FA00000D5040600CF040600C9040600C30406E9
:100FB00000BD040600B7040600B1040500AC040639
:100FC00000A6040600A00405009B04060095040585
:100FD00000900406008A04050085040500800406CC
:100FE000007A04050075040500700405006B040513
:100FF0000066040500610405005C04050057040553
:1010000000520405004D0405004804050043040592
:10101000003E0404003A04050035040500300404D1
:10102000002C04050027040400230405001E04040A
:10103000001A04040016040500110404000D040441
:1010400000090405000404040000040400FC030477
:1010500000F8030400F4030400F0030400EC0304AC
:1010600000E8030400E4030400E0030400DC0304DC
:1010700000D8030400D4030400D0030400CC03040C
:1010800000C8030300C50303006563686F3A0020CE
:101090005A3A0020593A0020583A00656E64737439
:1010A0006F7073206869743A20004572726F723AEB
:1010B0000054656D70657261747572652068656154
:1010C000746564206265642073776974636865641D
:1010D000206F66662E204D415854454D5020747245
:1010E00069676765726564202121003A204578743C
:1010F0007275646572207377697463686564206FC4
:1011000066662E204D494E54454D502074726967D5
:1011100067657265642021003A20457874727564B1
:101120006572207377697463686564206F66662EE4
:10113000204D415854454D5020747269676765725F
:101140006564202100202D20496E76616C69642041
:101150006578747275646572206E756D6265722053
:10116000210070012C0190012701B0012201C00172
:101170001D01F00118011002130130020E0160027E
:10118000090190020401C002FF000003FA004003BD
:10119000F5008003F000D003EB002004E6007004AB
:1011A000E100E004DC004005D700C005D2004006A5
:1011B000CD00D006C8008007C3003008BE00F0088C
:1011C000B900C009B400B00AAF00B00BAA00D00C3F
:1011D000A500000EA000500F9B00C01096005012FA
:1011E000910000148C00C0158700B0178200B01960
:1011F0007D00D01B7800001E730040206E009022FE
:101200006900F024640040275F0090295A00E02B19
:101210005500102E500020304B0010324600E033B5
:10122000410090353C001037370070383200A0394B
:101230002D00B03A2800A03B2300603C1E00103D6A
:101240001900903D1400103E0F00703E0A00C03E91
:101250000500003F0000504944204175746F7475CB
:101260006E652066696E69736865642120507574C7
:1012700020746865204B702C204B6920616E6420BF
:101280004B6420636F6E7374616E747320696E7447
:101290006F20436F6E66696775726174696F6E2E39
:1012A0006800504944204175746F74756E652066FE
:1012B00061696C6564212074696D656F75740020C7
:1012C000403A006F6B20543A006F6B20423A005056
:1012D0004944204175746F74756E65206661696C50
:1012E0006564212054656D70657261747572652046
:1012F000746F6F206869676800204B643A20002093
:101300004B693A2000204B703A200020436C6173F7
:1013100069632050494420002054753A2000204B36
:10132000753A2000206D61783A2000206D696E3A90
:10133000200020643A200020626961733A20000096
:10134000002100240027002A002D00300033000176
:10135000010000040107010A010000220025002805
:10136000002B002E003100340002010000050108AE
:10137000010B01000020002300260029002C002F73
:101380000032000001000003010601090105050506
:1013900005070508080808020202020A0A080804EC
:1013A000040404010101010101010103030303031A
:1013B000030303040707070C0C0C0C0C0C0C0C02A9
:1013C00002020206060606060606060B0B0B0B0BB0
:1013D0000B0B0B01021020200808102040102040A9
:1013E00080020102010804020101020408102040E9
:1013F0008080402010080402018004020180402007
:10140000100804020108040201010204081020402F
:101410008001020408102040800000090A02080B25
:101420000C0D07060304010000000000000000008E
:1014300000000000000000000000000000000000AC
:10144000000000000011100F00000000000000006C
:101450000000000000000000000000000000004943
:101460004E46494E4954594E414ECDCCCC3D0AD7FB
:10147000233C17B7D13877CC2B329595E6241FB192
:101480004F0A000020410000C84200401C4620BC1A
:10149000BE4CCA1B0E5AAEC59D74D147127611249C
:1014A0001FBECFEFD1E2DEBFCDBF00E00CBF14E026
:1014B000A0E0B2E0E4E4F1E001E00BBF02C007907D
:1014C0000D92A838B107D9F71BBE1EE1A8E8B4E019
:1014D00001C01D92AC3AB107E1F714E1CEE9D4E1C5
:1014E00004C02297FE010E945A80CA39D107C9F769
:1014F0000E943B7B0C94A0800C940000A0E0B0E024
:10150000E4E8FAE00C946F80EC015B016115710571
:1015100019F0FB0191838083F9908F2D90E00E9458
:101520005E80892BC9F7FDE2FF1621F4F990EE24C5
:10153000E39405C02BE2F21609F4F990EE248E0133
:1015400001501040C8016FE574E143E050E062D201
:10155000892BF9F48E010E5F1F4FC80162E674E11A
:1015600045E050E057D2892B19F48E01095F1F4FD7
:10157000A114B10419F0F50111830083E0FC04C04B
:1015800070E090E080E813C070E090E080E86FEFDA
:1015900007C1C80167E674E143E050E03BD2892B04
:1015A00069F4A114B10429F470E090E080EC6FE7D5
:1015B000F7C02296F501D183C083F6CF8824992401
:1015C00040E050E060E070E0EF2DE053EA30A0F53D
:1015D000F2E0EF2A8E2D90E09C0128703070E2FE40
:1015E00006C0232B79F50894811C911C2BC0232B5A
:1015F00019F0089481089108DB01CA0112E0880FF4
:10160000991FAA1FBB1F1A95D1F7480F591F6A1FB0
:101610007B1F440F551F661F771F4E0F511D611D05
:10162000711D483929E9520729E9620729E1720742
:1016300048F084E0E82A06C0EE3F31F4E3FC39C00C
:1016400098E0E92AF990C0CFE53311F0E53189F54A
:1016500029912D3219F4E0E1EE2A05C02B3219F060
:1016600081E090E003C0299182E090E0E22FE05316
:10167000EA3018F0C81BD90B1CC020E030E0FCE0B9
:1016800020383F075CF4C901880F991F880F991F04
:10169000280F391F220F331F2E0F311DE991E05300
:1016A000EA3068F3E4FE03C0309521953F4F820E87
:1016B000931ECE2CDD24E1FE07C0A114B10421F05D
:1016C0002197F501D183C083CB01BA010E94C37C6D
:1016D0007B018C01F3E0CF22DD2423E0C216D1048C
:1016E00021F417FB109517F9109557016801C801EF
:1016F000B70120E030E040E050E00E94237C8823E6
:1017000009F44AC097FE0DC02EE7E22E24E1F22E26
:101710009094819491089394C0E2D0E000E010E0AE
:1017200012C096E9E92E94E1F92EF6CFF701259142
:10173000359145915491C601B5010E94037F5B012B
:101740006C018C1A9D0A8C169D0684F7D595C79559
:101750000F5F1F4F0630110529F08CEF9FEFE80E49
:10176000F91EF1CFC501D6017C018D018C2D880FAA
:101770008D2D881F8F3F51F0C601B50120E030E06C
:1017800040E050E00E94237C882331F482E290E024
:101790009093AB1E8093AA1E7E2D9F2D802F612FCC
:1017A000272F392F482F562FB901CA01CDB7DEB7E1
:1017B000ECE00C948B802F923F925F926F927F921D
:1017C0008F929F92AF92BF92CF92DF92EF92FF9251
:1017D0000F931F93CF93DF938C011B01EA016115D7
:1017E000710519F0FB0191838083209749F0CE01A8
:1017F0000297839728F020E030E040E050E0F6C008
:10180000F801A1908F018A2D90E00E945E80892BC3
:10181000B9F7FDE2AF1631F4F801A1908F0155241C
:10182000539407C0FBE2AF1619F4F801A1908F01A1
:101830005524209719F0C031D105C1F4F0E3AF165B
:1018400079F4F8018081883711F0883549F4F8017E
:10185000A1800E5F1F4FF2E05F2AC0E1D0E006C01A
:10186000209721F480E3A816E9F427C0C830D105F9
:1018700031F1C930D10524F4C230D10531F50CC0A5
:10188000CA30D10589F0C031D105F9F4C12CD12C71
:10189000E12CB8E0FB2E28C0C12CD12CE12CA0E417
:1018A000FA2E22C0CAE0D0E0FCECCF2EFCECDF2EFA
:1018B000FCECEF2EFCE0FF2E17C0C8E0D0E0C12CFE
:1018C000D12CE12CE0E1FE2E0FC09E01442737FD14
:1018D0004095542F60E070E080E090E80E9407801F
:1018E000C901DA016C017D0120E030E040E050E008
:1018F00060E03E01882477FC8094982C70EDB72E30
:10190000BA0CE9E0EB1570F48A2D81548A3118F491
:1019100099ECB92E06C08A2D81568A3150F589EA94
:10192000B82EBA0C8B2D90E08C179D0714F56F3FE5
:10193000E1F0C216D306E406F506B0F0CA01B9011B
:10194000A40193010E94D57F9B01AC012B0D311D99
:10195000411D511D2130F0E03F07F0E04F07F0E856
:101960005F0710F461E001C06FEFF801A1908F01F3
:10197000C5CF2114310481F0662331F001501040AD
:10198000F1011183008308C051FE1AC002501040BB
:10199000F1011183008314C067FF12C050FC05C021
:1019A0002FEF3FEF4FEF5FE704C020E030E040E073
:1019B00050E882E290E09093AB1E8093AA1E16C07E
:1019C00050FE08C050954095309521953F4F4F4FA0
:1019D0005F4F0CC057FF0AC082E290E09093AB1EAD
:1019E0008093AA1E2FEF3FEF4FEF5FE7B901CA01C7
:1019F000DF91CF911F910F91FF90EF90DF90CF90EB
:101A0000BF90AF909F908F907F906F905F903F902E
:101A10002F900895FB01DC014150504088F08D91DA
:101A200081341CF08B350CF4805E659161341CF0C0
:101A30006B350CF4605E861B611171F3990B089590
:101A4000881BFCCFFB0155915523A9F0BF01DC0198
:101A50004D9145174111E1F759F4CD010590002052
:101A600049F04D9140154111C9F3FB014111EFCFF0
:101A700081E090E001970895FC018191861721F0A3
:101A80008823D9F7992708953197CF010895FB014D
:101A9000DC014150504030F08D910190801919F4D3
:101AA0000020B9F7881B990B0895AEE0B0E0EBE594
:101AB000FDE00C9477800E891F898EE08C831A8359
:101AC00009838FEF9FE79E838D839E01265E3F4FA4
:101AD000CE010196688D798DA9010AD02F813885B4
:101AE000020F131FF80110822E96E4E00C949380ED
:101AF000ABE0B0E0EEE7FDE00C9469803C012B0127
:101B00005A01FC0117821682838181FD03C06FEFA9
:101B10007FEFB9C19AE0892E1E010894211C311C67
:101B2000F3012381F20123FD859123FF81912F0190
:101B3000882309F4A5C1853239F423FD859123FF5B
:101B400081912F01853221F490E0B301B7D1E8CF24
:101B5000982FFF24EE249924FFE1FF15D0F09B324B
:101B600069F09C3228F4903259F0933291F40EC00F
:101B70009D3249F0903369F441E024C052E0F52AE7
:101B800084E0F82A28C098E0F92A25C0E0E1FE2A7E
:101B900022C0F7FC29C0892F80538A3070F4F6FEEA
:101BA00005C0989C902C1124980E15C0E89CE02C40
:101BB0001124E80EF0E2FF2A0EC09E3229F4F6FC52
:101BC0005FC140E4F42A07C09C3619F450E8F52AB6
:101BD00002C0983649F4F20123FD959123FF9191BB
:101BE0002F01992309F0B8CF892F8554833018F03D
:101BF0008052833038F444E050E0A40EB51E5FE319
:101C000059830FC0933631F0933779F0933509F04B
:101C100052C01FC0F5018081898342E050E0A40ECC
:101C2000B51E610101E010E011C0F501C080D18056
:101C3000F6FC03C06FEF7FEF02C0692D70E042E059
:101C400050E0A40EB51EC6012ED18C015FE7F5222F
:101C500013C0F501C080D180F6FC03C06FEF7FEFA9
:101C600002C0692D70E042E050E0A40EB51EC6012E
:101C70000FD18C0150E8F52AF3FE06C018C080E2AF
:101C800090E0B3011BD1EA948E2D90E0081719075C
:101C9000B0F30DC0F601F7FC8591F7FE81916F015D
:101CA00090E0B3010BD1E110EA940150104001150E
:101CB000110581F7E2C0943611F0993661F5F7FE0F
:101CC00008C0F501208131814281538184E090E098
:101CD0000AC0F501808191819C01442737FD409520
:101CE000542F82E090E0A80EB91E9FE6F92257FF1C
:101CF00009C050954095309521953F4F4F4F5F4F0C
:101D0000E0E8FE2ACA01B901A1012AE030E002D1CF
:101D1000D82ED2183FC0953729F41F2D1F7E2AE0F8
:101D200030E01DC01F2D197F9F3661F0903720F4E1
:101D3000983509F0A5C00FC0903739F0983709F0F1
:101D40009FC004C028E030E00AC0106114FD146098
:101D500020E130E004C014FD166020E132E017FFFE
:101D600008C0F501608171818281938144E050E077
:101D700008C0F50180819181BC0180E090E042E0E3
:101D800050E0A40EB51EA101C5D0D82ED2188FE701
:101D9000F82EF122F6FE0BC05EEFF522D91438F4CE
:101DA000F4FE07C0F2FC05C08FEEF82202C01D2D24
:101DB00001C0192DF4FE0DC0FE01ED0DF11D808155
:101DC000803319F499EEF92208C01F5FF2FE05C0B6
:101DD00003C08F2D867809F01F5F0F2DF3FC13C011
:101DE000F0FE0EC01E1510F09D2C0AC09D2C9E0CFE
:101DF000911A1E2D05C080E290E0B3015FD01F5FF5
:101E00001E15C8F304C01E1510F4E11A01C0EE241B
:101E100004FF0EC080E390E0B30150D002FF1BC06E
:101E200001FD03C088E790E00EC088E590E00BC09C
:101E3000802F867881F001FF02C08BE201C080E232
:101E4000F7FC8DE290E0B30139D005C080E390E06B
:101E5000B30134D09A94D914C8F3DA94F101ED0D9A
:101E6000F11D808190E0B30129D0DD20B1F705C0DC
:101E700080E290E0B30122D0EA94EE20C9F750CE80
:101E8000F30166817781CB012B96E2E10C9485808A
:101E9000FC010590615070400110D8F78095909535
:101EA0008E0F9F1F0895FC0161507040019001103A
:101EB000D8F7809590958E0F9F1F08950F931F93CD
:101EC000CF93DF938C01EB018B8181FF1BC082FFDD
:101ED0000DC02E813F818C819D812817390764F4C4
:101EE000E881F9810193F983E88306C0E885F985E3
:101EF000802F1995892B31F48E819F8101969F83C4
:101F00008E8302C00FEF1FEFC801DF91CF911F91A9
:101F10000F910895FA01AA27283051F1203181F15B
:101F2000E8946F936E7F6E5F7F4F8F4F9F4FAF4FE1
:101F3000B1E03ED0B4E03CD0670F781F891F9A1FF4
:101F4000A11D680F791F8A1F911DA11D6A0F711DA8
:101F5000811D911DA11D20D009F468943F912AE0B4
:101F6000269F11243019305D3193DEF6CF0108959C
:101F7000462F4770405D4193B3E00FD0C9F7F6CFCD
:101F8000462F4F70405D4A3318F0495D31FD405295
:101F9000419302D0A9F7EACFB4E0A695979587952B
:101FA00077956795BA95C9F700976105710508950A
:101FB0009B01AC010A2E06945795479537952795B6
:101FC000BA95C9F7620F731F841F951FA01D08954E
:101FD0004F925F926F927F928F929F92AF92BF9239
:101FE000CF92DF92EF92FF920F931F93CF93DF93E5
:101FF000C0E0D0E06EC0F201608171818281938186
:1020000020E030E048EC52E40E94037F7B018C0129
:1020100020E030E040E050E00E94317E88234CF028
:10202000C801B70120E030E040E05FE30E944A7B56
:1020300008C0C801B70120E030E040E05FE30E9443
:10204000497B0E94927CF40171836083F501608179
:1020500071818281938120E030E048EC52E40E945B
:10206000037F7B018C0120E030E040E050E00E94E3
:10207000317E88234CF0C801B70120E030E040E019
:102080005FE30E944A7B08C0C801B70120E030E04E
:1020900040E05FE30E94497B0E94927CF3017183E0
:1020A00060830894C11CD11C8CE190E0480E591E3D
:1020B000EEE0F0E06E0E7F1E8E0E9F1EA80EB91E83
:1020C000F7E0CF16D10409F096CF2196C730D1059D
:1020D00019F19E01220F331F220F331F00E9402EFA
:1020E00005E0502E420E531ECE01880F991FBAEE06
:1020F0006B2EB4E07B2E680E791EA8E88A2EA4E031
:102100009A2E880E991EF4E5AF2EF6E0BF2EA20E91
:10211000B31ECC24DD246FCFDF91CF911F910F919F
:10212000FF90EF90DF90CF90BF90AF909F908F90F7
:102130007F906F905F904F9008958F929F92AF9293
:10214000BF92CF92DF92EF92FF920F931F93CF93A4
:10215000DF93C0E0D0E03DC0F40160817181882749
:1021600077FD8095982F0E94C57C20E030E048ECF8
:1021700052E40E942A7CF5016083718382839383F9
:10218000F60160817181882777FD8095982F0E94E4
:10219000C57C20E030E048EC52E40E942A7CF70144
:1021A00060837183828393830F5F1F4F8EE090E083
:1021B000880E991EECE1F0E0AE0EBF1EC80ED91ECF
:1021C000EE0EFF1E0730110539F62196C730D105F6
:1021D00019F19E01220F331F78E8872E74E0972EA5
:1021E000820E931ECE01880F991F880F991F50E908
:1021F000A52E55E0B52EA80EB91E4AEEC42E44E019
:10220000D42EC20ED31E24E5E22E26E0F22EE80ED6
:10221000F91E00E010E0A0CFDF91CF911F910F9148
:10222000FF90EF90DF90CF90BF90AF909F908F90F6
:1022300008950F931F93DF93CF93CDB7DEB76697C3
:102240000FB6F894DEBF0FBECDBF80910002909113
:102250000102A0910202B09103028F87988BA98B93
:10226000BA8BFE013F9604E610E08081F999FECF1B
:102270001FBA12BD01BD80BD0FB6F894FA9AF99A43
:102280000FBE0F5F1F4F0836110511F03196EDCFCD
:10229000E7E8F9E08081F999FECF1FBA12BD01BDD0
:1022A00080BD0FB6F894FA9AF99A0FBE0F5F1F4FD0
:1022B0000837110511F03196EDCFE7E7F9E080819D
:1022C000F999FECF1FBA12BD01BD80BD0FB6F894BB
:1022D000FA9AF99A0FBE0F5F1F4F0838110511F0D7
:1022E0003196EDCFE7E9F9E08081F999FECF1FBA89
:1022F00012BD01BD80BD0FB6F894FA9AF99A0FBECF
:102300000F5F1F4F0839110511F03196EDCFEBEA41
:10231000F9E08081F999FECF1FBA12BD01BD80BDE1
:102320000FB6F894FA9AF99A0FBE0F5F1F4F0C3947
:10233000110511F03196EDCFEFEAF9E08081F999BE
:10234000FECF1FBA12BD01BD80BD0FB6F894FA9A38
:10235000F99A0FBE0F5F1F4F003A110511F0319629
:10236000EDCFE7EAF9E08081F999FECF1FBA12BDFF
:1023700001BD80BD0FB6F894FA9AF99A0FBE0F5FAF
:102380001F4F043A110511F03196EDCFEFEBF9E054
:102390008081F999FECF1FBA12BD01BD80BD0FB675
:1023A000F894FA9AF99A0FBE0F5F1F4F083A110579
:1023B00011F03196EDCFE3E7F9E08081F999FECF96
:1023C0001FBA12BD01BD80BD0FB6F894FA9AF99AF2
:1023D0000FBE0F5F1F4F0C3A110511F03196EDCF74
:1023E000E3EBF9E08081F999FECF1FBA12BD01BD80
:1023F00080BD0FB6F894FA9AF99A0FBE0F5F1F4F7F
:10240000003B110511F03196EDCFE7EBF9E080814B
:10241000F999FECF1FBA12BD01BD80BD0FB6F89469
:10242000FA9AF99A0FBE0F5F1F4F043B110511F086
:102430003196EDCFEBEBF9E08081F999FECF1FBA31
:1024400012BD01BD80BD0FB6F894FA9AF99A0FBE7D
:102450000F5F1F4F083B110511F03196EDCFE2E6FB
:10246000F5E08081F999FECF1FBA12BD01BD80BD94
:102470000FB6F894FA9AF99A0FBE0F5F1F4F043CFB
:10248000110511F03196EDCFEEE6F5E08081F99976
:10249000FECF1FBA12BD01BD80BD0FB6F894FA9AE7
:1024A000F99A0FBE0F5F1F4F003D110511F03196D5
:1024B000EDCF84EB90E09A83898386E490E09C835F
:1024C0008B832FEF30E03E832D8380EF90E0988761
:1024D0008F8384E690E09A8789873C872B87FE016B
:1024E00031968081F999FECF1FBA12BD01BD80BD22
:1024F0000FB6F894FA9AF99A0FBE0F5F1F4F023D7C
:10250000110571F7FE0133968081F999FECF1FBA4C
:1025100012BD01BD80BD0FB6F894FA9AF99A0FBEAC
:102520000F5F1F4F043D110511F03196EDCFFE01F5
:1025300035968081F999FECF1FBA12BD01BD80BDCD
:102540000FB6F894FA9AF99A0FBE0F5F1F4F063D27
:10255000110511F03196EDCFFE0137968081F99982
:10256000FECF1FBA12BD01BD80BD0FB6F894FA9A16
:10257000F99A0FBE0F5F1F4F083D110511F03196FC
:10258000EDCFFE0139968081F999FECF1FBA12BDB9
:1025900001BD80BD0FB6F894FA9AF99A0FBE0F5F8D
:1025A0001F4F0A3D110511F03196EDCFFE013B960C
:1025B0008081F999FECF1FBA12BD01BD80BD0FB653
:1025C000F894FA9AF99A0FBE0F5F1F4F0C3D110550
:1025D00011F03196EDCFEDE7F5E08081F999FECF6E
:1025E0001FBA12BD01BD80BD0FB6F894FA9AF99AD0
:1025F0000FBE0F5F1F4F003E110511F03196EDCF5A
:10260000E3EFF3E08081F999FECF1FBA12BD01BD5F
:1026100080BD0FB6F894FA9AF99A0FBE0F5F1F4F5C
:10262000043E110511F03196EDCFE7EFF3E0808124
:10263000F999FECF1FBA12BD01BD80BD0FB6F89447
:10264000FA9AF99A0FBE0F5F1F4F083E110511F05D
:102650003196EDCFEBEFF3E08081F999FECF1FBA11
:1026600012BD01BD80BD0FB6F894FA9AF99A0FBE5B
:102670000F5F1F4F0C3E110511F03196EDCF80E238
:1026800090E09E878D87FE013D968081F999FECF6F
:102690001FBA12BD01BD80BD0FB6F894FA9AF99A1F
:1026A0000FBE0F5F1F4F0E3E110511F03196EDCF9B
:1026B0008FDCE8E8F4E08081F999FECF1FBA12BD03
:1026C00001BD80BD0FB6F894FA9AF99A0FBE0F5F5C
:1026D0001F4F81E00035180711F03196ECCFEAEE7C
:1026E000F4E08081F999FECF1FBA12BD01BD80BD13
:1026F0000FB6F894FA9AF99A0FBE81E0013B1807D9
:1027000021F00F5F1F4F3196ECCF80910402909122
:102710000502A0910602B09107028B8B9C8BAD8BBA
:10272000BE8BFE01739684E690E02081F999FECF7E
:102730001FBA92BD81BD20BD0FB6F894FA9AF99ADE
:102740000FBE8736910519F001963196EECFEFE274
:10275000F1E0949108C08091C00085FFFCCF909378
:10276000C600319694919923B1F7E2E6F3E0949193
:1027700008C08091C00085FFFCCF9093C6003196C1
:1027800094919923B1F78091C00085FFFCCF8AE036
:102790008093C60066960FB6F894DEBF0FBECDBF1D
:1027A000CF91DF911F910F910895EF92FF920F93B8
:1027B0001F93DF93CF93CDB7DEB7E0970FB6F894B2
:1027C000DEBF0FBECDBFDE011196E9E2F4E080E18D
:1027D00001900D928150E1F7DE015196E9E1F4E0BC
:1027E00080E101900D928150E1F7DE019196E9E0E0
:1027F000F4E080E101900D928150E1F789819A81A6
:10280000AB81BC818093870990938809A093890943
:10281000B0938A0989899A89AB89BC8980937709A1
:1028200090937809A0937909B0937A0989A19AA124
:10283000ABA1BCA18093970990939809A0939909A3
:10284000B0939A098D819E81AF81B88580938B0961
:1028500090938C09A0938D09B0938E098D899E89E0
:10286000AF89B88D80937B0990937C09A0937D09F3
:10287000B0937E098DA19EA1AFA1B8A580939B09BD
:1028800090939C09A0939D09B0939E0989859A8590
:10289000AB85BC8580938F0990939009A093910993
:1028A000B0939209898D9A8DAB8DBC8D80937F09F1
:1028B00090938009A0938109B093820989A59AA574
:1028C000ABA5BCA580939F099093A009A093A109F3
:1028D000B093A2098D859E85AF85B88980939309B1
:1028E00090939409A0939509B09396098D8D9E8D30
:1028F000AF8DB8A18093830990938409A093850933
:10290000B09386098DA59EA5AFA5B8A98093A3090C
:102910009093A409A093A509B093A6090E944C4ED8
:1029200080E090E0AAEFB3E48093AB099093AC0908
:10293000A093AD09B093AE0980E090E8ABE3B5E4B5
:102940008093AF099093B009A093B109B093B209F5
:1029500020E030E040E050E02093A7093093A80940
:102960004093A9095093AA0980E29EE4A0E0B0E058
:102970008093730990937409A0937509B0937609B5
:102980002093BF093093C0094093C1095093C209F5
:1029900080E090E0A0EAB1E48093B3099093B40999
:1029A000A093B509B093B6098093B7099093B8097D
:1029B000A093B909B093BA098093BB099093BC095D
:1029C000A093BD09B093BE0920936A0530936B05AF
:1029D00040936C0550936D05209366053093670511
:1029E0004093680550936905209362053093630511
:1029F00040936405509365052093760530937705E1
:102A000040937805509379052093720530937305B0
:102A1000409374055093750520936E0530936F05B0
:102A200040937005509371050F2EF0E0EF2EF0E00B
:102A3000FF2EF0E80F2FFFE31F2FF02DE0927D0512
:102A4000F0927E0500937F051093800587ED93EA51
:102A5000A4E4B1E48093F3039093F403A093F5030B
:102A6000B093F60361EE7AE784E59FE30E949769ED
:102A70006093F7037093F8038093F9039093FA033C
:102A80006EEA77E485E392E40E94A3696093FB0316
:102A90007093FC038093FD039093FE030E94A8684B
:102AA000E092FF03F09200040093010410930204EB
:102AB00020E030E040E050E060E87FEB14C04D9350
:102AC0005D936D937C9313974083518362837383EB
:102AD00001965C967C968730910589F72F5F3F4F72
:102AE0002730310571F0C901880F991F880F991F90
:102AF000DC01A057BA4FFC01EC5AF94F80E090E09E
:102B0000DECFEFE2F1E0949108C08091C00085FF34
:102B1000FCCF9093C600319694919923B1F7E5E3E9
:102B2000F1E0949108C08091C00085FFFCCF9093A4
:102B3000C600319694919923B1F78091C00085FF2A
:102B4000FCCF8AE08093C600E0960FB6F894DEBF13
:102B50000FBECDBFCF91DF911F910F91FF90EF90EE
:102B60000895CF93DF93CFE2D1E0FE01949108C0A6
:102B70008091C00085FFFCCF9093C6003196949160
:102B80009923B1F7E2E5F3E0949108C08091C00089
:102B900085FFFCCF9093C600319694919923B1F7AD
:102BA0008091C00085FFFCCF8AE08093C600FE01C3
:102BB0009491EFE2F1E008C08091C00085FFFCCF66
:102BC0009093C600319694919923B1F7409187096B
:102BD000509188096091890970918A098AE493E08B
:102BE0000E94E82940918B0950918C0960918D09D0
:102BF00070918E0987E493E00E94E82940918F0943
:102C000050919009609191097091920984E493E048
:102C10000E94E82940919309509194096091950987
:102C20007091960981E493E00E94E829E8E0F2E0DF
:102C300007C08091C00085FFFCCF31969093C600FD
:102C400090819923B1F78091C00085FFFCCF8AE085
:102C50008093C600FE019491EFE2F1E008C08091FC
:102C6000C00085FFFCCF9093C600319694919923C4
:102C7000B1F7E7E2F3E0949108C08091C00085FFCE
:102C8000FCCF9093C600319694919923B1F780912F
:102C9000C00085FFFCCF8AE08093C600FE019491BE
:102CA000EFE2F1E008C08091C00085FFFCCF909377
:102CB000C600319694919923B1F7409177095091CC
:102CC00078096091790970917A098EE193E00E9408
:102CD000E82940917B0950917C0960917D097091B0
:102CE0007E098BE193E00E94E82940917F09509191
:102CF0008009609181097091820988E193E00E94C6
:102D0000E829409183095091840960918509709167
:102D1000860985E193E00E94E829E8E0F2E007C037
:102D20008091C00085FFFCCF31969093C6009081C2
:102D30009923B1F78091C00085FFFCCF8AE0809392
:102D4000C600FE019491EFE2F1E008C08091C0005E
:102D500085FFFCCF9093C600319694919923B1F7EB
:102D6000E7EFF2E0949108C08091C00085FFFCCFAE
:102D70009093C600319694919923B1F78091C00049
:102D800085FFFCCF8AE08093C600FE019491EFE2BC
:102D9000F1E008C08091C00085FFFCCF9093C60091
:102DA000319694919923B1F74091970950919809E0
:102DB0006091990970919A098EEE92E00E94C02A62
:102DC00040919B0950919C0960919D0970919E09C9
:102DD0008BEE92E00E94C02A40919F095091A00979
:102DE0006091A1097091A20988EE92E00E94C02A28
:102DF0004091A3095091A4096091A5097091A60979
:102E000085EE92E00E94C02AE8E0F2E007C08091DF
:102E1000C00085FFFCCF31969093C6009081992326
:102E2000B1F78091C00085FFFCCF8AE08093C60097
:102E3000FE019491EFE2F1E008C08091C00085FFAF
:102E4000FCCF9093C600319694919923B1F7E0EBB3
:102E5000F2E0949108C08091C00085FFFCCF909370
:102E6000C600319694919923B1F78091C00085FFF7
:102E7000FCCF8AE08093C600FE019491EFE2F1E07E
:102E800008C08091C00085FFFCCF9093C6003196AA
:102E900094919923B1F74091AB095091AC0960919D
:102EA000AD097091AE0987EA92E00E94E82940914D
:102EB000AF095091B0096091B1097091B20984EAEB
:102EC00092E00E94E829E8E0F2E007C08091C000AB
:102ED00085FFFCCF31969093C60090819923B1F77E
:102EE0008091C00085FFFCCF8AE08093C600FE0180
:102EF0009491EFE2F1E008C08091C00085FFFCCF23
:102F00009093C600319694919923B1F7E1EFF1E0E7
:102F1000949108C08091C00085FFFCCF9093C600BB
:102F2000319694919923B1F78091C00085FFFCCF31
:102F30008AE08093C600FE019491EFE2F1E008C0C0
:102F40008091C00085FFFCCF9093C600319694918C
:102F50009923B1F74091A7095091A8096091A90957
:102F60007091AA0988EE91E00E94E8294091BF097A
:102F70005091C0096091C1097091C20985EE91E03C
:102F80000E94E82940917309509174096091750974
:102F90007091760982EE91E00E94C02A4091B309B7
:102FA0005091B4096091B5097091B6098FED91E027
:102FB0000E94E8294091B7095091B8096091B90978
:102FC0007091BA098CED91E00E94E8294091BB090B
:102FD0005091BC096091BD097091BE0989ED91E0E5
:102FE0000E94E829E8E0F2E007C08091C00085FF78
:102FF000FCCF31969093C60090819923B1F78091D0
:10300000C00085FFFCCF8AE08093C600FE0194914A
:10301000EFE2F1E008C08091C00085FFFCCF909303
:10302000C600319694919923B1F7E7ECF1E09491C1
:1030300008C08091C00085FFFCCF9093C6003196F8
:1030400094919923B1F78091C00085FFFCCF8AE06D
:103050008093C600FE019491EFE2F1E008C08091F8
:10306000C00085FFFCCF9093C600319694919923C0
:10307000B1F74091620550916305609164057091CC
:1030800065058EEB91E00E94E8294091660550911C
:10309000670560916805709169058BEB91E00E946E
:1030A000E82940916A0550916B0560916C0570911B
:1030B0006D0588EB91E00E94E829E8E0F2E007C0A6
:1030C0008091C00085FFFCCF31969093C60090811F
:1030D0009923B1F78091C00085FFFCCF8AE08093EF
:1030E000C600FE019491EFE2F1E008C08091C000BB
:1030F00085FFFCCF9093C600319694919923B1F748
:10310000EEE9F1E0949108C08091C00085FFFCCF0A
:103110009093C600319694919923B1F78091C000A5
:1031200085FFFCCF8AE08093C600FE019491EFE218
:10313000F1E008C08091C00085FFFCCF9093C600ED
:10314000319694919923B1F740916E0550916F0596
:10315000609170057091710585E991E00E94E82900
:1031600040917205509173056091740570917505D9
:1031700082E991E00E94E829409176055091770517
:1031800060917805709179058FE891E00E94E829B7
:10319000E8E0F2E007C08091C00085FFFCCF3196E7
:1031A0009093C60090819923B1F78091C00085FF6C
:1031B000FCCF8AE08093C600FE019491EFE2F1E03B
:1031C00008C08091C00085FFFCCF9093C600319667
:1031D00094919923B1F7E1E8F1E0949108C08091CE
:1031E000C00085FFFCCF9093C6003196949199233F
:1031F000B1F78091C00085FFFCCF8AE08093C600C4
:10320000FE019491EFE2F1E008C08091C00085FFDB
:10321000FCCF9093C600319694919923B1F74091D9
:10322000F3035091F4036091F5037091F60387E77F
:1032300091E00E94E8296091F7037091F803809172
:10324000F9039091FA030E949D69AB01BC0184E7E8
:1032500091E00E94E8296091FB037091FC0380914A
:10326000FD039091FE030E94A969AB01BC0181E7B7
:1032700091E00E94E829E8E0F2E007C08091C000F8
:1032800085FFFCCF31969093C60090819923B1F7CA
:103290008091C00085FFFCCF8AE08093C600DF915B
:1032A000CF9108950F931F93DF93CF93CDB7DEB7E0
:1032B00066970FB6F894DEBF0FBECDBF80910402B3
:1032C00090910502A0910602B09107028B8B9C8B16
:1032D000AD8BBE8BFE013F9604E610E0F999FECF60
:1032E00012BD01BDF89A80B580830F5F1F4F08366D
:1032F000110511F03196F2CFCE014396BE01615F08
:103300007F4F43E050E00E94470D009709F0CAC18B
:10331000E7E8F9E0F999FECF12BD01BDF89A80B552
:1033200080830F5F1F4F0837110511F03196F2CFE0
:10333000E7E7F9E0F999FECF12BD01BDF89A80B533
:1033400080830F5F1F4F0838110511F03196F2CFBF
:10335000E7E9F9E0F999FECF12BD01BDF89A80B511
:1033600080830F5F1F4F0839110511F03196F2CF9E
:103370000E944C4EEBEAF9E0F999FECF12BD01BD77
:10338000F89A80B580830F5F1F4F0C39110511F03B
:103390003196F2CFEFEAF9E0F999FECF12BD01BD07
:1033A000F89A80B580830F5F1F4F003A110511F026
:1033B0003196F2CFE7EAF9E0F999FECF12BD01BDEF
:1033C000F89A80B580830F5F1F4F043A110511F002
:1033D0003196F2CFEFEBF9E0F999FECF12BD01BDC6
:1033E000F89A80B580830F5F1F4F083A110511F0DE
:1033F0003196F2CFE3E7F9E0F999FECF12BD01BDB6
:10340000F89A80B580830F5F1F4F0C3A110511F0B9
:103410003196F2CFE3EBF9E0F999FECF12BD01BD91
:10342000F89A80B580830F5F1F4F003B110511F0A4
:103430003196F2CFE7EBF9E0F999FECF12BD01BD6D
:10344000F89A80B580830F5F1F4F043B110511F080
:103450003196F2CFEBEBF9E0F999FECF12BD01BD49
:10346000F89A80B580830F5F1F4F083B110511F05C
:103470003196F2CFE2E6F5E0F999FECF12BD01BD3B
:10348000F89A80B580830F5F1F4F043C110511F03F
:103490003196F2CFEEE6F5E0F999FECF12BD01BD0F
:1034A000F89A80B580830F5F1F4F003D110511F022
:1034B0003196F2CFFE013196F999FECF12BD01BDD2
:1034C000F89A80B580830F5F1F4F023D110599F771
:1034D000FE013396F999FECF12BD01BDF89A80B571
:1034E00080830F5F1F4F043D110511F03196F2CF1D
:1034F000FE013596F999FECF12BD01BDF89A80B54F
:1035000080830F5F1F4F063D110511F03196F2CFFA
:10351000FE013796F999FECF12BD01BDF89A80B52C
:1035200080830F5F1F4F083D110511F03196F2CFD8
:10353000FE013996F999FECF12BD01BDF89A80B50A
:1035400080830F5F1F4F0A3D110511F03196F2CFB6
:10355000FE013B96F999FECF12BD01BDF89A80B5E8
:1035600080830F5F1F4F0C3D110511F03196F2CF94
:10357000EDE7F5E0F999FECF12BD01BDF89A80B5EF
:1035800080830F5F1F4F003E110511F03196F2CF7F
:10359000E3EFF3E0F999FECF12BD01BDF89A80B5D3
:1035A00080830F5F1F4F043E110511F03196F2CF5B
:1035B000E7EFF3E0F999FECF12BD01BDF89A80B5AF
:1035C00080830F5F1F4F083E110511F03196F2CF37
:1035D000EBEFF3E0F999FECF12BD01BDF89A80B58B
:1035E00080830F5F1F4F0C3E110511F03196F2CF13
:1035F000FE013D96F999FECF12BD01BDF89A80B546
:1036000080830F5F1F4F0E3E110511F03196F2CFF0
:10361000E8E8F4E0F999FECF12BD01BDF89A80B553
:1036200080830F5F1F4F81E00035180711F031963E
:10363000F1CFEAEEF4E0F999FECF12BD01BDF89AA0
:1036400080B5808381E0013B180721F00F5F1F4F99
:103650003196F1CF0E949D100E94A868EFE2F1E040
:10366000949108C08091C00085FFFCCF9093C60064
:10367000319694919923B1F7E7E5F1E0949108C070
:103680008091C00085FFFCCF9093C6003196949145
:103690009923B1F78091C00085FFFCCF8AE0809329
:1036A000C60001C082D85DDA66960FB6F894DEBF18
:1036B0000FBECDBFCF91DF911F910F9108952F9233
:1036C0003F924F925F926F927F928F929F92AF92B2
:1036D000BF92CF92DF92EF92FF920F931F93DF93EF
:1036E000CF9300D00F92CDB7DEB79C838B837A83C4
:1036F00069838A0139014C01E3E0880C991CEA9541
:10370000E1F7881A990AFB01E80DF91DEE0FFF1F7A
:10371000EE0FFF1FE057FA4F608171818281938124
:1037200020E030E040E050E00E94237C882309F054
:10373000EAC08B819C81800F911F6801CC0CDD1C3D
:103740002B813C81C20ED31E7C0153E0EE0CFF1C8A
:103750005A95E1F7E81AF90AE981FA81EE0DFF1DA1
:10376000EE0FFF1FEE0FFF1FE057FA4F2081318150
:1037700042815381CA01B9010E944A7B860133E02C
:10378000000F111F3A95E1F70C191D09E981FA8123
:10379000E00FF11FEE0FFF1FEE0FFF1FE057FA4F74
:1037A00020813181428153810E94497B1B012C0180
:1037B000A980BA80A60CB71C6301CC0CDD1C8981E2
:1037C0009A81C80ED91EF401EA0DFB1DEE0FFF1FF2
:1037D000EE0FFF1FE057FA4F208131814281538164
:1037E000CA01B9010E944A7BF401EC0DFD1DEE0FE8
:1037F000FF1FEE0FFF1FE057FA4F208131814281FA
:1038000053810E94497B3B014C01EA0CFB1CEE0CEE
:10381000FF1CEE0CFF1CA0E9B5E0EA0EFB1EF70151
:103820002081318142815381CA01B9010E944A7BC2
:103830000C0D1D1D000F111F000F111F00571A4FF7
:10384000D8012D913D914D915C910E94497B7B0166
:103850008C01C201B101A40193010E94237C882341
:10386000B4F4C401B301A80197010E94237C88230A
:103870002CF4B62CD72CA82CC92C04C0BE2CDF2CC1
:10388000A02EC12EC801B701A201910115C0C80127
:10389000B701A40193010E94237C88232CF4B62C49
:1038A000D72CA82CC92C04C0BE2CDF2CA02EC12ED6
:1038B000C201B101A80197010E94237C882324F44E
:1038C000B22CD32CA42CC52CEB81FC8143E0EE0F51
:1038D000FF1F4A95E1F72B813C81E21BF30B8981A5
:1038E0009A81E80FF91FEE0FFF1FEE0FFF1FE05741
:1038F000FA4F2B2D3D2D4A2D5C2DC901DA01808315
:103900009183A283B3830F900F900F900F90CF916C
:10391000DF911F910F91FF90EF90DF90CF90BF90BC
:10392000AF909F908F907F906F905F904F903F905F
:103930002F900895EF92FF920F931F93CF93DF93F1
:10394000EC01E0909903F0909A0300919B03109191
:103950009C03688179818A819B81A80197010E94DB
:10396000237C882324F4E882F9820A831B83E09075
:103970009D03F0909E0300919F031091A0036C8122
:103980007D818E819F81A80197010E94237C8823DD
:1039900024F4EC82FD820E831F83E090A103F0905B
:1039A000A2030091A3031091A403688579858A85F9
:1039B0009B85A80197010E94237C882324F4E88634
:1039C000F9860A871B87E090A503F090A603009173
:1039D000A7031091A803688179818A819B81A8013E
:1039E00097010E94317E181624F4E882F9820A8336
:1039F0001B83E090A903F090AA030091AB03109100
:103A0000AC036C817D818E819F81A80197010E940A
:103A1000317E181624F4EC82FD820E831F83E09021
:103A2000AD03F090AE030091AF031091B003688531
:103A300079858A859B85A80197010E94317E181699
:103A400024F4E886F9860A871B87DF91CF911F91BE
:103A50000F91FF90EF9008958091220708950E94A2
:103A60007B6980912207882309F036C081E080932A
:103A700022078091250790912607A0912707B091F2
:103A800028078093290790932A07A0932B07B093C8
:103A90002C07E8E7F3E0949108C08091C00085FF0F
:103AA000FCCF9093C600319694919923B1F7EFE73C
:103AB000F3E0949108C08091C00085FFFCCF909303
:103AC000C600319694919923B1F78091C00085FF8B
:103AD000FCCF8AE08093C6000895F8940E947B6929
:103AE0005F9A10927A058A9A10927B058FB7F894A4
:103AF000909108019160909308018FBF10927C050E
:103B0000129A8CE060E00E94277AE8E7F3E0949153
:103B100008C08091C00085FFFCCF9093C60031960D
:103B200094919923B1F7E5EFF3E0949108C0809167
:103B3000C00085FFFCCF9093C600319694919923E5
:103B4000B1F78091C00085FFFCCF8AE08093C6006A
:103B5000FFCF0E94807860932D0770932E0780938B
:103B60002F0790933007E4E1F4E0949108C080912E
:103B7000C00085FFFCCF9093C600319694919923A5
:103B8000B1F78091C00085FFFCCF8AE08093C6002A
:103B90000895EF92FF920F931F930E948078E09018
:103BA0003107F090320700913307109134072091CC
:103BB0002D0730912E0740912F0750913007621B3F
:103BC000730B840B950BE616F7060807190730F4FC
:103BD000E114F1040105110509F07FDF8091B203C2
:103BE0009091B303A091B403B091B5030097A105E0
:103BF000B10591F10E94807820912D0730912E0718
:103C000040912F0750913007621B730B840B950B6B
:103C10002091B2033091B3034091B4035091B503A6
:103C20002617370748075907B8F49091241D80914B
:103C3000251D981789F45F9A10927A058A9A109236
:103C40007B059FB7F89480910801816080930801FB
:103C50009FBF10927C05129A0E9401511F910F91F3
:103C6000FF90EF9008956F927F928F929F92AF9204
:103C7000BF92CF92DF92EF92FF920F931F93F82E95
:103C8000609135077091360780913707909138071A
:103C90002091390730913A0740913B0750913C07FA
:103CA0000E943E7E3B014C0100D000D00DB71EB7F4
:103CB0000F5F1F4F6091910370919203882777FDEA
:103CC0008095982F0E94C57C2091B6033091B70350
:103CD0004091B8035091B9030E94037F20E030E087
:103CE00040E752E40E942A7C20E030E048EC52E4B5
:103CF0000E942A7C5B016C01F801608271828282E1
:103D00009382F48280918105858382E595E061E468
:103D100077E045E357E020E001E0F2E0EF2E0E947B
:103D20008E498091410790914207A0914307B0913D
:103D300044078093520590935305A0935405B09384
:103D400055058091450790914607A0914707B0918E
:103D500048078093560590935705A0935805B09354
:103D600059058091490790914A07A0914B07B0915E
:103D70004C0780935A0590935B05A0935C05B09324
:103D80005D0580914D0790914E07A0914F07B0912E
:103D9000500780935E0590935F05A0936005B093F4
:103DA00061058DB79EB706960FB6F8949EBF0FBEFD
:103DB0008DBF0E94807860932D0770932E078093AB
:103DC0002F07909330071F910F91FF90EF90DF9096
:103DD000CF90BF90AF909F908F907F906F900895FD
:103DE0008F929F92AF92BF92CF92DF92EF92FF920B
:103DF0000F931F934C016AEC74E08DEB92ECF4018D
:103E000020813181428153810E94497B7B018C0159
:103E100060E972E48AE592ECF401248135814681FF
:103E200057810E94497B5B016C01C801B701A80161
:103E300097010E94037F9B01AC0160E878E289E86A
:103E400097E40E94497B7B018C01C601B501A60164
:103E500095010E94037F9B01AC01C801B7010E943C
:103E6000497B0E94707FF40120853185428553850E
:103E70000E944A7B60938405709385058093860534
:103E8000909387056AEC74E08DEB92E4F401208155
:103E90003181428153810E94497B7B018C0160E921
:103EA00072E48AE592ECF4012481358146815781E0
:103EB0000E94497B5B016C01C801B701A801970111
:103EC0000E94037F9B01AC0160E878E289E897E4F7
:103ED0000E94497B7B018C01C601B501A6019501B9
:103EE0000E94037F9B01AC01C801B7010E94497B7E
:103EF0000E94707FF40120853185428553850E94A0
:103F00004A7B609388057093890580938A05909316
:103F10008B0560E070E080E090E0F4012081318169
:103F2000428153810E94497B7B018C0160E972E4EC
:103F30008AED92E4F40124813581468157810E9403
:103F4000497B5B016C01C801B701A80197010E9480
:103F5000037F9B01AC0160E878E289E897E40E9466
:103F6000497B7B018C01C601B501A60195010E9428
:103F7000037F9B01AC01C801B7010E94497B0E94ED
:103F8000707FF40120853185428553850E944A7BEC
:103F900060938C0570938D0580938E0590938F05AB
:103FA0001F910F91FF90EF90DF90CF90BF90AF9057
:103FB0009F908F9008952F923F924F925F926F92B1
:103FC0007F928F929F92AF92BF92CF92DF92EF92A9
:103FD000FF920F931F93DF93CF9300D00F92CDB733
:103FE000DEB70E94807860932D0770932E07809330
:103FF0002F0790933007A1E4CA2EA7E0DA2EC6015E
:10400000EFDE0F920F922DB63EB60894211C311CA4
:1040100040908405509085056090860570908705D6
:104020008091880590918905A0918A05B0918B05B2
:1040300089839A83AB83BC83E0908C05F0908D05D7
:1040400000918E0510918F05ACE0B0E0CA0EDB1E2A
:104050006091910370919203882777FD8095982F46
:104060000E94C57C2091B6033091B7034091B803FC
:104070005091B9030E94037F20E030E040E752E412
:104080000E942A7C20E030E048EC52E40E942A7C26
:104090004B015C0181E895E0F10191838083C301CC
:1040A000B20129813A814B815C810E94E253809167
:1040B000410790914207A0914307B0914407809334
:1040C000520590935305A0935405B09355058091E4
:1040D000450790914607A0914707B0914807809304
:1040E000560590935705A0935805B09359058091B4
:1040F000490790914A07A0914B07B0914C078093D4
:104100005A0590935B05A0935C05B0935D05809183
:104110004D0790914E07A0914F07B09150078093A3
:104120005E0590935F05A0936005B09361050F90C5
:104130000F900F900F900F900F90CF91DF911F91E4
:104140000F91FF90EF90DF90CF90BF90AF909F9036
:104150008F907F906F905F904F903F902F90089539
:104160002F923F924F925F926F927F928F929F9287
:10417000AF92BF92CF92DF92EF92FF920F931F9375
:10418000DF93CF93CDB7DEB764970FB6F894DEBF59
:104190000FBECDBF8C01DC016D917D918D919C9105
:1041A00020E030E040E252E40E942A7C69837A8376
:1041B0008B839C832EE93FEE4FE350E40E94317ED7
:1041C00018168CF069817A818B819C812EE93FEEF3
:1041D0004FE350EC0E94237C88236CF48EE99FEE21
:1041E000AFE3B0EC04C08EE99FEEAFE3B0E48983A7
:1041F0009A83AB83BC83D80114966D917D918D9188
:104200009C91179720E030E040E252E40E942A7C23
:104210002B013C012EE93FEE4FE350E40E94317E3A
:104220001816ACF0C301B2012EE93FEE4FE350EC9B
:104230000E94237C8823ACF40F2EFEE94F2EFFEE64
:104240005F2EFFE36F2EF0EC7F2EF02D0AC00F2EB5
:10425000FEE94F2EFFEE5F2EFFE36F2EF0E47F2E80
:10426000F02D69817A818B819C810E94007D0E9462
:10427000927C6B017C01C301B2010E94007D0E940F
:10428000927C4B015C01B601882777FD8095982FC1
:104290000E94C57C9B01AC0169817A818B819C81E4
:1042A0000E94497B6D837E838F839887B401882722
:1042B00077FD8095982F0E94C57C9B01AC01C301BE
:1042C000B2010E94497B69877A878B879C8763E06C
:1042D000462E512C4C0C5D1C53E0652E712C680C45
:1042E000791CE4E0F0E08E0E9F1ECE0EDF1E60E033
:1042F00070E080E89FE329853A854B855C850E94C4
:10430000497B6D877E878F87988B60E070E080E8BF
:104310009FE32D813E814F8158850E94497B698BA7
:104320007A8B8B8B9C8B820143E0000F111F4A9587
:10433000E1F704191509F801E60DF71DEE0FFF1F4F
:10434000EE0FFF1FE057FA4F6D857E858F859889A8
:1043500020813181428153810E94037F1B012C0106
:10436000080D191D000F111F000F111F00571A4FC4
:1043700069857A858B859C85D8012D913D914D91DC
:104380005C910E94037F9B01AC01C201B1010E94BC
:104390004A7B9B01AC0169897A898B899C890E943F
:1043A000037F1B012C01860193E0000F111F9A95DA
:1043B000E1F70C191D09600E711E660C771C660C66
:1043C000771CE0E9F5E06E0E7F1E6D857E858F859A
:1043D0009889D3012D913D914D915C910E94037F6D
:1043E0006B017C01080D191D000F111F000F111F1B
:1043F00000571A4F69857A858B859C85F801208145
:104400003181428153810E94037F9B01AC01C7012E
:10441000B6010E944A7B9B01AC016D817E818F8138
:1044200098850E94037F9B01AC01C201B1010E94EB
:104430004A7B2B013C0120918405309185054091F8
:104440008605509187050E944A7B7B018C0120E202
:104450003FE547E054E40E94317E181654F40F2ED5
:10446000F0E2EF2EFFE5FF2EF7E00F2FF4E41F2F11
:10447000F02DE0928405F092850500938605109357
:104480008705C301B20120918805309189054091CB
:104490008A0550918B050E944A7B7B018C0120E2AA
:1044A0003FE547E054E40E94317E181654F40F2E85
:1044B000F0E2EF2EFFE5FF2EF7E00F2FF4E41F2FC1
:1044C000F02DE0928805F092890500938A051093FB
:1044D0008B05C301B20120918C0530918D0540916F
:1044E0008E0550918F050E944A7B7B018C0120E252
:1044F0003FE547E054E40E94317E181654F40F2E35
:10450000F0E2EF2EFFE5FF2EF7E00F2FF4E41F2F70
:10451000F02DE0928C05F0928D0500938E0510939E
:104520008F0564960FB6F894DEBF0FBECDBFCF9156
:10453000DF911F910F91FF90EF90DF90CF90BF9090
:10454000AF909F908F907F906F905F904F903F9033
:104550002F9008952F923F924F925F926F927F9289
:104560008F929F92AF92BF92CF92DF92EF92FF9283
:104570000F931F93DF93CF93CDB7DEB7A6970FB6F8
:10458000F894DEBF0FBECDBF81E497E0D3D90E947F
:10459000807860932D0770932E0780932F07909358
:1045A0003007EE24FF246E010894C11CD11C860143
:1045B0000E0D1F1DF701EF5BF84FD701AE5ABA4F32
:1045C00060817181828193812D913D914D915C91AA
:1045D0000E94497BD8016D937D938D939C93139793
:1045E000E4E0F0E0EE0EFF1EF0E1EF16F104F9F664
:1045F00089819A81AB81BC818B8F9C8FAD8FBE8F5F
:104600008D819E81AF81B8858F8B988FA98FBA8F4E
:1046100089859A85AB85BC858B8B9C8BAD8BBE8B3E
:104620006B8D7C8D8D8D9E8D9B01AC010E94037FD7
:104630007B018C016F89788D898D9A8D9B01AC01EE
:104640000E94037F9B01AC01C801B7010E944A7B15
:104650007B018C016B897C898D899E899B01AC01D2
:104660000E94037F9B01AC01C801B7010E944A7BF5
:104670000E94707F7B018C012DEB37E346E855E308
:104680000E94237C882394F4ED84FE840F8518898E
:10469000C801B70120E030E040E050E00E94317EE8
:1046A000181624F017FB109517F91095C801B701DB
:1046B0002DEB37E346E855E30E94237C87FD71C16B
:1046C000C801B70120E030E84BEB55E40E94037FBE
:1046D0002091B6033091B7034091B8035091B903CC
:1046E0000E942A7C7B018C0160919103709192035E
:1046F000882777FD8095982F0E94C57C9B01AC018F
:10470000C801B7010E942A7C20E030E040E253E477
:104710000E94037F0E94927C7A8B698B1616170683
:1047200024F0A1E0B0E0BA8BA98BF1E02F2E312C60
:1047300089899A89AA2797FDA095BA2F8BA39CA354
:10474000ADA3BEA3E8C0B101882777FD8095982F5F
:104750000E94C57C7B018C016BA17CA18DA19EA1D7
:104760000E94C57C9B01AC01C801B7010E942A7C54
:104770007B018C016B8D7C8D8D8D9E8DA8019701A9
:104780000E94037F9B01AC0160915205709153051B
:1047900080915405909155050E944A7B6093410792
:1047A0007093420780934307909344076F89788DF5
:1047B000898D9A8DA80197010E94037F9B01AC010E
:1047C0006091560570915705809158059091590553
:1047D0000E944A7B60934507709346078093470782
:1047E000909348076B897C898D899E89A8019701E0
:1047F0000E94037F9B01AC0160915A0570915B059B
:1048000080915C0590915D050E944A7B6093490709
:1048100070934A0780934B0790934C07C801B701E8
:104820002D853E854F8558890E94037F9B01AC01F1
:1048300060915E0570915F058091600590916105C2
:104840000E944A7B60934D0770934E0780934F07F9
:104850009093500781E497E0C3DA81E497E080DC2D
:104860000F920F92CDB6DEB60894C11CD11C4090B9
:10487000840550908505609086057090870580912D
:10488000880590918905A0918A05B0918B058F8F3D
:1048900098A3A9A3BAA3E0908C05F0908D05009190
:1048A0008E0510918F056091910370919203882776
:1048B00077FD8095982F0E94C57C2091B60330919A
:1048C000B7034091B8035091B9030E94037F20E0E1
:1048D00030E040E752E40E942A7C20E030E048ECDF
:1048E00052E40E942A7C4B015C01E1E8F5E0D6012C
:1048F000ED93FC93C301B2012F8D38A149A15AA1B8
:10490000EDE4CE2EE7E0DE2E0E94E2530894211C57
:10491000311C0F900F9089899A89821593050CF0AC
:1049200012CF8091410790914207A0914307B09127
:1049300044078093520590935305A0935405B09378
:1049400055058091450790914607A0914707B09182
:1049500048078093560590935705A0935805B09348
:1049600059058091490790914A07A0914B07B09152
:104970004C0780935A0590935B05A0935C05B09318
:104980005D0580914D0790914E07A0914F07B09122
:10499000500780935E0590935F05A0936005B093E8
:1049A0006105A6960FB6F894DEBF0FBECDBFCF91BE
:1049B000DF911F910F91FF90EF90DF90CF90BF900C
:1049C000AF909F908F907F906F905F904F903F90AF
:1049D0002F90089582E799E00E94C847E7E1F4E04C
:1049E000949108C08091C00085FFFCCF9093C600D1
:1049F000319694919923B1F740912507509126075C
:104A000060912707709128074F5F5F4F6F4F7F4F6F
:104A100082E799E02AE030E00E9486488091C00059
:104A200085FFFCCF8AE08093C60093C86F927F9287
:104A30008F929F92AF92BF92CF92DF92EF92FF92AE
:104A40000F931F936090B6037090B7038090B803E4
:104A50009090B9030F2EF0E0AF2EF0E4BF2EFCE9EA
:104A6000CF2EF5E4DF2EF02DA092B603B092B7035F
:104A7000C092B803D092B903609341077093420784
:104A8000809343079093440720934507309346074C
:104A90004093470750934807E0924907F0924A072E
:104AA00000934B0710934C0786DA0E945061609286
:104AB000B6037092B7038092B8039092B9031F9126
:104AC0000F91FF90EF90DF90CF90BF90AF909F90AD
:104AD0008F907F906F9008958091810390918203D1
:104AE000A0918303B09184038093B6039093B7039E
:104AF000A093B803B093B90380E090E0A0E0B0E0E9
:104B00008093410790934207A0934307B0934407D3
:104B10008093450790934607A0934707B0934807B3
:104B200080E090E0A0E2B2E48093490790934A07C6
:104B3000A0934B07B0934C073EDA0C9450618091E0
:104B4000810390918203A0918303B09184038093A9
:104B5000B6039093B703A093B803B093B9036091E1
:104B60005A0570915B0580915C0590915D0520E090
:104B700030E040EA51E40E944A7B60934907709319
:104B80004A0780934B0790934C0715DA80E090E03A
:104B9000A0E0B0E08093410790934207A0934307C1
:104BA000B09344078093450790934607A093470727
:104BB000B093480780E090E0A0E2B2E48093490718
:104BC00090934A07A0934B07B0934C07F4D90C94E9
:104BD000506180E00E946560809156079091570770
:104BE000A0915807B09159078093B6039093B703EB
:104BF000A093B803B093B9038091500590915105EB
:104C000090939203809391030E94807860932D0784
:104C100070932E0780932F079093300708952F925B
:104C20003F924F925F926F927F928F929F92AF923C
:104C3000BF92CF92DF92EF92FF920F931F93DF9379
:104C4000CF93CDB7DEB7A0970FB6F894DEBF0FBEF7
:104C5000CDBF9E838D838330910508F0D4C2FC01C3
:104C6000E156FA4FB490880F991F880F991F98A3A7
:104C70008F8FB2E52B2EB5E03B2E280E391E20E09B
:104C800030E040E050E0D1012D933D934D935C9393
:104C9000139760915205709153058091540590913E
:104CA0005505209156053091570540915805509172
:104CB0005905E0905A05F0905B0500915C05109154
:104CC0005D05AEE5CA2EA5E0DA2E0E94944E20E0E6
:104CD00030E040E050E0D1012D933D934D935C9343
:104CE00013976091520570915305809154059091EE
:104CF0005505209156053091570540915805509122
:104D00005905E0905A05F0905B0500915C05109103
:104D10005D050E94944EEF8DF8A1EE55FA4FE59097
:104D2000F590059114916B2D772767FD7095882775
:104D300077FD8095982F0E94C57C69837A838B8349
:104D40009C83EF8DF8A1EF5BF84FF887EF83C801E4
:104D5000B70120E030E040EC5FE30E94037F29814F
:104D60003A814B815C810E94037FAF81B8856D934E
:104D70007D938D939C931397EF8DF8A1EF57FC4F84
:104D8000FA87E98760817181828193816093B6039C
:104D90007093B7038093B8039093B9030F920F9267
:104DA000CDB6DEB60894C11CD11C4090410750908E
:104DB0004207609043077090440720914507309167
:104DC000460740914707509148072B873C874D87FE
:104DD0005E87E0904907F0904A0700914B071091D9
:104DE0004C0720E030E040E752E40E942A7C4B016F
:104DF0005C01E1E8F5E0D601ED93FC93C301B2015B
:104E00002B853C854D855E85FDE4CF2EF7E0DF2EBA
:104E10000E94E2530F900F900E94506180E00E9428
:104E2000656020E030E040E050E0D1012D933D93FB
:104E30004D935C9313976091520570915305809147
:104E40005405909155052091560530915705409194
:104E5000580550915905E0905A05F0905B05009176
:104E60005C0510915D05EEE5CE2EE5E0DE2E0E949C
:104E7000944EEF8DF8A1E255FA4F4590559065900C
:104E80007490C301B201905829813A814B815C81B1
:104E90000E94037FEF81F88560837183828393830F
:104EA0000F920F92CDB6DEB60894C11CD11C209192
:104EB00041073091420740914307509144072F87A3
:104EC000388B498B5A8B8091450790914607A0916A
:104ED0004707B09148078B8B9C8BAD8BBE8BE090C6
:104EE0004907F0904A0700914B0710914C076091D9
:104EF000B6037091B7038091B8039091B90320E095
:104F000030E040E752E40E942A7C4B015C01E1E87A
:104F1000F5E0D601ED93FC936F85788989899A89AC
:104F20002B893C894D895E89BDE4CB2EB7E0DB2E11
:104F30000E94E2530F900F900E94506181E00E9406
:104F40006560C301B201A30192010E944A7B2981DD
:104F50003A814B815C810E94037FAF81B8856D935C
:104F60007D938D939C931397E985FA856081718178
:104F70008281938120E030E040E85EE30E94037F7D
:104F80006093B6037093B7038093B8039093B9030B
:104F90000F920F92CDB6DEB60894C11CD11C409082
:104FA000410750904207609043077090440720915A
:104FB00045073091460740914707509148072F8B8E
:104FC000388F498F5A8FE0904907F0904A07009137
:104FD0004B0710914C0720E030E040E752E40E947C
:104FE0002A7C4B015C01E1E8F5E0D601ED93FC93EE
:104FF000C301B2012F89388D498D5A8DADE4CA2E77
:10500000A7E0DA2E0E94E2530F900F900E945061A9
:10501000AF8CB8A02EE635E0A20EB31E69817A816E
:105020008B819C81D5012D913D914D915C910E9488
:10503000037F20E030E040E050E00E94237C8823A2
:105040000CF071C060915205709153058091540528
:10505000909155052091560530915705409158057E
:1050600050915905E0905A05F0905B0500915C0560
:1050700010915D05FEE5CF2EF5E0DF2E0E94944EE7
:10508000F50180819181A281B381EF81F8858083D0
:105090009183A283B3830F920F92CDB6DEB60894AC
:1050A000C11CD11C409041075090420760904307BB
:1050B000709044072091450730914607409147077B
:1050C000509148072B8F3C8F4D8F5E8FE0904907A2
:1050D000F0904A0700914B0710914C076091B6037E
:1050E0007091B7038091B8039091B90320E030E04C
:1050F00040E752E40E942A7C4B015C01E1E8F5E0C4
:10510000D601ED93FC93C301B2012B8D3C8D4D8DE7
:105110005E8DEDE4CE2EE7E0DE2E0E94E2530F908E
:105120000F900E945061CD80DE80CC0CDD1CCC0C39
:10513000DD1CF601E654FA4F6591759185919491C5
:10514000F601EE59FA4F80809180A280B380A501CC
:1051500094010E944A7B7B018C01F601EE5AFA4FC2
:10516000CB01D80180839183A283B383F601EA53F4
:10517000FA4F6591759185919491B9E96B2EB3E0E1
:105180007B2E6C0C7D1CA50194010E944A7BD301EF
:105190006D937D938D939C931397F601EE52FA4F86
:1051A0006591759185919491A5EA6A2EA3E07A2E76
:1051B0006C0C7D1CA50194010E944A7BF301608365
:1051C00071838283938321E437E0C20ED31EC7012B
:1051D000D801F60180839183A283B38380E090E0BD
:1051E000A0E0B0E08093B6039093B703A093B80318
:1051F000B093B9030E945E602D813E8126583A4FDC
:1052000081E0D9018C93A0960FB6F894DEBF0FBE53
:10521000CDBFCF91DF911F910F91FF90EF90DF9065
:10522000CF90BF90AF909F908F907F906F905F9046
:105230004F903F902F900895CF92DF92EF92FF9280
:105240000F931F93CF93DF93EE24FF24E1E0F6E06A
:10525000D4908AE0C82E38C0488159816A817B8108
:1052600082E799E022E030E00E948C499D2DE1E048
:10527000F6E008C08091C00085FFFCCF9093C60087
:10528000319694919923B1F70F5F1F4F6C960730B9
:10529000110511F7E9E0F2E007C08091C00085FF39
:1052A000FCCF31969093C60090819923B1F78091FD
:1052B000C00085FFFCCFC092C6000894E11CF11C21
:1052C00087E0E816F10451F0E701CC0FDD1FCC0FA9
:1052D000DD1FC057DA4F00E010E0BECFDF91CF9165
:1052E0001F910F91FF90EF90DF90CF900895BF92A4
:1052F000CF92DF92EF92FF920F931F93CF93DF93A2
:10530000EE24FF24E5E0F6E0C490E3E0F6E0D4907C
:105310002AE0B22E49C0488159816A817B8182E7A7
:1053200099E022E030E00E948C490630110571F0CE
:105330009C2DE5E0F6E008C08091C00085FFFCCF21
:105340009093C600319694919923B1F79D2DE3E097
:10535000F6E008C08091C00085FFFCCF9093C600A6
:10536000319694919923B1F70F5F1F4F6C960730D8
:10537000110589F6E9E0F2E007C08091C00085FFE1
:10538000FCCF31969093C60090819923B1F780911C
:10539000C00085FFFCCFB092C6000894E11CF11C50
:1053A00087E0E816F10451F0E701CC0FDD1FCC0FC8
:1053B000DD1FCC5AD94F00E010E0ADCFDF91CF9187
:1053C0001F910F91FF90EF90DF90CF90BF900895C5
:1053D000FC01949108C08091C00085FFFCCF9093A0
:1053E000C600319694919923B1F782E799E022E0C3
:1053F00030E00C948C498F929F92AF92BF92CF92E3
:10540000DF92EF92FF920F931F93CF93DF93EC0104
:105410004B0159016A018330910521F46330710514
:1054200009F4A1C08E0173E0000F111F7A95E1F716
:105430000C1B1D0B080D191D000F111F000F111F54
:1054400050E9E52E55E0F52EE00EF11EF7016081E2
:10545000718182819381A60195010E944A7BF701A7
:1054600060837183828393830C5A194FF8016081A2
:10547000718182819381A60195010E944A7BF80186
:105480006083718382839383EFEFF5E0949108C08A
:105490008091C00085FFFCCF9093C6003196949117
:1054A0009923B1F782E799E0BE014AE050E00E94FB
:1054B000B948ECEFF5E0949108C08091C00085FFF9
:1054C000FCCF9093C600319694919923B1F782E76F
:1054D00099E0B4014AE050E00E94B948E7EFF5E0F6
:1054E000949108C08091C00085FFFCCF9093C600C6
:1054F000319694919923B1F782E799E0B601A5011D
:1055000022E030E00E948C49E3EFF5E0949108C07E
:105510008091C00085FFFCCF9093C6003196949196
:105520009923B1F7FE0143E0EE0FFF1F4A95E1F723
:10553000EC1BFD0BE80DF91DEE0FFF1FEE0FFF1F1B
:10554000EC5AF94F408151816281738182E799E081
:1055500022E030E00E948C498091C00085FFFCCFA2
:105560008AE08093C600DF91CF911F910F91FF9049
:10557000EF90DF90CF90BF90AF909F908F90089565
:10558000FC01949108C08091C00085FFFCCF9093EE
:10559000C600319694919923B1F782E799E02AE009
:1055A00030E00C946A48EF92FF920F931F937C01B6
:1055B00084E060E00E94DA7A0027F7FC0095102F63
:1055C000C801B7010E948E781F910F91FF90EF9054
:1055D0000895EF92FF920F931F937C0184E061E0A6
:1055E0000E94DA7A0027F7FC0095102FC801B70156
:1055F0000E948E781F910F91FF90EF900895CF93A6
:10560000DF93C4E1D0E08BE490E0E3DF4A9902C08D
:1056100081E01AC086E990E0C6DF2197A1F7EAE0B1
:10562000F2E007C08091C00085FFFCCF31969093D7
:10563000C60090819923B1F78091C00085FFFCCF0F
:105640008AE08093C60080E0DF91CF9108951F9398
:10565000D6DF182F86E990E0A6DF1123A1F0ECE158
:10566000F2E007C08091C00085FFFCCF3196909397
:10567000C60090819923B1F78091C00085FFFCCFCF
:105680008AE08093C600812F1F91089540915C07A6
:1056900050915D0720E630E0B901469F9001479F99
:1056A000300D569F300D1124682F772767FD7095B8
:1056B000C901825A984F0E943C0D9C0190935B0750
:1056C00080935A0780E0232B09F081E008958F92A0
:1056D0009F92AF92BF92CF92DF92EF92FF920F9381
:1056E0001F938AEB93E00E94B47589DF81E00E94EA
:1056F0006560EAE5CE2EE5E0DE2E80905A059090BA
:105700005B05A0905C05B0905D0582E00E943E6163
:105710007B018C016091890370918A0380918B03D6
:1057200090918C0320E030E040E85EE30E94037F2C
:105730006093B6037093B7038093B8039093B90353
:1057400080E090E0A0E2B1EC8093490790934A0793
:10575000A0934B07B0934C070E94DB1F0E9450613F
:105760000E945E6080E00E94656082E00E943E616F
:10577000E61AF70A080B190BC801B7010E94C57C8D
:1057800020918F093091900940919109509192098F
:105790000E942A7C9B01AC01C501B4010E94497B97
:1057A00060935A0570935B0580935C0590935D054B
:1057B000C60108970E94F01E6091840570918505CE
:1057C0008091860590918705209188053091890503
:1057D00040918A0550918B05E0908C05F0908D05E5
:1057E00000918E0510918F05E4E0F0E0CE0EDF1EF3
:1057F0000E94944E86E990E0D6DE1F910F91FF90B3
:10580000EF90DF90CF90BF90AF909F908F900895D2
:105810002F923F924F925F926F927F928F929F92C0
:10582000AF92BF92CF92DF92EF92FF920F931F93AE
:105830003B014C0119012A016091520570915305F9
:10584000809154059091550520915605309157054A
:105850004091580550915905E9D8C401B30120E0A1
:1058600030E040E851E40E944A7B5B016C01C201D8
:10587000B10120E030E040EB51E40E944A7B9B0103
:10588000AC01E0905A05F0905B0500915C05109129
:105890005D05C601B501CAD81ADF10915A050091FD
:1058A0005B05F0905C05E0905D05EFEEF5E094910E
:1058B00008C08091C00085FFFCCF9093C600319650
:1058C00094919923B1F7EAEEF5E0949108C08091A4
:1058D000C00085FFFCCF9093C60031969491992328
:1058E000B1F782E799E0B401A30122E030E00E9421
:1058F0008C49E5EEF5E0949108C08091C00085FFE9
:10590000FCCF9093C600319694919923B1F782E72A
:1059100099E0B201A10122E030E00E948C49E0EE62
:10592000F5E0949108C08091C00085FFFCCF909372
:10593000C600319694919923B1F782E799E0212F1F
:10594000302FEF2DFE2DA901BF0122E030E00E9493
:105950008C49EEEDF5E0949108C08091C00085FF80
:10596000FCCF9093C600319694919923B1F7212FE3
:10597000302F4F2D5E2DB901CA011F910F91FF905D
:10598000EF90DF90CF90BF90AF909F908F907F90DF
:105990006F905F904F903F902F90089580915A079D
:1059A00090915B07019660E070E00C947E0ACF93C3
:1059B000DF93EC01809181058093240784E566DE06
:1059C000882309F46EC0EADF0E94977C262F60933B
:1059D0002407662309F465C0E2E7F3E0949108C068
:1059E0008091C00085FFFCCF9093C60031969491C2
:1059F0009923B1F7C936D10599F0CA36D10524F4F7
:105A0000C836D105F1F50FC0CD36D10531F0CA3D0C
:105A1000D105B9F5EEE2F2E031C0E5E4F2E023C0F1
:105A2000ECE5F2E015C0E3E7F2E007C08091C000CA
:105A300085FFFCCF31969093C60090819923B1F7F2
:105A400020C08091C00085FFFCCF31969093C600A6
:105A500090819923B1F715C08091C00085FFFCCFDC
:105A600031969093C60090819923B1F70AC0809136
:105A7000C00085FFFCCF31969093C600908199239A
:105A8000B1F782E799E0622F40E050E00E9475484C
:105A90008091C00085FFFCCF8AE08093C60081E042
:105AA00001C080E0DF91CF910895AF92BF92CF9275
:105AB000DF92EF92FF920F931F93CF93DF93F2E564
:105AC000EF2EF5E0FF2EC1E4D7E000E010E0F80192
:105AD000E75CFB4F8081DADD882331F15FDF5B011A
