:100000000C94F30A0C94200B0C94200B0C94200BF2
:100010000C94200B0C94200B0C94200B0C94200BB4
:100020000C94200B0C94200B0C94200B0C94200BA4
:100030000C94200B0C94200B0C94200B0C94200B94
:100040000C94200B0C9442750C94200B0C94200BF8
:100050000C94200B0C94200B0C94547D0C9432893E
:100060000C94200B0C949F4B0C94200B0C94200BA5
:100070000C94200B0C94200B0C94200B0C94200B54
:100080000C94200B0C94200B0C94200B0C94200B44
:100090000C94200B0C94200B0C94200B0C949D873B
:1000A0000C94200B0C94200B0C94200B0C94200B24
:1000B0000C94200B0C94200B0C94200B0C94200B14
:1000C0000C94200B0C94200B0C94200B0C94200B04
:1000D0000C94200B0C94200B0C94200B0C94200BF4
:1000E0000C94200B084AD73B3BCE016E84BCBFFD6D
:1000F000C12F3D6C74319ABD56833DDA3D00C77FF8
:1001000011BED9E4BB4C3E916BAAAABE0000008090
:100110003F05A84CCDB2D44EB93836A9020C50B91F
:10012000918688083CA6AAAA2ABE000000803F4DFE
:10013000383420582059205A2045006563686F3AAA
:100140000043616E6E6F7420656E74657220737506
:10015000626469723A20004D3234004D32332025FA
:1001600073006175746F25692E67004572726F7236
:100170003A006572726F722077726974696E6720D7
:10018000746F2066696C65004E6F74205344207054
:1001900072696E74696E67002F0053442070726933
:1001A0006E74696E67206279746520002E00446564
:1001B0006C6574696F6E206661696C65642C20469D
:1001C000696C653A200046696C652064656C6574ED
:1001D00065643A002E006F70656E206661696C651B
:1001E000642C2046696C653A200057726974696E08
:1001F0006720746F2066696C653A20002E006F706E
:10020000656E206661696C65642C2046696C653A90
:1002100020002E006F70656E206661696C65642C2D
:100220002046696C653A200046696C652073656CF0
:100230006563746564002053697A653A20004669F5
:100240006C65206F70656E65643A20002E006F70DB
:10025000656E206661696C65642C2046696C653A40
:10026000200053442063617264206F6B006F7065DF
:100270006E526F6F74206661696C656400766F6C96
:10028000756D652E696E6974206661696C656400C0
:10029000534420696E6974206661696C0065636807
:1002A0006F3A0048617264636F64656420446566F8
:1002B00061756C742053657474696E6773204C6F3C
:1002C000616465640053746F72656420736574744F
:1002D000696E677320726574726965766564002063
:1002E00044002049002020204D3330312050005060
:1002F00049442073657474696E67733A00205A002C
:1003000020590020204D323036205800486F6D654E
:10031000206F666673657420286D6D293A0020454C
:1003200000205A0020580020420020540020204D78
:10033000323035205300416476616E636564207607
:1003400061726961626C65733A20533D4D696E203C
:10035000666565647261746520286D6D2F73292C44
:1003600020543D4D696E2074726176656C2066651F
:1003700065647261746520286D6D2F73292C20428D
:100380003D6D696E696D756D207365676D656E7421
:100390002074696D6520286D73292C20583D6D618E
:1003A00078696D756D205859206A65726B20286DCB
:1003B0006D2F73292C20205A3D6D6178696D756D04
:1003C000205A206A65726B20286D6D2F73292C20AE
:1003D00020453D6D6178696D756D2045206A6572B7
:1003E0006B20286D6D2F73290020540020204D3282
:1003F0003034205300416363656C65726174696FCA
:100400006E3A20533D616363656C65726174696F18
:100410006E2C20543D726574726163742061636355
:10042000656C65726174696F6E00204500205A002A
:1004300020590020204D3230312058004D6178691C
:100440006D756D20416363656C65726174696F6E73
:1004500020286D6D2F7332293A00204500205A0064
:1004600020590020204D3230332058004D617869EA
:100470006D756D2066656564726174657320286DA5
:100480006D2F73293A00204500205A002059002082
:10049000204D393220580053746570732070657296
:1004A00020756E69743A0053657474696E677320C1
:1004B00053746F726564006563686F3A00457272C9
:1004C0006F723A005072696E7465722073746F7047
:1004D0007065642064756520746F206572726F7238
:1004E000732E2046697820746865206572726F7279
:1004F00020616E6420757365204D39393920746F21
:1005000020726573746172742E202854656D706555
:100510007261747572652069732072657365742EDB
:100520002053657420697420616674657220726559
:100530007374617274696E6729005072696E7465B4
:10054000722068616C7465642E206B696C6C28295C
:100550002063616C6C656421006F6B00526573658C
:100560006E643A20002200556E6B6E6F776E2063CA
:100570006F6D6D616E643A2022007A5F6D61783A2A
:1005800020007A5F6D696E3A2000795F6D61783A7C
:100590002000785F6D61783A20005A3A00593A009D
:1005A00020436F756E7420583A2000453A005A3A3D
:1005B00000593A00583A004649524D574152455F5A
:1005C0004E414D453A4D61726C696E2056313B206B
:1005D000537072696E7465722F6772626C206D6100
:1005E0007368757020666F722067656E36204649A5
:1005F000524D574152455F55524C3A687474703AA7
:100600002F2F7777772E6D656E64656C2D70617214
:1006100074732E636F6D2050524F544F434F4C5F95
:1006200056455253494F4E3A312E30204D414348A2
:10063000494E455F545950453A4D656E64656C208E
:1006400045585452554445525F434F554E543A31E4
:100650000A0020423A0020453A00543A0020573A16
:100660000020453A00543A002042403A0020403AE7
:1006700000202F003A00205400202F0020423A0092
:10068000202F006F6B20543A002569206D696E2C75
:100690002025692073656300456E642066696C657A
:1006A000206C69737400426567696E2066696C65C9
:1006B000206C697374002000200001010100007AA1
:1006C000430000664300808E430000A0400000A06D
:1006D000400000A040000000000000000000808EEC
:1006E000430000FAC20000E6C2000000000000FA69
:1006F000420000E64200808E432000256920686F9A
:10070000757273202569206D696E75746573004478
:100710006F6E65207072696E74696E672066696CB1
:1007200065005072696E7465722073746F707065C5
:10073000642064756520746F206572726F72732E09
:100740002046697820746865206572726F72206136
:100750006E6420757365204D39393920746F2072AD
:100760006573746172742E202854656D70657261B2
:10077000747572652069732072657365742E2053D9
:100780006574206974206166746572207265737483
:10079000617274696E6729006F6B004E6F204C693F
:1007A0006E65204E756D626572207769746820638E
:1007B0006865636B73756D2C204C617374204C6994
:1007C0006E653A20004E6F20436865636B73756DEC
:1007D0002077697468206C696E65206E756D62653E
:1007E000722C204C617374204C696E653A20006352
:1007F0006865636B73756D206D69736D6174636893
:100800002C204C617374204C696E653A20004C6951
:100810006E65204E756D626572206973206E6F740F
:10082000204C617374204C696E65204E756D626555
:10083000722B312C204C617374204C696E653A2008
:10084000004D31313000446F6E6520736176696E02
:10085000672066696C652E006F6B004D3239002091
:1008600020506C616E6E6572427566666572427983
:100870007465733A20002046726565204D656D6F82
:1008800072793A20004465632020332032303133BE
:1008900000436F6D70696C65643A20002844656C94
:1008A00074614D616B65722C20444D312D6265740D
:1008B000612900207C20417574686F723A200044E1
:1008C000656320203320323031332031313A3037E4
:1008D0003A343900204C617374205570646174653A
:1008E000643A2000312E302E30004D61726C696EFA
:1008F000200020536F6674776172652052657365BE
:100900007400205761746368646F67205265736573
:1009100074002042726F776E206F75742052657379
:100920006574002045787465726E616C2052657341
:10093000657400506F7765725570007374617274DE
:10094000002200656E717565696E672022002200C5
:10095000656E717565696E672022006563686F3A20
:100960000020746F6F206C6F6E67206578747275ED
:1009700073696F6E2070726576656E7465640020B1
:10098000636F6C6420657874727573696F6E207024
:10099000726576656E746564007C3C3E5E2B3D3FFF
:1009A0002F5B5D3B2C2A225C0045313A200045300C
:1009B0003A20005A3A2000593A2000583A20004D77
:1009C00053312C4D53322050696E730A0024F404C5
:1009D000D9201BC40C5C0E9804C4095F0265077122
:1009E00001F405F900FB04B30048048700C1036962
:1009F000005803550003034500BE023A008402314B
:100A00000053022A002902250004022000E4011CF0
:100A100000C8011900AF01170098011400840113E8
:100A200000710110006101100051010E0043010D21
:100A30000036010B002B010B0020010B00150109F2
:100A4000000C01090003010800FB000800F3000886
:100A500000EB000700E4000600DE000600D80006F8
:100A600000D2000600CC000500C7000500C200054A
:100A700000BD000400B9000400B5000400B100048A
:100A800000AD000400A9000400A5000300A20003BB
:100A9000009F0004009B00030098000300950002E3
:100AA0000093000300900003008D0002008B000300
:100AB000008800020086000200840003008100021A
:100AC000007F0002007D0002007B0002007900022E
:100AD000007700010076000200740002007200013D
:100AE00000710002006F0002006D0001006C000246
:100AF000006A000100690002006700010066000151
:100B00000065000100640002006200010061000154
:100B100000600001005F0002005D0001005C000158
:100B2000005B0001005A000100590001005800015B
:100B3000005700010056000100550001005400015B
:100B40000053000000530001005200010051000159
:100B500000500001004F0001004E0000004E000157
:100B6000004D0001004C0001004B0000004B000153
:100B7000004A00010049000100480000004800014F
:100B8000004700010046000000460001004500004B
:100B90000045000100440001004300000043000143
:100BA000004200000042000100410000004100013D
:100BB00000400001003F0000003F0001003E000037
:100BC000003E0001003D0000003D0001003C00002F
:100BD000003C0000003C0001003B0000003B000125
:100BE000003A0000003A000100390000003900011D
:100BF0000038000000380000003800010037000015
:100C00000037000100360000003600000036000109
:100C10000035000000350000003500010034000000
:100C200000340000003400010033000000330000F5
:100C300000330001003200000032000000320001E9
:100C400000310000003100000031000100300000E0
:100C50000030000000300001002F0000002F0000D5
:100C6000002F0000002F0001002E0000002E0000C9
:100C7000002E0001002D0000002D0000002D0000BE
:100C8000002D0001002C0000002C0000002C0000B2
:100C9000002C0001002B0000002B0000002B0000A6
:100CA000002B0001002A0000002A0000002A00009A
:100CB000002A00010029000000290000002900008E
:100CC0000029000000290001002800000028000081
:100CD0000028000000280000002800010027000074
:100CE0000027000000270000002700000027000167
:100CF000002600000026000000260000002600005C
:100D0000002600010025000000250000002500004D
:100D1000002500000025000000250001002400003F
:100D20000024000000240000002400000024000132
:100D30000023000000230000002300000023000027
:100D40000023000000230000002300010022000017
:100D5000002200000022000000220000002200000B
:100D600000220001002100000021000000210000FD
:100D700000210000002100000021000000210001EE
:100D800000200000002000000020000000200000E3
:100D900000200000002000000020000000200001D2
:100DA000001F0000001F0000001F0000001F0000C7
:100DB000001F0000001F0000001F0001001E0000B7
:100DC000001E0000001E0000001E00000024F4D4DD
:100DD0003050C38E20C2A24017828B7011127A91BC
:100DE0000D816CD90AA861E108C7586607615143B3
:100DF000061E4B5D05C145A7041A411104093D9823
:100E000003713931034036DB0265339102D430542B
:100E100002802E1D02632CEE01752AC501B028A0A8
:100E200001102781018F2564012B244B01E022341E
:100E300001AC211F018D200D01801FFC00841EEDDF
:100E400000971DDF00B81CD200E61BC600201BBCAB
:100E500000641AB200B219A8000A19A0006A189911
:100E600000D117910040178B00B516840031167E13
:100E700000B31579003A157300C7146F0058146A4F
:100E800000EE1366008813630025135E00C7125B33
:100E9000006C12570015125400C111510070114F0F
:100EA0000021114B00D61049008D10470046104418
:100EB0000002104200C00F4000800F3E00420F3C75
:100EC00000060F3B00CB0E3800930E37005C0E354A
:100ED00000270E3400F30D3200C10D3100900D30AB
:100EE00000600D2E00320D2D00050D2C00D90C2BAD
:100EF00000AE0C2900850C29005C0C2700350C275E
:100F0000000E0C2600E80B2400C40B2400A00B23C9
:100F1000007D0B23005A0B2100390B2100180B20F8
:100F200000F80A1F00D90A1E00BB0A1E009D0A1DF8
:100F300000800A1D00630A1C00470A1B002C0A1BC4
:100F400000110A1A00F7091A00DD091900C409196D
:100F500000AB091900920917007B091800630917F3
:100F6000004C09160036091600200916000A09155A
:100F700000F5081500E0081400CC081400B80814A7
:100F800000A4081400900813007D0812006B0813D9
:100F900000580812004608120034081100230811F6
:100FA000001208110001081100F0071000E00710FE
:100FB00000D0071000C0071000B0070F00A10710F5
:100FC0000091070E0083070F0074070F0065070EDE
:100FD0000057070E0049070E003B070D002E070EB5
:100FE0000020070D0013070D0006070D00F9060C81
:100FF00000ED060D00E0060C00D4060C00C8060C3F
:1010000000BC060C00B0060C00A4060B0099060CF0
:10101000008D060B0082060B0077060B006C060B9A
:101020000061060A0057060B004C060A0042060A39
:101030000038060A002E060A0024060A001A060ACC
:10104000001006090007060A00FD050900F405095D
:1010500000EB050900E2050900D9050900D00509E2
:1010600000C7050900BE050900B5050800AD050863
:1010700000A50509009C050800940508008C0508DA
:1010800000840508007C050800740508006C05074D
:1010900000650508005D050700560508004E0507B8
:1010A000004705070040050800380507003105071F
:1010B000002A050700230507001C05060016050782
:1010C000000F0507000805060002050700FB0406DF
:1010D00000F5040700EE040600E8040600E2040739
:1010E00000DB040600D5040600CF040600C9040690
:1010F00000C3040600BD040600B7040600B10405E1
:1011000000AC040600A6040600A00405009B04062B
:101110000095040500900406008A04050085040576
:1011200000800406007A04050075040500700405BB
:10113000006B04050066040500610405005C0405FD
:101140000057040500520405004D0405004804053D
:1011500000430405003E0404003A0405003504057C
:1011600000300404002C04050027040400230405B7
:10117000001E0404001A04040016040500110404EF
:10118000000D040400090405000404040000040424
:1011900000FC030400F8030400F4030400F003045B
:1011A00000EC030400E8030400E4030400E003048B
:1011B00000DC030400D8030400D4030400D00304BB
:1011C00000CC030400C8030300C503030065636883
:1011D0006F3A00205A3A0020593A0020583A0065E8
:1011E0006E6473746F7073206869743A200045727E
:1011F000726F723A0054656D7065726174757265D4
:101200002068656174656420626564207377697421
:1012100063686564206F66662E204D415854454DC5
:101220005020747269676765726564202121003AF5
:101230002045787472756465722073776974636889
:101240006564206F66662E204D494E54454D5020F2
:101250007472696767657265642021003A20457879
:10126000747275646572207377697463686564204D
:101270006F66662E204D415854454D50207472695A
:10128000676765726564202100202D20496E7661B4
:101290006C6964206578747275646572206E756D12
:1012A000626572202100504944204175746F747545
:1012B0006E652066696E6973686564212050757477
:1012C00020746865204B702C204B6920616E64206F
:1012D0004B6420636F6E7374616E747320696E74F7
:1012E0006F20436F6E66696775726174696F6E2EE9
:1012F0006800504944204175746F74756E652066AE
:1013000061696C6564212074696D656F7574002076
:10131000403A006F6B20543A006F6B20423A005005
:101320004944204175746F74756E65206661696CFF
:101330006564212054656D706572617475726520F5
:10134000746F6F206869676800204B643A20002042
:101350004B693A2000204B703A200020436C6173A7
:1013600069632050494420002054753A2000204BE6
:10137000753A2000206D61783A2000206D696E3A40
:10138000200020643A200020626961733A200070D6
:10139000012C0190012701B0012201C0011D01F0C3
:1013A0000118011002130130020E016002090190C0
:1013B000020401C002FF000003FA004003F50080B0
:1013C00003F000D003EB002004E6007004E100E02D
:1013D00004DC004005D700C005D2004006CD00D097
:1013E00006C8008007C3003008BE00F008B900C07E
:1013F00009B400B00AAF00B00BAA00D00CA50000E1
:101400000EA000500F9B00C01096005012910000DB
:10141000148C00C0158700B0178200B0197D00D071
:101420001B7800001E730040206E0090226900F0BF
:1014300024640040275F0090295A00E02B550010DB
:101440002E500020304B0010324600E03341009017
:10145000353C001037370070383200A0392D00B00D
:101460003A2800A03B2300603C1E00103D1900906C
:101470003D1400103E0F00703E0A00C03E05000003
:101480003F000000002100240027002A002D00302A
:1014900000330001010000040107010A01000022DD
:1014A00000250028002B002E00310034000201002E
:1014B00000050108010B010000200023002600297F
:1014C000002C002F0032000001000003010601097A
:1014D0000105050505070508080808020202020AB9
:1014E0000A080804040404010101010101010103C7
:1014F00003030303030303040707070C0C0C0C0C82
:101500000C0C0C0202020206060606060606060B74
:101510000B0B0B0B0B0B0B010210202008081020EB
:10152000401020408002010201080402010102046F
:10153000081020408080402010080402018004022E
:101540000180402010080402010804020101020485
:10155000081020408001020408102040800000098B
:101560000A02080B0C0D070603040100000000002E
:10157000000000000000000000000000000000006B
:1015800000000000000000000011100F000000002B
:10159000000000000000000000000000000000004B
:1015A000000000494E46494E4954594E414ECDCC5B
:1015B000CC3D0AD7233C17B7D13877CC2B32959541
:1015C000E6241FB14F0A000020410000C84200403D
:1015D0001C4620BCBE4CCA1B0E5AAEC59D74E624E8
:1015E000334C0C87E12411241FBECFEFD1E2DEBFC4
:1015F000CDBF00E00CBF14E0A0E0B2E0E2E5F3E212
:1016000001E00BBF02C007900D92A836B107D9F7D1
:101610001BBE12E1A8E6B4E001C01D92A338B107D9
:10162000E1F715E1C4EED5E104C02297FE010E9466
:101630004F91CE3DD107C9F70E94068C0C949D9125
:101640000C940000A0E0B0E0E8E2FBE00C946C91A8
:10165000EC015B016115710519F0FB019183808339
:10166000F9908F2D90E00E945391892BC9F7FDE2EC
:10167000FF1621F4F990EE24E39405C02BE2F21654
:1016800009F4F990EE248E0101501040C80163EA7C
:1016900075E143E050E069D2892BF9F48E010E5FC9
:1016A0001F4FC80166EA75E145E050E05ED2892B24
:1016B00019F48E01095F1F4FA114B10419F0F5014F
:1016C00011830083E0FC04C070E090E080E813C068
:1016D00070E090E080E86FEF07C1C8016BEA75E148
:1016E00043E050E042D2892B69F4A114B10429F4FB
:1016F00070E090E080EC6FE7F7C02296F501D183AF
:10170000C083F6CF8824992440E050E060E070E088
:10171000EF2DE053EA30A0F5F2E0EF2A8E2D90E0B5
:101720009C0128703070E2FE06C0232B79F50894E6
:10173000811C911C2BC0232B19F00894810891085F
:10174000DB01CA0112E0880F991FAA1FBB1F1A955F
:10175000D1F7480F591F6A1F7B1F440F551F661F83
:10176000771F4E0F511D611D711D483929E9520720
:1017700029E9620729E1720748F084E0E82A06C0F7
:10178000EE3F31F4E3FC39C098E0E92AF990C0CF8C
:10179000E53311F0E53189F529912D3219F4E0E1B5
:1017A000EE2A05C02B3219F081E090E003C02991A8
:1017B00082E090E0E22FE053EA3018F0C81BD90B2A
:1017C0001CC020E030E0FCE020383F075CF4C90199
:1017D000880F991F880F991F280F391F220F331F59
:1017E0002E0F311DE991E053EA3068F3E4FE03C0A7
:1017F000309521953F4F820E931ECE2CDD24E1FEC5
:1018000007C0A114B10421F02197F501D183C08351
:10181000CB01BA010E94B88D7B018C01F3E0CF228D
:10182000DD2423E0C216D10421F417FB109517F92B
:10183000109557016801C801B70120E030E040E091
:1018400050E00E94188D882309F44AC097FE0DC00D
:1018500022ECE22E25E1F22E90948194910893944B
:10186000C0E2D0E000E010E012C09AEDE92E95E170
:10187000F92EF6CFF7012591359145915491C60186
:10188000B5010E94F88F5B016C018C1A9D0A8C16C1
:101890009D0684F7D595C7950F5F1F4F063011053C
:1018A00029F08CEF9FEFE80EF91EF1CFC501D601AC
:1018B0007C018D018C2D880F8D2D881F8F3F51F05D
:1018C000C601B50120E030E040E050E00E94188DF4
:1018D000882331F482E290E0909382128093811207
:1018E0007E2D9F2D802F612F272F392F482F562F88
:1018F000B901CA01CDB7DEB7ECE00C9488912F9204
:101900003F925F926F927F928F929F92AF92BF921F
:10191000CF92DF92EF92FF920F931F93CF93DF93BB
:101920008C011B01EA016115710519F0FB0191831E
:101930008083209749F0CE010297839728F020E01A
:1019400030E040E050E0F6C0F801A1908F018A2D10
:1019500090E00E945391892BB9F7FDE2AF1631F464
:10196000F801A1908F015524539407C0FBE2AF16F4
:1019700019F4F801A1908F015524209719F0C03176
:10198000D105C1F4F0E3AF1679F4F801808188370E
:1019900011F0883549F4F801A1800E5F1F4FF2E085
:1019A0005F2AC0E1D0E006C0209721F480E3A816AA
:1019B000E9F427C0C830D10531F1C930D10524F48C
:1019C000C230D10531F50CC0CA30D10589F0C03123
:1019D000D105F9F4C12CD12CE12CB8E0FB2E28C0A4
:1019E000C12CD12CE12CA0E4FA2E22C0CAE0D0E018
:1019F000FCECCF2EFCECDF2EFCECEF2EFCE0FF2EFF
:101A000017C0C8E0D0E0C12CD12CE12CE0E1FE2EC3
:101A10000FC09E01442737FD4095542F60E070E0D1
:101A200080E090E80E94FC90C901DA016C017D0120
:101A300020E030E040E050E060E03E01882477FCA8
:101A40008094982C70EDB72EBA0CE9E0EB1570F489
:101A50008A2D81548A3118F499ECB92E06C08A2D4A
:101A600081568A3150F589EAB82EBA0C8B2D90E058
:101A70008C179D0714F56F3FE1F0C216D306E406FC
:101A8000F506B0F0CA01B901A40193010E94CA9001
:101A90009B01AC012B0D311D411D511D2130F0E08A
:101AA0003F07F0E04F07F0E85F0710F461E001C086
:101AB0006FEFF801A1908F01C5CF2114310481F09F
:101AC000662331F001501040F1011183008308C0FA
:101AD00051FE1AC002501040F1011183008314C05E
:101AE00067FF12C050FC05C02FEF3FEF4FEF5FE7DD
:101AF00004C020E030E040E050E882E290E09093C3
:101B000082128093811216C050FE08C050954095F5
:101B1000309521953F4F4F4F5F4F0CC057FF0AC084
:101B200082E290E090938212809381122FEF3FEF38
:101B30004FEF5FE7B901CA01DF91CF911F910F917C
:101B4000FF90EF90DF90CF90BF90AF909F908F90DD
:101B50007F906F905F903F902F900895FB01DC0184
:101B600005900D920020E1F70895FB01DC01415042
:101B7000504088F08D9181341CF08B350CF4805EE0
:101B8000659161341CF06B350CF4605E861B61114D
:101B900071F3990B0895881BFCCFFB0155915523D8
:101BA000A9F0BF01DC014D9145174111E1F759F44E
:101BB000CD010590002049F04D9140154111C9F328
:101BC000FB014111EFCF81E090E001970895FB0107
:101BD000DC0104C08D910190801921F441505040E6
:101BE000C8F7881B990B0895FB01DC0102C0019026
:101BF0000D9241505040D8F70895FB01DC010D9043
:101C00000020E9F7119701900D920020E1F7089567
:101C1000FC018191861721F08823D9F7992708952F
:101C20003197CF010895FB01DC0101900D92002056
:101C3000E1F70895FB01DC014150504030F08D91F7
:101C40000190801919F40020B9F7881B990B0895A9
:101C5000FB01DC014150504048F001900D92002002
:101C6000C9F701C01D9241505040E0F70895AEE021
:101C7000B0E0EDE3FEE00C9474910E891F898EE0D4
:101C80008C831A8309838FEF9FE79E838D839E0148
:101C9000265E3F4FCE010196688D798DA9010AD04D
:101CA0002F813885020F131FF80110822E96E4E071
:101CB0000C949091ABE0B0E0E0E6FEE00C9466910D
:101CC0003C012B015A01FC0117821682838181FDA0
:101CD00003C06FEF7FEFB9C19AE0892E1E0108940F
:101CE000211C311CF3012381F20123FD859123FF87
:101CF00081912F01882309F4A5C1853239F423FD90
:101D0000859123FF81912F01853221F490E0B30169
:101D1000B7D1E8CF982FFF24EE249924FFE1FF15D7
:101D2000D0F09B3269F09C3228F4903259F0933213
:101D300091F40EC09D3249F0903369F441E024C023
:101D400052E0F52A84E0F82A28C098E0F92A25C054
:101D5000E0E1FE2A22C0F7FC29C0892F80538A3097
:101D600070F4F6FE05C0989C902C1124980E15C0B6
:101D7000E89CE02C1124E80EF0E2FF2A0EC09E320F
:101D800029F4F6FC5FC140E4F42A07C09C3619F43C
:101D900050E8F52A02C0983649F4F20123FD9591E6
:101DA00023FF91912F01992309F0B8CF892F8554F2
:101DB000833018F08052833038F444E050E0A40EB1
:101DC000B51E5FE359830FC0933631F0933779F036
:101DD000933509F052C01FC0F5018081898342E02C
:101DE00050E0A40EB51E610101E010E011C0F50144
:101DF000C080D180F6FC03C06FEF7FEF02C0692D79
:101E000070E042E050E0A40EB51EC6012ED18C0158
:101E10005FE7F52213C0F501C080D180F6FC03C056
:101E20006FEF7FEF02C0692D70E042E050E0A40E3A
:101E3000B51EC6010FD18C0150E8F52AF3FE06C08D
:101E400018C080E290E0B3011BD1EA948E2D90E09F
:101E500008171907B0F30DC0F601F7FC8591F7FEDE
:101E600081916F0190E0B3010BD1E110EA94015030
:101E700010400115110581F7E2C0943611F0993632
:101E800061F5F7FE08C0F50120813181428153815F
:101E900084E090E00AC0F501808191819C01442793
:101EA00037FD4095542F82E090E0A80EB91E9FE6C2
:101EB000F92257FF09C050954095309521953F4F25
:101EC0004F4F5F4FE0E8FE2ACA01B901A1012AE0A5
:101ED00030E002D1D82ED2183FC0953729F41F2DFB
:101EE0001F7E2AE030E01DC01F2D197F9F3661F054
:101EF000903720F4983509F0A5C00FC0903739F01D
:101F0000983709F09FC004C028E030E00AC0106193
:101F100014FD146020E130E004C014FD166020E1DF
:101F200032E017FF08C0F5016081718182819381E1
:101F300044E050E008C0F50180819181BC0180E05F
:101F400090E042E050E0A40EB51EA101C5D0D82E0D
:101F5000D2188FE7F82EF122F6FE0BC05EEFF522C5
:101F6000D91438F4F4FE07C0F2FC05C08FEEF82255
:101F700002C01D2D01C0192DF4FE0DC0FE01ED0D96
:101F8000F11D8081803319F499EEF92208C01F5F9A
:101F9000F2FE05C003C08F2D867809F01F5F0F2D5C
:101FA000F3FC13C0F0FE0EC01E1510F09D2C0AC0ED
:101FB0009D2C9E0C911A1E2D05C080E290E0B3016D
:101FC0005FD01F5F1E15C8F304C01E1510F4E11A80
:101FD00001C0EE2404FF0EC080E390E0B30150D0B6
:101FE00002FF1BC001FD03C088E790E00EC088E53A
:101FF00090E00BC0802F867881F001FF02C08BE259
:1020000001C080E2F7FC8DE290E0B30139D005C059
:1020100080E390E0B30134D09A94D914C8F3DA94F1
:10202000F101ED0DF11D808190E0B30129D0DD209B
:10203000B1F705C080E290E0B30122D0EA94EE202F
:10204000C9F750CEF30166817781CB012B96E2E18F
:102050000C948291FC010590615070400110D8F7FA
:10206000809590958E0F9F1F0895FC0161507040E0
:1020700001900110D8F7809590958E0F9F1F0895BD
:102080000F931F93CF93DF938C01EB018B8181FF23
:102090001BC082FF0DC02E813F818C819D8128173E
:1020A000390764F4E881F9810193F983E88306C074
:1020B000E885F985802F1995892B31F48E819F81D0
:1020C00001969F838E8302C00FEF1FEFC801DF913F
:1020D000CF911F910F910895FA01AA27283051F14D
:1020E000203181F1E8946F936E7F6E5F7F4F8F4F49
:1020F0009F4FAF4FB1E03ED0B4E03CD0670F781FA8
:10210000891F9A1FA11D680F791F8A1F911DA11D8C
:102110006A0F711D811D911DA11D20D009F46894C5
:102120003F912AE0269F11243019305D3193DEF66D
:10213000CF010895462F4770405D4193B3E00FD023
:10214000C9F7F6CF462F4F70405D4A3318F0495D0E
:1021500031FD4052419302D0A9F7EACFB4E0A695F1
:102160009795879577956795BA95C9F70097610513
:10217000710508959B01AC010A2E06945795479569
:1021800037952795BA95C9F7620F731F841F951F5E
:10219000A01D0895FC01128213820895FC01838121
:1021A000882311F081E082830895FC0182818111EE
:1021B00012820895FC0180E594E0918380838781F9
:1021C000882321F0CF0104960C948E6708950F9315
:1021D0001F93CF93DF938C010E9429750E9406758F
:1021E000C80182539E4F0E948E67F80112828FE2CF
:1021F00091E00E94AD4A8091200A882301F110925B
:10220000200A80918606C82FD0E0CC0FDD1FCF5961
:10221000DE4E68817981882777FD8095982F0E940E
:10222000BA8D2091AA033091AB034091AC03509139
:10223000AD030E94268F181614F419821882DF91BC
:10224000CF911F910F910895EF92FF920F931F93DB
:102250008C014EECE42E41E0F42EE80EF91EC7018D
:102260000E944067C7010E948E67F80110821182A8
:102270001F910F91FF90EF900895CF92DF92EF9210
:10228000FF920F931F93CF93DF937C016B01DB01D0
:102290000D900020E9F78D0101501040061B170B2F
:1022A000EEECF1E0EE0EFF1ED7011C92E2E3FEEF32
:1022B000EE0EFF1ECB016EE470E0AADCEC0100978D
:1022C00031F4F8013197EC0DFD1D86010CC060E280
:1022D00070E09EDC8C010F5F1F4FCE016AE270E060
:1022E00097DCFC0131978DE081838AE08283138241
:1022F000C70186539E4FB8010E94576F8EEC91E044
:10230000E80EF91ED7018C91882319F1EBE6F1E074
:10231000949108C08091C00085FFFCCF9093C600C7
:10232000319694919923B1F7E2E7F1E0949108C0D6
:102330008091C00085FFFCCF9093C60031969491A8
:102340009923B1F78091C00085FFFCCF8AE080938C
:10235000C600DF91CF911F910F91FF90EF90DF901A
:10236000CF900895CF93DF93EC018B81882309F4FC
:102370003BC0EAE9F1E0949108C08091C00085FF7C
:10238000FCCF9093C600319694919923B1F7CF502A
:10239000DE4F488159816A817B81C15FD1408FEADC
:1023A00099E02AE030E00E94CC4CE8E9F1E0949119
:1023B00008C08091C00085FFFCCF9093C600319685
:1023C00094919923B1F7C751DE4F488159816A81B1
:1023D0007B818FEA99E02AE030E00E94CC4C80912A
:1023E000C00085FFFCCF12C0E8E8F1E0949108C07E
:1023F0008091C00085FFFCCF9093C60031969491E8
:102400009923B1F78091C00085FFFCCF8AE08093CB
:10241000C600DF91CF9108952F923F924F925F9225
:102420006F927F928F929F92AF92BF92CF92DF92E4
:10243000EF92FF920F931F93DF93CF93CDB7DEB749
:10244000AD970FB6F894DEBF0FBECDBF5C014B0158
:102450004DA7FC018381882309F4DDC16EEC462E73
:1024600061E0562E4A0C5B1CC2010E948E67F5018A
:1024700012821A8A1D8A198A188A80E594E09F8739
:102480008E875EE4C52ED12CCA0CDB1C8FE290E057
:10249000A80EB91EF601B182A08281ED9FEFA80EB1
:1024A000B91EF40180818F3209F089C0C4016FE246
:1024B00070E0AEDB7C010894E11CF11C3E01089445
:1024C000611C711C160176C0C7016FE270E0A0DBD1
:1024D0006C01009709F481C0E816F90608F07DC088
:1024E0008C010E191F09C301B701A801B1DB060D4C
:1024F000171DF8011082F30107C08091C00085FF0D
:10250000FCCF31969093C60090819923B1F78091CA
:10251000C00085FFFCCFFAE0F093C600F1016081B6
:1025200071816115710519F460E070E002C06C5FA3
:102530007F4FCE014296A30121E00E945E6E882368
:1025400071F5EEE4F2E0949108C08091C00085FF3F
:10255000FCCF9093C600319694919923B1F7FE0178
:10256000319607C08091C00085FFFCCF31969093D3
:10257000C60090819923B1F7ECE4F2E0949108C091
:102580008091C00085FFFCCF9093C6003196949156
:102590009923B1F78091C00085FFFCCF36C18EE052
:1025A00090E08C0F9D1FF101918380837601089448
:1025B000E11CF11CE114F10409F086CF0BC0E0E549
:1025C000F0E0AE0EBF1EF601B182A08280EB9FEF5D
:1025D000A80EB91E082DF92C01C00E2DF501E25BE5
:1025E000FF4F9DA5992309F4ADC0608171816115EC
:1025F000710519F460E070E002C06C5F7F4FC201AA
:10260000402F5F2D21E00E945E6E882309F46AC08E
:10261000EFEDF1E0AE0EBF1EF50140815181628108
:1026200073818AE090E0A80EB91EF50140835183C2
:102630006283738387E19EEFA80EB91EEEE3F2E09A
:10264000949108C08091C00085FFFCCF9093C60094
:10265000319694919923B1F7802F9F2D9C01F90118
:1026600007C08091C00085FFFCCF31969093C600D3
:1026700090819923B1F7E6E3F2E0949108C080914C
:10268000C00085FFFCCF9093C600319694919923AA
:10269000B1F78FEA99E02AE030E00E94CC4C8091BB
:1026A000C00085FFFCCF8AE08093C600E1EFF1E037
:1026B000AE0EBF1EF5011082118212821382E8E273
:1026C000F2E0949108C08091C00085FFFCCF909308
:1026D000C600319694919923B1F78091C00085FF8F
:1026E000FCCF93C0E4E1F2E0949108C08091C00077
:1026F00085FFFCCF9093C600319694919923B1F752
:10270000802F9F2D9C01F90107C08091C00085FF9B
:10271000FCCF31969093C60090819923B1F7E2E106
:10272000F2E0949108C08091C00085FFFCCF9093A7
:10273000C600319694919923B1F78091C00085FF2E
:10274000FCCF63C0608171816115710519F460E08F
:1027500070E002C06C5F7F4FC201402F5F2D26E505
:102760000E945E6E882381F5EEEFF1E0949108C03F
:102770008091C00085FFFCCF9093C6003196949164
:102780009923B1F7802F9F2D9C01F90107C08091FB
:10279000C00085FFFCCF31969093C60090819923AD
:1027A000B1F7ECEFF1E0949108C08091C00085FF93
:1027B000FCCF9093C600319694919923B1F7809104
:1027C000C00085FFFCCF21C081E0F5018083EAEEE7
:1027D000F1E0949108C08091C00085FFFCCF9093F8
:1027E000C600319694919923B1F7F40107C0809106
:1027F000C00085FFFCCF31969093C600908199234D
:10280000B1F78091C00085FFFCCF8AE08093C600BD
:10281000CE010E96CFDCAD960FB6F894DEBF0FBE9C
:10282000CDBFCF91DF911F910F91FF90EF90DF907F
:10283000CF90BF90AF909F908F907F906F905F9060
:102840004F903F902F900895FC0181E08183CF014C
:1028500040E0E2CD2F923F924F925F926F927F9233
:102860008F929F92AF92BF92CF92DF92EF92FF92A0
:102870000F931F93DF93CF93CDB7DEB7AC970FB60F
:10288000F894DEBF0FBECDBF5C014B01FC0183811C
:10289000882309F434C1C50182539E4F0E948E677C
:1028A000F50112821A8A1D8A198A188A80E594E035
:1028B0009F878E87EEE4CE2ED12CCA0CDB1C2FE234
:1028C00030E0A20EB31EF601B182A08221ED3FEFEF
:1028D000A20EB31EF40180818F3209F08DC0C401B5
:1028E0006FE270E095D97C010894E11CF11C3E0177
:1028F0000894611C711C260172E1272E312C2C0ECC
:102900003D1E75C0C7016FE270E082D96C0100976F
:1029100009F480C0E816F90608F07CC08C010E1995
:102920001F09C301B701A80193D9060D171DF801AE
:102930001082F30107C08091C00085FFFCCF319663
:102940009093C60090819923B1F78091C00085FFD4
:10295000FCCFFAE0F093C600F2016081718161154D
:10296000710519F460E070E002C06C5F7F4FC10137
:10297000A30121E00E945E6E882371F5E6EDF1E08F
:10298000949108C08091C00085FFFCCF9093C60051
:10299000319694919923B1F7FE01319607C0809149
:1029A000C00085FFFCCF31969093C600908199239B
:1029B000B1F7E4EDF1E0949108C08091C00085FF8B
:1029C000FCCF9093C600319694919923B1F78091F2
:1029D000C00085FFFCCF8DC02EE030E02C0F3D1FE6
:1029E000F2013183208376010894E11CF11CE1148B
:1029F000F10409F087CF0BC080E590E0A80EB91E66
:102A0000F601B182A08220EB3FEFA20EB31ED82CBC
:102A1000092D02C0DE2C0F2D8EE490E0A80EB91E09
:102A2000F5018081918122EB3FEFA20EB31E00974A
:102A300019F480E090E001C004966D2D702F0E9483
:102A40002A6F882339F1E6ECF1E0949108C0809177
:102A5000C00085FFFCCF9093C600319694919923D6
:102A6000B1F78D2D902F9C01F90107C08091C00016
:102A700085FFFCCF31969093C60090819923B1F7E2
:102A800081EF91E0A80EB91EF50110821182128229
:102A9000138232C0EEEAF1E0949108C08091C00048
:102AA00085FFFCCF9093C600319694919923B1F79E
:102AB0008D2D902F9C01F90107C08091C00085FFEA
:102AC000FCCF31969093C60090819923B1F7ECEA40
:102AD000F1E0949108C08091C00085FFFCCF9093F5
:102AE000C600319694919923B1F78091C00085FF7B
:102AF000FCCF8AE08093C600CE010E965BDBAC96DD
:102B00000FB6F894DEBF0FBECDBFCF91DF911F91FE
:102B10000F91FF90EF90DF90CF90BF90AF909F907C
:102B20008F907F906F905F904F903F902F9008957F
:102B3000EF92FF920F931F93CF93DF938C01FC01D1
:102B4000138286A9882321F0C801C3960E948E674C
:102B5000F7EAEF2EF1E0FF2EE00EF11EC70160E074
:102B600045E30E945D65882309F5EBE3F1E094916C
:102B700008C08091C00085FFFCCF9093C6003196BD
:102B800094919923B1F7E0E9F2E0949108C0809123
:102B9000C00085FFFCCF9093C60031969491992395
:102BA000B1F78091C00085FFFCCF7DC0E801C4551E
:102BB000DE4FCE01B70141E00E94E86F882341F566
:102BC000CE01B70140E00E94E86F882309F5EBE6EB
:102BD000F1E0949108C08091C00085FFFCCF9093F4
:102BE000C600319694919923B1F7EDE7F2E0949104
:102BF00008C08091C00085FFFCCF9093C60031963D
:102C000094919923B1F78091C00085FFFCCF4BC010
:102C1000C801C396BE010E94656A882309F5EBE6E8
:102C2000F1E0949108C08091C00085FFFCCF9093A3
:102C3000C600319694919923B1F7EDE6F2E09491B4
:102C400008C08091C00085FFFCCF9093C6003196EC
:102C500094919923B1F78091C00085FFFCCF23C0E8
:102C600081E0F8018383EBE3F1E0949108C0809167
:102C7000C00085FFFCCF9093C600319694919923B4
:102C8000B1F7E2E6F2E0949108C08091C00085FFC0
:102C9000FCCF9093C600319694919923B1F780911F
:102CA000C00085FFFCCF8AE08093C600D801AC5AF3
:102CB000BF4FF801F3968BE101900D928150E1F73F
:102CC000F80181A992A90E5A1F4FF80191838083C0
:102CD00002551040C8018F96025B1F4FF801918387
:102CE0008083DF91CF911F910F91FF90EF90089516
:102CF0002F923F924F925F926F927F929F92AF92EC
:102D0000BF92CF92DF92EF92FF920F931F93DF93C8
:102D1000CF93CDB7DEB7CC55D0400FB6F894DEBF19
:102D20000FBECDBF6C01662311F525EF31E0C20E59
:102D3000D31ED6018C91EBE0FEEFCE0EDF1E882372
:102D400009F4E3C02DEE31E0C20ED31ED601ED90A2
:102D5000FD900D911C91E3E1FEEFCE0EDF1E0E946F
:102D60007A89E616F7060807190708F4CEC025EF9A
:102D700031E0C20ED31ED6011C92EBE0FEEFCE0E68
:102D8000DF1ED60113968C91882339F4C601D0DE5C
:102D9000F6018381882309F4B8C000D000D0EDB7D4
:102DA000FEB731967E010894E11CF11CADB7BEB7A9
:102DB0001296FC92EE92119782E691E093838283C1
:102DC000D6019D968D919C919E97958384830E94B8
:102DD000370E8701EDB7FEB736960FB6F894FEBFF3
:102DE0000FBEEDBF57010AC0D8018C91992787FD0E
:102DF00090950E945B91F80181938F01F5010190FC
:102E00000020E9F73197EA19FB09802F8E198E17F8
:102E10005CF303E3A02EB12CAC0CBD1CC50140E05B
:102E200050E060E070E00E94766699241DE3E12E98
:102E3000F12CEC0EFD1E2E010894411C511CBFE12B
:102E40006B2E712C6C0E7D1EABE52A2EA1E03A2E66
:102E500042C0D8018C9190E00E945B91F80181936F
:102E60008F01D7010D900020E9F71197AE19BF0926
:102E7000802F8E198A176CF327968FAD27978E3780
:102E800051F1C701B20145E050E00E941A0E0097CF
:102E900011F500D000D0EDB7FEB73196ADB7BEB793
:102EA00012967C926E9211973382228255824482CE
:102EB0000E94370EEDB7FEB736960FB6F894FEBFF8
:102EC0000FBEEDBFC3010E94264B87E591E00E9433
:102ED000AD4A99249394C501B70140E050E00E94A7
:102EE0008469181614F48701BCCF992041F48FEF40
:102EF0009FEFD6019E969C938E939D9706C0F601F8
:102F000085A596A5019696A785A7C45ADF4F0FB64B
:102F1000F894DEBF0FBECDBFCF91DF911F910F910F
:102F2000FF90EF90DF90CF90BF90AF909F907F90F9
:102F30006F905F904F903F902F9008952F923F9207
:102F40004F925F926F927F928F929F92AF92BF92B9
:102F5000CF92DF92EF92FF920F931F93DF93CF9365
:102F6000CDB7DEB7CF58D0400FB6F894DEBF0FBE56
:102F7000CDBF8C013B016A0184E090E0C80ED91EF0
:102F8000F8017196C757DF4FF983E883C958D040DD
:102F9000C8010496CA57DF4F99838883C658D0402A
:102FA000C857DF4F1882C858D04046E6E42EF12CAF
:102FB000EC0EFD1EF7013B96C557DF4FF983E88302
:102FC000CB58D04036EF832E31E0932E800E911EE9
:102FD00028EFA22E21E0B22EA00EB11E9EE0292ED7
:102FE000312C2C0E3D1E87E4482E512C4C0E5D1EBC
:102FF000C2010496C357DF4F99838883CD58D040D0
:10300000EBE3F1E09491C157DF4F9883CF58D04064
:103010004CC1F7018385482F50E0BA016871707088
:103020006031710509F04FC1F401208131812130F7
:10303000310509F448C12230310509F444C1F701D2
:10304000DE0111969081903239F08E2F8E198830E2
:1030500011F48EE28D939D933196C557DF4F888191
:103060009981CB58D040E817F90761F71C921E866A
:10307000F3018081882329F4C10160E072E00E949D
:10308000FD0DC101B3010E94FD0DC101BE016F5FC5
:103090007F4F0E94FD0DC10160E072E00E94FD0DB6
:1030A0001CA61FA61BA61AA680E594E099A788A7D0
:1030B000CE018C96B601AE014F5F5F4F21E00E94BA
:1030C0005E6E882309F03FC0F40180819181892BD5
:1030D000D1F5C157DF4F9881CF58D040EBE3F1E0F5
:1030E00008C08091C00085FFFCCF9093C600319648
:1030F00094919923B1F7E2E0F2E007C08091C0001B
:1031000085FFFCCF31969093C60090819923B1F74B
:103110008091C00085FFFCCFFAE0F093C600FE016D
:10312000319607C08091C00085FFFCCF3196909307
:10313000C60090819923B1F78091C00085FFFCCF34
:103140008AE08093C600C357DF4FA881B981CD586C
:10315000D040FE01BC968BE101900D928150E1F7C9
:103160008AA59BA5F2019383828380E594E09183F5
:103170008083C801B101A201E1DEC2011BD8CE01EA
:10318000889618D892C0953E09F48FC09E3209F4F3
:103190008CC09F3509F489C0F8019189992331F0D9
:1031A0009E3209F482C09F3509F47FC043FD7DC083
:1031B00080E06031710509F481E0F80184A788237B
:1031C00049F4F7018085873409F06FC081858E3717
:1031D00009F46BC0CA57DF4FA881B981C658D040E7
:1031E000F7018081803241F08E2F8E19883011F4E2
:1031F0008EE28D9380818D933196C557DF4F888104
:103200009981CB58D040E817F90759F71C92F4017F
:1032100080819181009729F5F30107C08091C0005A
:1032200085FFFCCF31969093C60090819923B1F72A
:10323000CA57DF4FE881F981C658D04007C0809156
:10324000C00085FFFCCF31969093C60090819923F2
:10325000B1F78091C00085FFFCCFFAE0F093C60083
:1032600024C08130910539F4F50180819181019666
:10327000918380831AC00297C1F4C857DF4FF88149
:10328000C858D0402F2F30E0F50180819181281758
:103290003907F1F0C857DF4FF881C858D040FF5FB9
:1032A000C857DF4FF883C858D040C601B701C75789
:1032B000DF4F48815981C958D0400E94846918164F
:1032C0000CF4A7CE05C0F7019081992309F05BCFDC
:1032D000C157DF4F0FB6F894DEBF0FBECDBFCF9101
:1032E000DF911F910F91FF90EF90DF90CF90BF90F3
:1032F000AF909F908F907F906F905F904F903F9096
:103300002F900895EF92FF920F931F93DF93CF9327
:10331000CDB7DEB76F970FB6F894DEBF0FBECDBF47
:103320007C0186EF91E0E80EF91EF7011182108210
:103330008AE09EEFE80EF91E87010D5C1F4FC80161
:1033400040E050E060E070E00E947666DE01159695
:10335000F8018BE101900D928150E1F7F70181A90D
:1033600092A99C838B8380E594E09A838983C7012B
:1033700065E172E08E010F5F1F4FA801DFDDC8011C
:103380000E94DA106F960FB6F894DEBF0FBECDBF65
:10339000CF91DF911F910F91FF90EF9008950F93C0
:1033A0001F93CF93DF93DC01D3961C92D397D696CD
:1033B0001C92D697D2961C921E92D19780E594E0EB
:1033C000D0969C938E939F97AC5ABF4F1C921396A6
:1033D0001C92A755B040FD01E05BFF4FAE5ABF4FB6
:1033E00011961C921E92A255B04091838083ED01EC
:1033F000C159DF4FFE0120E030E0482F14821782D0
:103400001382128240839183215E3F4F7F9681E039
:103410002633380799F7A855BE4F89E18C93139648
:103420001C9258961C921B961C9213961C92A15D9E
:10343000B140FD01E653FE4FA453BE4F11961C92BE
:103440001E92408391835D961D921D921D921C9247
:10345000139718961D921D921D921C921397A15FAF
:10346000B14012961C92129713961C9213971C92BD
:1034700011961C9211978D0103511E4FF801108275
:10348000118212821382AB55BE4F11961C921E926E
:10349000FE01C90111920197E9F7A05BBF4F81E0DE
:1034A0008C93A55FB1409E961C921E929D970E94A0
:1034B0007A8968577C4E8F4F9F4FF80160837183E4
:1034C00082839383DF91CF911F910F910895DF93B2
:1034D000CF93CDB7DEB766970FB6F894DEBF0FBEB9
:1034E000CDBF8091160290911702A0911802B09161
:1034F00019028F87988BA98BBA8BFE013F9644E601
:1035000050E08081F999FECF1FBA52BD41BD80BD08
:103510000FB6F894FA9AF99A0FBE4F5F5F4F48368C
:10352000510511F03196EDCFE4ECF9E08081F99985
:10353000FECF1FBA52BD41BD80BD0FB6F894FA9AB6
:10354000F99A0FBE4F5F5F4F4837510511F0319622
:10355000EDCFE4EBF9E08081F999FECF1FBA52BDBF
:1035600041BD80BD0FB6F894FA9AF99A0FBE4F5F2D
:103570005F4F4838510511F03196EDCFE4EDF9E099
:103580008081F999FECF1FBA52BD41BD80BD0FB6F3
:10359000F894FA9AF99A0FBE4F5F5F4F4839510578
:1035A00011F03196EDCFE8EEF9E08081F999FECF88
:1035B0001FBA52BD41BD80BD0FB6F894FA9AF99A70
:1035C0000FBE4F5F5F4F4C39510511F03196EDCF73
:1035D000ECEEF9E08081F999FECF1FBA52BD41BDF2
:1035E00080BD0FB6F894FA9AF99A0FBE4F5F5F4FFD
:1035F000403A510511F03196EDCFE4EEF9E08081CB
:10360000F999FECF1FBA52BD41BD80BD0FB6F894E7
:10361000FA9AF99A0FBE4F5F5F4F443A510511F085
:103620003196EDCFECEFF9E08081F999FECF1FBA2A
:1036300052BD41BD80BD0FB6F894FA9AF99A0FBEFB
:103640004F5F5F4F483A510511F03196EDCFE0EBF7
:10365000F9E08081F999FECF1FBA52BD41BD80BD0E
:103660000FB6F894FA9AF99A0FBE4F5F5F4F4C3A33
:10367000510511F03196EDCFE0EFF9E08081F99935
:10368000FECF1FBA52BD41BD80BD0FB6F894FA9A65
:10369000F99A0FBE4F5F5F4F403B510511F03196D5
:1036A000EDCFE4EFF9E08081F999FECF1FBA52BD6A
:1036B00041BD80BD0FB6F894FA9AF99A0FBE4F5FDC
:1036C0005F4F443B510511F03196EDCFE8EFF9E043
:1036D0008081F999FECF1FBA52BD41BD80BD0FB6A2
:1036E000F894FA9AF99A0FBE4F5F5F4F483B510525
:1036F00011F03196EDCFEAE7F6E08081F999FECF3F
:103700001FBA52BD41BD80BD0FB6F894FA9AF99A1E
:103710000FBE4F5F5F4F443C510511F03196EDCF26
:1037200084EB90E09A83898386E490E09C838B838A
:103730002FEF30E03E832D8380EF90E098878F83DA
:1037400084E690E09A8789873C872B87FE01319633
:103750008081F999FECF1FBA52BD41BD80BD0FB621
:10376000F894FA9AF99A0FBE4F5F5F4F463C5105A5
:1037700071F7FE0133968081F999FECF1FBA52BDD1
:1037800041BD80BD0FB6F894FA9AF99A0FBE4F5F0B
:103790005F4F483C510511F03196EDCFFE01359653
:1037A0008081F999FECF1FBA52BD41BD80BD0FB6D1
:1037B000F894FA9AF99A0FBE4F5F5F4F4A3C510551
:1037C00011F03196EDCFFE0137968081F999FECF49
:1037D0001FBA52BD41BD80BD0FB6F894FA9AF99A4E
:1037E0000FBE4F5F5F4F4C3C510511F03196EDCF4E
:1037F000FE0139968081F999FECF1FBA52BD41BDB5
:1038000080BD0FB6F894FA9AF99A0FBE4F5F5F4FDA
:103810004E3C510511F03196EDCFFE013B96808173
:10382000F999FECF1FBA52BD41BD80BD0FB6F894C5
:10383000FA9AF99A0FBE4F5F5F4F403D510511F064
:103840003196EDCFEBEBF3E08081F999FECF1FBA13
:1038500052BD41BD80BD0FB6F894FA9AF99A0FBED9
:103860004F5F5F4F443D510511F03196EDCFEFEBC7
:10387000F3E08081F999FECF1FBA52BD41BD80BDF2
:103880000FB6F894FA9AF99A0FBE4F5F5F4F483D12
:10389000510511F03196EDCFE3ECF3E08081F99919
:1038A000FECF1FBA52BD41BD80BD0FB6F894FA9A43
:1038B000F99A0FBE4F5F5F4F4C3D510511F03196A5
:1038C000EDCF80E290E09E878D87FE013D9680815E
:1038D000F999FECF1FBA52BD41BD80BD0FB6F89415
:1038E000FA9AF99A0FBE4F5F5F4F4E3D510511F0A6
:1038F0003196EDCFE3E9F6E08081F999FECF1FBA6A
:1039000052BD41BD80BD0FB6F894FA9AF99A0FBE28
:103910004F5F5F4F81E0423A580711F03196ECCF8C
:10392000EFE6F3E08081F999FECF1FBA52BD41BDA9
:1039300080BD0FB6F894FA9AF99A0FBE81E0413B28
:10394000580721F04F5F5F4F3196ECCF80911A02FC
:1039500090911B02A0911C02B0911D028B8B9C8B3D
:10396000AD8BBE8BFE01739684E690E02081F999C1
:10397000FECF1FBA92BD81BD20BD0FB6F894FA9A52
:10398000F99A0FBE8736910519F001963196EECF60
:10399000EDE9F2E0949108C08091C00085FFFCCF72
:1039A0009093C600319694919923B1F7E7EAF4E039
:1039B000949108C08091C00085FFFCCF9093C60011
:1039C000319694919923B1F78091C00085FFFCCF87
:1039D0008AE08093C60066960FB6F894DEBF0FBEED
:1039E000CDBFCF91DF910895DF93CF93CDB7DEB7F1
:1039F000C054D0400FB6F894DEBF0FBECDBFDE017D
:103A00001196E0E0F4E080E101900D928150E1F741
:103A1000DE015196E0EFF3E080E101900D928150DC
:103A2000E1F7DE019196E0EEF3E080E101900D9286
:103A30008150E1F789819A81AB81BC818093C4096F
:103A40009093C509A093C609B093C70989899A893B
:103A5000AB89BC898093B4099093B509A093B6094A
:103A6000B093B70989A19AA1ABA1BCA18093D40955
:103A70009093D509A093D609B093D7098D819E81E3
:103A8000AF81B8858093C8099093C909A093CA09EA
:103A9000B093CB098D899E89AF89B88D8093B80981
:103AA0009093B909A093BA09B093BB098DA19EA1C7
:103AB000AFA1B8A58093D8099093D909A093DA094A
:103AC000B093DB0989859A85AB85BC858093CC0949
:103AD0009093CD09A093CE09B093CF09898D9A8D8B
:103AE000AB8DBC8D8093BC099093BD09A093BE099A
:103AF000B093BF0989A59AA5ABA5BCA58093DC09A5
:103B00009093DD09A093DE09B093DF098D859E8532
:103B1000AF85B8898093D0099093D109A093D20939
:103B2000B093D3098D8D9E8DAF8DB8A18093C009C0
:103B30009093C109A093C209B093C3098DA59EA516
:103B4000AFA5B8A98093E0099093E109A093E20999
:103B5000B093E3090E94A45280E090E0AAEFB3E49E
:103B60008093E8099093E909A093EA09B093EB09DF
:103B700080E090E8ABE3B5E48093EC099093ED0925
:103B8000A093EE09B093EF0920E030E040E050E070
:103B90002093E4093093E5094093E6095093E7093F
:103BA00080E29EE4A0E0B0E08093B0099093B10978
:103BB000A093B209B093B3092093FC093093FD0997
:103BC0004093FE095093FF0980E090E0A0EAB1E441
:103BD0008093F0099093F109A093F209B093F3094F
:103BE0008093F4099093F509A093F609B093F7092F
:103BF0008093F8099093F909A093FA09B093FB090F
:103C00002093820630938306409384065093850662
:103C100020937E0630937F06409380065093810662
:103C200020937A0630937B0640937C0650937D0662
:103C300020E030E040E050E060E070E00EC0408303
:103C400051836283738301967C9687309105B9F71F
:103C50002F5F3F4F2730310551F0F901EE0FFF1F65
:103C6000EE0FFF1FED56F94F80E090E0E8CFDE0148
:103C7000D196E0EDF3E080E101900D928150E1F703
:103C800089A99AA9ABA9BCA980936F0390937003EB
:103C9000A0937103B09372038DA99EA9AFA9B8AD8B
:103CA0008093730390937403A0937503B09376038A
:103CB00089AD9AADABADBCAD80937703909378039B
:103CC000A0937903B0937A03FE01FD9680819181E0
:103CD000A281B38180937B0390937C03A0937D03A7
:103CE000B0937E0387ED93EAA4E4B1E48093BB0331
:103CF0009093BC03A093BD03B093BE0361EE7AE73B
:103D000084E59FE30E94C27C6093BF037093C0036D
:103D10008093C1039093C2036EEA77E485E392E453
:103D20000E94CE7C6093C3037093C4038093C50349
:103D30009093C6030E947B7C80E090E0A0E8BFE304
:103D40008093C7039093C803A093C903B093CA0399
:103D5000EDE9F2E0949108C08091C00085FFFCCFAE
:103D60009093C600319694919923B1F7E3EAF2E07B
:103D7000949108C08091C00085FFFCCF9093C6004D
:103D8000319694919923B1F78091C00085FFFCCFC3
:103D90008AE08093C600C05CDF4F0FB6F894DEBFA8
:103DA0000FBECDBFCF91DF910895CF93DF93CDE9C3
:103DB000D2E0FE01949108C08091C00085FFFCCF45
:103DC0009093C600319694919923B1F7E7E9F4E016
:103DD000949108C08091C00085FFFCCF9093C600ED
:103DE000319694919923B1F78091C00085FFFCCF63
:103DF0008AE08093C600FE019491EDE9F2E008C0EC
:103E00008091C00085FFFCCF9093C60031969491BD
:103E10009923B1F74091C4095091C5096091C60931
:103E20007091C7098FE894E00E94682E4091C809FC
:103E30005091C9096091CA097091CB098CE894E04E
:103E40000E94682E4091CC095091CD096091CE0915
:103E50007091CF0989E894E00E94682E4091D009C2
:103E60005091D1096091D2097091D30986E894E00C
:103E70000E94682EEEE1F2E007C08091C00085FF4D
:103E8000FCCF31969093C60090819923B1F7809131
:103E9000C00085FFFCCF8AE08093C600FE019491AC
:103EA000EDE9F2E008C08091C00085FFFCCF90935F
:103EB000C600319694919923B1F7ECE6F4E0949121
:103EC00008C08091C00085FFFCCF9093C60031965A
:103ED00094919923B1F78091C00085FFFCCF8AE0CF
:103EE0008093C600FE019491EDE9F2E008C0809154
:103EF000C00085FFFCCF9093C60031969491992322
:103F0000B1F74091B4095091B5096091B60970912B
:103F1000B70983E694E00E94682E4091B809509159
:103F2000B9096091BA097091BB0980E694E00E94DA
:103F3000682E4091BC095091BD096091BE097091F5
:103F4000BF098DE594E00E94682E4091C009509110
:103F5000C1096091C2097091C3098AE594E00E9489
:103F6000682EEEE1F2E007C08091C00085FFFCCF33
:103F700031969093C60090819923B1F78091C0004B
:103F800085FFFCCF8AE08093C600FE019491EDE9A5
:103F9000F2E008C08091C00085FFFCCF9093C6007E
:103FA000319694919923B1F7ECE3F4E0949108C031
:103FB0008091C00085FFFCCF9093C600319694910C
:103FC0009923B1F78091C00085FFFCCF8AE08093F0
:103FD000C600FE019491EDE9F2E008C08091C000B6
:103FE00085FFFCCF9093C600319694919923B1F749
:103FF0004091D4095091D5096091D6097091D709A3
:1040000083E394E00E949C2E4091D8095091D909F5
:104010006091DA097091DB0980E394E00E949C2EA4
:104020004091DC095091DD096091DE097091DF0952
:104030008DE294E00E949C2E4091E0095091E109AC
:104040006091E2097091E3098AE294E00E949C2E5B
:10405000EEE1F2E007C08091C00085FFFCCF319611
:104060009093C60090819923B1F78091C00085FF9D
:10407000FCCF8AE08093C600FE019491EDE9F2E066
:1040800008C08091C00085FFFCCF9093C600319698
:1040900094919923B1F7E5EFF3E0949108C08091F2
:1040A000C00085FFFCCF9093C60031969491992370
:1040B000B1F78091C00085FFFCCF8AE08093C600F5
:1040C000FE019491EDE9F2E008C08091C00085FF07
:1040D000FCCF9093C600319694919923B1F740910B
:1040E000E8095091E9096091EA097091EB098CEEB9
:1040F00093E00E94682E4091EC095091ED09609187
:10410000EE097091EF0989EE93E00E94682EEEE1CE
:10411000F2E007C08091C00085FFFCCF31969093FC
:10412000C60090819923B1F78091C00085FFFCCF34
:104130008AE08093C600FE019491EDE9F2E008C0A8
:104140008091C00085FFFCCF9093C600319694917A
:104150009923B1F7E6E3F3E0949108C08091C000A1
:1041600085FFFCCF9093C600319694919923B1F7C7
:104170008091C00085FFFCCF8AE08093C600FE01DD
:104180009491EDE9F2E008C08091C00085FFFCCF7A
:104190009093C600319694919923B1F74091E40928
:1041A0005091E5096091E6097091E7098DE293E08D
:1041B0000E94682E4091FC095091FD096091FE0912
:1041C0007091FF098AE293E00E94682E4091B00945
:1041D0005091B1096091B2097091B30987E293E0FF
:1041E0000E949C2E4091F0095091F1096091F209D2
:1041F0007091F30984E293E00E94682E4091F409E3
:104200005091F5096091F6097091F70981E293E008
:104210000E94682E4091F8095091F9096091FA09BD
:104220007091FB098EE193E00E94682EEEE1F2E0CE
:1042300007C08091C00085FFFCCF31969093C600E7
:1042400090819923B1F78091C00085FFFCCF8AE06F
:104250008093C600FE019491EDE9F2E008C08091E0
:10426000C00085FFFCCF9093C600319694919923AE
:10427000B1F7ECE0F3E0949108C08091C00085FFB5
:10428000FCCF9093C600319694919923B1F7809119
:10429000C00085FFFCCF8AE08093C600FE019491A8
:1042A000EDE9F2E008C08091C00085FFFCCF90935B
:1042B000C600319694919923B1F740917A065091B6
:1042C0007B0660917C0670917D0683E093E00E94FE
:1042D000682E40917E0650917F0660918006709115
:1042E000810680E093E00E94682E40918206509102
:1042F000830660918406709185068DEF92E00E949E
:10430000682EEEE1F2E007C08091C00085FFFCCF8F
:1043100031969093C60090819923B1F78091C000A7
:1043200085FFFCCF8AE08093C600FE019491EDE901
:10433000F2E008C08091C00085FFFCCF9093C600DA
:10434000319694919923B1F7EFEEF2E0949108C081
:104350008091C00085FFFCCF9093C6003196949168
:104360009923B1F78091C00085FFFCCF8AE080934C
:10437000C600FE019491EDE9F2E008C08091C00012
:1043800085FFFCCF9093C600319694919923B1F7A5
:104390004091BB035091BC036091BD037091BE037B
:1043A00085EE92E00E94682E6091BF037091C00379
:1043B0008091C1039091C2030E94C87CAB01BC01F3
:1043C00082EE92E00E94682E6091C3037091C40354
:1043D0008091C5039091C6030E94D47CAB01BC01BF
:1043E0008FED92E00E94682EEEE1F2E007C080912E
:1043F000C00085FFFCCF31969093C6009081992331
:10440000B1F78091C00085FFFCCF8AE08093C600A1
:10441000DF91CF9108950F931F93DF93CF93CDB783
:10442000DEB766970FB6F894DEBF0FBECDBF8091A2
:104430001A0290911B02A0911C02B0911D028B8B5D
:104440009C8BAD8BBE8BFE013F9604E610E0F99984
:10445000FECF12BD01BDF89A80B580830F5F1F4F5C
:104460000836110511F03196F2CFCE014396BE0108
:10447000615F7F4F43E050E00E941A0E009709F001
:10448000A8C1E4ECF9E0F999FECF12BD01BDF89A9C
:1044900080B580830F5F1F4F0837110511F03196EB
:1044A000F2CFE4EBF9E0F999FECF12BD01BDF89A25
:1044B00080B580830F5F1F4F0838110511F03196CA
:1044C000F2CFE4EDF9E0F999FECF12BD01BDF89A03
:1044D00080B580830F5F1F4F0839110511F03196A9
:1044E000F2CF0E94A452E8EEF9E0F999FECF12BD96
:1044F00001BDF89A80B580830F5F1F4F0C391105FD
:1045000011F03196F2CFECEEF9E0F999FECF12BD41
:1045100001BDF89A80B580830F5F1F4F003A1105E7
:1045200011F03196F2CFE4EEF9E0F999FECF12BD29
:1045300001BDF89A80B580830F5F1F4F043A1105C3
:1045400011F03196F2CFECEFF9E0F999FECF12BD00
:1045500001BDF89A80B580830F5F1F4F083A11059F
:1045600011F03196F2CFE0EBF9E0F999FECF12BDF0
:1045700001BDF89A80B580830F5F1F4F0C3A11057B
:1045800011F03196F2CFE0EFF9E0F999FECF12BDCC
:1045900001BDF89A80B580830F5F1F4F003B110566
:1045A00011F03196F2CFE4EFF9E0F999FECF12BDA8
:1045B00001BDF89A80B580830F5F1F4F043B110542
:1045C00011F03196F2CFE8EFF9E0F999FECF12BD84
:1045D00001BDF89A80B580830F5F1F4F083B11051E
:1045E00011F03196F2CFEAE7F6E0F999FECF12BD6D
:1045F00001BDF89A80B580830F5F1F4F043C110501
:1046000011F03196F2CFFE013196F999FECF12BD2D
:1046100001BDF89A80B580830F5F1F4F063C1105DE
:1046200099F7FE013396F999FECF12BD01BDF89AB4
:1046300080B580830F5F1F4F083C110511F0319644
:10464000F2CFFE013596F999FECF12BD01BDF89A61
:1046500080B580830F5F1F4F0A3C110511F0319622
:10466000F2CFFE013796F999FECF12BD01BDF89A3F
:1046700080B580830F5F1F4F0C3C110511F0319600
:10468000F2CFFE013996F999FECF12BD01BDF89A1D
:1046900080B580830F5F1F4F0E3C110511F03196DE
:1046A000F2CFFE013B96F999FECF12BD01BDF89AFB
:1046B00080B580830F5F1F4F003D110511F03196CB
:1046C000F2CFEBEBF3E0F999FECF12BD01BDF89A02
:1046D00080B580830F5F1F4F043D110511F03196A7
:1046E000F2CFEFEBF3E0F999FECF12BD01BDF89ADE
:1046F00080B580830F5F1F4F083D110511F0319683
:10470000F2CFE3ECF3E0F999FECF12BD01BDF89AC8
:1047100080B580830F5F1F4F0C3D110511F031965E
:10472000F2CFFE013D96F999FECF12BD01BDF89A78
:1047300080B580830F5F1F4F0E3D110511F031963C
:10474000F2CFE3E9F6E0F999FECF12BD01BDF89A88
:1047500080B580830F5F1F4F81E0023A180711F088
:104760003196F1CFEFE6F3E0F999FECF12BD01BD2E
:10477000F89A80B5808381E0013B180721F00F5F34
:104780001F4F3196F1CF0E947B7CEDE9F2E09491CE
:1047900008C08091C00085FFFCCF9093C600319681
:1047A00094919923B1F7E5ECF2E0949108C08091DF
:1047B000C00085FFFCCF9093C60031969491992359
:1047C000B1F78091C00085FFFCCF8AE08093C600DE
:1047D00001C00AD9EADA66960FB6F894DEBF0FBEBA
:1047E000CDBFCF91DF911F910F910895EF92FF926E
:1047F0000F931F93CF93DF93EC01E0908303F0902E
:1048000084030091850310918603688179818A81F0
:104810009B81A80197010E94188D882324F4E882C7
:10482000F9820A831B83E0908703F090880300914C
:10483000890310918A036C817D818E819F81A801FB
:1048400097010E94188D882324F4EC82FD820E8348
:104850001F83E0908B03F0908C0300918D031091E7
:104860008E03688579858A859B85A80197010E94BA
:10487000188D882324F4E886F9860A871B87E09040
:104880008F03F0909003009191031091920368813F
:1048900079818A819B81A80197010E94268F181631
:1048A00024F4E882F9820A831B83E0909303F0905A
:1048B000940300919503109196036C817D818E8104
:1048C0009F81A80197010E94268F181624F4EC827C
:1048D000FD820E831F83E0909703F0909803009170
:1048E000990310919A03688579858A859B85A8012B
:1048F00097010E94268F181624F4E886F9860A8705
:104900001B87DF91CF911F910F91FF90EF9008953A
:1049100080915F0708950F931F93CF93DF938130AA
:10492000910549F46F5F7F4F09F046C088E694E037
:104930000E94CF1941C0892B09F03EC06F5F7F4FA5
:10494000D9F580E594E09093330680933206809108
:104950003906882321F086E396E00E948E67CEEE2A
:10496000D5E000E514E005C06F9784E0C83BD807A8
:1049700051F0198308838F818823B1F3CE01049607
:104980000E948E67F1CF80E594E0998388838F81C0
:10499000882321F0CE0104960E948E6780E594E082
:1049A000909398048093970480919E04882321F02B
:1049B0008BE994E00E948E67DF91CF911F910F9158
:1049C000089580E090E06FEF7FEFA5CF81E090E069
:1049D0006FEF7FEFA0CF0E949E7C80915F078823BE
:1049E00009F036C081E080935F0780916207909163
:1049F0006307A0916407B091650780936607909361
:104A00006707A0936807B0936907EDEBF4E0949112
:104A100008C08091C00085FFFCCF9093C6003196FE
:104A200094919923B1F7E4ECF4E0949108C080915B
:104A3000C00085FFFCCF9093C600319694919923D6
:104A4000B1F78091C00085FFFCCF8AE08093C6005B
:104A50000895F8940E949E7C5F9A8A9A8FB7F89482
:104A6000909108019160909308018FBF129A8CE099
:104A700060E00E94218BEDEBF4E0949108C08091FE
:104A8000C00085FFFCCF9093C60031969491992386
:104A9000B1F7EAE3F5E0949108C08091C00085FF8A
:104AA000FCCF9093C600319694919923B1F78091F1
:104AB000C00085FFFCCF8AE08093C600FFCF0E9434
:104AC0007A8960936A0770936B0780936C07909361
:104AD0006D07E0919307F0919407EB56F84F8081B2
:104AE0008823A9F4E9E5F5E0949108C08091C0001D
:104AF00085FFFCCF9093C600319694919923B1F72E
:104B00008091C00085FFFCCF8AE08093C6000895A5
:104B1000EF92FF920F931F930E947A89E0906E07A5
:104B2000F0906F07009170071091710720916A074C
:104B300030916B0740916C0750916D07621B730BAE
:104B4000840B950BE616F7060807190730F4E114F5
:104B5000F1040105110509F07CDF80919E0390911D
:104B60009F03A091A003B091A1030097A105B105F7
:104B700061F10E947A8920916A0730916B07409118
:104B80006C0750916D07621B730B840B950B209182
:104B90009E0330919F034091A0035091A1032617DB
:104BA00037074807590788F49091F10E8091F20E6B
:104BB000981759F45F9A8A9A9FB7F89480910801E0
:104BC0008160809308019FBF129A0E948B521F91AF
:104BD0000F91FF90EF9008956F927F928F929F9226
:104BE000AF92BF92CF92DF92EF92FF920F931F93FB
:104BF000F82E6091720770917307809174079091FD
:104C0000750720917607309177074091780750918A
:104C100079070E94338F3B014C0100D000D00DB7C3
:104C20001EB70F5F1F4F60917F037091800388272D
:104C300077FD8095982F0E94BA8D2091A203309124
:104C4000A3034091A4035091A5030E94F88F20E094
:104C500030E040E752E40E941F8D20E030E048EC55
:104C600052E40E941F8D5B016C01F8016082718229
:104C700082829382F4828091860685838AE696E01A
:104C80006EE777E042E757E020E001E032E0E32E14
:104C90000E94F04D80917E0790917F07A091800740
:104CA000B091810780936A0690936B06A0936C067F
:104CB000B0936D068091820790918307A09184073D
:104CC000B091850780936E0690936F06A09370064F
:104CD000B09371068091860790918707A09188070D
:104CE000B09189078093720690937306A09374061F
:104CF000B093750680918A0790918B07A0918C07DD
:104D0000B0918D078093760690937706A0937806EE
:104D1000B09379068DB79EB706960FB6F8949EBFEE
:104D20000FBE8DBF0E947A8960936A0770936B07EC
:104D300080936C0790936D071F910F91FF90EF90F8
:104D4000DF90CF90BF90AF909F908F907F906F90AB
:104D500008958F929F92AF92BF92CF92DF92EF927F
:104D6000FF920F931F934C016AEC74E08DEB92EC71
:104D7000F40120813181428153810E943E8C7B016C
:104D80008C0160E972E48AE592ECF40124813581BA
:104D9000468157810E943E8C5B016C01C801B701BE
:104DA000A80197010E94F88F9B01AC0160E878E2AE
:104DB00089E897E40E943E8C7B018C01C601B50115
:104DC000A60195010E94F88F9B01AC01C801B701B3
:104DD0000E943E8C0E946590F401208531854285B9
:104DE00053850E943F8C609387067093880680935A
:104DF000890690938A066AEC74E08DEB92E4F401E4
:104E000020813181428153810E943E8C7B018C0143
:104E100060E972E48AE592ECF401248135814681EF
:104E200057810E943E8C5B016C01C801B701A8014B
:104E300097010E94F88F9B01AC0160E878E289E855
:104E400097E40E943E8C7B018C01C601B501A6014E
:104E500095010E94F88F9B01AC01C801B7010E9427
:104E60003E8C0E946590F4012085318542855385F2
:104E70000E943F8C60938B0670938C0680938D0606
:104E800090938E0660E070E080E090E0F401208175
:104E90003181428153810E943E8C7B018C0160E90B
:104EA00072E48AED92E4F4012481358146815781D0
:104EB0000E943E8C5B016C01C801B701A8019701FB
:104EC0000E94F88F9B01AC0160E878E289E897E4E2
:104ED0000E943E8C7B018C01C601B501A6019501A3
:104EE0000E94F88F9B01AC01C801B7010E943E8C63
:104EF0000E946590F40120853185428553850E948A
:104F00003F8C60938F0670939006809391069093E8
:104F100092061F910F91FF90EF90DF90CF90BF907E
:104F2000AF909F908F9008958F929F92AF92BF9273
:104F3000CF92DF92EF92FF920F931F930E947A8994
:104F400060936A0770936B0780936C0790936D076B
:104F5000BEE7AB2EB7E0BB2EC501FBDEA7E8CA2E2D
:104F6000A6E0DA2EF8E08F2E912C8C0C9D1C2CE004
:104F700030E0A20EB31E60917F03709180038827FA
:104F800077FD8095982F0E94BA8D2091A2033091D1
:104F9000A3034091A4035091A5030E94F88F20E041
:104FA00030E040E752E40E941F8D20E030E048EC02
:104FB00052E40E941F8D7B018C01C60124E030E089
:104FC000C20ED31EB601A4019501E6E8CE2EE6E09E
:104FD000DE2E0E94D45780917E0790917F07A0918A
:104FE0008007B091810780936A0690936B06A09327
:104FF0006C06B0936D068091820790918307A09113
:105000008407B091850780936E0690936F06A093F6
:105010007006B09371068091860790918707A091E2
:105020008807B09189078093720690937306A093C6
:105030007406B093750680918A0790918B07A091B2
:105040008C07B0918D078093760690937706A09396
:105050007806B09379061F910F91FF90EF90DF9043
:10506000CF90BF90AF909F908F9008952F923F92D6
:105070004F925F926F927F928F929F92AF92BF9268
:10508000CF92DF92EF92FF920F931F93DF93CF9314
:10509000CDB7DEB764970FB6F894DEBF0FBECDBFB5
:1050A0008C01DC016D917D918D919C9120E030E02F
:1050B00040E05DE30E94F88F69837A838B839C8351
:1050C0002EE93FEE4FE350E40E94268F18168CF035
:1050D00069817A818B819C812EE93FEE4FE350EC10
:1050E0000E94188D88236CF48EE99FEEAFE3B0EC3C
:1050F00004C08EE99FEEAFE3B0E489839A83AB836B
:10510000BC83D80114966D917D918D919C911797D8
:1051100020E030E040E05DE30E94F88F2B013C018D
:105120002EE93FEE4FE350E40E94268F1816ACF0B4
:10513000C301B2012EE93FEE4FE350EC0E94188DFF
:105140008823ACF40F2EFEE94F2EFFEE5F2EFFE317
:105150006F2EF0EC7F2EF02D0AC00F2EFEE94F2EA1
:10516000FFEE5F2EFFE36F2EF0E47F2EF02D6981BE
:105170007A818B819C810E94F58D0E94878D6B01C5
:105180007C01C301B2010E94F58D0E94878D4B0105
:105190005C01B601882777FD8095982F0E94BA8D13
:1051A0009B01AC0169817A818B819C810E943E8C3C
:1051B0006D837E838F839887B401882777FD8095E0
:1051C000982F0E94BA8D9B01AC01C301B2010E94CD
:1051D0003E8C69877A878B879C8773E0472E512C9A
:1051E0004C0C5D1C63E0662E712C680C791CE4E0AD
:1051F000F0E08E0E9F1ECE0EDF1E60E070E080E8B5
:105200009FE329853A854B855C850E943E8C6D879E
:105210007E878F87988B60E070E080E89FE32D8128
:105220003E814F8158850E943E8C698B7A8B8B8B97
:105230009C8B820153E0000F111F5A95E1F704196E
:105240001509F801E60DF71DEE0FFF1FEE0FFF1F0A
:10525000ED56F94F6D857E858F8598892081318146
:10526000428153810E94F88F1B012C01080D191DEA
:10527000000F111F000F111F0D56194F69857A85F8
:105280008B859C85D8012D913D914D915C910E941B
:10529000F88F9B01AC01C201B1010E943F8C9B01C0
:1052A000AC0169897A898B899C890E94F88F1B01DE
:1052B0002C01860123E0000F111F2A95E1F70C193C
:1052C0001D09600E711E660C771C660C771CE3E9E5
:1052D000F6E06E0E7F1E6D857E858F859889D301E1
:1052E0002D913D914D915C910E94F88F6B017C0155
:1052F000080D191D000F111F000F111F0D56194F1A
:1053000069857A858B859C85F80120813181428170
:1053100053810E94F88F9B01AC01C701B6010E9426
:105320003F8C9B01AC016D817E818F8198850E94AD
:10533000F88F9B01AC01C201B1010E943F8C2B018F
:105340003C01209187063091880640918906509152
:105350008A060E943F8C7B018C0120E23FE943E0FA
:1053600054E40E94268F181654F40F2EF0E2EF2E0C
:10537000FFE9FF2EF3E00F2FF4E41F2FF02DE09252
:105380008706F09288060093890610938A06C30167
:10539000B20120918B0630918C0640918D06509180
:1053A0008E060E943F8C7B018C0120E23FE943E0A6
:1053B00054E40E94268F181654F40F2EF0E2EF2EBC
:1053C000FFE9FF2EF3E00F2FF4E41F2FF02DE09202
:1053D0008B06F0928C0600938D0610938E06C30107
:1053E000B20120918F063091900640919106509124
:1053F00092060E943F8C7B018C0120E23FE943E052
:1054000054E40E94268F181654F40F2EF0E2EF2E6B
:10541000FFE9FF2EF3E00F2FF4E41F2FF02DE092B1
:105420008F06F09290060093910610939206649670
:105430000FB6F894DEBF0FBECDBFCF91DF911F91A5
:105440000F91FF90EF90DF90CF90BF90AF909F9023
:105450008F907F906F905F904F903F902F90089526
:105460002F923F924F925F926F927F928F929F9274
:10547000AF92BF92CF92DF92EF92FF920F931F9362
:10548000DF93CF93CDB7DEB76A970FB6F894DEBF40
:105490000FBECDBF8EE797E0A9D90E947A896093AD
:1054A0006A0770936B0780936C0790936D07EE24E7
:1054B000FF246E010894C11CD11C86010E0D1F1D16
:1054C000F701E258F84FD701A659B94F60817181B1
:1054D000828193812D913D914D915C910E943E8CF2
:1054E000D8016D937D938D939C931397E4E0F0E046
:1054F000EE0EFF1EF0E1EF16F104F9F689819A81B4
:10550000AB81BC818B8B9C8BAD8BBE8B2D803E8009
:105510004F80588469847A848B849C84BC01CD013B
:105520009B01AC010E94F88F7B018C01C201B1018B
:10553000A20191010E94F88F9B01AC01C801B70143
:105540000E943F8C7B018C01C401B301A401930133
:105550000E94F88F9B01AC01C801B7010E943F8CEB
:105560000E9465907B018C012DEB37E346E855E303
:105570000E94188D882394F4ED84FE840F85188989
:10558000C801B70120E030E040E050E00E94268FE3
:10559000181624F017FB109517F91095C801B701DC
:1055A0002DEB37E346E855E30E94188D87FD45C192
:1055B000C801B70120E030E84BEB55E40E94F88FBA
:1055C0002091A2033091A3034091A4035091A5031D
:1055D0000E941F8D7B018C0160917F03709180037D
:1055E000882777FD8095982F0E94BA8D9B01AC018A
:1055F000C801B7010E941F8D20E030E048E453E469
:105600000E94F88F0E94878D7A8B698B1616170679
:1056100024F0A1E0B0E0BA8BA98BF1E0AF2EB12C61
:1056200089899A89AA2797FDA095BA2F8F8B988F81
:10563000A98FBA8FBCC0B501882777FD8095982FB8
:105640000E94BA8D7B018C016F89788D898D9A8D2E
:105650000E94BA8D9B01AC01C801B7010E941F8D49
:105660007B018C016B897C898D899E89A8019701BA
:105670000E94F88F9B01AC0160916A0670916B06E5
:1056800080916C0690916D060E943F8C60937E071E
:1056900070937F078093800790938107C201B101C7
:1056A000A80197010E94F88F9B01AC0160916E06E2
:1056B00070916F0680917006909171060E943F8CE8
:1056C0006093820770938307809384079093850784
:1056D000C401B301A80197010E94F88F9B01AC019E
:1056E00060917206709173068091740690917506B0
:1056F0000E943F8C6093860770938707809388078A
:1057000090938907C801B7012D853E854F8558893B
:105710000E94F88F9B01AC0160917606709177062C
:1057200080917806909179060E943F8C60938A0759
:1057300070938B0780938C0790938D078EE797E08B
:1057400008DB8EE797E092DC60917F037091800325
:10575000882777FD8095982F0E94BA8D2091A2030B
:105760003091A3034091A4035091A5030E94F88FA8
:1057700020E030E040E752E40E941F8D20E030E05E
:1057800048EC52E40E941F8D7B018C0187E896E073
:105790006BE876E04FE856E02AE837E0E6E8CE2E00
:1057A000E6E0DE2E0E94D4570894A11CB11CA98902
:1057B000BA89AA15BB050CF03ECF80917E07909167
:1057C0007F07A0918007B091810780936A0690932C
:1057D0006B06A0936C06B0936D0680918207909142
:1057E0008307A0918407B091850780936E069093FC
:1057F0006F06A0937006B093710680918607909112
:105800008707A0918807B0918907809372069093CB
:105810007306A0937406B093750680918A079091E1
:105820008B07A0918C07B0918D078093760690939B
:105830007706A0937806B09379066A960FB6F89427
:10584000DEBF0FBECDBFCF91DF911F910F91FF90B3
:10585000EF90DF90CF90BF90AF909F908F907F9010
:105860006F905F904F903F902F9008958FEA99E04E
:105870000E942A4CECE5F5E0949108C08091C000AC
:1058800085FFFCCF9093C600319694919923B1F790
:1058900040916207509163076091640770916507BA
:1058A0004F5F5F4F6F4F7F4F8FEA99E02AE030E004
:1058B0000E94E84C8091C00085FFFCCF8AE0809375
:1058C000C600FDC880915F0390916003A0916103C1
:1058D000B09162038093A2039093A303A093A403C7
:1058E000B093A5036091720670917306809174065F
:1058F0009091750620E030E040EA51E40E943F8C30
:105900006093860770938707809388079093890731
:105910000BDB80E090E0A0E0B0E080937E07909306
:105920007F07A0938007B0938107809382079093AD
:105930008307A0938407B093850780E090E0A0EFF1
:10594000B1E48093860790938707A0938807B0936C
:105950008907EADA0C94297580915F0390916003BE
:10596000A0916103B09162038093A2039093A3037B
:10597000A093A403B093A50380E090E0A0E0B0E082
:1059800080937E0790937F07A0938007B093810751
:105990008093820790938307A0938407B093850731
:1059A00080E090E0A0EFB1E48093860790938707B2
:1059B000A0938807B0938907B7DA0C9429752F92C2
:1059C0003F924F925F926F927F928F929F92AF928F
:1059D000BF92CF92DF92EF92FF920F931F93DF93CC
:1059E000CF9300D000D0CDB7DEB78330910508F05B
:1059F00056C1FC01E654F94FD4903C01660C771C6B
:105A0000660C771C93012659394F3A83298380E02D
:105A100090E0A0E0B0E0F90180839183A283B3839A
:105A20008AE696E06EE676E042E756E026E736E064
:105A30000E94EC52F301E354F94FE590F590059183
:105A400014916D2D772767FD7095882777FD8095D8
:105A5000982F0E94BA8D1B012C0193012258384FB8
:105A60003E832D83C801B70120E030E040EC5FE3C6
:105A70000E94F88FA20191010E94F88FAD81BE8132
:105A80006D937D938D939C931397F301E15AFC4F93
:105A9000FC83EB8360817181828193816093A20397
:105AA0007093A3038093A4039093A50320E030E0B8
:105AB00040E752E40E941F8D7B018C018EE797E046
:105AC00062E877E046E857E02AE837E0B6E8CB2E10
:105AD000B6E0DB2E0E94D4570E94297580E00E9418
