:100000000C94E80A0C94150B0C94150B0C94150B1E
:100010000C94150B0C94150B0C94150B0C94150BE0
:100020000C94150B0C94150B0C94150B0C94150BD0
:100030000C94150B0C94150B0C94150B0C94150BC0
:100040000C94150B0C942A760C94150B0C94150B30
:100050000C94150B0C94150B0C945E7F0C94198E5C
:100060000C94150B0C94A6460C94150B0C94150BC4
:100070000C94150B0C94150B0C94150B0C94150B80
:100080000C94150B0C94150B0C94150B0C94150B70
:100090000C94150B0C94150B0C94150B0C948C8A6A
:1000A0000C94150B0C94150B0C94150B0C94150B50
:1000B0000C94150B0C94150B0C94150B0C94150B40
:1000C0000C94150B0C94150B0C94150B0C94150B30
:1000D0000C94150B0C94150B0C94150B0C94150B20
:1000E0000C94150B084AD73B3BCE016E84BCBFFD78
:1000F000C12F3D6C74319ABD56833DDA3D00C77FF8
:1001000011BED9E4BB4C3E916BAAAABE0000008090
:100110003F05A84CCDB2D44EB93836A9020C50B91F
:10012000918688083CA6AAAA2ABE000000803F4DFE
:10013000383420582059205A2045006563686F3AAA
:100140000043616E6E6F7420656E74657220737506
:10015000626469723A20004D3234004D32332025FA
:1001600073006175746F25692E67004572726F7236
:100170003A006572726F722077726974696E6720D7
:10018000746F2066696C65004E6F74205344207054
:1001900072696E74696E67002F0053442070726933
:1001A0006E74696E67206279746520002E00446564
:1001B0006C6574696F6E206661696C65642C20469D
:1001C000696C653A200046696C652064656C6574ED
:1001D00065643A002E006F70656E206661696C651B
:1001E000642C2046696C653A200057726974696E08
:1001F0006720746F2066696C653A20002E006F706E
:10020000656E206661696C65642C2046696C653A90
:1002100020002E006F70656E206661696C65642C2D
:100220002046696C653A200046696C652073656CF0
:100230006563746564002053697A653A20004669F5
:100240006C65206F70656E65643A20002E006F70DB
:10025000656E206661696C65642C2046696C653A40
:10026000200053442063617264206F6B006F7065DF
:100270006E526F6F74206661696C656400766F6C96
:10028000756D652E696E6974206661696C656400C0
:10029000534420696E6974206661696C0065636807
:1002A0006F3A0053746F7265642073657474696E7D
:1002B0006773207265747265697665643A002044DC
:1002C000002049002020204D33303120500050497B
:1002D000442073657474696E67733A00205A002075
:1002E000590020204D323036205800486F6D65206F
:1002F0006F666673657420286D6D293A002045008D
:10030000205A0020580020420020540020204D3266
:100310003035205300416476616E636564207661F8
:10032000726961626C65733A20533D4D696E206657
:100330006565647261746520286D6D2F73292C20AA
:10034000543D4D696E2074726176656C20666565FA
:10035000647261746520286D6D2F73292C20423DD5
:100360006D696E696D756D207365676D656E74205E
:1003700074696D6520286D73292C20583D6D617856
:10038000696D756D207859206A65726B20286D6DD6
:100390002F73292C20205A3D6D6178696D756D2071
:1003A0005A206A65726B20286D6D2F7329002054C6
:1003B0000020204D323034205300416363656C656A
:1003C000726174696F6E3A20533D616363656C6559
:1003D000726174696F6E2C20543D72657472616332
:1003E0007420616363656C65726174696F6E00206F
:1003F0004500205A0020590020204D32303120582D
:10040000004D6178696D756D20416363656C65723F
:100410006174696F6E20286D6D2F7332293A002048
:100420004500205A0020590020204D3230332058FA
:10043000004D6178696D756D2066656564726174E3
:10044000657320286D6D2F73293A00204500205ACE
:100450000020590020204D39322058005374657017
:10046000732070657220756E69743A0053657474F8
:10047000696E67732053746F726564006563686F9B
:100480003A004572726F723A005072696E7465720A
:100490002073746F707065642064756520746F20BC
:1004A0006572726F72732E204669782074686520B9
:1004B0006572726F7220616E6420757365204D39AC
:1004C000393920746F20726573746172742E20281C
:1004D00054656D7065726174757265206973207200
:1004E000657365742E205365742069742061667489
:1004F00065722072657374617274696E6729005049
:1005000072696E7465722068616C7465642E206B0C
:10051000696C6C28292063616C6C656421006F6BC9
:1005200000526573656E643A20002200556E6B6E52
:100530006F776E20636F6D6D616E643A2022007A72
:100540005F6D61783A20007A5F6D696E3A200079BC
:100550005F6D61783A2000795F6D696E3A200078AE
:100560005F6D61783A2000785F6D696E3A20005ABD
:100570003A00593A0020436F756E7420583A2000B3
:10058000453A005A3A00593A00583A004649524D05
:10059000574152455F4E414D453A4D61726C696E0F
:1005A0002056313B20537072696E7465722F6772EA
:1005B000626C206D617368757020666F722067656C
:1005C0006E36204649524D574152455F55524C3A7E
:1005D000687474703A2F2F7777772E6D656E646527
:1005E0006C2D70617274732E636F6D2050524F5476
:1005F0004F434F4C5F56455253494F4E3A312E3080
:10060000204D414348494E455F545950453A4D6548
:100610006E64656C2045585452554445525F434FB3
:10062000554E543A310A0020423A0020453A0054CF
:100630003A0020573A0020453A00543A0020424000
:100640003A0020403A00202F0020423A00202F009C
:100650006F6B20543A002569206D696E2C20256946
:100660002073656300456E642066696C65206C6963
:10067000737400426567696E2066696C65206C69F9
:10068000737400636F6C6C6973696F6E2073656E51
:10069000736F723A000000A0400000A0400000A06C
:1006A000400101010000000000000000000096432E
:1006B00000000AC3000007C30000000000000A4356
:1006C0000000E64200009643636F6C6C6973696FCB
:1006D0006E20646574656374696F6E3A20002569E5
:1006E000206D696E2C2025692073656300446F6E50
:1006F00065207072696E74696E672066696C65004A
:100700005072696E7465722073746F7070656420C6
:1007100064756520746F206572726F72732E204647
:10072000697820746865206572726F7220616E64EA
:1007300020757365204D39393920746F20726573C7
:10074000746172742E202854656D706572617475C1
:1007500072652069732072657365742E2053657409
:1007600020697420616674657220726573746172A9
:1007700074696E6729006F6B004E6F204C696E655F
:10078000204E756D626572207769746820636865B4
:10079000636B73756D2C204C617374204C696E65AE
:1007A0003A20004E6F20436865636B73756D207748
:1007B000697468206C696E65206E756D6265722C57
:1007C000204C617374204C696E653A200063686543
:1007D000636B73756D206D69736D617463682C2034
:1007E0004C617374204C696E653A20004C696E65EB
:1007F000204E756D626572206973206E6F74204C97
:10080000617374204C696E65204E756D6265722B44
:10081000312C204C617374204C696E653A20004D78
:1008200031313000446F6E6520736176696E6720E8
:1008300066696C652E006F6B004D323900202050C8
:100840006C616E6E6572427566666572427974653A
:10085000733A20002046726565204D656D6F727990
:100860003A20004E6F76203232203230313300434E
:100870006F6D70696C65643A200028626F62682C45
:100880002064656C74616D616B65722D6F63746F4C
:100890007072696E742900207C20417574686F72D3
:1008A0003A20004E6F762032322032303133203100
:1008B000373A31353A303100204C6173742055702D
:1008C00064617465643A2000312E302E30004D6131
:1008D000726C696E200020536F66747761726520B8
:1008E000526573657400205761746368646F672094
:1008F0005265736574002042726F776E206F757455
:10090000205265736574002045787465726E616C61
:1009100020526573657400506F776572557000736F
:1009200074617274002200656E717565696E67206E
:1009300022002200656E717565696E672022006570
:1009400063686F3A0020746F6F206C6F6E6720656C
:100950007874727573696F6E2070726576656E74E7
:1009600065640020636F6C642065787472757369C8
:100970006F6E2070726576656E746564007C3C3EB7
:100980005E2B3D3F2F5B5D3B2C2A225C0045313ABC
:10099000200045303A20005A3A2000593A200058A9
:1009A0003A20004D53312C4D53322050696E730A5A
:1009B0000024F404D9201BC40C5C0E9804C4095F05
:1009C0000265077101F405F900FB04B300480487D0
:1009D00000C10369005803550003034500BE023AF5
:1009E000008402310053022A00290225000402205B
:1009F00000E4011C00C8011900AF011700980114A0
:100A00000084011300710110006101100051010EFA
:100A10000043010D0036010B002B010B0020010BE0
:100A200000150109000C01090003010800FB000882
:100A300000F3000800EB000700E4000600DE0006FB
:100A400000D8000600D2000600CC000500C7000553
:100A500000C2000500BD000400B9000400B5000498
:100A600000B1000400AD000400A9000400A50003CB
:100A700000A20003009F0004009B000300980003F5
:100A8000009500020093000300900003008D000217
:100A9000008B00030088000200860002008400032F
:100AA00000810002007F0002007D0002007B000246
:100AB0000079000200770001007600020074000255
:100AC0000072000100710002006F0002006D000161
:100AD000006C0002006A000100690002006700016A
:100AE0000066000100650001006400020062000170
:100AF0000061000100600001005F0002005D000174
:100B0000005C0001005B0001005A00010059000177
:100B10000058000100570001005600010055000177
:100B20000054000100530000005300010052000176
:100B30000051000100500001004F0001004E000074
:100B4000004E0001004D0001004C0001004B000070
:100B5000004B0001004A000100490001004800006C
:100B60000048000100470001004600000046000167
:100B70000045000000450001004400010043000062
:100B8000004300010042000000420001004100005B
:100B90000041000100400001003F0000003F000153
:100BA000003E0000003E0001003D0000003D00014D
:100BB000003C0000003C0000003C0001003B000045
:100BC000003B0001003A0000003A0001003900003B
:100BD0000039000100380000003800000038000132
:100BE000003700000037000100360000003600002A
:100BF000003600010035000000350000003500011E
:100C00000034000000340000003400010033000014
:100C10000033000000330001003200000032000009
:100C200000320001003100000031000000310001FD
:100C3000003000000030000000300001002F0000F4
:100C4000002F0000002F0000002F0001002E0000E8
:100C5000002E0000002E0001002D0000002D0000DD
:100C6000002D0000002D0001002C0000002C0000D1
:100C7000002C0000002C0001002B0000002B0000C5
:100C8000002B0000002B0001002A0000002A0000B9
:100C9000002A0000002A00010029000000290000AD
:100CA00000290000002900000029000100280000A0
:100CB0000028000000280000002800000028000193
:100CC0000027000000270000002700000027000088
:100CD000002700010026000000260000002600007A
:100CE000002600000026000100250000002500006D
:100CF000002500000025000000250000002500015F
:100D00000024000000240000002400000024000053
:100D10000024000100230000002300000023000045
:100D20000023000000230000002300000023000136
:100D3000002200000022000000220000002200002B
:100D4000002200000022000100210000002100001C
:100D5000002100000021000000210000002100000F
:100D60000021000100200000002000000020000001
:100D700000200000002000000020000000200000F3
:100D800000200001001F0000001F0000001F0000E5
:100D9000001F0000001F0000001F0000001F0001D6
:100DA000001E0000001E0000001E0000001E0000CB
:100DB0000024F4D43050C38E20C2A24017828B701E
:100DC00011127A910D816CD90AA861E108C75866A1
:100DD00007615143061E4B5D05C145A7041A411129
:100DE00004093D9803713931034036DB02653391C4
:100DF00002D4305402802E1D02632CEE01752AC5E8
:100E000001B028A001102781018F2564012B244BFC
:100E100001E0223401AC211F018D200D01801FFC57
:100E200000841EED00971DDF00B81CD200E61BC633
:100E300000201BBC00641AB200B219A8000A19A055
:100E4000006A189900D117910040178B00B51684DD
:100E50000031167E00B31579003A157300C7146F80
:100E60000058146A00EE1366008813630025135EB1
:100E700000C7125B006C12570015125400C11151CB
:100E80000070114F0021114B00D61049008D104702
:100E9000004610440002104200C00F4000800F3E88
:100EA00000420F3C00060F3B00CB0E3800930E377C
:100EB000005C0E3500270E3400F30D3200C10D31F9
:100EC00000900D3000600D2E00320D2D00050D2C10
:100ED00000D90C2B00AE0C2900850C29005C0C27D6
:100EE00000350C27000E0C2600E80B2400C40B2450
:100EF00000A00B23007D0B23005A0B2100390B218E
:100F000000180B2000F80A1F00D90A1E00BB0A1E99
:100F1000009D0A1D00800A1D00630A1C00470A1B71
:100F2000002C0A1B00110A1A00F7091A00DD091922
:100F300000C4091900AB091900920917007B0918B0
:100F400000630917004C091600360916002009161F
:100F5000000A091500F5081500E0081400CC081473
:100F600000B8081400A4081400900813007D0812AB
:100F7000006B0813005808120046081200340811CC
:100F800000230811001208110001081100F00710D9
:100F900000E0071000D0071000C0071000B0070FD6
:100FA00000A107100091070E0083070F0074070FC0
:100FB0000065070E0057070E0049070E003B070D9E
:100FC000002E070E0020070D0013070D0006070D69
:100FD00000F9060C00ED060D00E0060C00D4060C2E
:100FE00000C8060C00BC060C00B0060C00A4060BE2
:100FF0000099060C008D060B0082060B0077060B8D
:10100000006C060B0061060A0057060B004C060A2E
:101010000042060A0038060A002E060A0024060AC4
:10102000001A060A001006090007060A00FD050955
:1010300000F4050900EB050900E2050900D90509DE
:1010400000D0050900C7050900BE050900B505085F
:1010500000AD050800A50509009C050800940508D9
:10106000008C050800840508007C0508007405084C
:10107000006C050700650508005D050700560508BA
:10108000004E050700470507004005080038050722
:1010900000310507002A050700230507001C050687
:1010A00000160507000F05070008050600020507E2
:1010B00000FB040600F5040700EE040600E8040641
:1010C00000E2040700DB040600D5040600CF040696
:1010D00000C9040600C3040600BD040600B70406E8
:1010E00000B1040500AC040600A6040600A0040537
:1010F000009B04060095040500900406008A040580
:101100000085040500800406007A040500750405C6
:1011100000700405006B0405006604050061040509
:10112000005C04050057040500520405004D040549
:101130000048040500430405003E0404003A040589
:101140000035040500300404002C040500270404C5
:1011500000230405001E0404001A040400160405FC
:1011600000110404000D0404000904050004040433
:101170000000040400FC030400F8030400F403046A
:1011800000F0030400EC030400E8030400E403049B
:1011900000E0030400DC030400D8030400D40304CB
:1011A00000D0030400CC030400C8030300C50303FC
:1011B000006563686F3A00205A3A0020593A0020CF
:1011C000583A00656E6473746F7073206869743A7E
:1011D00020004572726F723A0054656D70657261DD
:1011E0007475726520686561746564206265642049
:1011F0007377697463686564206F66662E204D415D
:101200005854454D50207472696767657265642053
:101210002121003A204578747275646572207377D5
:10122000697463686564206F66662E204D494E546C
:10123000454D5020747269676765726564202100AE
:101240003A204578747275646572207377697463A7
:10125000686564206F66662E204D415854454D5098
:1012600020747269676765726564202100202D20F3
:10127000496E76616C696420657874727564657214
:10128000206E756D62657220210070012C01900145
:101290002701B0012201C0011D01F0011801100257
:1012A000130130020E016002090190020401C00224
:1012B000FF000003FA004003F5008003F000D003B4
:1012C000EB002004E6007004E100E004DC004005CF
:1012D000D700C005D2004006CD00D006C800800768
:1012E000C3003008BE00F008B900C009B400B00A5D
:1012F000AF00B00BAA00D00CA500000EA000500F4C
:101300009B00C01096005012910000148C00C01574
:101310008700B0178200B0197D00D01B7800001E36
:10132000730040206E0090226900F0246400402782
:101330005F0090295A00E02B5500102E50002030FD
:101340004B0010324600E033410090353C0010372E
:10135000370070383200A0392D00B03A2800A03B89
:101360002300603C1E00103D1900903D1400103E0B
:101370000F00703E0A00C03E0500003F00005049CB
:1013800044204175746F74756E652066696E69736B
:10139000686564202120506C616365207468652055
:1013A0004B702C204B6920616E64204B6420636F6E
:1013B0006E7374616E747320696E20746865206347
:1013C0006F6E66696775726174696F6E2E68005022
:1013D0004944204175746F74756E65206661696C4F
:1013E0006564212074696D656F75740020403A0052
:1013F0006F6B20543A006F6B20423A0050494420F2
:101400004175746F74756E65206661696C656421E1
:101410002054656D706572617475726520746F20FB
:101420006869676800204B643A2000204B693A20C5
:1014300000204B703A200020436C61736963205098
:10144000494420002054753A2000204B753A200072
:10145000206D61783A2000206D696E3A200020648A
:101460003A200020626961733A20000000210024C4
:101470000027002A002D0030003300010100000485
:101480000107010A0100002200250028002B002E80
:10149000003100340002010000050108010B0100C9
:1014A0000020002300260029002C002F003200001D
:1014B00001000003010601090105050505070508EE
:1014C000080808020202020A0A08080404040401C7
:1014D00001010101010101030303030303030304E9
:1014E0000707070C0C0C0C0C0C0C0C020202020679
:1014F000060606060606060B0B0B0B0B0B0B0B0169
:101500000210202008081020401020408002010214
:1015100001080402010102040810204080804020DC
:101520001008040201800402018040201008040217
:101530000108040201010204081020408001020495
:1015400008102040800000090A02080B0C0D070655
:101550000304010000000000000000000000000083
:10156000000000000000000000000000000000007B
:101570000011100F0000000000000000000000003B
:101580000000000000000000000000494E46494EE7
:101590004954594E414ECDCCCC3D0AD7233C17B7C8
:1015A000D13877CC2B329595E6241FB14F0A000035
:1015B00020410000C84200401C4620BCBE4CCA1B53
:1015C0000E5AAEC59D7437243A472B7132893224A6
:1015D00011241FBECFEFD1E2DEBFCDBF00E00CBFB4
:1015E00017E0A0E0B2E0E0E2FDE201E00BBF02C0E4
:1015F00007900D92A833B107D9F71BBE15E1A8E3F8
:10160000B7E001C01D92A939B107E1F715E1CEECB1
:10161000D5E104C02297FE010E943696C63CD10750
:10162000C9F70E94ED900C9484960C940000A0E001
:10163000B0E0EDE1FBE00C945396EC015B01611529
:10164000710519F0FB0191838083F9908F2D90E053
:101650000E943A96892BC9F7FDE2FF1621F4F99012
:10166000EE24E39405C02BE2F21609F4F990EE247F
:101670008E0101501040C8016BE875E143E050E075
:1016800069D2892BF9F48E010E5F1F4FC8016EE8F5
:1016900075E145E050E05ED2892B19F48E01095FB7
:1016A0001F4FA114B10419F0F50111830083E0FC70
:1016B00004C070E090E080E813C070E090E080E843
:1016C0006FEF07C1C80163E975E143E050E042D222
:1016D000892B69F4A114B10429F470E090E080EC46
:1016E0006FE7F7C02296F501D183C083F6CF882437
:1016F000992440E050E060E070E0EF2DE053EA30E4
:10170000A0F5F2E0EF2A8E2D90E09C012870307059
:10171000E2FE06C0232B79F50894811C911C2BC096
:10172000232B19F0089481089108DB01CA0112E00B
:10173000880F991FAA1FBB1F1A95D1F7480F591F71
:101740006A1F7B1F440F551F661F771F4E0F511DC9
:10175000611D711D483929E9520729E9620729E10C
:10176000720748F084E0E82A06C0EE3F31F4E3FC5B
:1017700039C098E0E92AF990C0CFE53311F0E5319E
:1017800089F529912D3219F4E0E1EE2A05C02B32BA
:1017900019F081E090E003C0299182E090E0E22F0F
:1017A000E053EA3018F0C81BD90B1CC020E030E031
:1017B000FCE020383F075CF4C901880F991F880FAF
:1017C000991F280F391F220F331F2E0F311DE9914A
:1017D000E053EA3068F3E4FE03C0309521953F4FB3
:1017E000820E931ECE2CDD24E1FE07C0A114B104AD
:1017F00021F02197F501D183C083CB01BA010E946A
:101800009F927B018C01F3E0CF22DD2423E0C216FE
:10181000D10421F417FB109517F9109557016801B1
:10182000C801B70120E030E040E050E00E94FF91A5
:10183000882309F44AC097FE0DC02AEAE22E25E16A
:10184000F22E9094819491089394C0E2D0E000E04D
:1018500010E012C092ECE92E95E1F92EF6CFF701D7
:101860002591359145915491C601B5010E94DF94AF
:101870005B016C018C1A9D0A8C169D0684F7D59528
:10188000C7950F5F1F4F0630110529F08CEF9FEFB2
:10189000E80EF91EF1CFC501D6017C018D018C2D1A
:1018A000880F8D2D881F8F3F51F0C601B50120E0B4
:1018B00030E040E050E00E94FF91882331F482E262
:1018C00090E090939815809397157E2D9F2D802FF3
:1018D000612F272F392F482F562FB901CA01CDB7B5
:1018E000DEB7ECE00C946F962F923F925F926F926E
:1018F0007F928F929F92AF92BF92CF92DF92EF92A0
:10190000FF920F931F93CF93DF938C011B01EA018A
:101910006115710519F0FB0191838083209749F0CF
:10192000CE010297839728F020E030E040E050E0BD
:10193000F6C0F801A1908F018A2D90E00E943A969E
:10194000892BB9F7FDE2AF1631F4F801A1908F01B0
:101950005524539407C0FBE2AF1619F4F801A19087
:101960008F015524209719F0C031D105C1F4F0E35F
:10197000AF1679F4F8018081883711F0883549F481
:10198000F801A1800E5F1F4FF2E05F2AC0E1D0E0B6
:1019900006C0209721F480E3A816E9F427C0C830D8
:1019A000D10531F1C930D10524F4C230D10531F56A
:1019B0000CC0CA30D10589F0C031D105F9F4C12C71
:1019C000D12CE12CB8E0FB2E28C0C12CD12CE12C6D
:1019D000A0E4FA2E22C0CAE0D0E0FCECCF2EFCEC52
:1019E000DF2EFCECEF2EFCE0FF2E17C0C8E0D0E0AD
:1019F000C12CD12CE12CE0E1FE2E0FC09E0144272A
:101A000037FD4095542F60E070E080E090E80E9440
:101A1000E395C901DA016C017D0120E030E040E08E
:101A200050E060E03E01882477FC8094982C70EDB3
:101A3000B72EBA0CE9E0EB1570F48A2D81548A3187
:101A400018F499ECB92E06C08A2D81568A3150F5CA
:101A500089EAB82EBA0C8B2D90E08C179D0714F5EF
:101A60006F3FE1F0C216D306E406F506B0F0CA01F6
:101A7000B901A40193010E94B1959B01AC012B0D0A
:101A8000311D411D511D2130F0E03F07F0E04F07AF
:101A9000F0E85F0710F461E001C06FEFF801A1907A
:101AA0008F01C5CF2114310481F0662331F001503C
:101AB0001040F1011183008308C051FE1AC002508A
:101AC0001040F1011183008314C067FF12C050FC65
:101AD00005C02FEF3FEF4FEF5FE704C020E030E09D
:101AE00040E050E882E290E090939815809397153B
:101AF00016C050FE08C050954095309521953F4F37
:101B00004F4F5F4F0CC057FF0AC082E290E09093A6
:101B10009815809397152FEF3FEF4FEF5FE7B901CF
:101B2000CA01DF91CF911F910F91FF90EF90DF904D
:101B3000CF90BF90AF909F908F907F906F905F906D
:101B40003F902F900895FB01DC0105900D9200203D
:101B5000E1F70895FB01DC014150504088F08D9180
:101B600081341CF08B350CF4805E659161341CF07F
:101B70006B350CF4605E861B611171F3990B08954F
:101B8000881BFCCFFB0155915523A9F0BF01DC0157
:101B90004D9145174111E1F759F4CD010590002011
:101BA00049F04D9140154111C9F3FB014111EFCFAF
:101BB00081E090E001970895FB01DC0104C08D9164
:101BC0000190801921F441505040C8F7881B990BAF
:101BD0000895FB01DC0102C001900D92415050407C
:101BE000D8F70895FB01DC010D900020E9F711976B
:101BF00001900D920020E1F70895FC018191861774
:101C000021F08823D9F7992708953197CF010895B6
:101C1000FB01DC0101900D920020E1F70895FB012A
:101C2000DC014150504030F08D910190801919F441
:101C30000020B9F7881B990B0895FB01DC01415086
:101C4000504048F001900D920020C9F701C01D924C
:101C500041505040E0F70895AEE0B0E0E2E3FEE02E
:101C60000C945B960E891F898EE08C831A830983FE
:101C70008FEF9FE79E838D839E01265E3F4FCE01AF
:101C80000196688D798DA9010AD02F813885020FC0
:101C9000131FF80110822E96E4E00C947796ABE0C7
:101CA000B0E0E5E5FEE00C944D963C012B015A01B5
:101CB000FC0117821682838181FD03C06FEF7FEFE5
:101CC000B9C19AE0892E1E010894211C311CF30130
:101CD0002381F20123FD859123FF81912F01882328
:101CE00009F4A5C1853239F423FD859123FF819143
:101CF0002F01853221F490E0B301B7D1E8CF982FBE
:101D0000FF24EE249924FFE1FF15D0F09B3269F007
:101D10009C3228F4903259F0933291F40EC09D32E7
:101D200049F0903369F441E024C052E0F52A84E0A0
:101D3000F82A28C098E0F92A25C0E0E1FE2A22C04E
:101D4000F7FC29C0892F80538A3070F4F6FE05C055
:101D5000989C902C1124980E15C0E89CE02C11241E
:101D6000E80EF0E2FF2A0EC09E3229F4F6FC5FC1B5
:101D700040E4F42A07C09C3619F450E8F52A02C062
:101D8000983649F4F20123FD959123FF91912F019B
:101D9000992309F0B8CF892F8554833018F08052E9
:101DA000833038F444E050E0A40EB51E5FE359835D
:101DB0000FC0933631F0933779F0933509F052C064
:101DC0001FC0F5018081898342E050E0A40EB51E5A
:101DD000610101E010E011C0F501C080D180F6FC86
:101DE00003C06FEF7FEF02C0692D70E042E050E06A
:101DF000A40EB51EC6012ED18C015FE7F52213C0DB
:101E0000F501C080D180F6FC03C06FEF7FEF02C008
:101E1000692D70E042E050E0A40EB51EC6010FD15E
:101E20008C0150E8F52AF3FE06C018C080E290E06D
:101E3000B3011BD1EA948E2D90E008171907B0F377
:101E40000DC0F601F7FC8591F7FE81916F0190E0DE
:101E5000B3010BD1E110EA940150104001151105B6
:101E600081F7E2C0943611F0993661F5F7FE08C0AB
:101E7000F501208131814281538184E090E00AC0E4
:101E8000F501808191819C01442737FD4095542FB5
:101E900082E090E0A80EB91E9FE6F92257FF09C024
:101EA00050954095309521953F4F4F4F5F4FE0E85B
:101EB000FE2ACA01B901A1012AE030E002D1D82EE0
:101EC000D2183FC0953729F41F2D1F7E2AE030E03D
:101ED0001DC01F2D197F9F3661F0903720F4983573
:101EE00009F0A5C00FC0903739F0983709F09FC0AE
:101EF00004C028E030E00AC0106114FD146020E145
:101F000030E004C014FD166020E132E017FF08C085
:101F1000F501608171818281938144E050E008C0C5
:101F2000F50180819181BC0180E090E042E050E0C9
:101F3000A40EB51EA101C5D0D82ED2188FE7F82E59
:101F4000F122F6FE0BC05EEFF522D91438F4F4FE50
:101F500007C0F2FC05C08FEEF82202C01D2D01C0A3
:101F6000192DF4FE0DC0FE01ED0DF11D80818033B1
:101F700019F499EEF92208C01F5FF2FE05C003C0F4
:101F80008F2D867809F01F5F0F2DF3FC13C0F0FE34
:101F90000EC01E1510F09D2C0AC09D2C9E0C911A8F
:101FA0001E2D05C080E290E0B3015FD01F5F1E15BB
:101FB000C8F304C01E1510F4E11A01C0EE2404FF9A
:101FC0000EC080E390E0B30150D002FF1BC001FDC2
:101FD00003C088E790E00EC088E590E00BC0802F3A
:101FE000867881F001FF02C08BE201C080E2F7FC3D
:101FF0008DE290E0B30139D005C080E390E0B301F9
:1020000034D09A94D914C8F3DA94F101ED0DF11D8E
:10201000808190E0B30129D0DD20B1F705C080E2D6
:1020200090E0B30122D0EA94EE20C9F750CEF3013C
:1020300066817781CB012B96E2E10C946996FC01D5
:102040000590615070400110D8F7809590958E0FE3
:102050009F1F0895FC016150704001900110D8F756
:10206000809590958E0F9F1F08950F931F93CF9388
:10207000DF938C01EB018B8181FF1BC082FF0DC0C0
:102080002E813F818C819D812817390764F4E88176
:10209000F9810193F983E88306C0E885F985802FEB
:1020A0001995892B31F48E819F8101969F838E83B0
:1020B00002C00FEF1FEFC801DF91CF911F910F9169
:1020C0000895FA01AA27283051F1203181F1E894CE
:1020D0006F936E7F6E5F7F4F8F4F9F4FAF4FB1E01B
:1020E0003ED0B4E03CD0670F781F891F9A1FA11D16
:1020F000680F791F8A1F911DA11D6A0F711D811D17
:10210000911DA11D20D009F468943F912AE0269FDB
:1021100011243019305D3193DEF6CF010895462F3A
:102120004770405D4193B3E00FD0C9F7F6CF462F1B
:102130004F70405D4A3318F0495D31FD4052419384
:1021400002D0A9F7EACFB4E0A69597958795779541
:102150006795BA95C9F700976105710508959B01C8
:10216000AC010A2E06945795479537952795BA9551
:10217000C9F7620F731F841F951FA01D0895FC01EE
:10218000118212820895FC018281882311F081E07E
:1021900081830895FC018181811111820895FC01E0
:1021A0008DE795E0918380838781882321F0CF019B
:1021B00004960C94B56208950F931F93CF93DF9309
:1021C0008C010E9411760E94EE75C8018D529F4FBE
:1021D0000E94B562F80111828FE291E00E94B4453D
:1021E0008091380B882301F11092380B80915B08A5
:1021F000C82FD0E0CC0FDD1FC858DB4E6881798135
:10220000882777FD8095982F0E94A1922091DE0467
:102210003091DF044091E0045091E1040E940D945C
:10222000181614F419821882DF91CF911F910F9123
:102230000895EF92FF920F931F937C018C010D5232
:102240001F4FC8010E946762C8010E94B562F70172
:1022500010821F910F91FF90EF9008950F931F939D
:10226000FC0112AA15AA11AA10AA2DE735E037A77A
:1022700026A7ED5AFF4F10823396108235971182B0
:10228000108232932293B396108233961082359740
:102290001182108232932293B39610823396108269
:1022A00035971182108232932293B09689E1808310
:1022B00033961082789610823B9610823396108265
:1022C000359711821082329322937F961082118269
:1022D0001282138238961082118212821382E65F74
:1022E000F0401182128210828F010E501F4FD801D0
:1022F0001D921D921D921C921397E650FF4F81E094
:102300008083EA5FF04015A614A60E94618E68578C
:102310007C4E8F4F9F4FF80160837183828393833C
:102320001F910F910895CF92DF92EF92FF920F933A
:102330001F93CF93DF937C016B01DB010D90002095
:10234000E9F78D0101501040061B170BE3EDF0E09B
:10235000EE0EFF1ED7011C92EDE2FFEFEE0EFF1E08
:10236000CB016EE470E049DCEC01009731F4F80138
:102370003197EC0DFD1D86010CC060E270E03DDC84
:102380008C010F5F1F4FCE016AE270E036DCFC016A
:1023900031978DE081838AE082831382C701815364
:1023A0009F4FB8010E947E6A83ED90E0E80EF91E0F
:1023B000D7018C91882319F1EBE6F1E0949108C0E4
:1023C0008091C00085FFFCCF9093C6003196949118
:1023D0009923B1F7E2E7F1E0949108C08091C00041
:1023E00085FFFCCF9093C600319694919923B1F765
:1023F0008091C00085FFFCCF8AE08093C600DF910A
:10240000CF911F910F91FF90EF90DF90CF900895A3
:10241000CF93DF93EC018A81882309F43BC0EAE97A
:10242000F1E0949108C08091C00085FFFCCF9093AB
:10243000C600319694919923B1F7CA50DF4F488175
:1024400059816A817B81C65FD04087EC9AE02AE09F
:1024500030E00E94D347E8E9F1E0949108C0809110
:10246000C00085FFFCCF9093C600319694919923CC
:10247000B1F7C251DF4F488159816A817B8187EC76
:102480009AE02AE030E00E94D3478091C00085FFA7
:10249000FCCF12C0E8E8F1E0949108C08091C00040
:1024A00085FFFCCF9093C600319694919923B1F7A4
:1024B0008091C00085FFFCCF8AE08093C600DF9149
:1024C000CF9108952F923F924F925F926F927F9299
:1024D0008F929F92AF92BF92CF92DF92EF92FF9234
:1024E0000F931F93DF93CF93CDB7DEB7AD970FB6A2
:1024F000F894DEBF0FBECDBF5C014B014DA7FC01C0
:102500008281882309F4DCC143ED442E512C4A0C0E
:102510005B1CC2010E94B562F50111821A8A1D8AF4
:10252000198A188A8DE795E09F878E873DE4C32E30
:10253000D12CCA0CDB1C8EE290E0A80EB91EF6016D
:10254000B182A08282ED9FEFA80EB91EF4018081B6
:102550008F3209F089C0C4016FE270E04EDB7C016C
:102560000894E11CF11C3E010894611C711C1601C9
:1025700076C0C7016FE270E040DB6C01009709F4A0
:1025800081C0E816F90608F07DC08C010E191F09FC
:10259000C301B701A80151DB060D171DF801108218
:1025A000F30107C08091C00085FFFCCF3196909366
:1025B000C60090819923B1F78091C00085FFFCCFC0
:1025C000FAE0F093C600F101608171816115710537
:1025D00019F460E070E002C06C5F7F4FCE0142965C
:1025E000A30121E00E948569882371F5EEE4F2E001
:1025F000949108C08091C00085FFFCCF9093C600E5
:10260000319694919923B1F7FE01319607C08091DC
:10261000C00085FFFCCF31969093C600908199232E
:10262000B1F7ECE4F2E0949108C08091C00085FF1E
:10263000FCCF9093C600319694919923B1F7809185
:10264000C00085FFFCCF36C18EE090E08C0F9D1F4F
:10265000F1019183808376010894E11CF11CE1145F
:10266000F10409F086CF0BC0EFE4F0E0AE0EBF1E20
:10267000F601B182A08281EB9FEFA80EB91E082D52
:10268000F92C01C00E2DF501E35BFF4F9DA59923A9
:1026900009F4ADC0608171816115710519F460E0C4
:1026A00070E002C06C5F7F4FC201402F5F2D21E0C0
:1026B0000E948569882309F46AC0E4EEF0E0AE0E5A
:1026C000BF1EF50140815181628173818AE090E0F3
:1026D000A80EB91EF501408351836283738382E1A2
:1026E0009FEFA80EB91EEEE3F2E0949108C080912E
:1026F000C00085FFFCCF9093C6003196949199233A
:10270000B1F7802F9F2D9C01F90107C08091C00077
:1027100085FFFCCF31969093C60090819923B1F745
:10272000E6E3F2E0949108C08091C00085FFFCCF01
:102730009093C600319694919923B1F787EC9AE073
:102740002AE030E00E94D3478091C00085FFFCCF93
:102750008AE08093C600E6EFF0E0AE0EBF1EF50102
:102760001082118212821382E8E2F2E0949108C092
:102770008091C00085FFFCCF9093C6003196949164
:102780009923B1F78091C00085FFFCCF93C0E4E1AD
:10279000F2E0949108C08091C00085FFFCCF909337
:1027A000C600319694919923B1F7802F9F2D9C01FB
:1027B000F90107C08091C00085FFFCCF319690934E
:1027C000C60090819923B1F7E2E1F2E0949108C04C
:1027D0008091C00085FFFCCF9093C6003196949104
:1027E0009923B1F78091C00085FFFCCF63C0608161
:1027F00071816115710519F460E070E002C06C5FD1
:102800007F4FC201402F5F2D26E50E9485698823F6
:1028100081F5EEEFF1E0949108C08091C00085FF52
:10282000FCCF9093C600319694919923B1F7802FF5
:102830009F2D9C01F90107C08091C00085FFFCCF4E
:1028400031969093C60090819923B1F7ECEFF1E0B7
:10285000949108C08091C00085FFFCCF9093C60082
:10286000319694919923B1F78091C00085FFFCCFF8
:1028700021C081E0F5018083EAEEF1E0949108C087
:102880008091C00085FFFCCF9093C6003196949153
:102890009923B1F7F40107C08091C00085FFFCCFF8
:1028A00031969093C60090819923B1F78091C00032
:1028B00085FFFCCF8AE08093C600CE010E966FDCC8
:1028C000AD960FB6F894DEBF0FBECDBFCF91DF91AE
:1028D0001F910F91FF90EF90DF90CF90BF90AF903E
:1028E0009F908F907F906F905F904F903F902F9030
:1028F00008952F923F924F925F926F927F928F92A4
:102900009F92AF92BF92CF92DF92EF92FF920F937E
:102910001F93DF93CF93CDB7DEB7AC970FB6F89484
:10292000DEBF0FBECDBF5C014B01FC01828188235D
:1029300009F434C1C5018D529F4F0E94B562F50163
:1029400011821A8A1D8A198A188A8DE795E09F8755
:102950008E876DE4C62ED12CCA0CDB1C2EE230E033
:10296000A20EB31EF601B182A08222ED3FEFA20EAD
:10297000B31EF40180818F3209F08DC0C4016FE273
:1029800070E03BD97C010894E11CF11C3E010894E5
:10299000611C711C260152E1252E312C2C0E3D1E8E
:1029A00075C0C7016FE270E028D96C01009709F487
:1029B00080C0E816F90608F07CC08C010E191F09CA
:1029C000C301B701A80139D9060D171DF8011082FE
:1029D000F30107C08091C00085FFFCCF3196909332
:1029E000C60090819923B1F78091C00085FFFCCF8C
:1029F000FAE0F093C600F201608171816115710502
:102A000019F460E070E002C06C5F7F4FC101A30168
:102A100021E00E948569882371F5E6EDF1E094914B
:102A200008C08091C00085FFFCCF9093C60031960E
:102A300094919923B1F7FE01319607C08091C000AF
:102A400085FFFCCF31969093C60090819923B1F712
:102A5000E4EDF1E0949108C08091C00085FFFCCFC7
:102A60009093C600319694919923B1F78091C0005C
:102A700085FFFCCF8DC02EE030E02C0F3D1FF20112
:102A80003183208376010894E11CF11CE114F104E8
:102A900009F087CF0BC08FE490E0A80EB91EF601B5
:102AA000B182A08221EB3FEFA20EB31ED82C092DDC
:102AB00002C0DE2C0F2D8DE490E0A80EB91EF501AA
:102AC0008081918123EB3FEFA20EB31E009719F492
:102AD00080E090E001C004966D2D702F0E94516A35
:102AE000882339F1E6ECF1E0949108C08091C000B0
:102AF00085FFFCCF9093C600319694919923B1F74E
:102B00008D2D902F9C01F90107C08091C00085FF99
:102B1000FCCF31969093C60090819923B1F786EF50
:102B200090E0A80EB91EF501108211821282138264
:102B300032C0EEEAF1E0949108C08091C00085FFB8
:102B4000FCCF9093C600319694919923B1F78D2DC7
:102B5000902F9C01F90107C08091C00085FFFCCF38
:102B600031969093C60090819923B1F7ECEAF1E099
:102B7000949108C08091C00085FFFCCF9093C6005F
:102B8000319694919923B1F78091C00085FFFCCFD5
:102B90008AE08093C600CE010E9601DBAC960FB69C
:102BA000F894DEBF0FBECDBFCF91DF911F910F9183
:102BB000FF90EF90DF90CF90BF90AF909F908F905D
:102BC0007F906F905F904F903F902F900895EF927D
:102BD000FF920F931F93CF93DF938C01FC0112821E
:102BE00085A9882321F0C801C2960E94B5627CEABB
:102BF000E72EF12CE00EF11EC70160E045E30E94D4
:102C00008460882309F5EBE3F1E0949108C080919A
:102C1000C00085FFFCCF9093C60031969491992314
:102C2000B1F7E0E9F2E0949108C08091C00085FF1F
:102C3000FCCF9093C600319694919923B1F780917F
:102C4000C00085FFFCCF7DC0E801CF54DF4FCE012F
:102C5000B70141E00E940F6B882341F5CE01B70117
:102C600040E00E940F6B882309F5EBE6F1E09491B8
:102C700008C08091C00085FFFCCF9093C6003196BC
:102C800094919923B1F7EDE7F2E0949108C0809117
:102C9000C00085FFFCCF9093C60031969491992394
:102CA000B1F78091C00085FFFCCF4BC0C801C29630
:102CB000BE010E948C65882309F5EBE6F1E0949152
:102CC00008C08091C00085FFFCCF9093C60031966C
:102CD00094919923B1F7EDE6F2E0949108C08091C8
:102CE000C00085FFFCCF9093C60031969491992344
:102CF000B1F78091C00085FFFCCF23C081E0F801CF
:102D00008283EBE3F1E0949108C08091C00085FFDD
:102D1000FCCF9093C600319694919923B1F7E2E6E7
:102D2000F2E0949108C08091C00085FFFCCF9093A1
:102D3000C600319694919923B1F78091C00085FF28
:102D4000FCCF8AE08093C600D801AD5ABF4FF8018E
:102D5000F2968BE101900D928150E1F7F80180A984
:102D600091A90F5A1F4FF80191838083015510409C
:102D7000C8018E96035B1F4FF80191838083DF911A
:102D8000CF911F910F91FF90EF9008952F923F9256
:102D90004F925F926F927F929F92AF92BF92CF922B
:102DA000DF92EF92FF920F931F93DF93CF93CDB7F4
:102DB000DEB7CC55D0400FB6F894DEBF0FBECDBF06
:102DC0006C01662311F52AEF30E0C20ED31ED60146
:102DD0008C91E6E0FFEFCE0EDF1E882309F4E3C0FE
:102DE00022EF30E0C20ED31ED601ED90FD900D9182
:102DF0001C91EEE0FFEFCE0EDF1E0E94618EE61604
:102E0000F7060807190708F4CEC02AEF30E0C20E13
:102E1000D31ED6011C92E6E0FFEFCE0EDF1ED601D8
:102E200012968C91882339F4C601D1DEF601828195
:102E3000882309F4B8C000D000D0EDB7FEB73196B2
:102E40007E010894E11CF11CADB7BEB71296FC924E
:102E5000EE92119782E691E093838283D6019C964D
:102E60008D919C919D97958384830E942C0E870160
:102E7000EDB7FEB736960FB6F894FEBF0FBEEDBFA6
:102E800057010AC0D8018C91992787FD90950E941F
:102E90004296F80181938F01F50101900020E9F736
:102EA0003197EA19FB09802F8E198E175CF3B2E374
:102EB000AB2EB12CAC0CBD1CC50140E050E060E075
:102EC00070E00E949D619924ADE3EA2EF12CEC0E96
:102ED000FD1E2E010894411C511CFFE16F2E712C28
:102EE0006C0E7D1EEBE52E2EE1E03E2E42C0D80199
:102EF0008C9190E00E944296F80181938F01D70156
:102F00000D900020E9F71197AE19BF09802F8E1997
:102F10008A176CF327968FAD27978E3751F1C7012B
:102F2000B20145E050E00E940F0E009711F500D06D
:102F300000D0EDB7FEB73196ADB7BEB712967C9212
:102F40006E92119733822282558244820E942C0E07
:102F5000EDB7FEB736960FB6F894FEBF0FBEEDBFC5
:102F6000C3010E942D4687E591E00E94B445992453
:102F70009394C501B70140E050E00E94AB6418167D
:102F800014F48701BCCF992041F48FEF9FEFD60155
:102F90009D969C938E939C9706C0F60184A595A55B
:102FA000019695A784A7C45ADF4F0FB6F894DEBFE9
:102FB0000FBECDBFCF91DF911F910F91FF90EF908A
:102FC000DF90CF90BF90AF909F907F906F905F9079
:102FD0004F903F902F9008952F923F924F925F9283
:102FE0006F927F928F929F92AF92BF92CF92DF9219
:102FF000EF92FF920F931F93DF93CF93CDB7DEB77E
:10300000CF58D0400FB6F894DEBF0FBECDBF7C01C5
:103010003B016A0184E090E0C80ED91EF70170966A
:10302000C757DF4FF983E883C958D040C7010396DB
:10303000CA57DF4F99838883C658D040C857DF4F9F
:103040001882C858D0408E010A591F4FF8013B968C
:10305000C557DF4FF983E883CB58D0403BEF832E31
:10306000912C8E0C9F1C2DEFA22EB12CAE0CBF1CF0
:103070009EE0292E312C2C0E3D1E87E4482E512C2B
:103080004C0E5D1EC2010496C357DF4F998388839F
:10309000CD58D040EBE3F1E09491C157DF4F9883D6
:1030A000CF58D04044C1F8018385482F50E0BA0181
:1030B000687170706031710509F047C1F4012081B9
:1030C00031812130310509F440C12230310509F444
:1030D0003CC1F801DE0111969081903239F08E2FBB
:1030E000801B883011F48EE28D939D933196C557E5
:1030F000DF4F88819981CB58D040E817F90761F7F5
:103100001C921E86F3018081882329F4C10160E0AE
:1031100072E00E94F20DC101B3010E94F20DC101E3
:10312000BE016F5F7F4F0E94F20DC10160E072E04F
:103130000E94F20D1CA61FA61BA61AA68DE795E0FD
:1031400099A788A7CE018C96B601AE014F5F5F4F5D
:1031500021E00E948569882309F03FC0F401808145
:103160009181892BD1F5C157DF4F9881CF58D0403D
:10317000EBE3F1E008C08091C00085FFFCCF9093A5
:10318000C600319694919923B1F7E2E0F2E007C0CE
:103190008091C00085FFFCCF31969093C60090814E
:1031A0009923B1F78091C00085FFFCCFFAE0F0933E
:1031B000C600FE01319607C08091C00085FFFCCF9C
:1031C00031969093C60090819923B1F78091C00009
:1031D00085FFFCCF8AE08093C600C357DF4FA881EC
:1031E000B981CD58D040FE01BC968BE101900D9283
:1031F0008150E1F78AA59BA5F201938382838DE735
:1032000095E091838083C701B101A201E5DEC2018F
:103210000E94CF10CE0188960E94CF1088C0953EA4
:1032200009F485C09E3209F482C09F3509F47FC03D
:1032300043FD7DC080E06031710509F481E0F70154
:1032400083A7882349F4F8018085873409F06FC08B
:1032500081858E3709F46BC0CA57DF4FA881B981C9
:10326000C658D040F8018081803241F08E2F801BFB
:10327000883011F48EE28D9380818D933196C557FD
:10328000DF4F88819981CB58D040E817F90759F76B
:103290001C92F40180819181009729F5F30107C008
:1032A0008091C00085FFFCCF31969093C60090813D
:1032B0009923B1F7CA57DF4FE881F981C658D0404A
:1032C00007C08091C00085FFFCCF31969093C60067
:1032D00090819923B1F78091C00085FFFCCFFAE07F
:1032E000F093C60024C08130910539F4F501808146
:1032F00091810196918380831AC00297C1F4C857C7
:10330000DF4FF881C858D0402F2F30E0F501808181
:10331000918128173907F1F0C857DF4FF881C85855
:10332000D040FF5FC857DF4FF883C858D040C60170
:10333000B801C757DF4F48815981C958D0400E9412
:10334000AB6418160CF4AFCE05C0F8019081992338
:1033500009F065CFC157DF4F0FB6F894DEBF0FBE3F
:10336000CDBFCF91DF911F910F91FF90EF90DF9034
:10337000CF90BF90AF909F908F907F906F905F9015
:103380004F903F902F900895EF92FF920F931F93CD
:10339000DF93CF93CDB7DEB76F970FB6F894DEBF4C
:1033A0000FBECDBF7C018BEF90E0E80EF91EF70158
:1033B0001182108285E09FEFE80EF91E87010E5CF6
:1033C0001F4FC80140E050E060E070E00E949D6146
:1033D000DE011596F8018BE101900D928150E1F725
:1033E000F70180A991A99C838B838DE795E09A834F
:1033F0008983C70165E172E08E010F5F1F4FA8014D
:10340000EBDDC8010E94CF106F960FB6F894DEBFB7
:103410000FBECDBFCF91DF911F910F91FF90EF9025
:103420000895DF93CF93CDB7DEB7E0970FB6F8944A
:10343000DEBF0FBECDBFDE011196EDE2F5E080E10B
:1034400001900D928150E1F7DE015196EDE1F5E03A
:1034500080E101900D928150E1F7DE019196EDE05F
:10346000F5E080E101900D928150E1F789819A8128
:10347000AB81BC818093DC0A9093DD0AA093DE0AC5
:10348000B093DF0A89899A89AB89BC898093CC0A79
:103490009093CD0AA093CE0AB093CF0A89A19AA1A6
:1034A000ABA1BCA18093EC0A9093ED0AA093EE0A25
:1034B000B093EF0A8D819E81AF81B8858093E00A39
:1034C0009093E10AA093E20AB093E30A8D899E8962
:1034D000AF89B88D8093D00A9093D10AA093D20A75
:1034E000B093D30A8DA19EA1AFA1B8A58093F00A95
:1034F0009093F10AA093F20AB093F30A89859A8512
:10350000AB85BC858093E40A9093E50AA093E60A14
:10351000B093E70A898D9A8DAB8DBC8D8093D40AC8
:103520009093D50AA093D60AB093D70A89A59AA5F5
:10353000ABA5BCA58093F40A9093F50AA093F60A74
:10354000B093F70A8D859E85AF85B8898093E80A88
:103550009093E90AA093EA0AB093EB0A8D8D9E8DB1
:10356000AF8DB8A18093D80A9093D90AA093DA0AB4
:10357000B093DB0A8DA59EA5AFA5B8A98093F80AE4
:103580009093F90AA093FA0AB093FB0A80E090E0C6
:10359000AAEFB3E48093000B9093010BA093020B6E
:1035A000B093030B80E090E0AAE7B4E48093040BAF
:1035B0009093050BA093060BB093070B20E030E02F
:1035C00040E050E02093FC0A3093FD0A4093FE0A4D
:1035D0005093FF0A80E29EE4A0E0B0E08093C80A26
:1035E0009093C90AA093CA0AB093CB0A2093140BF4
:1035F0003093150B4093160B5093170B80E090E01F
:10360000A0E2B1E48093080B9093090BA0930A0BFE
:10361000B0930B0B80930C0B90930D0BA0930E0BA0
:10362000B0930F0B80E090E0A0EAB1E48093100B20
:103630009093110BA093120BB093130B2093570888
:10364000309358084093590850935A0820935308D0
:1036500030935408409355085093560820934F08D0
:1036600030935008409351085093520881E79DE3EE
:10367000A4E8B1E48093F8049093F904A093FA04C9
:10368000B093FB0485E598EEAEEEBDE38093FC04B9
:103690009093FD04A093FE04B093FF0488E996EB99
:1036A000A2E1B4E48093000590930105A093020584
:1036B000B093030580E090E0A0E8BFE380930405A9
:1036C00090930505A0930605B09307050E94F1703D
:1036D000E0960FB6F894DEBF0FBECDBFCF91DF915D
:1036E0000895CF93DF93CDE9D2E0FE01949108C015
:1036F0008091C00085FFFCCF9093C60031969491D5
:103700009923B1F7ECE5F4E0949108C08091C000F2
:1037100085FFFCCF9093C600319694919923B1F721
:103720008091C00085FFFCCF8AE08093C600FE0137
:103730009491EDE9F2E008C08091C00085FFFCCFD4
:103740009093C600319694919923B1F74091DC0A89
:103750005091DD0A6091DE0A7091DF0A84E594E001
:103760000E94EF294091E00A5091E10A6091E20A3B
:103770007091E30A81E594E00E94EF294091E40A08
:103780005091E50A6091E60A7091E70A8EE494E0B0
:103790000E94EF294091E80A5091E90A6091EA0AF3
:1037A0007091EB0A8BE494E00E94EF29E6E1F2E0ED
:1037B00007C08091C00085FFFCCF31969093C60072
:1037C00090819923B1F78091C00085FFFCCF8AE0FA
:1037D0008093C600FE019491EDE9F2E008C080916B
:1037E000C00085FFFCCF9093C60031969491992339
:1037F000B1F7E1E3F4E0949108C08091C00085FF47
:10380000FCCF9093C600319694919923B1F78091A3
:10381000C00085FFFCCF8AE08093C600FE01949132
:10382000EDE9F2E008C08091C00085FFFCCF9093E5
:10383000C600319694919923B1F74091CC0A5091EA
:10384000CD0A6091CE0A7091CF0A88E294E00E947E
:10385000EF294091D00A5091D10A6091D20A70911B
:10386000D30A85E294E00E94EF294091D40A509156
:10387000D50A6091D60A7091D70A82E294E00E943C
:10388000EF294091D80A5091D90A6091DA0A7091D3
:10389000DB0A8FE194E00E94EF29E6E1F2E007C045
:1038A0008091C00085FFFCCF31969093C600908137
:1038B0009923B1F78091C00085FFFCCF8AE0809307
:1038C000C600FE019491EDE9F2E008C08091C000CD
:1038D00085FFFCCF9093C600319694919923B1F760
:1038E000E1E0F4E0949108C08091C00085FFFCCF36
:1038F0009093C600319694919923B1F78091C000BE
:1039000085FFFCCF8AE08093C600FE019491EDE92B
:10391000F2E008C08091C00085FFFCCF9093C60004
:10392000319694919923B1F74091EC0A5091ED0AA8
:103930006091EE0A7091EF0A88EF93E00E94022AEC
:103940004091F00A5091F10A6091F20A7091F30AE5
:1039500085EF93E00E94022A4091F40A5091F50A03
:103960006091F60A7091F70A82EF93E00E94022AB2
:103970004091F80A5091F90A6091FA0A7091FB0A95
:103980008FEE93E00E94022AE6E1F2E007C0809108
:10399000C00085FFFCCF31969093C600908199239B
:1039A000B1F78091C00085FFFCCF8AE08093C6000C
:1039B000FE019491EDE9F2E008C08091C00085FF1E
:1039C000FCCF9093C600319694919923B1F7EAEB1E
:1039D000F3E0949108C08091C00085FFFCCF9093E4
:1039E000C600319694919923B1F78091C00085FF6C
:1039F000FCCF8AE08093C600FE019491EDE9F2E0ED
:103A000008C08091C00085FFFCCF9093C60031961E
:103A100094919923B1F74091000B5091010B609163
:103A2000020B7091030B81EB93E00E94EF29409110
:103A3000040B5091050B6091060B7091070B8EEAF9
:103A400093E00E94EF29E6E1F2E007C08091C00018
:103A500085FFFCCF31969093C60090819923B1F7F2
:103A60008091C00085FFFCCF8AE08093C600FE01F4
:103A70009491EDE9F2E008C08091C00085FFFCCF91
:103A80009093C600319694919923B1F7E5E1F3E064
:103A9000949108C08091C00085FFFCCF9093C60030
:103AA000319694919923B1F78091C00085FFFCCFA6
:103AB0008AE08093C600FE019491EDE9F2E008C02F
:103AC0008091C00085FFFCCF9093C6003196949101
:103AD0009923B1F74091FC0A5091FD0A6091FE0ACA
:103AE0007091FF0A8CE093E00E94EF294091140B43
:103AF0005091150B6091160B7091170B89E093E0B4
:103B00000E94EF294091C80A5091C90A6091CA0ADF
:103B10007091CB0A86E093E00E94022A4091080B44
:103B20005091090B60910A0B70910B0B83E093E0AD
:103B30000E94EF2940910C0B50910D0B60910E0BE0
:103B400070910F0B80E093E00E94EF294091100BE1
:103B50005091110B6091120B7091130B8DEF92E04D
:103B60000E94EF29E6E1F2E007C08091C00085FFE6
:103B7000FCCF31969093C60090819923B1F7809144
:103B8000C00085FFFCCF8AE08093C600FE019491BF
:103B9000EDE9F2E008C08091C00085FFFCCF909372
:103BA000C600319694919923B1F7EBEEF2E094912F
:103BB00008C08091C00085FFFCCF9093C60031966D
:103BC00094919923B1F78091C00085FFFCCF8AE0E2
:103BD0008093C600FE019491EDE9F2E008C0809167
:103BE000C00085FFFCCF9093C60031969491992335
:103BF000B1F740914F085091500860915108709171
:103C0000520882EE92E00E94EF29409153085091B1
:103C1000540860915508709156088FED92E00E940B
:103C2000EF294091570850915808609159087091B8
:103C30005A088CED92E00E94EF29E6E1F2E007C01D
:103C40008091C00085FFFCCF31969093C600908193
:103C50009923B1F78091C00085FFFCCF8AE0809363
:103C6000C600FE019491EDE9F2E008C08091C00029
:103C700085FFFCCF9093C600319694919923B1F7BC
:103C8000EEECF2E0949108C08091C00085FFFCCF7B
:103C90009093C600319694919923B1F78091C0001A
:103CA00085FFFCCF8AE08093C600FE019491EDE988
:103CB000F2E008C08091C00085FFFCCF9093C60061
:103CC000319694919923B1F74091F8045091F904F9
:103CD0006091FA047091FB0484EC92E00E94EF2959
:103CE0006091FC047091FD048091FE049091FF04AA
:103CF0002DEB37E346E05EE30E940692AB01BC0188
:103D000081EC92E00E94DC29609100057091010530
:103D100080910205909103052DEB37E346E05EE3C9
:103D20000E94DF94AB01BC018EEB92E00E94DC2983
:103D3000E6E1F2E007C08091C00085FFFCCF31963C
:103D40009093C60090819923B1F78091C00085FFC0
:103D5000FCCF8AE08093C600DF91CF9108950F9346
:103D60001F93DF93CF93CDB7DEB764970FB6F89468
:103D7000DEBF0FBECDBF80912F0290913002A09187
:103D80003102B0913202898B9A8BAB8BBC8BFE01D6
:103D90003D9604E610E0F999FECF12BD01BDF89AF8
:103DA00080B580830F5F1F4F0836110511F03196E3
:103DB000F2CFCE014196BE01635F7F4F43E050E0FA
:103DC0000E940F0E009709F0A2C1ECEDFAE0F999FC
:103DD000FECF12BD01BDF89A80B580830F5F1F4FE3
:103DE0000837110511F03196F2CFECECFAE0F999B1
:103DF000FECF12BD01BDF89A80B580830F5F1F4FC3
:103E00000838110511F03196F2CFECEEFAE0F9998D
:103E1000FECF12BD01BDF89A80B580830F5F1F4FA2
:103E20000839110511F03196F2CFE0E0FBE0F99985
:103E3000FECF12BD01BDF89A80B580830F5F1F4F82
:103E40000C39110511F03196F2CFE4E0FBE0F9995D
:103E5000FECF12BD01BDF89A80B580830F5F1F4F62
:103E6000003A110511F03196F2CFECEFFAE0F99932
:103E7000FECF12BD01BDF89A80B580830F5F1F4F42
:103E8000043A110511F03196F2CFE4E1FBE0F99923
:103E9000FECF12BD01BDF89A80B580830F5F1F4F22
:103EA000083A110511F03196F2CFE8ECFAE0F999F1
:103EB000FECF12BD01BDF89A80B580830F5F1F4F02
:103EC0000C3A110511F03196F2CFE8E0FBE0F999D8
:103ED000FECF12BD01BDF89A80B580830F5F1F4FE2
:103EE000003B110511F03196F2CFECE0FBE0F999BF
:103EF000FECF12BD01BDF89A80B580830F5F1F4FC2
:103F0000043B110511F03196F2CFE0E1FBE0F999A5
:103F1000FECF12BD01BDF89A80B580830F5F1F4FA1
:103F2000083B110511F03196F2CFEFE4F8E0F99972
:103F3000FECF12BD01BDF89A80B580830F5F1F4F81
:103F4000043C110511F03196F2CFFE013196F9993A
:103F5000FECF12BD01BDF89A80B580830F5F1F4F61
:103F6000063C110599F7FE013396F999FECF12BD73
:103F700001BDF89A80B580830F5F1F4F083C110583
:103F800011F03196F2CFFE013596F999FECF12BDB0
:103F900001BDF89A80B580830F5F1F4F0A3C110561
:103FA00011F03196F2CFFE013796F999FECF12BD8E
:103FB00001BDF89A80B580830F5F1F4F0C3C11053F
:103FC00011F03196F2CFFE013996F999FECF12BD6C
:103FD00001BDF89A80B580830F5F1F4F0E3C11051D
:103FE00011F03196F2CFFE013B96F999FECF12BD4A
:103FF00001BDF89A80B580830F5F1F4F003D11050A
:1040000011F03196F2CFE8EFF4E0F999FECF12BD4E
:1040100001BDF89A80B580830F5F1F4F043D1105E5
:1040200011F03196F2CFECEFF4E0F999FECF12BD2A
:1040300001BDF89A80B580830F5F1F4F083D1105C1
:1040400011F03196F2CFE0E0F5E0F999FECF12BD24
:1040500001BDF89A80B580830F5F1F4F0C3D11059D
:1040600011F03196F2CFE8EEF4E0F999FECF12BDEF
:1040700001BDF89A80B580830F5F1F4F003E110588
:1040800011F03196F2CFECEEF4E0F999FECF12BDCB
:1040900001BDF89A80B580830F5F1F4F023E110566
:1040A00011F03196F2CFE7E4F2E1F999FECF12BDBB
:1040B00001BDF89A80B5808381E00338180721F0AC
:1040C0000F5F1F4F3196F1CF0E94BB6FEDE9F2E019
:1040D000949108C08091C00085FFFCCF9093C600EA
:1040E000319694919923B1F7E3EAF2E0949108C0F4
:1040F0008091C00085FFFCCF9093C60031969491CB
:104100009923B1F78091C00085FFFCCF20C089D9E9
:10411000EDE9F2E0949108C08091C00085FFFCCFEA
:104120009093C600319694919923B1F7E7E1F2E0BC
:1041300007C08091C00085FFFCCF31969093C600E8
:1041400090819923B1F78091C00085FFFCCF8AE070
:104150008093C600C6DA64960FB6F894DEBF0FBE31
:10416000CDBFCF91DF911F910F9108950F931F93B2
:10417000DF93CF93CDB7DEB764970FB6F894DEBF69
:104180000FBECDBF8091330290913402A0913502D1
:10419000B09136028D879E87AF87B88BFE013D9622
:1041A00004E610E08081F999FECF1FBA12BD01BD6F
:1041B00080BD0FB6F894FA9AF99A0FBE0F5F1F4FA1
:1041C0000836110511F03196EDCFECEDFAE0808163
:1041D000F999FECF1FBA12BD01BD80BD0FB6F8948C
:1041E000FA9AF99A0FBE0F5F1F4F0837110511F0A9
:1041F0003196EDCFECECFAE08081F999FECF1FBA51
:1042000012BD01BD80BD0FB6F894FA9AF99A0FBE9F
:104210000F5F1F4F0838110511F03196EDCFECEE0E
:10422000FAE08081F999FECF1FBA12BD01BD80BDB1
:104230000FB6F894FA9AF99A0FBE0F5F1F4F08391C
:10424000110511F03196EDCFE0E0FBE08081F999A6
:10425000FECF1FBA12BD01BD80BD0FB6F894FA9A09
:10426000F99A0FBE0F5F1F4F0C39110511F03196EF
:10427000EDCFE4E0FBE08081F999FECF1FBA12BDDB
:1042800001BD80BD0FB6F894FA9AF99A0FBE0F5F80
:104290001F4F003A110511F03196EDCFECEFFAE027
:1042A0008081F999FECF1FBA12BD01BD80BD0FB646
:1042B000F894FA9AF99A0FBE0F5F1F4F043A11054E
:1042C00011F03196EDCFE4E1FBE08081F999FECF6A
:1042D0001FBA12BD01BD80BD0FB6F894FA9AF99AC3
:1042E0000FBE0F5F1F4F083A110511F03196EDCF49
:1042F000E8ECFAE08081F999FECF1FBA12BD01BD4A
:1043000080BD0FB6F894FA9AF99A0FBE0F5F1F4F4F
:104310000C3A110511F03196EDCFE8E0FBE0808119
:10432000F999FECF1FBA12BD01BD80BD0FB6F8943A
:10433000FA9AF99A0FBE0F5F1F4F003B110511F05B
:104340003196EDCFECE0FBE08081F999FECF1FBA0A
:1043500012BD01BD80BD0FB6F894FA9AF99A0FBE4E
:104360000F5F1F4F043B110511F03196EDCFE0E1D7
:10437000FBE08081F999FECF1FBA12BD01BD80BD5F
:104380000FB6F894FA9AF99A0FBE0F5F1F4F083BC9
:10439000110511F03196EDCFEFE4F8E08081F99945
:1043A000FECF1FBA12BD01BD80BD0FB6F894FA9AB8
:1043B000F99A0FBE0F5F1F4F043C110511F03196A3
:1043C000EDCF84EB90E09A83898386E490E09C8330
:1043D0008B832FEF30E03E832D8380EF90E0988732
:1043E0008F8384E690E09A8789873C872B87FE013C
:1043F00031968081F999FECF1FBA12BD01BD80BDF3
:104400000FB6F894FA9AF99A0FBE0F5F1F4F063C49
:10441000110571F7FE0133968081F999FECF1FBA1D
:1044200012BD01BD80BD0FB6F894FA9AF99A0FBE7D
:104430000F5F1F4F083C110511F03196EDCFFE01C3
:1044400035968081F999FECF1FBA12BD01BD80BD9E
:104450000FB6F894FA9AF99A0FBE0F5F1F4F0A3CF5
:10446000110511F03196EDCFFE0137968081F99953
:10447000FECF1FBA12BD01BD80BD0FB6F894FA9AE7
:10448000F99A0FBE0F5F1F4F0C3C110511F03196CA
:10449000EDCFFE0139968081F999FECF1FBA12BD8A
:1044A00001BD80BD0FB6F894FA9AF99A0FBE0F5F5E
:1044B0001F4F0E3C110511F03196EDCFFE013B96DA
:1044C0008081F999FECF1FBA12BD01BD80BD0FB624
:1044D000F894FA9AF99A0FBE0F5F1F4F003D11052D
:1044E00011F03196EDCFE8EFF4E08081F999FECF3D
:1044F0001FBA12BD01BD80BD0FB6F894FA9AF99AA1
:104500000FBE0F5F1F4F043D110511F03196EDCF27
:10451000ECEFF4E08081F999FECF1FBA12BD01BD26
:1045200080BD0FB6F894FA9AF99A0FBE0F5F1F4F2D
:10453000083D110511F03196EDCFE0E0F5E0808106
:10454000F999FECF1FBA12BD01BD80BD0FB6F89418
:10455000FA9AF99A0FBE0F5F1F4F0C3D110511F02B
:104560003196EDCFE8EEF4E08081F999FECF1FBAE5
:1045700012BD01BD80BD0FB6F894FA9AF99A0FBE2C
:104580000F5F1F4F003E110511F03196EDCFECEE9D
:10459000F4E08081F999FECF1FBA12BD01BD80BD44
:1045A0000FB6F894FA9AF99A0FBE0F5F1F4F023EAA
:1045B000110511F03196EDCF0E94416FE7E4F2E171
:1045C0008081F999FECF1FBA12BD01BD80BD0FB623
:1045D000F894FA9AF99A0FBE81E00338180721F08F
:1045E0000F5F1F4F3196ECCF80912F0290913002D8
:1045F000A0913102B0913202898B9A8BAB8BBC8B2C
:10460000FE01719684E690E02081F999FECF1FBAF1
:1046100092BD81BD20BD0FB6F894FA9AF99A0FBEEB
:104620008736910519F001963196EECFEDE9F2E06B
:10463000949108C08091C00085FFFCCF9093C60084
:10464000319694919923B1F7ECE6F4E0949108C087
:104650008091C00085FFFCCF9093C6003196949165
:104660009923B1F78091C00085FFFCCF8AE0809349
:10467000C60064960FB6F894DEBF0FBECDBFCF91D3
:10468000DF911F910F910895EF92FF920F931F9367
:10469000CF93DF93EC01E090B704F090B804009161
:1046A000B9041091BA04688179818A819B81A8013B
:1046B00097010E94FF91882324F4E882F9820A83FB
:1046C0001B83E090BB04F090BC040091BD041091EA
:1046D000BE046C817D818E819F81A80197010E941B
:1046E000FF91882324F4EC82FD820E831F83E090E7
:1046F000BF04F090C0040091C1041091C204688509
:1047000079858A859B85A80197010E94FF9188235E
:1047100024F4E886F9860A871B87E090C304F090AA
:10472000C4040091C5041091C604688179818A810E
:104730009B81A80197010E940D94181624F4E88229
:10474000F9820A831B83E090C704F090C8040091AB
:10475000C9041091CA046C817D818E819F81A8015A
:1047600097010E940D94181624F4EC82FD820E83AA
:104770001F83E090CB04F090CC040091CD04109105
:10478000CE04688579858A859B85A80197010E945A
:104790000D94181624F4E886F9860A871B87DF91A2
:1047A000CF911F910F91FF90EF900895809168082D
:1047B00008958130910541F46F5F7F4F09F051C03A
:1047C00088E397E00C942E11892B09F04AC06F5FA3
:1047D0007F4F09F046C08DE795E0909308088093DD
:1047E000070880910E08882321F08BE098E00E9452
:1047F000B5628DE795E09093C6078093C5078091D9
:10480000CC07882321F089EC97E00E94B5628DE700
:1048100095E09093A7078093A6078091AD07882322
:1048200021F08AEA97E00E94B5628DE795E09093C7
:1048300088078093870780918E07882321F08BE873
:1048400097E00E94B5628DE795E0909367078093AB
:10485000660780916D07882321F08AE697E00C9423
:10486000B562089580E090E06FEF7FEFA2CF81E026
:1048700090E06FEF7FEF9DCF0E948F7E8091680860
:10488000882309F036C081E08093680880916A0827
:1048900090916B08A0916C08B0916D0880936E08A0
:1048A00090936F08A0937008B0937108E2E8F4E069
:1048B000949108C08091C00085FFFCCF9093C60002
:1048C000319694919923B1F7E9E8F4E0949108C006
:1048D0008091C00085FFFCCF9093C60031969491E3
:1048E0009923B1F78091C00085FFFCCF8AE08093C7
:1048F000C6000895F8940E948F7E5F9A8A9A8FB7B7
:10490000F894909108019160909308018FBF129ADA
:104910008CE060E00E940890E2E8F4E0949108C026
:104920008091C00085FFFCCF9093C6003196949192
:104930009923B1F7EFEFF4E0949108C08091C000A3
:1049400085FFFCCF9093C600319694919923B1F7DF
:104950008091C00085FFFCCF8AE08093C600FFCF26
:104960000E94618E6093720870937308809374083C
:1049700090937508E091A708F091A808E755F74FC4
:1049800080818823A9F4EEE1F5E0949108C080913C
:10499000C00085FFFCCF9093C60031969491992377
:1049A000B1F78091C00085FFFCCF8AE08093C600FC
:1049B0000895EF92FF920F931F930E94618EE090F3
:1049C0007608F09077080091780810917908209186
:1049D0007208309173084091740850917508621BF9
:1049E000730B840B950BE616F7060807190730F4CE
:1049F000E114F1040105110509F07CDF8091D10477
:104A00009091D204A091D304B091D4040097A10551
:104A1000B10561F10E94618E209172083091730896
:104A20004091740850917508621B730B840B950BB1
:104A30002091D1043091D2044091D3045091D404F8
:104A4000261737074807590788F490910910809175
:104A50000A10981759F45F9A8A9A9FB7F894809130
:104A600008018160809308019FBF129A0E94D74F6E
:104A70001F910F91FF90EF9008956F927F928F9208
:104A80009F92AF92BF92CF92DF92EF92FF920F93DD
:104A90001F93F82E60917A0870917B0880917C08B2
:104AA00090917D0820917E0830917F084091800888
:104AB000509181080E941A943B014C0100D000D013
:104AC0000DB71EB70F5F1F4F6091B3047091B40410
:104AD000882777FD8095982F0E94A1922091D50478
:104AE0003091D6044091D7045091D8040E94DF94AD
:104AF00020E030E040E752E40E94069220E030E0FF
:104B000048EC52E40E9406925B016C01F80160825D
:104B1000718282829382F48280915B0885838FE325
:104B200098E066E878E04AE758E020E001E032E00B
:104B3000E32E0E94F7488091860890918708A09103
:104B40008808B091890880933F0890934008A0930B
:104B50004108B093420880918A0890918B08A091F7
:104B60008C08B0918D088093430890934408A093DB
:104B70004508B093460880918E0890918F08A091C7
:104B80009008B09191088093470890934808A093AB
:104B90004908B0934A088091920890919308A09197
:104BA0009408B091950880934B0890934C08A0937B
:104BB0004D08B0934E088DB79EB706960FB6F89481
:104BC0009EBF0FBE8DBF0E94618E6093720870936E
:104BD000730880937408909375081F910F91FF904C
:104BE000EF90DF90CF90BF90AF909F908F907F908D
:104BF0006F9008956F927F928F929F92AF92BF9223
:104C0000CF92DF92EF92FF920F931F93CF93DF9398
:104C1000EC010E94FA733B014C0160935C087093B5
:104C20005D0880935E0890935F086AEC74E08DEBFA
:104C300092EC288139814A815B810E9425917B0118
:104C40008C0160E972E48AE592EC2C813D814E8111
:104C50005F810E9425915B016C01C801B701A80129
:104C600097010E94DF949B01AC0160E878E289E83B
:104C700097E40E9425917B018C01C601B501A60134
:104C800095010E94DF949B01AC01C801B7010E940D
:104C900025910E944C95288539854A855B850E941F
:104CA0002691A40193010E9426917B018C0120E2B0
:104CB0003FE547E054E40E940D94181654F40F2E7B
:104CC000F0E2EF2EFFE5FF2EF7E00F2FF4E41F2FA9
:104CD000F02DE0929608F0929708009398081093B0
:104CE00099086AEC74E08DEB92E4288139814A815D
:104CF0005B810E9425917B018C0160E972E48AE569
:104D000092EC2C813D814E815F810E9425915B0157
:104D10006C01C801B701A80197010E94DF949B01B3
:104D2000AC0160E878E289E897E40E9425917B0174
:104D30008C01C601B501A60195010E94DF949B017B
:104D4000AC01C801B7010E9425910E944C952885AD
:104D500039854A855B850E942691A40193010E94B2
:104D600026917B018C0120E23FE547E054E40E945C
:104D70000D94181654F40F2EF0E2EF2EFFE5FF2EDF
:104D8000F7E00F2FF4E41F2FF02DE0929A08F09235
:104D90009B0800939C0810939D0860E070E080E001
:104DA00090E0288139814A815B810E9425917B01B5
:104DB0008C0160E972E48AED92E42C813D814E81A0
:104DC0005F810E9425915B016C01C801B701A801B8
:104DD00097010E94DF949B01AC0160E878E289E8CA
:104DE00097E40E9425917B018C01C601B501A601C3
:104DF00095010E94DF949B01AC01C801B7010E949C
:104E000025910E944C95288539854A855B850E94AD
:104E10002691A40193010E9426917B018C0120E23E
:104E20003FE547E054E40E940D94181654F40F2E09
:104E3000F0E2EF2EFFE5FF2EF7E00F2FF4E41F2F37
:104E4000F02DE0929E08F0929F080093A008109326
:104E5000A108DF91CF911F910F91FF90EF90DF900C
:104E6000CF90BF90AF909F908F907F906F9008955C
:104E70002F923F924F925F926F927F928F929F926A
:104E8000AF92BF92CF92DF92EF92FF920F931F9358
:104E9000DF93CF93CDB7DEB76A970FB6F894DEBF36
:104EA0000FBECDBF86E898E0EFDB0E94618E609375
:104EB0007208709373088093740890937508EE24B9
:104EC000FF246E010894C11CD11C86010E0D1F1D0C
:104ED000F701EA57F74FD701A15CB74F60817181A5
:104EE000828193812D913D914D915C910E942591FC
:104EF000D8016D937D938D939C931397E4E0F0E03C
:104F0000EE0EFF1EF0E1EF16F104F9F689819A81A9
:104F1000AB81BC818B8B9C8BAD8BBE8B2D803E80FF
:104F20004F80588469847A848B849C84BC01CD0131
:104F30009B01AC010E94DF947B018C01C201B10195
:104F4000A20191010E94DF949B01AC01C801B7014D
:104F50000E9426917B018C01C401B301A40193013D
:104F60000E94DF949B01AC01C801B7010E94269109
:104F70000E944C957B018C012DEB37E346E855E30D
:104F80000E94FF91882394F4ED84FE840F85188994
:104F9000C801B70120E030E040E050E00E940D94ED
:104FA000181624F017FB109517F91095C801B701D2
:104FB0002DEB37E346E855E30E94FF9187FD42C1A0
:104FC000C801B70120E030E84BEB55E40E94DF94C4
:104FD0002091D5043091D6044091D7045091D80443
:104FE0000E9406927B018C016091B3047091B4041D
:104FF000882777FD8095982F0E94A1929B01AC0194
:10500000C801B7010E94069220E030E048E453E472
:105010000E94DF940E946E927A8B698B1616170697
:1050200024F0A1E0B0E0BA8BA98BF1E0AF2EB12C57
:1050300089899A89AA2797FDA095BA2F8F8B988F77
:10504000A98FBA8FB9C0B501882777FD8095982FB1
:105050000E94A1927B018C016F89788D898D9A8D38
:105060000E94A1929B01AC01C801B7010E94069267
:105070007B018C016B897C898D899E89A8019701B0
:105080000E94DF949B01AC0160913F087091400841
:1050900080914108909142080E9426916093860871
:1050A000709387088093880890938908C201B101A2
:1050B000A80197010E94DF949B01AC016091430815
:1050C0007091440880914508909146080E9426916D
:1050D00060938A0870938B0880938C0890938D0856
:1050E000C401B301A80197010E94DF949B01AC01A8
:1050F00060914708709148088091490890914A084A
:105100000E94269160938E0870938F088093900878
:1051100090939108C801B7012D853E854F85588928
:105120000E94DF949B01AC0160914B0870914C0888
:1051300080914D0890914E080E94269160939208AC
:1051400070939308809394089093950886E898E06C
:1051500051DD6091B3047091B404882777FD809588
:10516000982F0E94A1922091D5043091D6044091AD
:10517000D7045091D8040E94DF9420E030E040E74B
:1051800052E40E94069220E030E048EC52E40E9493
:1051900006927B018C0186E998E06AE978E04EE9A5
:1051A00058E022E938E0EBE5CE2EE8E0DE2E0E9462
:1051B000FA520894A11CB11CA989BA89AA15BB0589
:1051C0000CF041CF8091860890918708A0918808C3
:1051D000B091890880933F0890934008A0934108BC
:1051E000B093420880918A0890918B08A0918C0816
:1051F000B0918D088093430890934408A09345088C
:10520000B093460880918E0890918F08A0919008E5
:10521000B09191088093470890934808A09349085B
:10522000B0934A088091920890919308A0919408B5
:10523000B091950880934B0890934C08A0934D082B
:10524000B0934E086A960FB6F894DEBF0FBECDBF7E
:10525000CF91DF911F910F91FF90EF90DF90CF9052
:10526000BF90AF909F908F907F906F905F904F9086
:105270003F902F900895AF92BF92CF92DF92EF921E
:10528000FF920F931F93E4E6F0E0F093B404E093F1
:10529000B3040F2EF0E0AF2EF0E4BF2EFCE1CF2ED2
:1052A000F6E4DF2EF02DA092D504B092D604C09281
:1052B000D704D092D8040F2EF0E0AF2EF0E0BF2E2E
:1052C000F8ECCF2EF3E4DF2EF02DA092000BB0927D
:1052D000010BC092020BD092030B6093860870936F
:1052E0008708809388089093890820938A083093D0
:1052F0008B0840938C0850938D08E0928E08F092B2
:105300008F080093900810939108B2DD1F910F91C0
:10531000FF90EF90DF90CF90BF90AF90089587EC13
:105320009AE00E943147E1E2F5E0949108C0809153
:10533000C00085FFFCCF9093C600319694919923CD
:10534000B1F740916A0850916B0860916C087091B8
:105350006D084F5F5F4F6F4F7F4F87EC9AE02AE0F9
:1053600030E00E94EF478091C00085FFFCCF8AE0CB
:105370008093C600F5CA4091A7085091A80820E67E
:1053800030E0B901469F9001479F300D569F300D88
:105390001124682F772767FD7095C9018155974FB4
:1053A0000E94FD0D9C019093AE088093AD0880E0B3
:1053B000232B09F081E00895FC01949108C08091AD
:1053C000C00085FFFCCF9093C6003196949199233D
:1053D000B1F787EC9AE022E030E00C94F548FC014C
:1053E000949108C08091C00085FFFCCF9093C600C7
:1053F000319694919923B1F787EC9AE022E030E05E
:105400000C94F548FC01949108C08091C00085FF80
:10541000FCCF9093C600319694919923B1F787EC15
:105420009AE02AE030E00C94D3472F923F924F92BB
:105430005F926F927F928F929F92AF92BF92CF9224
:10544000DF92EF92FF920F931F93DF93CF9300D0E1
:1054500000D0CDB7DEB72C018330910508F045C1EF
:105460003C01660C771C660C771CC301815C974F6E
:105470009A83898380E090E0A0E0B0E0E981FA813E
:1054800080839183A283B3838FE398E063E478E021
:1054900047E458E02BE438E00E94B24D93012A57CC
:1054A000374F3C832B8380E090E0A1E6B4E4F90120
:1054B00080839183A283B38393012D553B4F3E8319
:1054C0002D83D9016D917D918D919C916093D5042F
:1054D0007093D6048093D7049093D80420E030E0F2
:1054E00040E752E40E9406927B018C0186E898E036
:1054F0006AE878E04EE858E022E938E0BBE5CB2ED8
:10550000B8E0DB2E0E94FA520E94117680E090E013
:10551000A0E0B0E0E981FA8180839183A283B38324
:105520008FE398E063E478E047E458E02BE438E068
:105530000E94B24DF301EB56F94F85909590A590DE
:10554000B49021EA36E0420E531EF20164918501C7
:10555000740117FB109517F91095772767FD709563
:10556000872F972F0E94A1921B012C01C801B70120
:10557000A20191010E94DF94AB81BC816D937D9368
:105580008D939C9313976091D5047091D60480916C
:10559000D7049091D80420E030E040E752E40E9424
:1055A00006927B018C0186E898E06AE878E04EE894
:1055B00058E022E938E00E94FA520E941176C501B3
:1055C000B401A50194010E942691A20191010E94BB
:1055D000DF94EB81FC816083718382839383AD814F
:1055E000BE816D917D918D919C9120E030E040E0F5
:1055F0005FE30E94DF946093D5047093D604809398
:10560000D7049093D80420E030E040E752E40E94B1
:1056100006927B018C0186E898E06AE878E04EE823
:1056200058E022E938E00E94FA520E941176F30114
:10563000EC55F94F6591759185919491F301E15B7A
:10564000F74FA080B180C280D380A60195010E944F
:1056500026917B018C01CB01D801E981FA818083FD
:105660009183A283B383F301E055F94F659175915E
:1056700085919491A7EB8A2EA4E09A2E860C971C14
:10568000A60195010E942691D4016D937D938D937F
:105690009C931397F301E454F94F659175918591AB
:1056A0009491E3ECF4E06E0E7F1EA60195010E943A
:1056B0002691D3016D937D938D939C931397C7018E
:1056C000D801EB81FC8180839183A283B38380E046
:1056D00090E0A0E0B0E08093D5049093D604A0932E
:1056E000D704B093D8040E94DF7426960FB6F894BE
:1056F000DEBF0FBECDBFCF91DF911F910F91FF9005
:10570000EF90DF90CF90BF90AF909F908F907F9061
:105710006F905F904F903F902F9008952F923F92FF
:105720004F925F926F927F928F929F92AF92BF92B1
:10573000CF92DF92EF92FF920F931F93DF93CF935D
:1057400000D00F92CDB7DEB77B018C01D42EB7E429
:105750008B2EB8E09B2E8091470890914808A0912D
:105760004908B0914A0889839A83AB83BC8382E05D
:105770000E94CF752B013C018D2D0E94E674E092B2
:105780004708F09248080093490810934A088FE3AD
:1057900098E030DAA6E9AA2EA8E0BA2EF4E02F2E7F
:1057A000312C2A0C3B1CA4E0B0E08A0E9B1E6091B9
:1057B000D5047091D6048091D7049091D80420E04C
:1057C00030E040E752E40E9406927B018C01C50163
:1057D000B1014EE958E09401EBE5CE2EE8E0DE2E73
:1057E0000E94FA520E94117682E00E94CF759B01BE
:1057F000AC01C301B2010E9425919B01AC016981FA
:105800007A818B819C810E942591609347087093D7
:1058100048088093490890934A0880E00E94E67403
:105820008FE398E0E7D9C501B1014EE958E0940152
:105830000E94B24D20914708309148084091490894
:1058400050914A08B901CA010F900F900F900F9024
:10585000CF91DF911F910F91FF90EF90DF90CF904C
:10586000BF90AF909F908F907F906F905F904F9080
:105870003F902F900895AF92BF92CF92DF92EF9218
:10588000FF920F931F937B018C010E944A705B0172
:105890006C010E9472709B01AC01C601B501EBDC8A
:1058A0001F910F91FF90EF90DF90CF90BF90AF903E
:1058B0000895EF92FF920F931F93DDDF0E94117600
:1058C00084E190E00E949D7260E070E080E291ECE3
:1058D00041E024DF162F072FF82EE92E82E890E012
:1058E0000E948672212F302F4F2D5E2DB901CA01E3
:1058F0001F910F91FF90EF9008956F927F928F927A
:105900009F92AF92BF92CF92DF92EF92FF920F934E
:105910001F937C0180E090E00E94117080E00E9463
:105920009A7060E070E088E492E4C3DF5B016C0190
:105930000027F7FC0095102FC801B7010E94A19223
:105940003B014C01C601B501A40193010E942691BF
:105950005B016C01C601B501ACDF7B018C010E94CB
:105960009D70C801B701A40193010E9426917B019B
:105970008C01C601B501A80197010E940D9418166B
:1059800014F4860175018FEF9FEF0E941170882338
:1059900019F057016801DECFC801B701A4019301D6
:1059A0000E94269168DF0E94DF740E94067481E0E5
:1059B0000E949A701F910F91FF90EF90DF90CF900F
:1059C000BF90AF909F908F907F906F90089580913F
:1059D000AD089091AE08019660E070E04AE050E0BA
:1059E0000C94740C8091AD089091AE08019660E023
:1059F00070E00C94170BCF93DF93EC0180915B0860
:105A00008093690884E5B7DC882309F45AC0EADF8B
:105A10000E947392262F60936908662309F451C08F
:105A2000ECE7F4E0949108C08091C00085FFFCCFC2
:105A30009093C600319694919923B1F7C936D10558
:105A400051F0CD36D10521F0C836D10551F506C04B
:105A5000E7E3F2E023C0EEE4F2E015C0E5E6F2E0B1
:105A600007C08091C00085FFFCCF31969093C6009F
:105A700090819923B1F715C08091C00085FFFCCFBC
:105A800031969093C60090819923B1F70AC0809116
:105A9000C00085FFFCCF31969093C600908199237A
:105AA000B1F787EC9AE0622F40E050E00E94DE47B9
:105AB0008091C00085FFFCCF8AE08093C60081E022
:105AC00001C080E0DF91CF910895AF92BF92CF9255
:105AD000DF92EF92FF920F931F93CF93DF931FE319
