:100000000C94F40A0C94210B0C94210B0C94210BEE
:100010000C94210B0C94210B0C94210B0C94210BB0
:100020000C94210B0C94210B0C94210B0C94210BA0
:100030000C94210B0C94210B0C94210B0C94210B90
:100040000C94210B0C9443750C94210B0C94210BF4
:100050000C94210B0C94210B0C94367E0C946C8A1E
:100060000C94210B0C94A04B0C94210B0C94210BA1
:100070000C94210B0C94210B0C94210B0C94210B50
:100080000C94210B0C94210B0C94210B0C94210B40
:100090000C94210B0C94210B0C94210B0C94D788FD
:1000A0000C94210B0C94210B0C94210B0C94210B20
:1000B0000C94210B0C94210B0C94210B0C94210B10
:1000C0000C94210B0C94210B0C94210B0C94210B00
:1000D0000C94210B0C94210B0C94210B0C94210BF0
:1000E0000C94210B084AD73B3BCE016E84BCBFFD6C
:1000F000C12F3D6C74319ABD56833DDA3D00C77FF8
:1001000011BED9E4BB4C3E916BAAAABE0000008090
:100110003F05A84CCDB2D44EB93836A9020C50B91F
:10012000918688083CA6AAAA2ABE000000803F4DFE
:10013000383420582059205A2045006563686F3AAA
:100140000043616E6E6F7420656E74657220737506
:10015000626469723A20004D3234004D32332025FA
:1001600073006175746F25692E67004572726F7236
:100170003A006572726F722077726974696E6720D7
:10018000746F2066696C65004E6F74205344207054
:1001900072696E74696E67002F0053442070726933
:1001A0006E74696E67206279746520002E00446564
:1001B0006C6574696F6E206661696C65642C20469D
:1001C000696C653A200046696C652064656C6574ED
:1001D00065643A002E006F70656E206661696C651B
:1001E000642C2046696C653A200057726974696E08
:1001F0006720746F2066696C653A20002E006F706E
:10020000656E206661696C65642C2046696C653A90
:1002100020002E006F70656E206661696C65642C2D
:100220002046696C653A200046696C652073656CF0
:100230006563746564002053697A653A20004669F5
:100240006C65206F70656E65643A20002E006F70DB
:10025000656E206661696C65642C2046696C653A40
:10026000200053442063617264206F6B006F7065DF
:100270006E526F6F74206661696C656400766F6C96
:10028000756D652E696E6974206661696C656400C0
:10029000534420696E6974206661696C0065636807
:1002A0006F3A0048617264636F64656420446566F8
:1002B00061756C742053657474696E6773204C6F3C
:1002C000616465640053746F72656420736574744F
:1002D000696E677320726574726965766564002063
:1002E00044002049002020204D3330312050005060
:1002F00049442073657474696E67733A00205A002C
:1003000020590020204D323036205800486F6D654E
:10031000206F666673657420286D6D293A0020454C
:1003200000205A0020580020420020540020204D78
:10033000323035205300416476616E636564207607
:1003400061726961626C65733A20533D4D696E203C
:10035000666565647261746520286D6D2F73292C44
:1003600020543D4D696E2074726176656C2066651F
:1003700065647261746520286D6D2F73292C20428D
:100380003D6D696E696D756D207365676D656E7421
:100390002074696D6520286D73292C20583D6D618E
:1003A00078696D756D205859206A65726B20286DCB
:1003B0006D2F73292C20205A3D6D6178696D756D04
:1003C000205A206A65726B20286D6D2F73292C20AE
:1003D00020453D6D6178696D756D2045206A6572B7
:1003E0006B20286D6D2F73290020540020204D3282
:1003F0003034205300416363656C65726174696FCA
:100400006E3A20533D616363656C65726174696F18
:100410006E2C20543D726574726163742061636355
:10042000656C65726174696F6E00204500205A002A
:1004300020590020204D3230312058004D6178691C
:100440006D756D20416363656C65726174696F6E73
:1004500020286D6D2F7332293A00204500205A0064
:1004600020590020204D3230332058004D617869EA
:100470006D756D2066656564726174657320286DA5
:100480006D2F73293A00204500205A002059002082
:10049000204D393220580053746570732070657296
:1004A00020756E69743A0053657474696E677320C1
:1004B00053746F726564006563686F3A00457272C9
:1004C0006F723A005072696E7465722073746F7047
:1004D0007065642064756520746F206572726F7238
:1004E000732E2046697820746865206572726F7279
:1004F00020616E6420757365204D39393920746F21
:1005000020726573746172742E202854656D706555
:100510007261747572652069732072657365742EDB
:100520002053657420697420616674657220726559
:100530007374617274696E6729005072696E7465B4
:10054000722068616C7465642E206B696C6C28295C
:100550002063616C6C656421006F6B00526573658C
:100560006E643A20002200556E6B6E6F776E2063CA
:100570006F6D6D616E643A2022007A5F6D61783A2A
:1005800020007A5F6D696E3A2000795F6D61783A7C
:100590002000785F6D61783A20005A3A00593A009D
:1005A00020436F756E7420583A2000453A005A3A3D
:1005B00000593A00583A004649524D574152455F5A
:1005C0004E414D453A4D61726C696E2056313B206B
:1005D000537072696E7465722F6772626C206D6100
:1005E0007368757020666F722067656E36204649A5
:1005F000524D574152455F55524C3A687474703AA7
:100600002F2F7777772E6D656E64656C2D70617214
:1006100074732E636F6D2050524F544F434F4C5F95
:1006200056455253494F4E3A312E30204D414348A2
:10063000494E455F545950453A4D656E64656C208E
:1006400045585452554445525F434F554E543A31E4
:100650000A0020423A0020453A00543A0020573A16
:100660000020453A00543A002042403A0020403AE7
:1006700000202F003A00205400202F0020423A0092
:10068000202F006F6B20543A002569206D696E2C75
:100690002025692073656300456E642066696C657A
:1006A000206C69737400426567696E2066696C65C9
:1006B000206C697374002000200001010100008596
:1006C0004300007A4300808E430000A0400000A059
:1006D000400000A040000000000000000000808EEC
:1006E00043000005C3000007C30000000000000530
:1006F000430000E64200808E432000256920686F99
:10070000757273202569206D696E75746573004478
:100710006F6E65207072696E74696E672066696CB1
:1007200065005072696E7465722073746F707065C5
:10073000642064756520746F206572726F72732E09
:100740002046697820746865206572726F72206136
:100750006E6420757365204D39393920746F2072AD
:100760006573746172742E202854656D70657261B2
:10077000747572652069732072657365742E2053D9
:100780006574206974206166746572207265737483
:10079000617274696E6729006F6B004E6F204C693F
:1007A0006E65204E756D626572207769746820638E
:1007B0006865636B73756D2C204C617374204C6994
:1007C0006E653A20004E6F20436865636B73756DEC
:1007D0002077697468206C696E65206E756D62653E
:1007E000722C204C617374204C696E653A20006352
:1007F0006865636B73756D206D69736D6174636893
:100800002C204C617374204C696E653A20004C6951
:100810006E65204E756D626572206973206E6F740F
:10082000204C617374204C696E65204E756D626555
:10083000722B312C204C617374204C696E653A2008
:10084000004D31313000446F6E6520736176696E02
:10085000672066696C652E006F6B004D3239002091
:1008600020506C616E6E6572427566666572427983
:100870007465733A20002046726565204D656D6F82
:1008800072793A20004465632031332032303133AD
:1008900000436F6D70696C65643A20002844656C94
:1008A00074614D616B65722C20444D31206265741A
:1008B00061312900207C20417574686F723A2000F4
:1008C00044656320313320323031332031343A33C0
:1008D000343A303500204C61737420557064617473
:1008E00065643A2000312E302E30004D61726C6903
:1008F0006E200020536F66747761726520526573B5
:10090000657400205761746368646F672052657373
:100910006574002042726F776E206F757420526587
:10092000736574002045787465726E616C20526541
:1009300073657400506F77657255700073746172DF
:1009400074002200656E717565696E672022002251
:1009500000656E717565696E672022006563686F5A
:100960003A0020746F6F206C6F6E67206578747228
:100970007573696F6E2070726576656E746564005C
:1009800020636F6C6420657874727573696F6E2074
:1009900070726576656E746564007C3C3E5E2B3DCE
:1009A0003F2F5B5D3B2C2A225C0045313A200045FD
:1009B000303A20005A3A2000593A2000583A200094
:1009C0004D53312C4D53322050696E730A0024F47C
:1009D00004D9201BC40C5C0E9804C4095F0265078F
:1009E0007101F405F900FB04B30048048700C1035A
:1009F00069005803550003034500BE023A00840213
:100A0000310053022A002902250004022000E401DB
:100A10001C00C8011900AF011700980114008401DF
:100A20001300710110006101100051010E0043011B
:100A30000D0036010B002B010B0020010B001501EE
:100A400009000C01090003010800FB000800F30085
:100A50000800EB000700E4000600DE000600D800F6
:100A60000600D2000600CC000500C7000500C20049
:100A70000500BD000400B9000400B5000400B10089
:100A80000400AD000400A9000400A5000300A200BA
:100A900003009F0004009B000300980003009500E2
:100AA000020093000300900003008D0002008B0001
:100AB0000300880002008600020084000300810019
:100AC00002007F0002007D0002007B00020079002E
:100AD000020077000100760002007400020072003C
:100AE0000100710002006F0002006D0001006C0047
:100AF00002006A0001006900020067000100660050
:100B00000100650001006400020062000100610054
:100B10000100600001005F0002005D0001005C0058
:100B200001005B0001005A0001005900010058005B
:100B3000010057000100560001005500010054005B
:100B40000100530000005300010052000100510059
:100B50000100500001004F0001004E0000004E0057
:100B600001004D0001004C0001004B0000004B0053
:100B700001004A000100490001004800000048004F
:100B8000010047000100460000004600010045004A
:100B90000000450001004400010043000000430044
:100BA000010042000000420001004100000041003D
:100BB0000100400001003F0000003F0001003E0036
:100BC00000003E0001003D0000003D0001003C002F
:100BD00000003C0000003C0001003B0000003B0026
:100BE00001003A0000003A0001003900000039001D
:100BF0000100380000003800000038000100370014
:100C0000000037000100360000003600000036000A
:100C100001003500000035000000350001003400FF
:100C200000003400000034000100330000003300F5
:100C300000003300010032000000320000003200EA
:100C400001003100000031000000310001003000DF
:100C5000000030000000300001002F0000002F00D5
:100C600000002F0000002F0001002E0000002E00C9
:100C700000002E0001002D0000002D0000002D00BE
:100C800000002D0001002C0000002C0000002C00B2
:100C900000002C0001002B0000002B0000002B00A6
:100CA00000002B0001002A0000002A0000002A009A
:100CB00000002A000100290000002900000029008E
:100CC0000000290000002900010028000000280081
:100CD0000000280000002800000028000100270074
:100CE0000000270000002700000027000000270068
:100CF000010026000000260000002600000026005B
:100D0000000026000100250000002500000025004D
:100D1000000025000000250000002500010024003F
:100D20000000240000002400000024000000240033
:100D30000100230000002300000023000000230026
:100D40000000230000002300000023000100220017
:100D5000000022000000220000002200000022000B
:100D600000002200010021000000210000002100FD
:100D700000002100000021000000210000002100EF
:100D800001002000000020000000200000002000E2
:100D900000002000000020000000200000002000D3
:100DA00001001F0000001F0000001F0000001F00C6
:100DB00000001F0000001F0000001F0001001E00B7
:100DC00000001E0000001E0000001E00000024F4B1
:100DD000D43050C38E20C2A24017828B7011127A79
:100DE000910D816CD90AA861E108C7586607615165
:100DF00043061E4B5D05C145A7041A411104093D78
:100E00009803713931034036DB0265339102D430E7
:100E10005402802E1D02632CEE01752AC501B028F4
:100E2000A001102781018F2564012B244B01E022B2
:100E30003401AC211F018D200D01801FFC00841E98
:100E4000ED00971DDF00B81CD200E61BC600201B7A
:100E5000BC00641AB200B219A8000A19A0006A18EE
:100E60009900D117910040178B00B51684003116F8
:100E70007E00B31579003A157300C7146F0058143B
:100E80006A00EE1366008813630025135E00C71224
:100E90005B006C12570015125400C1115100701103
:100EA0004F0021114B00D61049008D10470046100D
:100EB000440002104200C00F4000800F3E00420F6D
:100EC0003C00060F3B00CB0E3800930E37005C0E43
:100ED0003500270E3400F30D3200C10D3100900DA6
:100EE0003000600D2E00320D2D00050D2C00D90CA8
:100EF0002B00AE0C2900850C29005C0C2700350C5A
:100F000027000E0C2600E80B2400C40B2400A00BC5
:100F100023007D0B23005A0B2100390B2100180BF5
:100F20002000F80A1F00D90A1E00BB0A1E009D0AF5
:100F30001D00800A1D00630A1C00470A1B002C0AC2
:100F40001B00110A1A00F7091A00DD091900C4096B
:100F50001900AB091900920917007B0918006309F1
:100F600017004C09160036091600200916000A0958
:100F70001500F5081500E0081400CC081400B808A6
:100F80001400A4081400900813007D0812006B08D8
:100F900013005808120046081200340811002308F4
:100FA00011001208110001081100F0071000E007FD
:100FB0001000D0071000C0071000B0070F00A107F5
:100FC000100091070E0083070F0074070F006507DC
:100FD0000E0057070E0049070E003B070D002E07B5
:100FE0000E0020070D0013070D0006070D00F9067F
:100FF0000C00ED060D00E0060C00D4060C00C8063F
:101000000C00BC060C00B0060C00A4060B009906F0
:101010000C008D060B0082060B0077060B006C0699
:101020000B0061060A0057060B004C060A00420638
:101030000A0038060A002E060A0024060A001A06CC
:101040000A001006090007060A00FD050900F4055C
:101050000900EB050900E2050900D9050900D005E2
:101060000900C7050900BE050900B5050800AD0562
:101070000800A50509009C050800940508008C05DA
:101080000800840508007C050800740508006C054C
:101090000700650508005D050700560508004E05B8
:1010A000070047050700400508003805070031051F
:1010B00007002A050700230507001C050600160582
:1010C00007000F0507000805060002050700FB04DE
:1010D0000600F5040700EE040600E8040600E2043A
:1010E0000700DB040600D5040600CF040600C9048F
:1010F0000600C3040600BD040600B7040600B104E0
:101100000500AC040600A6040600A00405009B042C
:10111000060095040500900406008A040500850475
:101120000500800406007A040500750405007004BB
:1011300005006B04050066040500610405005C04FD
:10114000050057040500520405004D04050048043D
:101150000500430405003E0404003A04050035047C
:101160000500300404002C040500270404002304B7
:1011700005001E0404001A040400160405001104EE
:1011800004000D0404000904050004040400000424
:101190000400FC030400F8030400F4030400F0035B
:1011A0000400EC030400E8030400E4030400E0038B
:1011B0000400DC030400D8030400D4030400D003BB
:1011C0000400CC030400C8030300C50303006563E7
:1011D000686F3A00205A3A0020593A0020583A00E5
:1011E000656E6473746F7073206869743A2000458B
:1011F00072726F723A0054656D70657261747572C7
:101200006520686561746564206265642073776930
:101210007463686564206F66662E204D415854459E
:101220004D502074726967676572656420212100E2
:101230003A204578747275646572207377697463B7
:10124000686564206F66662E204D494E54454D50AA
:10125000207472696767657265642021003A2045D1
:1012600078747275646572207377697463686564F5
:10127000206F66662E204D415854454D50207472A3
:1012800069676765726564202100202D20496E76AC
:10129000616C6964206578747275646572206E751E
:1012A0006D62657220210070012C0190012701B050
:1012B000012201C0011D01F00118011002130130CB
:1012C000020E016002090190020401C002FF000049
:1012D00003FA004003F5008003F000D003EB002088
:1012E00004E6007004E100E004DC004005D700C023
:1012F00005D2004006CD00D006C8008007C30030EC
:1013000008BE00F008B900C009B400B00AAF00B0D0
:101310000BAA00D00CA500000EA000500F9B00C02F
:101320001096005012910000148C00C0158700B078
:10133000178200B0197D00D01B7800001E7300409A
:10134000206E0090226900F024640040275F009026
:10135000295A00E02B5500102E500020304B001071
:10136000324600E033410090353C001037370070C2
:10137000383200A0392D00B03A2800A03B2300608D
:101380003C1E00103D1900903D1400103E0F0070EF
:101390003E0A00C03E0500003F0000504944204185
:1013A00075746F74756E652066696E6973686564BF
:1013B000212050757420746865204B702C204B6977
:1013C00020616E64204B6420636F6E7374616E7471
:1013D0007320696E746F20436F6E66696775726102
:1013E00074696F6E2E6800504944204175746F74A3
:1013F000756E65206661696C6564212074696D6530
:101400006F75740020403A006F6B20543A006F6B88
:1014100020423A00504944204175746F74756E65DE
:10142000206661696C6564212054656D7065726128
:101430007475726520746F6F206869676800204B4F
:10144000643A2000204B693A2000204B703A20007B
:1014500020436C6173696320504944200020547517
:101460003A2000204B753A2000206D61783A200028
:10147000206D696E3A200020643A20002062696184
:10148000733A200000002100240027002A002D00CC
:101490003000330001010000040107010A010000CF
:1014A0002200250028002B002E003100340002010C
:1014B0000000050108010B010000200023002600A8
:1014C00029002C002F00320000010000030106015A
:1014D00009010505050507050808080802020202BA
:1014E0000A0A0808040404040101010101010101C0
:1014F0000303030303030303040707070C0C0C0C8B
:101500000C0C0C0C02020202060606060606060673
:101510000B0B0B0B0B0B0B0B010210202008081000
:101520002040102040800201020108040201010253
:10153000040810204080804020100804020180042C
:101540000201804020100804020108040201010287
:101550000408102040800102040810204080000090
:10156000090A02080B0C0D07060304010000000025
:10157000000000000000000000000000000000006B
:101580000000000000000000000011100F0000002B
:10159000000000000000000000000000000000004B
:1015A00000000000494E46494E4954594E414ECD27
:1015B000CCCC3D0AD7233C17B7D13877CC2B32950A
:1015C00095E6241FB14F0A000020410000C84200E8
:1015D000401C4620BCBE4CCA1B0E5AAEC59D7400B2
:1015E000E724344C4688E22411241FBECFEFD1E219
:1015F000DEBFCDBF00E00CBF14E0A0E0B2E0E6EC3F
:10160000F5E201E00BBF02C007900D92A836B107CA
:10161000D9F71BBE12E1A8E6B4E001C01D92A538BF
:10162000B107E1F715E1C6EED5E104C02297FE014E
:101630000E948992C03ED107C9F70E94408D0C9448
:10164000D7920C940000A0E0B0E0E9E2FBE00C943B
:10165000A692EC015B016115710519F0FB01918304
:101660008083F9908F2D90E00E948D92892BC9F78D
:10167000FDE2FF1621F4F990EE24E39405C02BE27D
:10168000F21609F4F990EE248E0101501040C801C1
:1016900064EA75E143E050E069D2892BF9F48E01E8
:1016A0000E5F1F4FC80167EA75E145E050E05ED26A
:1016B000892B19F48E01095F1F4FA114B10419F091
:1016C000F50111830083E0FC04C070E090E080E845
:1016D00013C070E090E080E86FEF07C1C8016CEACA
:1016E00075E143E050E042D2892B69F4A114B104C2
:1016F00029F470E090E080EC6FE7F7C02296F501E6
:10170000D183C083F6CF8824992440E050E060E084
:1017100070E0EF2DE053EA30A0F5F2E0EF2A8E2DD5
:1017200090E09C0128703070E2FE06C0232B79F512
:101730000894811C911C2BC0232B19F0089481085C
:101740009108DB01CA0112E0880F991FAA1FBB1F75
:101750001A95D1F7480F591F6A1F7B1F440F551F59
:10176000661F771F4E0F511D611D711D483929E9F4
:10177000520729E9620729E1720748F084E0E82A64
:1017800006C0EE3F31F4E3FC39C098E0E92AF99055
:10179000C0CFE53311F0E53189F529912D3219F4E7
:1017A000E0E1EE2A05C02B3219F081E090E003C0A1
:1017B000299182E090E0E22FE053EA3018F0C81B54
:1017C000D90B1CC020E030E0FCE020383F075CF47F
:1017D000C901880F991F880F991F280F391F220FE1
:1017E000331F2E0F311DE991E053EA3068F3E4FE18
:1017F00003C0309521953F4F820E931ECE2CDD24E1
:10180000E1FE07C0A114B10421F02197F501D183B5
:10181000C083CB01BA010E94F28E7B018C01F3E000
:10182000CF22DD2423E0C216D10421F417FB10954A
:1018300017F9109557016801C801B70120E030E0A1
:1018400040E050E00E94528E882309F44AC097FE7F
:101850000DC023ECE22E25E1F22E909481949108A4
:101860009394C0E2D0E000E010E012C09BEDE92EBE
:1018700095E1F92EF6CFF7012591359145915491D7
:10188000C601B5010E9432915B016C018C1A9D0A60
:101890008C169D0684F7D595C7950F5F1F4F0630B0
:1018A000110529F08CEF9FEFE80EF91EF1CFC5016D
:1018B000D6017C018D018C2D880F8D2D881F8F3FC7
:1018C00051F0C601B50120E030E040E050E00E9458
:1018D000528E882331F482E290E0909384128093B8
:1018E00083127E2D9F2D802F612F272F392F482F78
:1018F000562FB901CA01CDB7DEB7ECE00C94C29205
:101900002F923F925F926F927F928F929F92AF92AF
:10191000BF92CF92DF92EF92FF920F931F93CF93DC
:10192000DF938C011B01EA016115710519F0FB01C0
:1019300091838083209749F0CE010297839728F006
:1019400020E030E040E050E0F6C0F801A1908F01C7
:101950008A2D90E00E948D92892BB9F7FDE2AF1697
:1019600031F4F801A1908F015524539407C0FBE294
:10197000AF1619F4F801A1908F015524209719F0A2
:10198000C031D105C1F4F0E3AF1679F4F8018081DC
:10199000883711F0883549F4F801A1800E5F1F4F98
:1019A000F2E05F2AC0E1D0E006C0209721F480E396
:1019B000A816E9F427C0C830D10531F1C930D105E6
:1019C00024F4C230D10531F50CC0CA30D10589F0FC
:1019D000C031D105F9F4C12CD12CE12CB8E0FB2E9B
:1019E00028C0C12CD12CE12CA0E4FA2E22C0CAE0E0
:1019F000D0E0FCECCF2EFCECDF2EFCECEF2EFCE07C
:101A0000FF2E17C0C8E0D0E0C12CD12CE12CE0E1C2
:101A1000FE2E0FC09E01442737FD4095542F60E0F5
:101A200070E080E090E80E943692C901DA016C0112
:101A30007D0120E030E040E050E060E03E0188249D
:101A400077FC8094982C70EDB72EBA0CE9E0EB157A
:101A500070F48A2D81548A3118F499ECB92E06C09D
:101A60008A2D81568A3150F589EAB82EBA0C8B2D11
:101A700090E08C179D0714F56F3FE1F0C216D30676
:101A8000E406F506B0F0CA01B901A40193010E9471
:101A900004929B01AC012B0D311D411D511D2130C4
:101AA000F0E03F07F0E04F07F0E85F0710F461E077
:101AB00001C06FEFF801A1908F01C5CF211431044F
:101AC00081F0662331F001501040F1011183008351
:101AD00008C051FE1AC002501040F101118300836A
:101AE00014C067FF12C050FC05C02FEF3FEF4FEF4F
:101AF0005FE704C020E030E040E050E882E290E0A0
:101B0000909384128093831216C050FE08C05095A3
:101B10004095309521953F4F4F4F5F4F0CC057FF79
:101B20000AC082E290E090938412809383122FEF98
:101B30003FEF4FEF5FE7B901CA01DF91CF911F91EE
:101B40000F91FF90EF90DF90CF90BF90AF909F905C
:101B50008F907F906F905F903F902F900895FB0142
:101B6000DC0105900D920020E1F70895FB01DC01F6
:101B70004150504088F08D9181341CF08B350CF42D
:101B8000805E659161341CF06B350CF4605E861BE1
:101B9000611171F3990B0895881BFCCFFB015591DE
:101BA0005523A9F0BF01DC014D9145174111E1F723
:101BB00059F4CD010590002049F04D914015411197
:101BC000C9F3FB014111EFCF81E090E00197089547
:101BD000FB01DC0104C08D910190801921F441507A
:101BE0005040C8F7881B990B0895FB01DC0102C027
:101BF00001900D9241505040D8F70895FB01DC014F
:101C00000D900020E9F7119701900D920020E1F767
:101C10000895FC018191861721F08823D9F799272F
:101C200008953197CF010895FB01DC0101900D92D9
:101C30000020E1F70895FB01DC014150504030F0F5
:101C40008D910190801919F40020B9F7881B990B28
:101C50000895FB01DC014150504048F001900D9285
:101C60000020C9F701C01D9241505040E0F708958F
:101C7000AEE0B0E0EEE3FEE00C94AE920E891F8978
:101C80008EE08C831A8309838FEF9FE79E838D8379
:101C90009E01265E3F4FCE010196688D798DA90188
:101CA0000AD02F813885020F131FF80110822E965B
:101CB000E4E00C94CA92ABE0B0E0E1E6FEE00C9404
:101CC000A0923C012B015A01FC01178216828381EC
:101CD00081FD03C06FEF7FEFB9C19AE0892E1E012D
:101CE0000894211C311CF3012381F20123FD85910D
:101CF00023FF81912F01882309F4A5C1853239F48E
:101D000023FD859123FF81912F01853221F490E0FD
:101D1000B301B7D1E8CF982FFF24EE249924FFE137
:101D2000FF15D0F09B3269F09C3228F4903259F0C4
:101D3000933291F40EC09D3249F0903369F441E042
:101D400024C052E0F52A84E0F82A28C098E0F92A55
:101D500025C0E0E1FE2A22C0F7FC29C0892F80536C
:101D60008A3070F4F6FE05C0989C902C1124980ED1
:101D700015C0E89CE02C1124E80EF0E2FF2A0EC00A
:101D80009E3229F4F6FC5FC140E4F42A07C09C3679
:101D900019F450E8F52A02C0983649F4F20123FDFF
:101DA000959123FF91912F01992309F0B8CF892FA5
:101DB0008554833018F08052833038F444E050E08A
:101DC000A40EB51E5FE359830FC0933631F09337ED
:101DD00079F0933509F052C01FC0F50180818983E5
:101DE00042E050E0A40EB51E610101E010E011C018
:101DF000F501C080D180F6FC03C06FEF7FEF02C019
:101E0000692D70E042E050E0A40EB51EC6012ED14F
:101E10008C015FE7F52213C0F501C080D180F6FC8C
:101E200003C06FEF7FEF02C0692D70E042E050E029
:101E3000A40EB51EC6010FD18C0150E8F52AF3FEA1
:101E400006C018C080E290E0B3011BD1EA948E2D49
:101E500090E008171907B0F30DC0F601F7FC859163
:101E6000F7FE81916F0190E0B3010BD1E110EA948C
:101E7000015010400115110581F7E2C0943611F0B0
:101E8000993661F5F7FE08C0F50120813181428164
:101E9000538184E090E00AC0F501808191819C012A
:101EA000442737FD4095542F82E090E0A80EB91EDC
:101EB0009FE6F92257FF09C050954095309521952E
:101EC0003F4F4F4F5F4FE0E8FE2ACA01B901A10121
:101ED0002AE030E002D1D82ED2183FC0953729F43D
:101EE0001F2D1F7E2AE030E01DC01F2D197F9F3659
:101EF00061F0903720F4983509F0A5C00FC09037F5
:101F000039F0983709F09FC004C028E030E00AC0DB
:101F1000106114FD146020E130E004C014FD16606F
:101F200020E132E017FF08C0F501608171818281F4
:101F3000938144E050E008C0F50180819181BC01AB
:101F400080E090E042E050E0A40EB51EA101C5D0B3
:101F5000D82ED2188FE7F82EF122F6FE0BC05EEFD6
:101F6000F522D91438F4F4FE07C0F2FC05C08FEE58
:101F7000F82202C01D2D01C0192DF4FE0DC0FE0176
:101F8000ED0DF11D8081803319F499EEF92208C01E
:101F90001F5FF2FE05C003C08F2D867809F01F5F1A
:101FA0000F2DF3FC13C0F0FE0EC01E1510F09D2C7B
:101FB0000AC09D2C9E0C911A1E2D05C080E290E057
:101FC000B3015FD01F5F1E15C8F304C01E1510F4C7
:101FD000E11A01C0EE2404FF0EC080E390E0B301DB
:101FE00050D002FF1BC001FD03C088E790E00EC087
:101FF00088E590E00BC0802F867881F001FF02C059
:102000008BE201C080E2F7FC8DE290E0B30139D0B1
:1020100005C080E390E0B30134D09A94D914C8F39A
:10202000DA94F101ED0DF11D808190E0B30129D02A
:10203000DD20B1F705C080E290E0B30122D0EA9440
:10204000EE20C9F750CEF30166817781CB012B9644
:10205000E2E10C94BC92FC010590615070400110CB
:10206000D8F7809590958E0F9F1F0895FC016150C1
:10207000704001900110D8F7809590958E0F9F1FAA
:1020800008950F931F93CF93DF938C01EB018B8106
:1020900081FF1BC082FF0DC02E813F818C819D81FD
:1020A0002817390764F4E881F9810193F983E883FB
:1020B00006C0E885F985802F1995892B31F48E812A
:1020C0009F8101969F838E8302C00FEF1FEFC8018F
:1020D000DF91CF911F910F910895FA01AA2728301F
:1020E00051F1203181F1E8946F936E7F6E5F7F4FE5
:1020F0008F4F9F4FAF4FB1E03ED0B4E03CD0670F61
:10210000781F891F9A1FA11D680F791F8A1F911DB3
:10211000A11D6A0F711D811D911DA11D20D009F403
:1021200068943F912AE0269F11243019305D319345
:10213000DEF6CF010895462F4770405D4193B3E02E
:102140000FD0C9F7F6CF462F4F70405D4A3318F0D5
:10215000495D31FD4052419302D0A9F7EACFB4E086
:10216000A6959795879577956795BA95C9F700973E
:102170006105710508959B01AC010A2E06945795DF
:10218000479537952795BA95C9F7620F731F841F36
:10219000951FA01D0895FC01128213820895FC0171
:1021A0008381882311F081E082830895FC0182817C
:1021B000811112820895FC0180E594E0918380836F
:1021C0008781882321F0CF0104960C948F670895AE
:1021D0000F931F93CF93DF938C010E942A750E9467
:1021E0000775C80182539E4F0E948F67F8011282C3
:1021F0008FE291E00E94AE4A8091200A882301F18B
:102200001092200A80918606C82FD0E0CC0FDD1FE7
:10221000CF59DE4E68817981882777FD8095982F88
:102220000E94F48E2091AA033091AB034091AC033D
:102230005091AD030E946090181614F41982188210
:10224000DF91CF911F910F910895EF92FF920F931D
:102250001F938C014EECE42E41E0F42EE80EF91EA3
:10226000C7010E944167C7010E948F67F801108271
:1022700011821F910F91FF90EF900895CF92DF92FE
:10228000EF92FF920F931F93CF93DF937C016B012B
:10229000DB010D900020E9F78D0101501040061B75
:1022A000170BEEECF1E0EE0EFF1ED7011C92E2E3FD
:1022B000FEEFEE0EFF1ECB016EE470E0AADCEC0137
:1022C000009731F4F8013197EC0DFD1D86010CC02B
:1022D00060E270E09EDC8C010F5F1F4FCE016AE26E
:1022E00070E097DCFC0131978DE081838AE0828386
:1022F0001382C70186539E4FB8010E94586F8EEC1F
:1023000091E0E80EF91ED7018C91882319F1EBE6D4
:10231000F1E0949108C08091C00085FFFCCF9093BC
:10232000C600319694919923B1F7E2E7F1E09491D8
:1023300008C08091C00085FFFCCF9093C600319605
:1023400094919923B1F78091C00085FFFCCF8AE07A
:102350008093C600DF91CF911F910F91FF90EF9076
:10236000DF90CF900895CF93DF93EC018B8188238A
:1023700009F43BC0EAE9F1E0949108C08091C00003
:1023800085FFFCCF9093C600319694919923B1F7C5
:10239000CF50DE4F488159816A817B81C15FD14036
:1023A0008FEA99E02AE030E00E94CD4CE8E9F1E0C4
:1023B000949108C08091C00085FFFCCF9093C60027
:1023C000319694919923B1F7C751DE4F48815981D5
:1023D0006A817B818FEA99E02AE030E00E94CD4C4F
:1023E0008091C00085FFFCCF12C0E8E8F1E0949135
:1023F00008C08091C00085FFFCCF9093C600319645
:1024000094919923B1F78091C00085FFFCCF8AE0B9
:102410008093C600DF91CF9108952F923F924F9203
:102420005F926F927F928F929F92AF92BF92CF9264
:10243000DF92EF92FF920F931F93DF93CF93CDB76D
:10244000DEB7AD970FB6F894DEBF0FBECDBF5C010F
:102450004B014DA7FC018381882309F4DDC16EEC9B
:10246000462E61E0562E4A0C5B1CC2010E948F670B
:10247000F50112821A8A1D8A198A188A80E594E069
:102480009F878E875EE4C52ED12CCA0CDB1C8FE2A1
:1024900090E0A80EB91EF601B182A08281ED9FEFF7
:1024A000A80EB91EF40180818F3209F089C0C401E1
:1024B0006FE270E0AEDB7C010894E11CF11C3E0190
:1024C0000894611C711C160176C0C7016FE270E0B0
:1024D000A0DB6C01009709F481C0E816F90608F04A
:1024E0007DC08C010E191F09C301B701A801B1DB22
:1024F000060D171DF8011082F30107C08091C0007E
:1025000085FFFCCF31969093C60090819923B1F757
:102510008091C00085FFFCCFFAE0F093C600F10186
:10252000608171816115710519F460E070E002C08D
:102530006C5F7F4FCE014296A30121E00E945F6E47
:10254000882371F5EEE4F2E0949108C08091C00018
:1025500085FFFCCF9093C600319694919923B1F7F3
:10256000FE01319607C08091C00085FFFCCF3196F7
:102570009093C60090819923B1F7ECE4F2E0949136
:1025800008C08091C00085FFFCCF9093C6003196B3
:1025900094919923B1F78091C00085FFFCCF36C19B
:1025A0008EE090E08C0F9D1FF10191838083760176
:1025B0000894E11CF11CE114F10409F086CF0BC072
:1025C000E0E5F0E0AE0EBF1EF601B182A08280EB26
:1025D0009FEFA80EB91E082DF92C01C00E2DF50194
:1025E000E25BFF4F9DA5992309F4ADC06081718125
:1025F0006115710519F460E070E002C06C5F7F4FF7
:10260000C201402F5F2D21E00E945F6E882309F4F4
:102610006AC0EFEDF1E0AE0EBF1EF50140815181C1
:10262000628173818AE090E0A80EB91EF5014083B3
:1026300051836283738387E19EEFA80EB91EEEE398
:10264000F2E0949108C08091C00085FFFCCF909388
:10265000C600319694919923B1F7802F9F2D9C014C
:10266000F90107C08091C00085FFFCCF319690939F
:10267000C60090819923B1F7E6E3F2E0949108C097
:102680008091C00085FFFCCF9093C6003196949155
:102690009923B1F78FEA99E02AE030E00E94CD4C0F
:1026A0008091C00085FFFCCF8AE08093C600E1EFF7
:1026B000F1E0AE0EBF1EF50110821182128213826C
:1026C000E8E2F2E0949108C08091C00085FFFCCF61
:1026D0009093C600319694919923B1F78091C000F0
:1026E00085FFFCCF93C0E4E1F2E0949108C08091B3
:1026F000C00085FFFCCF9093C6003196949199233A
:10270000B1F7802F9F2D9C01F90107C08091C00077
:1027100085FFFCCF31969093C60090819923B1F745
:10272000E2E1F2E0949108C08091C00085FFFCCF07
:102730009093C600319694919923B1F78091C0008F
:1027400085FFFCCF63C0608171816115710519F44B
:1027500060E070E002C06C5F7F4FC201402F5F2DD0
:1027600026E50E945F6E882381F5EEEFF1E09491FB
:1027700008C08091C00085FFFCCF9093C6003196C1
:1027800094919923B1F7802F9F2D9C01F90107C0E7
:102790008091C00085FFFCCF31969093C600908158
:1027A0009923B1F7ECEFF1E0949108C08091C0005B
:1027B00085FFFCCF9093C600319694919923B1F791
:1027C0008091C00085FFFCCF21C081E0F5018083AE
:1027D000EAEEF1E0949108C08091C00085FFFCCF43
:1027E0009093C600319694919923B1F7F40107C0F4
:1027F0008091C00085FFFCCF31969093C6009081F8
:102800009923B1F78091C00085FFFCCF8AE08093C7
:10281000C600CE010E96CFDCAD960FB6F894DEBFA3
:102820000FBECDBFCF91DF911F910F91FF90EF9021
:10283000DF90CF90BF90AF909F908F907F906F90E0
:102840005F904F903F902F900895FC0181E081832D
:10285000CF0140E0E2CD2F923F924F925F926F9274
:102860007F928F929F92AF92BF92CF92DF92EF9220
:10287000FF920F931F93DF93CF93CDB7DEB7AC9743
:102880000FB6F894DEBF0FBECDBF5C014B01FC015B
:102890008381882309F434C1C50182539E4F0E946D
:1028A0008F67F50112821A8A1D8A198A188A80E5B3
:1028B00094E09F878E87EEE4CE2ED12CCA0CDB1CD1
:1028C0002FE230E0A20EB31EF601B182A08221ED0C
:1028D0003FEFA20EB31EF40180818F3209F08DC04C
:1028E000C4016FE270E095D97C010894E11CF11CF1
:1028F0003E010894611C711C260172E1272E312CC7
:102900002C0E3D1E75C0C7016FE270E082D96C01CC
:10291000009709F480C0E816F90608F07CC08C0125
:102920000E191F09C301B701A80193D9060D171D80
:10293000F8011082F30107C08091C00085FFFCCF31
:1029400031969093C60090819923B1F78091C00091
:1029500085FFFCCFFAE0F093C600F201608171813F
:102960006115710519F460E070E002C06C5F7F4F83
:10297000C101A30121E00E945F6E882371F5E6ED9D
:10298000F1E0949108C08091C00085FFFCCF909346
:10299000C600319694919923B1F7FE01319607C094
:1029A0008091C00085FFFCCF31969093C600908146
:1029B0009923B1F7E4EDF1E0949108C08091C00053
:1029C00085FFFCCF9093C600319694919923B1F77F
:1029D0008091C00085FFFCCF8DC02EE030E02C0F31
:1029E0003D1FF2013183208376010894E11CF11C24
:1029F000E114F10409F087CF0BC080E590E0A80E48
:102A0000B91EF601B182A08220EB3FEFA20EB31EE9
:102A1000D82C092D02C0DE2C0F2D8EE490E0A80EDC
:102A2000B91EF5018081918122EB3FEFA20EB31E0A
:102A3000009719F480E090E001C004966D2D702F8E
:102A40000E942B6F882339F1E6ECF1E0949108C0E5
:102A50008091C00085FFFCCF9093C6003196949181
:102A60009923B1F78D2D902F9C01F90107C080911A
:102A7000C00085FFFCCF31969093C60090819923CA
:102A8000B1F781EF91E0A80EB91EF5011082118215
:102A90001282138232C0EEEAF1E0949108C0809174
:102AA000C00085FFFCCF9093C60031969491992386
:102AB000B1F78D2D902F9C01F90107C08091C000C6
:102AC00085FFFCCF31969093C60090819923B1F792
:102AD000ECEAF1E0949108C08091C00085FFFCCF42
:102AE0009093C600319694919923B1F78091C000DC
:102AF00085FFFCCF8AE08093C600CE010E965BDB9B
:102B0000AC960FB6F894DEBF0FBECDBFCF91DF916C
:102B10001F910F91FF90EF90DF90CF90BF90AF90FB
:102B20009F908F907F906F905F904F903F902F90ED
:102B30000895EF92FF920F931F93CF93DF938C0131
:102B4000FC01138286A9882321F0C801C3960E9444
:102B50008F67F7EAEF2EF1E0FF2EE00EF11EC701BE
:102B600060E045E30E945E65882309F5EBE3F1E050
:102B7000949108C08091C00085FFFCCF9093C6005F
:102B8000319694919923B1F7E0E9F2E0949108C06D
:102B90008091C00085FFFCCF9093C6003196949140
:102BA0009923B1F78091C00085FFFCCF7DC0E8017B
:102BB000C455DE4FCE01B70141E00E94E96F882382
:102BC00041F5CE01B70140E00E94E96F882309F585
:102BD000EBE6F1E0949108C08091C00085FFFCCF46
:102BE0009093C600319694919923B1F7EDE7F2E006
:102BF000949108C08091C00085FFFCCF9093C600DF
:102C0000319694919923B1F78091C00085FFFCCF54
:102C10004BC0C801C396BE010E94666A882309F5AD
:102C2000EBE6F1E0949108C08091C00085FFFCCFF5
:102C30009093C600319694919923B1F7EDE6F2E0B6
:102C4000949108C08091C00085FFFCCF9093C6008E
:102C5000319694919923B1F78091C00085FFFCCF04
:102C600023C081E0F8018383EBE3F1E0949108C095
:102C70008091C00085FFFCCF9093C600319694915F
:102C80009923B1F7E2E6F2E0949108C08091C00088
:102C900085FFFCCF9093C600319694919923B1F7AC
:102CA0008091C00085FFFCCF8AE08093C600D801E8
:102CB000AC5ABF4FF801F3968BE101900D92815011
:102CC000E1F7F80181A992A90E5A1F4FF8019183EB
:102CD000808302551040C8018F96025B1F4FF80198
:102CE00091838083DF91CF911F910F91FF90EF909F
:102CF00008952F923F924F925F926F927F929F9290
:102D0000AF92BF92CF92DF92EF92FF920F931F93F9
:102D1000DF93CF93CDB7DEB7CC55D0400FB6F89444
:102D2000DEBF0FBECDBF6C01662311F525EF31E08C
:102D3000C20ED31ED6018C91EBE0FEEFCE0EDF1E4D
:102D4000882309F4E3C02DEE31E0C20ED31ED60174
:102D5000ED90FD900D911C91E3E1FEEFCE0EDF1E94
:102D60000E94B48AE616F7060807190708F4CEC0D1
:102D700025EF31E0C20ED31ED6011C92EBE0FEEF30
:102D8000CE0EDF1ED60113968C91882339F4C6012E
:102D9000D0DEF6018381882309F4B8C000D000D0CA
:102DA000EDB7FEB731967E010894E11CF11CADB77A
:102DB000BEB71296FC92EE92119782E691E0938351
:102DC0008283D6019D968D919C919E979583848355
:102DD0000E94380E8701EDB7FEB736960FB6F8940D
:102DE000FEBF0FBEEDBF57010AC0D8018C919927D5
:102DF00087FD90950E949592F80181938F01F501CE
:102E000001900020E9F73197EA19FB09802F8E190C
:102E10008E175CF303E3A02EB12CAC0CBD1CC501D6
:102E200040E050E060E070E00E94776699241DE386
:102E3000E12EF12CEC0EFD1E2E010894411C511CBC
:102E4000BFE16B2E712C6C0E7D1EABE52A2EA1E02E
:102E50003A2E42C0D8018C9190E00E949592F801E0
:102E600081938F01D7010D900020E9F71197AE19DA
:102E7000BF09802F8E198A176CF327968FAD27977D
:102E80008E3751F1C701B20145E050E00E941B0EA0
:102E9000009711F500D000D0EDB7FEB73196ADB771
:102EA000BEB712967C926E9211973382228255821F
:102EB00044820E94380EEDB7FEB736960FB6F894EE
:102EC000FEBF0FBEEDBFC3010E94274B87E591E017
:102ED0000E94AE4A99249394C501B70140E050E0A6
:102EE0000E948569181614F48701BCCF992041F41B
:102EF0008FEF9FEFD6019E969C938E939D9706C071
:102F0000F60185A596A5019696A785A7C45ADF4F19
:102F10000FB6F894DEBF0FBECDBFCF91DF911F91EA
:102F20000F91FF90EF90DF90CF90BF90AF909F9068
:102F30007F906F905F904F903F902F9008952F92C9
:102F40003F924F925F926F927F928F929F92AF9239
:102F5000BF92CF92DF92EF92FF920F931F93DF9376
:102F6000CF93CDB7DEB7CF58D0400FB6F894DEBFC1
:102F70000FBECDBF8C013B016A0184E090E0C80E1A
:102F8000D91EF8017196C757DF4FF983E883C958F6
:102F9000D040C8010496CA57DF4F99838883C6582A
:102FA000D040C857DF4F1882C858D04046E6E42EBC
:102FB000F12CEC0EFD1EF7013B96C557DF4FF98350
:102FC000E883CB58D04036EF832E31E0932E800E2D
:102FD000911E28EFA22E21E0B22EA00EB11E9EE07F
:102FE000292E312C2C0E3D1E87E4482E512C4C0EE0
:102FF0005D1EC2010496C357DF4F99838883CD5865
:10300000D040EBE3F1E09491C157DF4F9883CF5864
:10301000D0404CC1F7018385482F50E0BA01687158
:1030200070706031710509F04FC1F4012081318168
:103030002130310509F448C12230310509F444C179
:10304000F701DE0111969081903239F08E2F8E19A2
:10305000883011F48EE28D939D933196C557DF4FE2
:1030600088819981CB58D040E817F90761F71C9205
:103070001E86F3018081882329F4C10160E072E09B
:103080000E94FE0DC101B3010E94FE0DC101BE01EF
:103090006F5F7F4F0E94FE0DC10160E072E00E94F1
:1030A000FE0D1CA61FA61BA61AA680E594E099A7F4
:1030B00088A7CE018C96B601AE014F5F5F4F21E02D
:1030C0000E945F6E882309F03FC0F40180819181E6
:1030D000892BD1F5C157DF4F9881CF58D040EBE312
:1030E000F1E008C08091C00085FFFCCF9093C6003E
:1030F000319694919923B1F7E2E0F2E007C0809114
:10310000C00085FFFCCF31969093C6009081992333
:10311000B1F78091C00085FFFCCFFAE0F093C600C4
:10312000FE01319607C08091C00085FFFCCF31962B
:103130009093C60090819923B1F78091C00085FFDC
:10314000FCCF8AE08093C600C357DF4FA881B981C6
:10315000CD58D040FE01BC968BE101900D9281507C
:10316000E1F78AA59BA5F2019383828380E594E031
:1031700091838083C801B101A201E1DEC2011BD8A5
:10318000CE01889618D892C0953E09F48FC09E3221
:1031900009F48CC09F3509F489C0F80191899923FD
:1031A00031F09E3209F482C09F3509F47FC043FD9F
:1031B0007DC080E06031710509F481E0F80184A7E9
:1031C000882349F4F7018085873409F06FC0818531
:1031D0008E3709F46BC0CA57DF4FA881B981C65832
:1031E000D040F7018081803241F08E2F8E198830D7
:1031F00011F48EE28D9380818D933196C557DF4F08
:1032000088819981CB58D040E817F90759F71C926B
:10321000F40180819181009729F5F30107C0809125
:10322000C00085FFFCCF31969093C6009081992312
:10323000B1F7CA57DF4FE881F981C658D04007C0BF
:103240008091C00085FFFCCF31969093C60090819D
:103250009923B1F78091C00085FFFCCFFAE0F0938D
:10326000C60024C08130910539F4F5018081918137
:103270000196918380831AC00297C1F4C857DF4F2B
:10328000F881C858D0402F2F30E0F501808191811E
:1032900028173907F1F0C857DF4FF881C858D040D8
:1032A000FF5FC857DF4FF883C858D040C601B70149
:1032B000C757DF4F48815981C958D0400E9485695E
:1032C00018160CF4A7CE05C0F7019081992309F0D8
:1032D0005BCFC157DF4F0FB6F894DEBF0FBECDBF37
:1032E000CF91DF911F910F91FF90EF90DF90CF90E2
:1032F000BF90AF909F908F907F906F905F904F9016
:103300003F902F900895EF92FF920F931F93DF93BA
:10331000CF93CDB7DEB76F970FB6F894DEBF0FBE71
:10332000CDBF7C0186EF91E0E80EF91EF701118216
:1033300010828AE09EEFE80EF91E87010D5C1F4F98
:10334000C80140E050E060E070E00E947766DE0176
:103350001596F8018BE101900D928150E1F7F7018C
:1033600081A992A99C838B8380E594E09A838983C9
:10337000C70165E172E08E010F5F1F4FA801DFDD1D
:10338000C8010E94DB106F960FB6F894DEBF0FBE27
:10339000CDBFCF91DF911F910F91FF90EF900895D6
:1033A0000F931F93CF93DF93DC01D3961C92D39797
:1033B000D6961C92D697D2961C921E92D19780E5F3
:1033C00094E0D0969C938E939F97AC5ABF4F1C92DB
:1033D00013961C92A755B040FD01E05BFF4FAE5A1B
:1033E000BF4F11961C921E92A255B04091838083CC
:1033F000ED01C159DF4FFE0120E030E0482F14827B
:1034000017821382128240839183215E3F4F7F9601
:1034100081E02633380799F7A855BE4F89E18C9390
:1034200013961C9258961C921B961C9213961C92F3
:10343000A15DB140FD01E653FE4FA453BE4F11966E
:103440001C921E92408391835D961D921D921D9247
:103450001C92139718961D921D921D921C92139701
:10346000A15FB14012961C92129713961C9213976B
:103470001C9211961C9211978D0103511E4FF80159
:103480001082118212821382AB55BE4F11961C928C
:103490001E92FE01C90111920197E9F7A05BBF4F8F
:1034A00081E08C93A55FB1409E961C921E929D97E1
:1034B0000E94B48A68577C4E8F4F9F4FF8016083FB
:1034C000718382839383DF91CF911F910F91089530
:1034D000DF93CF93CDB7DEB766970FB6F894DEBF14
:1034E0000FBECDBF8091160290911702A0911802D5
:1034F000B09119028F87988BA98BBA8BFE013F96EA
:1035000044E650E08081F999FECF1FBA52BD41BD1B
:1035100080BD0FB6F894FA9AF99A0FBE4F5F5F4FCD
:103520004836510511F03196EDCFE4ECF9E0808199
:10353000F999FECF1FBA52BD41BD80BD0FB6F894B8
:10354000FA9AF99A0FBE4F5F5F4F4837510511F055
:103550003196EDCFE4EBF9E08081F999FECF1FBA07
:1035600052BD41BD80BD0FB6F894FA9AF99A0FBECC
:103570004F5F5F4F4838510511F03196EDCFE4EDC4
:10358000F9E08081F999FECF1FBA52BD41BD80BDDF
:103590000FB6F894FA9AF99A0FBE4F5F5F4F483909
:1035A000510511F03196EDCFE8EEF9E08081F999FF
:1035B000FECF1FBA52BD41BD80BD0FB6F894FA9A36
:1035C000F99A0FBE4F5F5F4F4C39510511F031969C
:1035D000EDCFECEEF9E08081F999FECF1FBA52BD34
:1035E00041BD80BD0FB6F894FA9AF99A0FBE4F5FAD
:1035F0005F4F403A510511F03196EDCFE4EEF9E01E
:103600008081F999FECF1FBA52BD41BD80BD0FB672
:10361000F894FA9AF99A0FBE4F5F5F4F443A5105FA
:1036200011F03196EDCFECEFF9E08081F999FECF02
:103630001FBA52BD41BD80BD0FB6F894FA9AF99AEF
:103640000FBE4F5F5F4F483A510511F03196EDCFF5
:10365000E0EBF9E08081F999FECF1FBA52BD41BD80
:1036600080BD0FB6F894FA9AF99A0FBE4F5F5F4F7C
:103670004C3A510511F03196EDCFE0EFF9E0808141
:10368000F999FECF1FBA52BD41BD80BD0FB6F89467
:10369000FA9AF99A0FBE4F5F5F4F403B510511F008
:1036A0003196EDCFE4EFF9E08081F999FECF1FBAB2
:1036B00052BD41BD80BD0FB6F894FA9AF99A0FBE7B
:1036C0004F5F5F4F443B510511F03196EDCFE8EF6E
:1036D000F9E08081F999FECF1FBA52BD41BD80BD8E
:1036E0000FB6F894FA9AF99A0FBE4F5F5F4F483BB6
:1036F000510511F03196EDCFEAE7F6E08081F999B6
:10370000FECF1FBA52BD41BD80BD0FB6F894FA9AE4
:10371000F99A0FBE4F5F5F4F443C510511F031964F
:10372000EDCF84EB90E09A83898386E490E09C83DC
:103730008B832FEF30E03E832D8380EF90E09887DE
:103740008F8384E690E09A8789873C872B87FE01E8
:1037500031968081F999FECF1FBA52BD41BD80BD1F
:103760000FB6F894FA9AF99A0FBE4F5F5F4F463C36
:10377000510571F7FE0133968081F999FECF1FBA8A
:1037800052BD41BD80BD0FB6F894FA9AF99A0FBEAA
:103790004F5F5F4F483C510511F03196EDCFFE0170
:1037A00035968081F999FECF1FBA52BD41BD80BDCB
:1037B0000FB6F894FA9AF99A0FBE4F5F5F4F4A3CE2
:1037C000510511F03196EDCFFE0137968081F999C0
:1037D000FECF1FBA52BD41BD80BD0FB6F894FA9A14
:1037E000F99A0FBE4F5F5F4F4C3C510511F0319677
:1037F000EDCFFE0139968081F999FECF1FBA52BDF7
:1038000041BD80BD0FB6F894FA9AF99A0FBE4F5F8A
:103810005F4F4E3C510511F03196EDCFFE013B96C6
:103820008081F999FECF1FBA52BD41BD80BD0FB650
:10383000F894FA9AF99A0FBE4F5F5F4F403D5105D9
:1038400011F03196EDCFEBEBF3E08081F999FECFEB
:103850001FBA52BD41BD80BD0FB6F894FA9AF99ACD
:103860000FBE4F5F5F4F443D510511F03196EDCFD4
:10387000EFEBF3E08081F999FECF1FBA52BD41BD55
:1038800080BD0FB6F894FA9AF99A0FBE4F5F5F4F5A
:10389000483D510511F03196EDCFE3ECF3E0808126
:1038A000F999FECF1FBA52BD41BD80BD0FB6F89445
:1038B000FA9AF99A0FBE4F5F5F4F4C3D510511F0D8
:1038C0003196EDCF80E290E09E878D87FE013D9698
:1038D0008081F999FECF1FBA52BD41BD80BD0FB6A0
:1038E000F894FA9AF99A0FBE4F5F5F4F4E3D51051B
:1038F00011F03196EDCFE3E9F6E08081F999FECF42
:103900001FBA52BD41BD80BD0FB6F894FA9AF99A1C
:103910000FBE4F5F5F4F81E0423A580711F031967A
:10392000ECCFEFE6F3E08081F999FECF1FBA52BDEC
:1039300041BD80BD0FB6F894FA9AF99A0FBE81E0A6
:10394000413B580721F04F5F5F4F3196ECCF80919C
:103950001A0290911B02A0911C02B0911D028B8B48
:103960009C8BAD8BBE8BFE01739684E690E020812C
:10397000F999FECF1FBA92BD81BD20BD0FB6F89454
:10398000FA9AF99A0FBE8736910519F00196319689
:10399000EECFEDE9F2E0949108C08091C00085FF80
:1039A000FCCF9093C600319694919923B1F7E7EA42
:1039B000F4E0949108C08091C00085FFFCCF909303
:1039C000C600319694919923B1F78091C00085FF8C
:1039D000FCCF8AE08093C60066960FB6F894DEBFEF
:1039E0000FBECDBFCF91DF910895DF93CF93CDB7B9
:1039F000DEB7C054D0400FB6F894DEBF0FBECDBFC7
:103A0000DE011196E0E0F4E080E101900D9281503A
:103A1000E1F7DE015196E0EFF3E080E101900D92D5
:103A20008150E1F7DE019196E0EEF3E080E1019054
:103A30000D928150E1F789819A81AB81BC8180939D
:103A4000C4099093C509A093C609B093C709898991
:103A50009A89AB89BC898093B4099093B509A093E6
:103A6000B609B093B70989A19AA1ABA1BCA1809373
:103A7000D4099093D509A093D609B093D7098D8125
:103A80009E81AF81B8858093C8099093C909A0939E
:103A9000CA09B093CB098D899E89AF89B88D80936F
:103AA000B8099093B909A093BA09B093BB098DA145
:103AB0009EA1AFA1B8A58093D8099093D909A093EE
:103AC000DA09B093DB0989859A85AB85BC8580933B
:103AD000CC099093CD09A093CE09B093CF09898DDD
:103AE0009A8DAB8DBC8D8093BC099093BD09A0933A
:103AF000BE09B093BF0989A59AA5ABA5BCA58093C3
:103B0000DC099093DD09A093DE09B093DF098D8570
:103B10009E85AF85B8898093D0099093D109A093F1
:103B2000D209B093D3098D8D9E8DAF8DB8A18093AE
:103B3000C0099093C109A093C209B093C3098DA590
:103B40009EA5AFA5B8A98093E0099093E109A09341
:103B5000E209B093E3090E94A55280E090E0AAEF49
:103B6000B3E48093E8099093E909A093EA09B0933C
:103B7000EB0980E090E8ABE3B5E48093EC09909327
:103B8000ED09A093EE09B093EF0920E030E040E0AA
:103B900050E02093E4093093E5094093E6095093FF
:103BA000E70980E29EE4A0E0B0E08093B009909342
:103BB000B109A093B209B093B3092093FC093093E3
:103BC000FD094093FE095093FF0980E090E0A0EAD0
:103BD000B1E48093F0099093F109A093F209B093B6
:103BE000F3098093F4099093F509A093F609B09333
:103BF000F7098093F8099093F909A093FA09B09313
:103C0000FB092093820630938306409384065093E9
:103C1000850620937E0630937F064093800650935E
:103C2000810620937A0630937B0640937C0650935E
:103C30007D0620E030E040E050E060E070E00EC043
:103C4000408351836283738301967C96873091050C
:103C5000B9F72F5F3F4F2730310551F0F901EE0FD3
:103C6000FF1FEE0FFF1FED56F94F80E090E0E8CF09
:103C7000DE01D196E0EDF3E080E101900D928150FC
:103C8000E1F789A99AA9ABA9BCA980936F03909386
:103C90007003A0937103B09372038DA99EA9AFA97D
:103CA000B8AD8093730390937403A0937503B0939E
:103CB000760389AD9AADABADBCAD8093770390939D
:103CC0007803A0937903B0937A03FE01FD96808177
:103CD0009181A281B38180937B0390937C03A09315
:103CE0007D03B0937E0387ED93EAA4E4B1E480936F
:103CF000BB039093BC03A093BD03B093BE0361EEDE
:103D00007AE784E59FE30E94737D6093BF0370931D
:103D1000C0038093C1039093C2036EEA77E485E306
:103D200092E40E947F7D6093C3037093C4038093E9
:103D3000C5039093C6030E947C7C80E090E0A0E8DD
:103D4000BFE38093C7039093C803A093C903B093C4
:103D5000CA03EDE9F2E0949108C08091C00085FFAC
:103D6000FCCF9093C600319694919923B1F7E3EA82
:103D7000F2E0949108C08091C00085FFFCCF909341
:103D8000C600319694919923B1F78091C00085FFC8
:103D9000FCCF8AE08093C600C05CDF4F0FB6F8947A
:103DA000DEBF0FBECDBFCF91DF910895CF93DF93DC
:103DB000CDE9D2E0FE01949108C08091C00085FF5A
:103DC000FCCF9093C600319694919923B1F7E7E91F
:103DD000F4E0949108C08091C00085FFFCCF9093DF
:103DE000C600319694919923B1F78091C00085FF68
:103DF000FCCF8AE08093C600FE019491EDE9F2E0E9
:103E000008C08091C00085FFFCCF9093C60031961A
:103E100094919923B1F74091C4095091C5096091DB
:103E2000C6097091C7098FE894E00E94692E4091FD
:103E3000C8095091C9096091CA097091CB098CE8F1
:103E400094E00E94692E4091CC095091CD09609177
:103E5000CE097091CF0989E894E00E94692E4091C3
:103E6000D0095091D1096091D2097091D30986E8A7
:103E700094E00E94692EEEE1F2E007C08091C0005C
:103E800085FFFCCF31969093C60090819923B1F7BE
:103E90008091C00085FFFCCF8AE08093C600FE01C0
:103EA0009491EDE9F2E008C08091C00085FFFCCF5D
:103EB0009093C600319694919923B1F7ECE6F4E023
:103EC000949108C08091C00085FFFCCF9093C600FC
:103ED000319694919923B1F78091C00085FFFCCF72
:103EE0008AE08093C600FE019491EDE9F2E008C0FB
:103EF0008091C00085FFFCCF9093C60031969491CD
:103F00009923B1F74091B4095091B5096091B60970
:103F10007091B70983E694E00E94692E4091B80938
:103F20005091B9096091BA097091BB0980E694E09B
:103F30000E94692E4091BC095091BD096091BE0953
:103F40007091BF098DE594E00E94692E4091C009EF
:103F50005091C1096091C2097091C3098AE594E04A
:103F60000E94692EEEE1F2E007C08091C00085FF5B
:103F7000FCCF31969093C60090819923B1F7809140
:103F8000C00085FFFCCF8AE08093C600FE019491BB
:103F9000EDE9F2E008C08091C00085FFFCCF90936E
:103FA000C600319694919923B1F7ECE3F4E0949133
:103FB00008C08091C00085FFFCCF9093C600319669
:103FC00094919923B1F78091C00085FFFCCF8AE0DE
:103FD0008093C600FE019491EDE9F2E008C0809163
:103FE000C00085FFFCCF9093C60031969491992331
:103FF000B1F74091D4095091D5096091D6097091DB
:10400000D70983E394E00E949D2E4091D8095091F6
:10401000D9096091DA097091DB0980E394E00E948C
:104020009D2E4091DC095091DD096091DE0970916F
:10403000DF098DE294E00E949D2E4091E0095091AD
:10404000E1096091E2097091E3098AE294E00E943B
:104050009D2EEEE1F2E007C08091C00085FFFCCF0D
:1040600031969093C60090819923B1F78091C0005A
:1040700085FFFCCF8AE08093C600FE019491EDE9B4
:10408000F2E008C08091C00085FFFCCF9093C6008D
:10409000319694919923B1F7E5EFF3E0949108C03C
:1040A0008091C00085FFFCCF9093C600319694911B
:1040B0009923B1F78091C00085FFFCCF8AE08093FF
:1040C000C600FE019491EDE9F2E008C08091C000C5
:1040D00085FFFCCF9093C600319694919923B1F758
:1040E0004091E8095091E9096091EA097091EB0962
:1040F0008CEE93E00E94692E4091EC095091ED09FD
:104100006091EE097091EF0989EE93E00E94692EAB
:10411000EEE1F2E007C08091C00085FFFCCF319650
:104120009093C60090819923B1F78091C00085FFDC
:10413000FCCF8AE08093C600FE019491EDE9F2E0A5
:1041400008C08091C00085FFFCCF9093C6003196D7
:1041500094919923B1F7E6E3F3E0949108C080913C
:10416000C00085FFFCCF9093C600319694919923AF
:10417000B1F78091C00085FFFCCF8AE08093C60034
:10418000FE019491EDE9F2E008C08091C00085FF46
:10419000FCCF9093C600319694919923B1F740914A
:1041A000E4095091E5096091E6097091E7098DE213
:1041B00093E00E94692E4091FC095091FD096091A5
:1041C000FE097091FF098AE293E00E94692E4091F6
:1041D000B0095091B1096091B2097091B30987E2B9
:1041E00093E00E949D2E4091F0095091F109609159
:1041F000F2097091F30984E293E00E94692E4091E4
:10420000F4095091F5096091F6097091F70981E27E
:1042100093E00E94692E4091F8095091F90960914C
:10422000FA097091FB098EE193E00E94692EEEE19C
:10423000F2E007C08091C00085FFFCCF31969093DB
:10424000C60090819923B1F78091C00085FFFCCF13
:104250008AE08093C600FE019491EDE9F2E008C087
:104260008091C00085FFFCCF9093C6003196949159
:104270009923B1F7ECE0F3E0949108C08091C0007D
:1042800085FFFCCF9093C600319694919923B1F7A6
:104290008091C00085FFFCCF8AE08093C600FE01BC
:1042A0009491EDE9F2E008C08091C00085FFFCCF59
:1042B0009093C600319694919923B1F740917A0674
:1042C00050917B0660917C0670917D0683E093E0BF
:1042D0000E94692E40917E0650917F066091800673
:1042E0007091810680E093E00E94692E40918206E1
:1042F0005091830660918406709185068DEF92E05F
:104300000E94692EEEE1F2E007C08091C00085FFB7
:10431000FCCF31969093C60090819923B1F780919C
:10432000C00085FFFCCF8AE08093C600FE01949117
:10433000EDE9F2E008C08091C00085FFFCCF9093CA
:10434000C600319694919923B1F7EFEEF2E0949183
:1043500008C08091C00085FFFCCF9093C6003196C5
:1043600094919923B1F78091C00085FFFCCF8AE03A
:104370008093C600FE019491EDE9F2E008C08091BF
:10438000C00085FFFCCF9093C6003196949199238D
:10439000B1F74091BB035091BC036091BD03709194
:1043A000BE0385EE92E00E94692E6091BF0370917A
:1043B000C0038091C1039091C2030E94797DAB013B
:1043C000BC0182EE92E00E94692E6091C30370915D
:1043D000C4038091C5039091C6030E94857DAB0103
:1043E000BC018FED92E00E94692EEEE1F2E007C081
:1043F0008091C00085FFFCCF31969093C6009081DC
:104400009923B1F78091C00085FFFCCF8AE08093AB
:10441000C600DF91CF9108950F931F93DF93CF9341
:10442000CDB7DEB766970FB6F894DEBF0FBECDBF2F
:1044300080911A0290911B02A0911C02B0911D0262
:104440008B8B9C8BAD8BBE8BFE013F9604E610E000
:10445000F999FECF12BD01BDF89A80B580830F5F38
:104460001F4F0836110511F03196F2CFCE01439659
:10447000BE01615F7F4F43E050E00E941B0E00973A
:1044800009F0A8C1E4ECF9E0F999FECF12BD01BD35
:10449000F89A80B580830F5F1F4F0837110511F020
:1044A0003196F2CFE4EBF9E0F999FECF12BD01BDF0
:1044B000F89A80B580830F5F1F4F0838110511F0FF
:1044C0003196F2CFE4EDF9E0F999FECF12BD01BDCE
:1044D000F89A80B580830F5F1F4F0839110511F0DE
:1044E0003196F2CF0E94A552E8EEF9E0F999FECF9D
:1044F00012BD01BDF89A80B580830F5F1F4F0C3944
:10450000110511F03196F2CFECEEF9E0F999FECFFA
:1045100012BD01BDF89A80B580830F5F1F4F003A2E
:10452000110511F03196F2CFE4EEF9E0F999FECFE2
:1045300012BD01BDF89A80B580830F5F1F4F043A0A
:10454000110511F03196F2CFECEFF9E0F999FECFB9
:1045500012BD01BDF89A80B580830F5F1F4F083AE6
:10456000110511F03196F2CFE0EBF9E0F999FECFA9
:1045700012BD01BDF89A80B580830F5F1F4F0C3AC2
:10458000110511F03196F2CFE0EFF9E0F999FECF85
:1045900012BD01BDF89A80B580830F5F1F4F003BAD
:1045A000110511F03196F2CFE4EFF9E0F999FECF61
:1045B00012BD01BDF89A80B580830F5F1F4F043B89
:1045C000110511F03196F2CFE8EFF9E0F999FECF3D
:1045D00012BD01BDF89A80B580830F5F1F4F083B65
:1045E000110511F03196F2CFEAE7F6E0F999FECF26
:1045F00012BD01BDF89A80B580830F5F1F4F043C48
:10460000110511F03196F2CFFE013196F999FECFE6
:1046100012BD01BDF89A80B580830F5F1F4F063C25
:10462000110599F7FE013396F999FECF12BD01BD30
:10463000F89A80B580830F5F1F4F083C110511F079
:104640003196F2CFFE013596F999FECF12BD01BD2C
:10465000F89A80B580830F5F1F4F0A3C110511F057
:104660003196F2CFFE013796F999FECF12BD01BD0A
:10467000F89A80B580830F5F1F4F0C3C110511F035
:104680003196F2CFFE013996F999FECF12BD01BDE8
:10469000F89A80B580830F5F1F4F0E3C110511F013
:1046A0003196F2CFFE013B96F999FECF12BD01BDC6
:1046B000F89A80B580830F5F1F4F003D110511F000
:1046C0003196F2CFEBEBF3E0F999FECF12BD01BDCD
:1046D000F89A80B580830F5F1F4F043D110511F0DC
:1046E0003196F2CFEFEBF3E0F999FECF12BD01BDA9
:1046F000F89A80B580830F5F1F4F083D110511F0B8
:104700003196F2CFE3ECF3E0F999FECF12BD01BD93
:10471000F89A80B580830F5F1F4F0C3D110511F093
:104720003196F2CFFE013D96F999FECF12BD01BD43
:10473000F89A80B580830F5F1F4F0E3D110511F071
:104740003196F2CFE3E9F6E0F999FECF12BD01BD53
:10475000F89A80B580830F5F1F4F81E0023A1807F7
:1047600011F03196F1CFEFE6F3E0F999FECF12BDEB
:1047700001BDF89A80B5808381E0013B180721F0E4
:104780000F5F1F4F3196F1CF0E947C7CEDE9F2E084
:10479000949108C08091C00085FFFCCF9093C60023
:1047A000319694919923B1F7E5ECF2E0949108C029
:1047B0008091C00085FFFCCF9093C6003196949104
:1047C0009923B1F78091C00085FFFCCF8AE08093E8
:1047D000C60001C00AD9EADA66960FB6F894DEBFC1
:1047E0000FBECDBFCF91DF911F910F910895EF9232
:1047F000FF920F931F93CF93DF93EC01E09083031D
:10480000F09084030091850310918603688179817B
:104810008A819B81A80197010E94528E882324F4EB
:10482000E882F9820A831B83E0908703F090880373
:104830000091890310918A036C817D818E819F8113
:10484000A80197010E94528E882324F4EC82FD82F5
:104850000E831F83E0908B03F0908C0300918D03F7
:1048600010918E03688579858A859B85A8019701BB
:104870000E94528E882324F4E886F9860A871B87D3
:10488000E0908F03F09090030091910310919203B8
:10489000688179818A819B81A80197010E9460903B
:1048A000181624F4E882F9820A831B83E0909303AC
:1048B000F090940300919503109196036C817D8193
:1048C0008E819F81A80197010E946090181624F4A0
:1048D000EC82FD820E831F83E0909703F090980393
:1048E0000091990310919A03688579858A859B8543
:1048F000A80197010E946090181624F4E886F986B2
:104900000A871B87DF91CF911F910F91FF90EF9046
:10491000089580915F0708950F931F93CF93DF93BE
:104920008130910549F46F5F7F4F09F046C088E6FA
:1049300094E00E94D01941C0892B09F03EC06F5FFE
:104940007F4FD9F580E594E090933306809332064B
:1049500080913906882321F086E396E00E948F67D4
:10496000CEEED5E000E514E005C06F9784E0C83BCB
:10497000D80751F0198308838F818823B1F3CE01C2
:1049800004960E948F67F1CF80E594E09983888335
:104990008F81882321F0CE0104960E948F6780E5E5
:1049A00094E0909398048093970480919E048823C8
:1049B00021F08BE994E00E948F67DF91CF911F91E6
:1049C0000F91089580E090E06FEF7FEFA5CF81E039
:1049D00090E06FEF7FEFA0CF0E944F7D80915F0747
:1049E000882309F036C081E080935F0780916207D9
:1049F00090916307A0916407B09165078093660763
:104A000090936707A0936807B0936907EDEBF4E014
:104A1000949108C08091C00085FFFCCF9093C600A0
:104A2000319694919923B1F7E4ECF4E0949108C0A5
:104A30008091C00085FFFCCF9093C6003196949181
:104A40009923B1F78091C00085FFFCCF8AE0809365
:104A5000C6000895F8940E944F7D5F9A8A9A8FB796
:104A6000F894909108019160909308018FBF129A79
:104A70008CE060E00E945B8CEDEBF4E0949108C068
:104A80008091C00085FFFCCF9093C6003196949131
:104A90009923B1F7EAE3F5E0949108C08091C00052
:104AA00085FFFCCF9093C600319694919923B1F77E
:104AB0008091C00085FFFCCF8AE08093C600FFCFC5
:104AC0000E94B48A60936A0770936B0780936C07A7
:104AD00090936D07E0919307F0919407EB56F84F90
:104AE00080818823A9F4E9E5F5E0949108C08091DC
:104AF000C00085FFFCCF9093C60031969491992316
:104B0000B1F78091C00085FFFCCF8AE08093C6009A
:104B10000895EF92FF920F931F930E94B48AE09042
:104B20006E07F0906F070091700710917107209148
:104B30006A0730916B0740916C0750916D07621BBB
:104B4000730B840B950BE616F7060807190730F46C
:104B5000E114F1040105110509F07CDF80919E0349
:104B600090919F03A091A003B091A1030097A1058C
:104B7000B10561F10E94B48A20916A0730916B07F8
:104B800040916C0750916D07621B730B840B950B62
:104B900020919E0330919F034091A0035091A10367
:104BA000261737074807590788F49091F10E80912E
:104BB000F20E981759F45F9A8A9A9FB7F8948091E9
:104BC00008018160809308019FBF129A0E948C5255
:104BD0001F910F91FF90EF9008956F927F928F92A7
:104BE0009F92AF92BF92CF92DF92EF92FF920F937C
:104BF0001F93F82E6091720770917307809174076C
:104C0000909175072091760730917707409178074A
:104C1000509179070E946D903B014C0100D000D06B
:104C20000DB71EB70F5F1F4F60917F037091800318
:104C3000882777FD8095982F0E94F48E2091A203FB
:104C40003091A3034091A4035091A5030E94329197
:104C500020E030E040E752E40E94598E20E030E04E
:104C600048EC52E40E94598E5B016C01F8016082AD
:104C7000718282829382F4828091860685838AE69D
:104C800096E06EE777E042E757E020E001E032E0AF
:104C9000E32E0E94F14D80917E0790917F07A091B5
:104CA0008007B091810780936A0690936B06A0936A
:104CB0006C06B0936D068091820790918307A09156
:104CC0008407B091850780936E0690936F06A0933A
:104CD0007006B09371068091860790918707A09126
:104CE0008807B09189078093720690937306A0930A
:104CF0007406B093750680918A0790918B07A091F6
:104D00008C07B0918D078093760690937706A093D9
:104D10007806B09379068DB79EB706960FB6F894CD
:104D20009EBF0FBE8DBF0E94B48A60936A077093C6
:104D30006B0780936C0790936D071F910F91FF9005
:104D4000EF90DF90CF90BF90AF909F908F907F902B
:104D50006F9008958F929F92AF92BF92CF92DF9201
:104D6000EF92FF920F931F934C016AEC74E08DEB6E
:104D700092ECF40120813181428153810E94788D2F
:104D80007B018C0160E972E48AE592ECF4012481F4
:104D90003581468157810E94788D5B016C01C80185
:104DA000B701A80197010E9432919B01AC0160E814
:104DB00078E289E897E40E94788D7B018C01C60136
:104DC000B501A60195010E9432919B01AC01C80179
:104DD000B7010E94788D0E949F91F4012085318552
:104DE000428553850E94798D60938706709388066B
:104DF0008093890690938A066AEC74E08DEB92E4C6
:104E0000F40120813181428153810E94788D7B01A0
:104E10008C0160E972E48AE592ECF4012481358129
:104E2000468157810E94788D5B016C01C801B701F2
:104E3000A80197010E9432919B01AC0160E878E2E1
:104E400089E897E40E94788D7B018C01C601B50149
:104E5000A60195010E9432919B01AC01C801B701E6
:104E60000E94788D0E949F91F401208531854285B2
:104E700053850E94798D60938B0670938C06809386
:104E80008D0690938E0660E070E080E090E0F40183
:104E900020813181428153810E94788D7B018C0178
:104EA00060E972E48AED92E4F4012481358146815F
:104EB00057810E94788D5B016C01C801B701A80180
:104EC00097010E9432919B01AC0160E878E289E889
:104ED00097E40E94788D7B018C01C601B501A60183
:104EE00095010E9432919B01AC01C801B7010E945B
:104EF000788D0E949F91F4012085318542855385EC
:104F00000E94798D60938F0670939006809391062E
:104F1000909392061F910F91FF90EF90DF90CF90AA
:104F2000BF90AF909F908F9008958F929F92AF9275
:104F3000BF92CF92DF92EF92FF920F931F930E9446
:104F4000B48A60936A0770936B0780936C079093A1
:104F50006D07BEE7AB2EB7E0BB2EC501FBDEA7E8B1
:104F6000CA2EA6E0DA2EF8E08F2E912C8C0C9D1C18
:104F70002CE030E0A20EB31E60917F03709180039D
:104F8000882777FD8095982F0E94F48E2091A203A8
:104F90003091A3034091A4035091A5030E94329144
:104FA00020E030E040E752E40E94598E20E030E0FB
:104FB00048EC52E40E94598E7B018C01C60124E02A
:104FC00030E0C20ED31EB601A4019501E6E8CE2E54
:104FD000E6E0DE2E0E94D55780917E0790917F07F4
:104FE000A0918007B091810780936A0690936B0629
:104FF000A0936C06B0936D06809182079091830711
:10500000A0918407B091850780936E0690936F06F8
:10501000A0937006B09371068091860790918707E0
:10502000A0918807B09189078093720690937306C8
:10503000A0937406B093750680918A0790918B07B0
:10504000A0918C07B0918D07809376069093770698
:10505000A0937806B09379061F910F91FF90EF907F
:10506000DF90CF90BF90AF909F908F9008952F9238
:105070003F924F925F926F927F928F929F92AF92E8
:10508000BF92CF92DF92EF92FF920F931F93DF9325
:10509000CF93CDB7DEB764970FB6F894DEBF0FBEDF
:1050A000CDBF8C01DC016D917D918D919C9120E0B3
:1050B00030E040E05DE30E94329169837A838B8324
:1050C0009C832EE93FEE4FE350E40E946090181657
:1050D0008CF069817A818B819C812EE93FEE4FE3D0
:1050E00050EC0E94528E88236CF48EE99FEEAFE361
:1050F000B0EC04C08EE99FEEAFE3B0E489839A83FD
:10510000AB83BC83D80114966D917D918D919C9158
:10511000179720E030E040E05DE30E9432912B01E0
:105120003C012EE93FEE4FE350E40E9460901816D8
:10513000ACF0C301B2012EE93FEE4FE350EC0E9408
:10514000528E8823ACF40F2EFEE94F2EFFEE5F2E19
:10515000FFE36F2EF0EC7F2EF02D0AC00F2EFEE93C
:105160004F2EFFEE5F2EFFE36F2EF0E47F2EF02D2B
:1051700069817A818B819C810E942F8F0E94C18ED0
:105180006B017C01C301B2010E942F8F0E94C18E6E
:105190004B015C01B601882777FD8095982F0E940E
:1051A000F48E9B01AC0169817A818B819C810E9484
:1051B000788D6D837E838F839887B401882777FDF0
:1051C0008095982F0E94F48E9B01AC01C301B2011F
:1051D0000E94788D69877A878B879C8773E0472E3A
:1051E000512C4C0C5D1C63E0662E712C680C791CF4
:1051F000E4E0F0E08E0E9F1ECE0EDF1E60E070E059
:1052000080E89FE329853A854B855C850E94788DEF
:105210006D877E878F87988B60E070E080E89FE3E2
:105220002D813E814F8158850E94788D698B7A8BC4
:105230008B8B9C8B820153E0000F111F5A95E1F775
:1052400004191509F801E60DF71DEE0FFF1FEE0F0B
:10525000FF1FED56F94F6D857E858F8598892081DA
:105260003181428153810E9432911B012C01080D32
:10527000191D000F111F000F111F0D56194F6985C1
:105280007A858B859C85D8012D913D914D915C91BE
:105290000E9432919B01AC01C201B1010E94798D43
:1052A0009B01AC0169897A898B899C890E94329122
:1052B0001B012C01860123E0000F111F2A95E1F745
:1052C0000C191D09600E711E660C771C660C771C8C
:1052D000E3E9F6E06E0E7F1E6D857E858F859889E9
:1052E000D3012D913D914D915C910E9432916B01C2
:1052F0007C01080D191D000F111F000F111F0D5605
:10530000194F69857A858B859C85F80120813181CB
:10531000428153810E9432919B01AC01C701B601C9
:105320000E94798D9B01AC016D817E818F81988572
:105330000E9432919B01AC01C201B1010E94798DA2
:105340002B013C0120918706309188064091890607
:1053500050918A060E94798D7B018C0120E23FE901
:1053600043E054E40E946090181654F40F2EF0E2CB
:10537000EF2EFFE9FF2EF3E00F2FF4E41F2FF02DA7
:10538000E0928706F09288060093890610938A06B9
:10539000C301B20120918B0630918C0640918D069D
:1053A00050918E060E94798D7B018C0120E23FE9AD
:1053B00043E054E40E946090181654F40F2EF0E27B
:1053C000EF2EFFE9FF2EF3E00F2FF4E41F2FF02D57
:1053D000E0928B06F0928C0600938D0610938E0659
:1053E000C301B20120918F06309190064091910641
:1053F000509192060E94798D7B018C0120E23FE959
:1054000043E054E40E946090181654F40F2EF0E22A
:10541000EF2EFFE9FF2EF3E00F2FF4E41F2FF02D06
:10542000E0928F06F09290060093910610939206F8
:1054300064960FB6F894DEBF0FBECDBFCF91DF915B
:105440001F910F91FF90EF90DF90CF90BF90AF90A2
:105450009F908F907F906F905F904F903F902F9094
:1054600008952F923F924F925F926F927F928F9208
:105470009F92AF92BF92CF92DF92EF92FF920F93E3
:105480001F93DF93CF93CDB7DEB76A970FB6F8942B
:10549000DEBF0FBECDBF8EE797E0A9D90E94B48AC8
:1054A00060936A0770936B0780936C0790936D0706
:1054B000EE24FF246E010894C11CD11C86010E0D40
:1054C0001F1DF701E258F84FD701A659B94F608167
:1054D0007181828193812D913D914D915C910E94CA
:1054E000788DD8016D937D938D939C931397E4E011
:1054F000F0E0EE0EFF1EF0E1EF16F104F9F68981FF
:105500009A81AB81BC818B8B9C8BAD8BBE8B2D80AC
:105510003E804F80588469847A848B849C84BC014B
:10552000CD019B01AC010E9432917B018C01C20133
:10553000B101A20191010E9432919B01AC01C8010D
:10554000B7010E94798D7B018C01C401B301A401D4
:1055500093010E9432919B01AC01C801B7010E94E6
:10556000798D0E949F917B018C012DEB37E346E8FA
:1055700055E30E94528E882394F4ED84FE840F85B7
:105580001889C801B70120E030E040E050E00E94F7
:105590006090181624F017FB109517F91095C801A4
:1055A000B7012DEB37E346E855E30E94528E87FDA5
:1055B00045C1C801B70120E030E84BEB55E40E943B
:1055C00032912091A2033091A3034091A403509102
:1055D000A5030E94598E7B018C0160917F0370911D
:1055E0008003882777FD8095982F0E94F48E9B0179
:1055F000AC01C801B7010E94598E20E030E048E4B8
:1056000053E40E9432910E94C18E7A8B698B1616E8
:10561000170624F0A1E0B0E0BA8BA98BF1E0AF2E21
:10562000B12C89899A89AA2797FDA095BA2F8F8BCB
:10563000988FA98FBA8FBCC0B501882777FD809558
:10564000982F0E94F48E7B018C016F89788D898D53
:105650009A8D0E94F48E9B01AC01C801B7010E9493
:10566000598E7B018C016B897C898D899E89A8016B
:1056700097010E9432919B01AC0160916A06709182
:105680006B0680916C0690916D060E94798D6093F7
:105690007E0770937F078093800790938107C201F4
:1056A000B101A80197010E9432919B01AC01609168
:1056B0006E0670916F0680917006909171060E943F
:1056C000798D60938207709383078093840790930A
:1056D0008507C401B301A80197010E9432919B0183
:1056E000AC0160917206709173068091740690917E
:1056F00075060E94798D6093860770938707809363
:10570000880790938907C801B7012D853E854F858D
:1057100058890E9432919B01AC016091760670918C
:10572000770680917806909179060E94798D609332
:105730008A0770938B0780938C0790938D078EE771
:1057400097E008DB8EE797E092DC60917F03709131
:105750008003882777FD8095982F0E94F48E2091F2
:10576000A2033091A3034091A4035091A5030E948A
:10577000329120E030E040E752E40E94598E20E070
:1057800030E048EC52E40E94598E7B018C0187E89E
:1057900096E06BE876E04FE856E02AE837E0E6E886
:1057A000CE2EE6E0DE2E0E94D5570894A11CB11C37
:1057B000A989BA89AA15BB050CF03ECF80917E0756
:1057C00090917F07A0918007B091810780936A062E
:1057D00090936B06A0936C06B0936D068091820740
:1057E00090918307A0918407B091850780936E06FE
:1057F00090936F06A0937006B09371068091860710
:1058000090918707A0918807B091890780937206CD
:1058100090937306A0937406B093750680918A07DF
:1058200090918B07A0918C07B0918D07809376069D
:1058300090937706A0937806B09379066A960FB690
:10584000F894DEBF0FBECDBFCF91DF911F910F91B6
:10585000FF90EF90DF90CF90BF90AF909F908F9090
:105860007F906F905F904F903F902F9008958FEAB8
:1058700099E00E942B4CECE5F5E0949108C08091F2
:10588000C00085FFFCCF9093C60031969491992378
:10589000B1F740916207509163076091640770917E
:1058A00065074F5F5F4F6F4F7F4F8FEA99E02AE0A8
:1058B00030E00E94E94C8091C00085FFFCCF8AE077
:1058C0008093C600FDC880915F0390916003A09112
:1058D0006103B09162038093A2039093A303A0930A
:1058E000A403B093A5036091720670917306809132
:1058F00074069091750620E030E040EA51E40E9481
:10590000798D6093860770938707809388079093BB
:1059100089070BDB80E090E0A0E0B0E080937E0799
:1059200090937F07A0938007B093810780938207AD
:1059300090938307A0938407B093850780E090E05D
:10594000A0EFB1E48093860790938707A093880720
:10595000B0938907EADA0C942A7580915F039091DD
:105960006003A0916103B09162038093A2039093BE
:10597000A303A093A403B093A50380E090E0A0E06C
:10598000B0E080937E0790937F07A0938007B09349
:1059900081078093820790938307A0938407B09335
:1059A000850780E090E0A0EFB1E4809386079093B4
:1059B0008707A0938807B0938907B7DA0C942A75F4
:1059C0002F923F924F925F926F927F928F929F920F
:1059D000AF92BF92CF92DF92EF92FF920F931F93FD
:1059E000DF93CF9300D000D0CDB7DEB783309105E1
:1059F00008F056C1FC01E654F94FD4903C01660C06
:105A0000771C660C771C93012659394F3A832983FA
:105A100080E090E0A0E0B0E0F90180839183A28370
:105A2000B3838AE696E06EE676E042E756E026E744
:105A300036E00E94ED52F301E354F94FE590F59002
:105A4000059114916D2D772767FD7095882777FD57
:105A50008095982F0E94F48E1B012C0193012258EF
:105A6000384F3E832D83C801B70120E030E040EC81
:105A70005FE30E943291A20191010E943291AD81B7
:105A8000BE816D937D938D939C931397F301E15A9F
:105A9000FC4FFC83EB8360817181828193816093F1
:105AA000A2037093A3038093A4039093A50320E023
:105AB00030E040E752E40E94598E7B018C018EE772
:105AC00097E062E877E046E857E02AE837E0B6E892
:105AD000CB2EB6E0DB2E0E94D5570E942A7580E0BF
