:100000000C944F0A0C947C0A0C947C0A0C947C0A85
:100010000C947C0A0C947C0A0C947C0A0C947C0A48
:100020000C947C0A0C947C0A0C947C0A0C947C0A38
:100030000C947C0A0C947C0A0C947C0A0C947C0A28
:100040000C947C0A0C9452610C947C0A0C947C0AEB
:100050000C947C0A0C947C0A0C943D6A0C941578E0
:100060000C947C0A0C9420470C947C0A0C947C0A17
:100070000C947C0A0C947C0A0C947C0A0C947C0AE8
:100080000C947C0A0C947C0A0C947C0A0C947C0AD8
:100090000C947C0A0C947C0A0C947C0A0C94807658
:1000A0000C947C0A0C947C0A0C947C0A0C947C0AB8
:1000B0000C947C0A0C947C0A0C947C0A0C947C0AA8
:1000C0000C947C0A0C947C0A0C947C0A0C947C0A98
:1000D0000C947C0A0C947C0A0C947C0A0C947C0A88
:1000E0000C947C0A084AD73B3BCE016E84BCBFFD12
:1000F000C12F3D6C74319ABD56833DDA3D00C77FF8
:1001000011BED9E4BB4C3E916BAAAABE0000008090
:100110003F05A84CCDB2D44EB93836A9020C50B91F
:10012000918688083CA6AAAA2ABE000000803F65E6
:1001300063686F3A0048617264636F646564204469
:10014000656661756C742053657474696E6773209D
:100150004C6F616465640053746F726564207365ED
:100160007474696E6773207265747269657665640C
:10017000002044002049002020204D333031205001
:10018000005049442073657474696E67733A0020A7
:100190005A0020590020204D363636205800456E32
:1001A0006473746F702061646A757374656D656ED5
:1001B0007420286D6D293A00205A00205900202013
:1001C0004D323036205800486F6D65206F6666737B
:1001D000657420286D6D293A00204500205A0020C2
:1001E000580020420020540020204D32303520534A
:1001F00000416476616E6365642076617269616254
:100200006C65733A20533D4D696E20666565647276
:1002100061746520286D6D2F73292C20543D4D6924
:100220006E2074726176656C2066656564726174B7
:100230006520286D6D2F73292C20423D6D696E69F4
:100240006D756D207365676D656E742074696D657D
:1002500020286D73292C20583D6D6178696D756D6E
:10026000205859206A65726B20286D6D2F73292CD8
:1002700020205A3D6D6178696D756D205A206A6540
:10028000726B20286D6D2F73292C2020453D6D61E8
:1002900078696D756D2045206A65726B20286D6DDB
:1002A0002F73290020540020204D32303420530079
:1002B000416363656C65726174696F6E3A20533D8A
:1002C000616363656C65726174696F6E2C20543D67
:1002D0007265747261637420616363656C657261D9
:1002E00074696F6E00204500205A002059002020BC
:1002F0004D3230312058004D6178696D756D204167
:100300006363656C65726174696F6E20286D6D2F13
:100310007332293A00204500205A0020590020203D
:100320004D3230332058004D6178696D756D20660F
:10033000656564726174657320286D6D2F73293A49
:1003400000204500205A0020590020204D3932203D
:10035000580053746570732070657220756E6974EF
:100360003A0053657474696E67732053746F7265D5
:1003700064006563686F3A004572726F723A0050AC
:1003800072696E7465722073746F70706564206436
:10039000756520746F206572726F72732E204669C6
:1003A0007820746865206572726F7220616E6420B7
:1003B000757365204D39393920746F2072657374F7
:1003C0006172742E202854656D7065726174757247
:1003D000652069732072657365742E2053657420DF
:1003E00069742061667465722072657374617274D9
:1003F000696E6729005072696E7465722068616C5D
:100400007465642E206B696C6C28292063616C6CA8
:10041000656421006F6B00526573656E643A20005D
:100420002200556E6B6E6F776E20636F6D6D616E1F
:10043000643A2022007A5F6D61783A20007A5F6D1D
:10044000696E3A2000795F6D61783A2000785F6DBF
:1004500061783A2000205A3A0020593A0020436F30
:10046000756E7420583A200020453A00205A3A0010
:1004700020593A00583A004649524D574152455F7B
:100480004E414D453A4D61726C696E2056313B20AC
:10049000537072696E7465722F6772626C206D6141
:1004A0007368757020666F722067656E36204649E6
:1004B000524D574152455F55524C3A6874747073AF
:1004C0003A2F2F6769746875622E636F6D2F4572BE
:1004D000696B5A616C6D2F4D61726C696E2F205083
:1004E000524F544F434F4C5F56455253494F4E3A2B
:1004F000312E30204D414348494E455F54595045B7
:100500003A4D656E64656C204558545255444552C9
:100510005F434F554E543A3120555549443A303097
:100520003030303030302D303030302D30303030D1
:100530002D303030302D30303030303030303030C1
:1005400030300A0020423A0020453A00543A002058
:10055000573A0020453A00543A002042403A0020E1
:10056000403A00202F003A00205400202F00204263
:100570003A00202F006F6B20543A002569206D69E6
:100580006E2C20256920736563000A00205A3A20EA
:100590000020593A200020583A20004265640001AA
:1005A0000101000080430000804300008C430000F4
:1005B000A0400000A0400000A0400000000000009B
:1005C000000000008C43000000C3000000C30000D6
:1005D0000000000000430000004300008C430A00BC
:1005E000207A3A200020793A200020783A200042F0
:1005F000656400200020002C00203D20005D202BA1
:1006000020005D5B005B005072696E746572207340
:10061000746F707065642064756520746F206572F6
:10062000726F72732E204669782074686520657237
:10063000726F7220616E6420757365204D3939398F
:1006400020746F20726573746172742E2028546553
:100650006D7065726174757265206973207265735F
:1006600065742E2053657420697420616674657208
:100670002072657374617274696E6729006F6B0014
:100680004E6F204C696E65204E756D6265722077E5
:1006900069746820636865636B73756D2C204C61A9
:1006A0007374204C696E653A20004E6F2043686574
:1006B000636B73756D2077697468206C696E652053
:1006C0006E756D6265722C204C617374204C696E7E
:1006D000653A2000636865636B73756D206D69739F
:1006E0006D617463682C204C617374204C696E6575
:1006F0003A20004C696E65204E756D626572206906
:1007000073206E6F74204C617374204C696E652089
:100710004E756D6265722B312C204C617374204CC8
:10072000696E653A20004D313130002020506C61F7
:100730006E6E657242756666657242797465733A6B
:1007400020002046726565204D656D6F72793A20F4
:1007500000417072202038203230313400436F6DF8
:1007600070696C65643A20002844656C74614D6161
:100770006B65722C20444D31204265746132290032
:10078000207C20417574686F723A2000417072209D
:10079000203820323031342031323A33303A31335C
:1007A00000204C61737420557064617465643A2054
:1007B00000312E302E30004D61726C696E00205376
:1007C0006F66747761726520526573657400205797
:1007D00061746368646F67205265736574002042BA
:1007E000726F776E206F7574205265736574002088
:1007F00045787465726E616C205265736574005043
:100800006F776572557000737461727400220065B1
:100810006E717565696E672022002200656E7175C4
:1008200065696E672022006563686F3A0020746F07
:100830006F206C6F6E6720657874727573696F6E68
:100840002070726576656E7465640020636F6C64F9
:1008500020657874727573696F6E20707265766545
:100860006E7465640045313A200045303A20005AE4
:100870003A2000593A2000583A20004D53312C4D6F
:1008800053322050696E730A0024F404D9201BC42B
:100890000C5C0E9804C4095F0265077101F405F948
:1008A00000FB04B30048048700C1036900580355E6
:1008B0000003034500BE023A008402310053022ABD
:1008C000002902250004022000E4011C00C80119CF
:1008D00000AF01170098011400840113007101108A
:1008E000006101100051010E0043010D0036010BA3
:1008F000002B010B0020010B00150109000C010960
:100900000003010800FB000800F3000800EB0007EB
:1009100000E4000600DE000600D8000600D2000653
:1009200000CC000500C7000500C2000500BD0004A2
:1009300000B9000400B5000400B1000400AD0004DB
:1009400000A9000400A5000300A20003009F00040A
:10095000009B000300980003009500020093000331
:1009600000900003008D0002008B0003008800024D
:10097000008600020084000300810002007F000264
:10098000007D0002007B0002007900020077000178
:100990000076000200740002007200010071000283
:1009A000006F0002006D0001006C0002006A00018F
:1009B0000069000200670001006600010065000197
:1009C000006400020062000100610001006000019B
:1009D000005F0002005D0001005C0001005B00019F
:1009E000005A0001005900010058000100570001A1
:1009F00000560001005500010054000100530000A2
:100A0000005300010052000100510001005000019C
:100A1000004F0001004E0000004E0001004D00019B
:100A2000004C0001004B0000004B0001004A000197
:100A30000049000100480000004800010047000193
:100A4000004600000046000100450000004500018E
:100A50000044000100430000004300010042000088
:100A6000004200010041000000410001004000017F
:100A7000003F0000003F0001003E0000003E00017A
:100A8000003D0000003D0001003C0000003C000073
:100A9000003C0001003B0000003B0001003A000068
:100AA000003A000100390000003900010038000060
:100AB0000038000000380001003700000037000156
:100AC000003600000036000000360001003500004E
:100AD0000035000000350001003400000034000043
:100AE0000034000100330000003300000033000137
:100AF000003200000032000000320001003100002E
:100B00000031000000310001003000000030000022
:100B100000300001002F0000002F0000002F000017
:100B2000002F0001002E0000002E0000002E00010A
:100B3000002D0000002D0000002D0000002D000100
:100B4000002C0000002C0000002C0000002C0001F4
:100B5000002B0000002B0000002B0000002B0001E8
:100B6000002A0000002A0000002A0000002A0001DC
:100B700000290000002900000029000000290000D1
:100B800000290001002800000028000000280000C3
:100B900000280000002800010027000000270000B6
:100BA00000270000002700000027000100260000A9
:100BB000002600000026000000260000002600019C
:100BC0000025000000250000002500000025000091
:100BD0000025000000250001002400000024000082
:100BE0000024000000240000002400010023000075
:100BF0000023000000230000002300000023000069
:100C00000023000000230001002200000022000059
:100C1000002200000022000000220000002200014B
:100C20000021000000210000002100000021000040
:100C30000021000000210000002100010020000030
:100C40000020000000200000002000000020000024
:100C5000002000000020000000200001001F000014
:100C6000001F0000001F0000001F0000001F000008
:100C7000001F0000001F0001001E0000001E0000F9
:100C8000001E0000001E00000024F4D43050C38E6B
:100C900020C2A24017828B7011127A910D816CD9FB
:100CA0000AA861E108C7586607615143061E4B5DFB
:100CB00005C145A7041A411104093D980371393152
:100CC000034036DB0265339102D4305402802E1D7E
:100CD00002632CEE01752AC501B028A001102781FE
:100CE000018F2564012B244B01E0223401AC211F2C
:100CF000018D200D01801FFC00841EED00971DDF7B
:100D000000B81CD200E61BC600201BBC00641AB24F
:100D100000B219A8000A19A0006A189900D1179109
:100D20000040178B00B516840031167E00B315798C
:100D3000003A157300C7146F0058146A00EE13666A
:100D4000008813630025135E00C7125B006C125706
:100D50000015125400C111510070114F0021114BA8
:100D600000D61049008D1047004610440002104282
:100D700000C00F4000800F3E00420F3C00060F3BBA
:100D800000CB0E3800930E37005C0E3500270E3472
:100D900000F30D3200C10D3100900D3000600D2EBA
:100DA00000320D2D00050D2C00D90C2B00AE0C29A6
:100DB00000850C29005C0C2700350C27000E0C2642
:100DC00000E80B2400C40B2400A00B23007D0B23A0
:100DD000005A0B2100390B2100180B2000F80A1FC4
:100DE00000D90A1E00BB0A1E009D0A1D00800A1DB4
:100DF00000630A1C00470A1B002C0A1B00110A1A78
:100E000000F7091A00DD091900C4091900AB091916
:100E100000920917007B091800630917004C091696
:100E20000036091600200916000A091500F50815F4
:100E300000E0081400CC081400B8081400A408143A
:100E400000900813007D0812006B08130058081268
:100E5000004608120034081100230811001208117E
:100E60000001081100F0071000E0071000D0071083
:100E700000C0071000B0070F00A107100091070E77
:100E80000083070F0074070F0065070E0057070E59
:100E90000049070E003B070D002E070E0020070D2E
:100EA0000013070D0006070D00F9060C00ED060DF6
:100EB00000E0060C00D4060C00C8060C00BC060CB2
:100EC00000B0060C00A4060B0099060C008D060B62
:100ED0000082060B0077060B006C060B0061060A09
:100EE0000057060B004C060A0042060A0038060AA4
:100EF000002E060A0024060A001A060A0010060937
:100F00000007060A00FD050900F4050900EB0509C4
:100F100000E2050900D9050900D0050900C7050947
:100F200000BE050900B5050800AD050800A50509C6
:100F3000009C050800940508008C0508008405083D
:100F4000007C050800740508006C050700650508AD
:100F5000005D050700560508004E05070047050718
:100F6000004005080038050700310507002A05077D
:100F700000230507001C050600160507000F0507DE
:100F8000000805060002050700FB040600F504073B
:100F900000EE040600E8040600E2040700DB040695
:100FA00000D5040600CF040600C9040600C30406E9
:100FB00000BD040600B7040600B1040500AC040639
:100FC00000A6040600A00405009B04060095040585
:100FD00000900406008A04050085040500800406CC
:100FE000007A04050075040500700405006B040513
:100FF0000066040500610405005C04050057040553
:1010000000520405004D0405004804050043040592
:10101000003E0404003A04050035040500300404D1
:10102000002C04050027040400230405001E04040A
:10103000001A04040016040500110404000D040441
:1010400000090405000404040000040400FC030477
:1010500000F8030400F4030400F0030400EC0304AC
:1010600000E8030400E4030400E0030400DC0304DC
:1010700000D8030400D4030400D0030400CC03040C
:1010800000C8030300C50303006563686F3A0020CE
:101090005A3A0020593A0020583A00656E64737439
:1010A0006F7073206869743A20004572726F723AEB
:1010B0000054656D70657261747572652068656154
:1010C000746564206265642073776974636865641D
:1010D000206F66662E204D415854454D5020747245
:1010E00069676765726564202121003A204578743C
:1010F0007275646572207377697463686564206FC4
:1011000066662E204D494E54454D502074726967D5
:1011100067657265642021003A20457874727564B1
:101120006572207377697463686564206F66662EE4
:10113000204D415854454D5020747269676765725F
:101140006564202100202D20496E76616C69642041
:101150006578747275646572206E756D6265722053
:10116000210070012C0190012701B0012201C00172
:101170001D01F00118011002130130020E0160027E
:10118000090190020401C002FF000003FA004003BD
:10119000F5008003F000D003EB002004E6007004AB
:1011A000E100E004DC004005D700C005D2004006A5
:1011B000CD00D006C8008007C3003008BE00F0088C
:1011C000B900C009B400B00AAF00B00BAA00D00C3F
:1011D000A500000EA000500F9B00C01096005012FA
:1011E000910000148C00C0158700B0178200B01960
:1011F0007D00D01B7800001E730040206E009022FE
:101200006900F024640040275F0090295A00E02B19
:101210005500102E500020304B0010324600E033B5
:10122000410090353C001037370070383200A0394B
:101230002D00B03A2800A03B2300603C1E00103D6A
:101240001900903D1400103E0F00703E0A00C03E91
:101250000500003F0000504944204175746F7475CB
:101260006E652066696E69736865642120507574C7
:1012700020746865204B702C204B6920616E6420BF
:101280004B6420636F6E7374616E747320696E7447
:101290006F20436F6E66696775726174696F6E2E39
:1012A0006800504944204175746F74756E652066FE
:1012B00061696C6564212074696D656F75740020C7
:1012C000403A006F6B20543A006F6B20423A005056
:1012D0004944204175746F74756E65206661696C50
:1012E0006564212054656D70657261747572652046
:1012F000746F6F206869676800204B643A20002093
:101300004B693A2000204B703A200020436C6173F7
:1013100069632050494420002054753A2000204B36
:10132000753A2000206D61783A2000206D696E3A90
:10133000200020643A200020626961733A20000096
:10134000002100240027002A002D00300033000176
:10135000010000040107010A010000220025002805
:10136000002B002E003100340002010000050108AE
:10137000010B01000020002300260029002C002F73
:101380000032000001000003010601090105050506
:1013900005070508080808020202020A0A080804EC
:1013A000040404010101010101010103030303031A
:1013B000030303040707070C0C0C0C0C0C0C0C02A9
:1013C00002020206060606060606060B0B0B0B0BB0
:1013D0000B0B0B01021020200808102040102040A9
:1013E00080020102010804020101020408102040E9
:1013F0008080402010080402018004020180402007
:10140000100804020108040201010204081020402F
:101410008001020408102040800000090A02080B25
:101420000C0D07060304010000000000000000008E
:1014300000000000000000000000000000000000AC
:10144000000000000011100F00000000000000006C
:101450000000000000000000000000000000004943
:101460004E46494E4954594E414ECDCCCC3D0AD7FB
:10147000233C17B7D13877CC2B329595E6241FB192
:101480004F0A000020410000C84200401C4620BC1A
:10149000BE4CCA1B0E5AAEC59D74B447EF751124DD
:1014A0001FBECFEFD1E2DEBFCDBF00E00CBF14E026
:1014B000A0E0B2E0EEEFF0E001E00BBF02C0079069
:1014C0000D92AC38B107D9F71BBE1EE1ACE8B4E011
:1014D00001C01D92AC3AB107E1F714E1CEE9D4E1C5
:1014E00004C02297FE010E943780CA39D107C9F78C
:1014F0000E94187B0C947D800C940000A0E0B0E06A
:10150000E4E8FAE00C944C80EC015B016115710594
:1015100019F0FB0191838083F9908F2D90E00E9458
:101520003B80892BC9F7FDE2FF1621F4F990EE24E8
:10153000E39405C02BE2F21609F4F990EE248E0133
:1015400001501040C8016FE574E143E050E062D201
:10155000892BF9F48E010E5F1F4FC80162E674E11A
:1015600045E050E057D2892B19F48E01095F1F4FD7
:10157000A114B10419F0F50111830083E0FC04C04B
:1015800070E090E080E813C070E090E080E86FEFDA
:1015900007C1C80167E674E143E050E03BD2892B04
:1015A00069F4A114B10429F470E090E080EC6FE7D5
:1015B000F7C02296F501D183C083F6CF8824992401
:1015C00040E050E060E070E0EF2DE053EA30A0F53D
:1015D000F2E0EF2A8E2D90E09C0128703070E2FE40
:1015E00006C0232B79F50894811C911C2BC0232B5A
:1015F00019F0089481089108DB01CA0112E0880FF4
:10160000991FAA1FBB1F1A95D1F7480F591F6A1FB0
:101610007B1F440F551F661F771F4E0F511D611D05
:10162000711D483929E9520729E9620729E1720742
:1016300048F084E0E82A06C0EE3F31F4E3FC39C00C
:1016400098E0E92AF990C0CFE53311F0E53189F54A
:1016500029912D3219F4E0E1EE2A05C02B3219F060
:1016600081E090E003C0299182E090E0E22FE05316
:10167000EA3018F0C81BD90B1CC020E030E0FCE0B9
:1016800020383F075CF4C901880F991F880F991F04
:10169000280F391F220F331F2E0F311DE991E05300
:1016A000EA3068F3E4FE03C0309521953F4F820E87
:1016B000931ECE2CDD24E1FE07C0A114B10421F05D
:1016C0002197F501D183C083CB01BA010E94A07C90
:1016D0007B018C01F3E0CF22DD2423E0C216D1048C
:1016E00021F417FB109517F9109557016801C801EF
:1016F000B70120E030E040E050E00E94007C882309
:1017000009F44AC097FE0DC02EE7E22E24E1F22E26
:101710009094819491089394C0E2D0E000E010E0AE
:1017200012C096E9E92E94E1F92EF6CFF701259142
:10173000359145915491C601B5010E94E07E5B014F
:101740006C018C1A9D0A8C169D0684F7D595C79559
:101750000F5F1F4F0630110529F08CEF9FEFE80E49
:10176000F91EF1CFC501D6017C018D018C2D880FAA
:101770008D2D881F8F3F51F0C601B50120E030E06C
:1017800040E050E00E94007C882331F482E290E047
:101790009093AB1E8093AA1E7E2D9F2D802F612FCC
:1017A000272F392F482F562FB901CA01CDB7DEB7E1
:1017B000ECE00C9468802F923F925F926F927F9240
:1017C0008F929F92AF92BF92CF92DF92EF92FF9251
:1017D0000F931F93CF93DF938C011B01EA016115D7
:1017E000710519F0FB0191838083209749F0CE01A8
:1017F0000297839728F020E030E040E050E0F6C008
:10180000F801A1908F018A2D90E00E943B80892BE6
:10181000B9F7FDE2AF1631F4F801A1908F0155241C
:10182000539407C0FBE2AF1619F4F801A1908F01A1
:101830005524209719F0C031D105C1F4F0E3AF165B
:1018400079F4F8018081883711F0883549F4F8017E
:10185000A1800E5F1F4FF2E05F2AC0E1D0E006C01A
:10186000209721F480E3A816E9F427C0C830D105F9
:1018700031F1C930D10524F4C230D10531F50CC0A5
:10188000CA30D10589F0C031D105F9F4C12CD12C71
:10189000E12CB8E0FB2E28C0C12CD12CE12CA0E417
:1018A000FA2E22C0CAE0D0E0FCECCF2EFCECDF2EFA
:1018B000FCECEF2EFCE0FF2E17C0C8E0D0E0C12CFE
:1018C000D12CE12CE0E1FE2E0FC09E01442737FD14
:1018D0004095542F60E070E080E090E80E94E47F43
:1018E000C901DA016C017D0120E030E040E050E008
:1018F00060E03E01882477FC8094982C70EDB72E30
:10190000BA0CE9E0EB1570F48A2D81548A3118F491
:1019100099ECB92E06C08A2D81568A3150F589EA94
:10192000B82EBA0C8B2D90E08C179D0714F56F3FE5
:10193000E1F0C216D306E406F506B0F0CA01B9011B
:10194000A40193010E94B27F9B01AC012B0D311DBC
:10195000411D511D2130F0E03F07F0E04F07F0E856
:101960005F0710F461E001C06FEFF801A1908F01F3
:10197000C5CF2114310481F0662331F001501040AD
:10198000F1011183008308C051FE1AC002501040BB
:10199000F1011183008314C067FF12C050FC05C021
:1019A0002FEF3FEF4FEF5FE704C020E030E040E073
:1019B00050E882E290E09093AB1E8093AA1E16C07E
:1019C00050FE08C050954095309521953F4F4F4FA0
:1019D0005F4F0CC057FF0AC082E290E09093AB1EAD
:1019E0008093AA1E2FEF3FEF4FEF5FE7B901CA01C7
:1019F000DF91CF911F910F91FF90EF90DF90CF90EB
:101A0000BF90AF909F908F907F906F905F903F902E
:101A10002F900895FB01DC014150504088F08D91DA
:101A200081341CF08B350CF4805E659161341CF0C0
:101A30006B350CF4605E861B611171F3990B089590
:101A4000881BFCCFFB0155915523A9F0BF01DC0198
:101A50004D9145174111E1F759F4CD010590002052
:101A600049F04D9140154111C9F3FB014111EFCFF0
:101A700081E090E001970895FC018191861721F0A3
:101A80008823D9F7992708953197CF010895FB014D
:101A9000DC014150504030F08D910190801919F4D3
:101AA0000020B9F7881B990B0895AEE0B0E0EBE594
:101AB000FDE00C9454800E891F898EE08C831A837C
:101AC00009838FEF9FE79E838D839E01265E3F4FA4
:101AD000CE010196688D798DA9010AD02F813885B4
:101AE000020F131FF80110822E96E4E00C94708010
:101AF000ABE0B0E0EEE7FDE00C9446803C012B014A
:101B00005A01FC0117821682838181FD03C06FEFA9
:101B10007FEFB9C19AE0892E1E010894211C311C67
:101B2000F3012381F20123FD859123FF81912F0190
:101B3000882309F4A5C1853239F423FD859123FF5B
:101B400081912F01853221F490E0B301B7D1E8CF24
:101B5000982FFF24EE249924FFE1FF15D0F09B324B
:101B600069F09C3228F4903259F0933291F40EC00F
:101B70009D3249F0903369F441E024C052E0F52AE7
:101B800084E0F82A28C098E0F92A25C0E0E1FE2A7E
:101B900022C0F7FC29C0892F80538A3070F4F6FEEA
:101BA00005C0989C902C1124980E15C0E89CE02C40
:101BB0001124E80EF0E2FF2A0EC09E3229F4F6FC52
:101BC0005FC140E4F42A07C09C3619F450E8F52AB6
:101BD00002C0983649F4F20123FD959123FF9191BB
:101BE0002F01992309F0B8CF892F8554833018F03D
:101BF0008052833038F444E050E0A40EB51E5FE319
:101C000059830FC0933631F0933779F0933509F04B
:101C100052C01FC0F5018081898342E050E0A40ECC
:101C2000B51E610101E010E011C0F501C080D18056
:101C3000F6FC03C06FEF7FEF02C0692D70E042E059
:101C400050E0A40EB51EC6012ED18C015FE7F5222F
:101C500013C0F501C080D180F6FC03C06FEF7FEFA9
:101C600002C0692D70E042E050E0A40EB51EC6012E
:101C70000FD18C0150E8F52AF3FE06C018C080E2AF
:101C800090E0B3011BD1EA948E2D90E0081719075C
:101C9000B0F30DC0F601F7FC8591F7FE81916F015D
:101CA00090E0B3010BD1E110EA940150104001150E
:101CB000110581F7E2C0943611F0993661F5F7FE0F
:101CC00008C0F501208131814281538184E090E098
:101CD0000AC0F501808191819C01442737FD409520
:101CE000542F82E090E0A80EB91E9FE6F92257FF1C
:101CF00009C050954095309521953F4F4F4F5F4F0C
:101D0000E0E8FE2ACA01B901A1012AE030E002D1CF
:101D1000D82ED2183FC0953729F41F2D1F7E2AE0F8
:101D200030E01DC01F2D197F9F3661F0903720F4E1
:101D3000983509F0A5C00FC0903739F0983709F0F1
:101D40009FC004C028E030E00AC0106114FD146098
:101D500020E130E004C014FD166020E132E017FFFE
:101D600008C0F501608171818281938144E050E077
:101D700008C0F50180819181BC0180E090E042E0E3
:101D800050E0A40EB51EA101C5D0D82ED2188FE701
:101D9000F82EF122F6FE0BC05EEFF522D91438F4CE
:101DA000F4FE07C0F2FC05C08FEEF82202C01D2D24
:101DB00001C0192DF4FE0DC0FE01ED0DF11D808155
:101DC000803319F499EEF92208C01F5FF2FE05C0B6
:101DD00003C08F2D867809F01F5F0F2DF3FC13C011
:101DE000F0FE0EC01E1510F09D2C0AC09D2C9E0CFE
:101DF000911A1E2D05C080E290E0B3015FD01F5FF5
:101E00001E15C8F304C01E1510F4E11A01C0EE241B
:101E100004FF0EC080E390E0B30150D002FF1BC06E
:101E200001FD03C088E790E00EC088E590E00BC09C
:101E3000802F867881F001FF02C08BE201C080E232
:101E4000F7FC8DE290E0B30139D005C080E390E06B
:101E5000B30134D09A94D914C8F3DA94F101ED0D9A
:101E6000F11D808190E0B30129D0DD20B1F705C0DC
:101E700080E290E0B30122D0EA94EE20C9F750CE80
:101E8000F30166817781CB012B96E2E10C946280AD
:101E9000FC010590615070400110D8F78095909535
:101EA0008E0F9F1F0895FC0161507040019001103A
:101EB000D8F7809590958E0F9F1F08950F931F93CD
:101EC000CF93DF938C01EB018B8181FF1BC082FFDD
:101ED0000DC02E813F818C819D812817390764F4C4
:101EE000E881F9810193F983E88306C0E885F985E3
:101EF000802F1995892B31F48E819F8101969F83C4
:101F00008E8302C00FEF1FEFC801DF91CF911F91A9
:101F10000F910895FA01AA27283051F1203181F15B
:101F2000E8946F936E7F6E5F7F4F8F4F9F4FAF4FE1
:101F3000B1E03ED0B4E03CD0670F781F891F9A1FF4
:101F4000A11D680F791F8A1F911DA11D6A0F711DA8
:101F5000811D911DA11D20D009F468943F912AE0B4
:101F6000269F11243019305D3193DEF6CF0108959C
:101F7000462F4770405D4193B3E00FD0C9F7F6CFCD
:101F8000462F4F70405D4A3318F0495D31FD405295
:101F9000419302D0A9F7EACFB4E0A695979587952B
:101FA00077956795BA95C9F700976105710508950A
:101FB0009B01AC010A2E06945795479537952795B6
:101FC000BA95C9F7620F731F841F951FA01D08954E
:101FD0004F925F926F927F928F929F92AF92BF9239
:101FE000CF92DF92EF92FF920F931F93CF93DF93E5
:101FF000C0E0D0E06EC0F201608171818281938186
:1020000020E030E048EC52E40E94E07E7B018C014D
:1020100020E030E040E050E00E940E7E88234CF04B
:10202000C801B70120E030E040E05FE30E94277B79
:1020300008C0C801B70120E030E040E05FE30E9443
:10204000267B0E946F7CF40171836083F5016081BF
:1020500071818281938120E030E048EC52E40E945B
:10206000E07E7B018C0120E030E040E050E00E9407
:102070000E7E88234CF0C801B70120E030E040E03C
:102080005FE30E94277B08C0C801B70120E030E071
:1020900040E05FE30E94267B0E946F7CF301718326
:1020A00060830894C11CD11C8CE190E0480E591E3D
:1020B000EEE0F0E06E0E7F1E8E0E9F1EA80EB91E83
:1020C000F7E0CF16D10409F096CF2196C730D1059D
:1020D00019F19E01220F331F220F331F04E9402EF6
:1020E00005E0502E420E531ECE01880F991FBEEE02
:1020F0006B2EB4E07B2E680E791EACE88A2EA4E02D
:102100009A2E880E991EF8E5AF2EF6E0BF2EA20E8D
:10211000B31ECC24DD246FCFDF91CF911F910F919F
:10212000FF90EF90DF90CF90BF90AF909F908F90F7
:102130007F906F905F904F9008958F929F92AF9293
:10214000BF92CF92DF92EF92FF920F931F93CF93A4
:10215000DF93C0E0D0E03DC0F40160817181882749
:1021600077FD8095982F0E94A27C20E030E048EC1B
:1021700052E40E94077CF50160837183828393831C
:10218000F60160817181882777FD8095982F0E94E4
:10219000A27C20E030E048EC52E40E94077CF7018A
:1021A00060837183828393830F5F1F4F8EE090E083
:1021B000880E991EECE1F0E0AE0EBF1EC80ED91ECF
:1021C000EE0EFF1E0730110539F62196C730D105F6
:1021D00019F19E01220F331F7CE8872E74E0972EA1
:1021E000820E931ECE01880F991F880F991F54E904
:1021F000A52E55E0B52EA80EB91E4EEEC42E44E015
:10220000D42EC20ED31E28E5E22E26E0F22EE80ED2
:10221000F91E00E010E0A0CFDF91CF911F910F9148
:10222000FF90EF90DF90CF90BF90AF909F908F90F6
:1022300008950F931F93DF93CF93CDB7DEB76697C3
:102240000FB6F894DEBF0FBECDBF80910002909113
:102250000102A0910202B09103028F87988BA98B93
:10226000BA8BFE013F9604E610E08081F999FECF1B
:102270001FBA12BD01BD80BD0FB6F894FA9AF99A43
:102280000FBE0F5F1F4F0836110511F03196EDCFCD
:10229000E9E8F9E08081F999FECF1FBA12BD01BDCE
:1022A00080BD0FB6F894FA9AF99A0FBE0F5F1F4FD0
:1022B0000837110511F03196EDCFE9E7F9E080819B
:1022C000F999FECF1FBA12BD01BD80BD0FB6F894BB
:1022D000FA9AF99A0FBE0F5F1F4F0838110511F0D7
:1022E0003196EDCFE9E9F9E08081F999FECF1FBA87
:1022F00012BD01BD80BD0FB6F894FA9AF99A0FBECF
:102300000F5F1F4F0839110511F03196EDCFEDEA3F
:10231000F9E08081F999FECF1FBA12BD01BD80BDE1
:102320000FB6F894FA9AF99A0FBE0F5F1F4F0C3947
:10233000110511F03196EDCFE1EBF9E08081F999CB
:10234000FECF1FBA12BD01BD80BD0FB6F894FA9A38
:10235000F99A0FBE0F5F1F4F003A110511F0319629
:10236000EDCFE9EAF9E08081F999FECF1FBA12BDFD
:1023700001BD80BD0FB6F894FA9AF99A0FBE0F5FAF
:102380001F4F043A110511F03196EDCFE1ECF9E061
:102390008081F999FECF1FBA12BD01BD80BD0FB675
:1023A000F894FA9AF99A0FBE0F5F1F4F083A110579
:1023B00011F03196EDCFE5E7F9E08081F999FECF94
:1023C0001FBA12BD01BD80BD0FB6F894FA9AF99AF2
:1023D0000FBE0F5F1F4F0C3A110511F03196EDCF74
:1023E000E5EBF9E08081F999FECF1FBA12BD01BD7E
:1023F00080BD0FB6F894FA9AF99A0FBE0F5F1F4F7F
:10240000003B110511F03196EDCFE9EBF9E0808149
:10241000F999FECF1FBA12BD01BD80BD0FB6F89469
:10242000FA9AF99A0FBE0F5F1F4F043B110511F086
:102430003196EDCFEDEBF9E08081F999FECF1FBA2F
:1024400012BD01BD80BD0FB6F894FA9AF99A0FBE7D
:102450000F5F1F4F083B110511F03196EDCFE6E6F7
:10246000F5E08081F999FECF1FBA12BD01BD80BD94
:102470000FB6F894FA9AF99A0FBE0F5F1F4F043CFB
:10248000110511F03196EDCFE2E7F5E08081F99981
:10249000FECF1FBA12BD01BD80BD0FB6F894FA9AE7
:1024A000F99A0FBE0F5F1F4F003D110511F03196D5
:1024B000EDCF84EB90E09A83898386E490E09C835F
:1024C0008B832FEF30E03E832D8380EF90E0988761
:1024D0008F8384E690E09A8789873C872B87FE016B
:1024E00031968081F999FECF1FBA12BD01BD80BD22
:1024F0000FB6F894FA9AF99A0FBE0F5F1F4F023D7C
:10250000110571F7FE0133968081F999FECF1FBA4C
:1025100012BD01BD80BD0FB6F894FA9AF99A0FBEAC
:102520000F5F1F4F043D110511F03196EDCFFE01F5
:1025300035968081F999FECF1FBA12BD01BD80BDCD
:102540000FB6F894FA9AF99A0FBE0F5F1F4F063D27
:10255000110511F03196EDCFFE0137968081F99982
:10256000FECF1FBA12BD01BD80BD0FB6F894FA9A16
:10257000F99A0FBE0F5F1F4F083D110511F03196FC
:10258000EDCFFE0139968081F999FECF1FBA12BDB9
:1025900001BD80BD0FB6F894FA9AF99A0FBE0F5F8D
:1025A0001F4F0A3D110511F03196EDCFFE013B960C
:1025B0008081F999FECF1FBA12BD01BD80BD0FB653
:1025C000F894FA9AF99A0FBE0F5F1F4F0C3D110550
:1025D00011F03196EDCFE1E8F5E08081F999FECF79
:1025E0001FBA12BD01BD80BD0FB6F894FA9AF99AD0
:1025F0000FBE0F5F1F4F003E110511F03196EDCF5A
:10260000E6EFF3E08081F999FECF1FBA12BD01BD5C
:1026100080BD0FB6F894FA9AF99A0FBE0F5F1F4F5C
:10262000043E110511F03196EDCFEAEFF3E0808121
:10263000F999FECF1FBA12BD01BD80BD0FB6F89447
:10264000FA9AF99A0FBE0F5F1F4F083E110511F05D
:102650003196EDCFEEEFF3E08081F999FECF1FBA0E
:1026600012BD01BD80BD0FB6F894FA9AF99A0FBE5B
:102670000F5F1F4F0C3E110511F03196EDCF80E238
:1026800090E09E878D87FE013D968081F999FECF6F
:102690001FBA12BD01BD80BD0FB6F894FA9AF99A1F
:1026A0000FBE0F5F1F4F0E3E110511F03196EDCF9B
:1026B0008FDCECE8F4E08081F999FECF1FBA12BDFF
:1026C00001BD80BD0FB6F894FA9AF99A0FBE0F5F5C
:1026D0001F4F81E00035180711F03196ECCFEEEE78
:1026E000F4E08081F999FECF1FBA12BD01BD80BD13
:1026F0000FB6F894FA9AF99A0FBE81E0013B1807D9
:1027000021F00F5F1F4F3196ECCF80910402909122
:102710000502A0910602B09107028B8B9C8BAD8BBA
:10272000BE8BFE01739684E690E02081F999FECF7E
:102730001FBA92BD81BD20BD0FB6F894FA9AF99ADE
:102740000FBE8736910519F001963196EECFEFE274
:10275000F1E0949108C08091C00085FFFCCF909378
:10276000C600319694919923B1F7E2E6F3E0949193
:1027700008C08091C00085FFFCCF9093C6003196C1
:1027800094919923B1F78091C00085FFFCCF8AE036
:102790008093C60066960FB6F894DEBF0FBECDBF1D
:1027A000CF91DF911F910F910895EF92FF920F93B8
:1027B0001F93DF93CF93CDB7DEB7E0970FB6F894B2
:1027C000DEBF0FBECDBFDE011196ECE2F4E080E18A
:1027D00001900D928150E1F7DE015196ECE1F4E0B9
:1027E00080E101900D928150E1F7DE019196ECE0DD
:1027F000F4E080E101900D928150E1F789819A81A6
:10280000AB81BC818093890990938A09A0938B093D
:10281000B0938C0989899A89AB89BC89809379099D
:1028200090937A09A0937B09B0937C0989A19AA11E
:10283000ABA1BCA18093990990939A09A0939B099D
:10284000B0939C098D819E81AF81B88580938D095D
:1028500090938E09A0938F09B09390098D899E89DA
:10286000AF89B88D80937D0990937E09A0937F09ED
:10287000B09380098DA19EA1AFA1B8A580939D09B9
:1028800090939E09A0939F09B093A00989859A858A
:10289000AB85BC858093910990939209A09393098D
:1028A000B0939409898D9A8DAB8DBC8D80938109ED
:1028B00090938209A0938309B093840989A59AA56E
:1028C000ABA5BCA58093A1099093A209A093A309ED
:1028D000B093A4098D859E85AF85B88980939509AD
:1028E00090939609A0939709B09398098D8D9E8D2A
:1028F000AF8DB8A18093850990938609A09387092D
:10290000B09388098DA59EA5AFA5B8A98093A50908
:102910009093A609A093A709B093A8090E942F4EEF
:1029200080E090E0AAE7B4E48093AD099093AE090B
:10293000A093AF09B093B0098093B1099093B20905
:10294000A093B309B093B40920E030E040E050E038
:102950002093A9093093AA094093AB095093AC097D
:1029600080E29EE4A0E0B0E0809375099093760940
:10297000A0937709B09378092093C1093093C209D5
:102980004093C3095093C40980E090E0A0EAB1E409
:102990008093B5099093B609A093B709B093B8098D
:1029A0008093B9099093BA09A093BB09B093BC096D
:1029B0008093BD099093BE09A093BF09B093C0094D
:1029C00020936E0530936F05409370055093710509
:1029D00020936A0530936B0540936C0550936D0509
:1029E0002093660530936705409368055093690509
:1029F00020937A0530937B0540937C0550937D05A9
:102A000020937605309377054093780550937905A8
:102A100020937205309373054093740550937505A8
:102A20000F2EF0E0EF2EF0E0FF2EF0E80F2FFFE387
:102A30001F2FF02DE0928105F0928205009383050F
:102A40001093840587ED93EAA4E4B1E48093F60340
:102A50009093F703A093F803B093F90361EE7AE73C
:102A600084E59FE30E947A696093FA037093FB0305
:102A70008093FC039093FD036EEA77E485E392E490
:102A80000E9486696093FE037093FF0380930004A5
:102A9000909301040E948B68E0920204F092030478
:102AA000009304041093050420E030E040E050E07F
:102AB00060E87FEB14C04D935D936D937C93139707
:102AC000408351836283738301965C967C96873042
:102AD000910589F72F5F3F4F2730310571F0C9010C
:102AE000880F991F880F991FDC01AC56BA4FFC0163
:102AF000E85AF94F80E090E0DECFEFE2F1E0949108
:102B000008C08091C00085FFFCCF9093C60031962D
:102B100094919923B1F7E5E3F1E0949108C0809195
:102B2000C00085FFFCCF9093C60031969491992305
:102B3000B1F78091C00085FFFCCF8AE08093C6008A
:102B4000E0960FB6F894DEBF0FBECDBFCF91DF91F8
:102B50001F910F91FF90EF900895CF93DF93CFE2F5
:102B6000D1E0FE01949108C08091C00085FFFCCFA8
:102B70009093C600319694919923B1F7E2E5F3E082
:102B8000949108C08091C00085FFFCCF9093C6004F
:102B9000319694919923B1F78091C00085FFFCCFC5
:102BA0008AE08093C600FE019491EFE2F1E008C054
:102BB0008091C00085FFFCCF9093C6003196949120
:102BC0009923B1F74091890950918A0960918B0945
:102BD00070918C098AE493E00E948E2940918D09BE
:102BE00050918E0960918F097091900987E493E06C
:102BF0000E948E2940919109509192096091930908
:102C00007091940984E493E00E948E294091950983
:102C100050919609609197097091980981E493E029
:102C20000E948E29E8E0F2E007C08091C00085FF95
:102C3000FCCF31969093C60090819923B1F7809193
:102C4000C00085FFFCCF8AE08093C600FE0194910E
:102C5000EFE2F1E008C08091C00085FFFCCF9093C7
:102C6000C600319694919923B1F7E7E2F3E094918D
:102C700008C08091C00085FFFCCF9093C6003196BC
:102C800094919923B1F78091C00085FFFCCF8AE031
:102C90008093C600FE019491EFE2F1E008C08091BC
:102CA000C00085FFFCCF9093C60031969491992384
:102CB000B1F74091790950917A0960917B0970913F
:102CC0007C098EE193E00E948E2940917D0950910C
:102CD0007E0960917F09709180098BE193E00E94E9
:102CE0008E294091810950918209609183097091E8
:102CF000840988E193E00E948E29409185095091D2
:102D00008609609187097091880985E193E00E94A6
:102D10008E29E8E0F2E007C08091C00085FFFCCF7B
:102D200031969093C60090819923B1F78091C000AD
:102D300085FFFCCF8AE08093C600FE019491EFE20C
:102D4000F1E008C08091C00085FFFCCF9093C600E1
:102D5000319694919923B1F7E7EFF2E0949108C08E
:102D60008091C00085FFFCCF9093C600319694916E
:102D70009923B1F78091C00085FFFCCF8AE0809352
:102D8000C600FE019491EFE2F1E008C08091C0001E
:102D900085FFFCCF9093C600319694919923B1F7AB
:102DA0004091990950919A0960919B0970919C09F1
:102DB0008EEE92E00E94072C40919D0950919E0951
:102DC00060919F097091A0098BEE92E00E94072C00
:102DD0004091A1095091A2096091A3097091A409A1
:102DE00088EE92E00E94072C4091A5095091A60917
:102DF0006091A7097091A80985EE92E00E94072CC6
:102E0000E8E0F2E007C08091C00085FFFCCF31967A
:102E10009093C60090819923B1F78091C00085FFFF
:102E2000FCCF8AE08093C600FE019491EFE2F1E0CE
:102E300008C08091C00085FFFCCF9093C6003196FA
:102E400094919923B1F7E0EBF2E0949108C080915E
:102E5000C00085FFFCCF9093C600319694919923D2
:102E6000B1F78091C00085FFFCCF8AE08093C60057
:102E7000FE019491EFE2F1E008C08091C00085FF6F
:102E8000FCCF9093C600319694919923B1F740916D
:102E9000AD095091AE096091AF097091B00987EA10
:102EA00092E00E948E294091B1095091B20960913F
:102EB000B3097091B40984EA92E00E948E29E8E097
:102EC000F2E007C08091C00085FFFCCF319690935F
:102ED000C60090819923B1F78091C00085FFFCCF97
:102EE0008AE08093C600FE019491EFE2F1E008C011
:102EF0008091C00085FFFCCF9093C60031969491DD
:102F00009923B1F7E1EFF1E0949108C08091C000FE
:102F100085FFFCCF9093C600319694919923B1F729
:102F20008091C00085FFFCCF8AE08093C600FE013F
:102F30009491EFE2F1E008C08091C00085FFFCCFE2
:102F40009093C600319694919923B1F74091A909C5
:102F50005091AA096091AB097091AC0988EE91E09B
:102F60000E948E294091C1095091C2096091C30904
:102F70007091C40985EE91E00E948E2940917509F7
:102F800050917609609177097091780982EE91E00D
:102F90000E94072C4091B5095091B6096091B7097C
:102FA0007091B8098FED91E00E948E294091B90986
:102FB0005091BA096091BB097091BC098CED91E008
:102FC0000E948E294091BD095091BE096091BF09B0
:102FD0007091C00989ED91E00E948E29E8E0F2E04D
:102FE00007C08091C00085FFFCCF31969093C6004A
:102FF00090819923B1F78091C00085FFFCCF8AE0D2
:103000008093C600FE019491EFE2F1E008C0809148
:10301000C00085FFFCCF9093C60031969491992310
:10302000B1F7E7ECF1E0949108C08091C00085FF12
:10303000FCCF9093C600319694919923B1F780917B
:10304000C00085FFFCCF8AE08093C600FE0194910A
:10305000EFE2F1E008C08091C00085FFFCCF9093C3
:10306000C600319694919923B1F74091660550912D
:10307000670560916805709169058EEB91E00E948B
:103080008E2940916A0550916B0560916C05709195
:103090006D058BEB91E00E948E2940916E05509159
:1030A0006F05609170057091710588EB91E00E9449
:1030B0008E29E8E0F2E007C08091C00085FFFCCFD8
:1030C00031969093C60090819923B1F78091C0000A
:1030D00085FFFCCF8AE08093C600FE019491EFE269
:1030E000F1E008C08091C00085FFFCCF9093C6003E
:1030F000319694919923B1F7EEE9F1E0949108C0EB
:103100008091C00085FFFCCF9093C60031969491CA
:103110009923B1F78091C00085FFFCCF8AE08093AE
:10312000C600FE019491EFE2F1E008C08091C0007A
:1031300085FFFCCF9093C600319694919923B1F707
:1031400040917205509173056091740570917505F9
:1031500085E991E00E948E2940917605509177058E
:10316000609178057091790582E991E00E948E293D
:1031700040917A0550917B0560917C0570917D05A9
:103180008FE891E00E948E29E8E0F2E007C080918C
:10319000C00085FFFCCF31969093C60090819923A3
:1031A000B1F78091C00085FFFCCF8AE08093C60014
:1031B000FE019491EFE2F1E008C08091C00085FF2C
:1031C000FCCF9093C600319694919923B1F7E1E832
:1031D000F1E0949108C08091C00085FFFCCF9093EE
:1031E000C600319694919923B1F78091C00085FF74
:1031F000FCCF8AE08093C600FE019491EFE2F1E0FB
:1032000008C08091C00085FFFCCF9093C600319626
:1032100094919923B1F74091F6035091F70360918F
:10322000F8037091F90387E791E00E948E2960917D
:10323000FA037091FB038091FC039091FD030E94BF
:103240008069AB01BC0184E791E00E948E29609106
:10325000FE037091FF0380910004909101040E948D
:103260008C69AB01BC0181E791E00E948E29E8E006
:10327000F2E007C08091C00085FFFCCF31969093AB
:10328000C60090819923B1F78091C00085FFFCCFE3
:103290008AE08093C600DF91CF9108950F931F932A
:1032A000DF93CF93CDB7DEB766970FB6F894DEBF46
:1032B0000FBECDBF8091040290910502A09106023D
:1032C000B09107028B8B9C8BAD8BBE8BFE013F9622
:1032D00004E610E0F999FECF12BD01BDF89A80B561
:1032E00080830F5F1F4F0836110511F03196F2CF22
:1032F000CE014396BE01615F7F4F43E050E00E94E4
:10330000470D009709F0CAC1E9E8F9E0F999FECF45
:1033100012BD01BDF89A80B580830F5F1F4F08373B
:10332000110511F03196F2CFE9E7F9E0F999FECFF6
:1033300012BD01BDF89A80B580830F5F1F4F08381A
:10334000110511F03196F2CFE9E9F9E0F999FECFD4
:1033500012BD01BDF89A80B580830F5F1F4F0839F9
:10336000110511F03196F2CF0E942F4EEDEAF9E0EF
:10337000F999FECF12BD01BDF89A80B580830F5F29
:103380001F4F0C39110511F03196F2CFE1EBF9E046
:10339000F999FECF12BD01BDF89A80B580830F5F09
:1033A0001F4F003A110511F03196F2CFE9EAF9E02A
:1033B000F999FECF12BD01BDF89A80B580830F5FE9
:1033C0001F4F043A110511F03196F2CFE1ECF9E00C
:1033D000F999FECF12BD01BDF89A80B580830F5FC9
:1033E0001F4F083A110511F03196F2CFE5E7F9E0E9
:1033F000F999FECF12BD01BDF89A80B580830F5FA9
:103400001F4F0C3A110511F03196F2CFE5EBF9E0C0
:10341000F999FECF12BD01BDF89A80B580830F5F88
:103420001F4F003B110511F03196F2CFE9EBF9E0A7
:10343000F999FECF12BD01BDF89A80B580830F5F68
:103440001F4F043B110511F03196F2CFEDEBF9E07F
:10345000F999FECF12BD01BDF89A80B580830F5F48
:103460001F4F083B110511F03196F2CFE6E6F5E06B
:10347000F999FECF12BD01BDF89A80B580830F5F28
:103480001F4F043C110511F03196F2CFE2E7F5E051
:10349000F999FECF12BD01BDF89A80B580830F5F08
:1034A0001F4F003D110511F03196F2CFFE0131960C
:1034B000F999FECF12BD01BDF89A80B580830F5FE8
:1034C0001F4F023D110599F7FE013396F999FECF82
:1034D00012BD01BDF89A80B580830F5F1F4F043D78
:1034E000110511F03196F2CFFE013596F999FECF14
:1034F00012BD01BDF89A80B580830F5F1F4F063D56
:10350000110511F03196F2CFFE013796F999FECFF1
:1035100012BD01BDF89A80B580830F5F1F4F083D33
:10352000110511F03196F2CFFE013996F999FECFCF
:1035300012BD01BDF89A80B580830F5F1F4F0A3D11
:10354000110511F03196F2CFFE013B96F999FECFAD
:1035500012BD01BDF89A80B580830F5F1F4F0C3DEF
:10356000110511F03196F2CFE1E8F5E0F999FECFBF
:1035700012BD01BDF89A80B580830F5F1F4F003EDA
:10358000110511F03196F2CFE6EFF3E0F999FECF95
:1035900012BD01BDF89A80B580830F5F1F4F043EB6
:1035A000110511F03196F2CFEAEFF3E0F999FECF71
:1035B00012BD01BDF89A80B580830F5F1F4F083E92
:1035C000110511F03196F2CFEEEFF3E0F999FECF4D
:1035D00012BD01BDF89A80B580830F5F1F4F0C3E6E
:1035E000110511F03196F2CFFE013D96F999FECF0B
:1035F00012BD01BDF89A80B580830F5F1F4F0E3E4C
:10360000110511F03196F2CFECE8F4E0F999FECF14
:1036100012BD01BDF89A80B580830F5F1F4F81E016
:103620000035180711F03196F1CFEEEEF4E0F9997C
:10363000FECF12BD01BDF89A80B5808381E0013BC9
:10364000180721F00F5F1F4F3196F1CF0E949D1098
:103650000E948B68EFE2F1E0949108C08091C00075
:1036600085FFFCCF9093C600319694919923B1F7D2
:10367000E7E5F1E0949108C08091C00085FFFCCFA0
:103680009093C600319694919923B1F78091C00030
:1036900085FFFCCF8AE08093C60001C086D85DDA42
:1036A00066960FB6F894DEBF0FBECDBFCF91DF9107
:1036B0001F910F9108952F923F924F925F926F92B8
:1036C0007F928F929F92AF92BF92CF92DF92EF92B2
:1036D000FF920F931F93DF93CF9300D00F92CDB73C
:1036E000DEB79C838B837A8369838A0139014C011D
:1036F000E3E0880C991CEA95E1F7881A990AFB0126
:10370000E80DF91DEE0FFF1FEE0FFF1FEC56FA4FED
:10371000608171818281938120E030E040E050E05F
:103720000E94007C882309F0EAC08B819C81800F75
:10373000911F6801CC0CDD1C2B813C81C20ED31E75
:103740007C0153E0EE0CFF1C5A95E1F7E81AF90AE8
:10375000E981FA81EE0DFF1DEE0FFF1FEE0FFF1F37
:10376000EC56FA4F2081318142815381CA01B9015F
:103770000E94277B860133E0000F111F3A95E1F785
:103780000C191D09E981FA81E00FF11FEE0FFF1FEF
:10379000EE0FFF1FEC56FA4F208131814281538199
:1037A0000E94267B1B012C01A980BA80A60CB71CA5
:1037B0006301CC0CDD1C89819A81C80ED91EF401ED
:1037C000EA0DFB1DEE0FFF1FEE0FFF1FEC56FA4F29
:1037D0002081318142815381CA01B9010E94277B36
:1037E000F401EC0DFD1DEE0FFF1FEE0FFF1FEC5659
:1037F000FA4F20813181428153810E94267B3B0117
:103800004C01EA0CFB1CEE0CFF1CEE0CFF1CA4E9A7
:10381000B5E0EA0EFB1EF701208131814281538120
:10382000CA01B9010E94277B0C0D1D1D000F111F3D
:10383000000F111F0C561A4FD8012D913D914D913B
:103840005C910E94267B7B018C01C201B101A40125
:1038500093010E94007C8823B4F4C401B301A80141
:1038600097010E94007C88232CF4B62CD72CA82C1E
:10387000C92C04C0BE2CDF2CA02EC12EC801B7015C
:10388000A201910115C0C801B701A40193010E94D2
:10389000007C88232CF4B62CD72CA82CC92C04C06F
:1038A000BE2CDF2CA02EC12EC201B101A8019701B0
:1038B0000E94007C882324F4B22CD32CA42CC52C89
:1038C000EB81FC8153E0EE0FFF1F5A95E1F72B814E
:1038D0003C81E21BF30B89819A81E80FF91FEE0FFF
:1038E000FF1FEE0FFF1FEC56FA4F2B2D3D2D4A2DDB
:1038F0005C2DC901DA0180839183A283B3830F9089
:103900000F900F900F90CF91DF911F910F91FF902B
:10391000EF90DF90CF90BF90AF909F908F907F906F
:103920006F905F904F903F902F900895EF92FF928D
:103930000F931F93CF93DF93EC01E0909C03F090E3
:103940009D0300919E0310919F03688179818A8174
:103950009B81A80197010E94007C882324F4E882BF
:10396000F9820A831B83E090A003F090A1030091E9
:10397000A2031091A3036C817D818E819F81A80198
:1039800097010E94007C882324F4EC82FD820E8340
:103990001F83E090A403F090A5030091A60310916B
:1039A000A703688579858A859B85A80197010E9470
:1039B000007C882324F4E886F9860A871B87E09038
:1039C000A803F090A9030091AA031091AB036881AA
:1039D00079818A819B81A80197010E940E7E181629
:1039E00024F4E882F9820A831B83E090AC03F09010
:1039F000AD030091AE031091AF036C817D818E8188
:103A00009F81A80197010E940E7E181624F4EC8273
:103A1000FD820E831F83E090B003F090B10300910C
:103A2000B2031091B303688579858A859B85A801C7
:103A300097010E940E7E181624F4E886F9860A87FC
:103A40001B87DF91CF911F910F91FF90EF90089509
:103A50008091240708950E945E698091240788233D
:103A600009F036C081E08093240780912707909168
:103A70002807A0912907B0912A0780932B079093DC
:103A80002C07A0932D07B0932E07E8E7F3E094915D
:103A900008C08091C00085FFFCCF9093C60031968E
:103AA00094919923B1F7EFE7F3E0949108C08091E6
:103AB000C00085FFFCCF9093C60031969491992366
:103AC000B1F78091C00085FFFCCF8AE08093C600EB
:103AD0000895F8940E945E695F9A10927E058A9A12
:103AE00010927F058FB7F8949091080191609093A0
:103AF00008018FBF10928005129A8CE060E00E944E
:103B0000047AE8E7F3E0949108C08091C00085FF53
:103B1000FCCF9093C600319694919923B1F7E5EFCD
:103B2000F3E0949108C08091C00085FFFCCF909392
:103B3000C600319694919923B1F78091C00085FF1A
:103B4000FCCF8AE08093C600FFCF0E945D7860932F
:103B50002F07709330078093310790933207E4E189
:103B6000F4E0949108C08091C00085FFFCCF909351
:103B7000C600319694919923B1F78091C00085FFDA
:103B8000FCCF8AE08093C6000895EF92FF920F93D6
:103B90001F930E945D78E0903307F0903407009106
:103BA00035071091360720912F073091300740914B
:103BB000310750913207621B730B840B950BE6168D
:103BC000F7060807190730F4E114F104010511059F
:103BD00009F07FDF8091B5039091B603A091B70300
:103BE000B091B8030097A105B10591F10E945D78ED
:103BF00020912F07309130074091310750913207C3
:103C0000621B730B840B950B2091B5033091B603A7
:103C10004091B7035091B803261737074807590753
:103C2000B8F49091261D8091271D981789F45F9A0A
:103C300010927E058A9A10927F059FB7F894809122
:103C400008018160809308019FBF10928005129A3D
:103C50000E94E4501F910F91FF90EF9008956F9292
:103C60007F928F929F92AF92BF92CF92DF92EF920C
:103C7000FF920F931F93F82E6091370770913807CA
:103C80008091390790913A0720913B0730913C078A
:103C900040913D0750913E070E941B7E3B014C0125
:103CA00000D000D00DB71EB70F5F1F4F6091940377
:103CB00070919503882777FD8095982F0E94A27CAC
:103CC0002091B9033091BA034091BB035091BC03DA
:103CD0000E94E07E20E030E040E752E40E94077C52
:103CE00020E030E048EC52E40E94077C5B016C016C
:103CF000F8016082718282829382F48280918505CC
:103D0000858386E595E063E477E047E357E020E0CC
:103D100001E0F2E0EF2E0E947149809143079091FB
:103D20004407A0914507B0914607809356059093AC
:103D30005705A0935805B093590580914707909176
:103D40004807A0914907B0914A0780935A0590937C
:103D50005B05A0935C05B0935D0580914B07909146
:103D60004C07A0914D07B0914E0780935E0590934C
:103D70005F05A0936005B093610580914F07909116
:103D80005007A0915107B09152078093620590931C
:103D90006305A0936405B09365058DB79EB706963D
:103DA0000FB6F8949EBF0FBE8DBF0E945D786093E2
:103DB0002F077093300780933107909332071F913C
:103DC0000F91FF90EF90DF90CF90BF90AF909F90BA
:103DD0008F907F906F9008958F929F92AF92BF9235
:103DE000CF92DF92EF92FF920F931F934C016AECF8
:103DF00074E08DEB92ECF40120813181428153819A
:103E00000E94267B7B018C0160E972E48AE592ECDA
:103E1000F40124813581468157810E94267B5B0114
:103E20006C01C801B701A80197010E94E07E9B01C7
:103E3000AC0160E878E289E897E40E94267B7B0188
:103E40008C01C601B501A60195010E94E07E9B018F
:103E5000AC01C801B7010E94267B0E944D7FF4018E
:103E600020853185428553850E94277B6093880594
:103E70007093890580938A0590938B056AEC74E0B2
:103E80008DEB92E4F40120813181428153810E94C3
:103E9000267B7B018C0160E972E48AE592ECF401F7
:103EA00024813581468157810E94267B5B016C010C
:103EB000C801B701A80197010E94E07E9B01AC01F7
:103EC00060E878E289E897E40E94267B7B018C0118
:103ED000C601B501A60195010E94E07E9B01AC01DF
:103EE000C801B7010E94267B0E944D7FF401208506
:103EF0003185428553850E94277B60938C057093A2
:103F00008D0580938E0590938F0560E070E080E0D2
:103F100090E0F40120813181428153810E94267B0F
:103F20007B018C0160E972E48AED92E4F401248162
:103F30003581468157810E94267B5B016C01C80157
:103F4000B701A80197010E94E07E9B01AC0160E8E7
:103F500078E289E897E40E94267B7B018C01C60108
:103F6000B501A60195010E94E07E9B01AC01C8014C
:103F7000B7010E94267B0E944D7FF4012085318588
:103F8000428553850E94277B60939005709391052D
:103F900080939205909393051F910F91FF90EF905E
:103FA000DF90CF90BF90AF909F908F9008952F9209
:103FB0003F924F925F926F927F928F929F92AF92B9
:103FC000BF92CF92DF92EF92FF920F931F93DF93F6
:103FD000CF9300D00F92CDB7DEB70E945D7860938B
:103FE0002F07709330078093310790933207A3E433
:103FF000CA2EA7E0DA2EC601EFDE0F920F922DB681
:104000003EB60894211C311C4090880550908905CB
:1040100060908A0570908B0580918C0590918D053C
:10402000A0918E05B0918F0589839A83AB83BC8361
:10403000E0909005F0909105009192051091930504
:10404000ACE0B0E0CA0EDB1E609194037091950362
:10405000882777FD8095982F0E94A27C2091B90334
:104060003091BA034091BB035091BC030E94E07EA3
:1040700020E030E040E752E40E94077C20E030E09E
:1040800048EC52E40E94077C4B015C0185E895E016
:10409000F10191838083C301B20129813A814B816F
:1040A0005C810E94C5538091430790914407A09181
:1040B0004507B09146078093560590935705A09306
:1040C0005805B09359058091470790914807A091F2
:1040D0004907B0914A0780935A0590935B05A093D6
:1040E0005C05B0935D0580914B0790914C07A091C2
:1040F0004D07B0914E0780935E0590935F05A093A6
:104100006005B093610580914F0790915007A09191
:104110005107B09152078093620590936305A09375
:104120006405B09365050F900F900F900F900F905E
:104130000F90CF91DF911F910F91FF90EF90DF9043
:10414000CF90BF90AF909F908F907F906F905F9037
:104150004F903F902F9008952F923F924F925F92F1
:104160006F927F928F929F92AF92BF92CF92DF9287
:10417000EF92FF920F931F93DF93CF93CDB7DEB7EC
:1041800064970FB6F894DEBF0FBECDBF8C01DC0183
:104190006D917D918D919C9120E030E040E252E460
:1041A0000E94077C69837A838B839C832EE93FEE90
:1041B0004FE350E40E940E7E18168CF069817A81DC
:1041C0008B819C812EE93FEE4FE350EC0E94007CF6
:1041D00088236CF48EE99FEEAFE3B0EC04C08EE967
:1041E0009FEEAFE3B0E489839A83AB83BC83D801AD
:1041F00014966D917D918D919C91179720E030E000
:1042000040E252E40E94077C2B013C012EE93FEE84
:104210004FE350E40E940E7E1816ACF0C301B201C9
:104220002EE93FEE4FE350EC0E94007C8823ACF473
:104230000F2EFEE94F2EFFEE5F2EFFE36F2EF0EC08
:104240007F2EF02D0AC00F2EFEE94F2EFFEE5F2EBF
:10425000FFE36F2EF0E47F2EF02D69817A818B8150
:104260009C810E94DD7C0E946F7C6B017C01C301FC
:10427000B2010E94DD7C0E946F7C4B015C01B601A3
:10428000882777FD8095982F0E94A27C9B01AC0126
:1042900069817A818B819C810E94267B6D837E83DC
:1042A0008F839887B401882777FD8095982F0E9487
:1042B000A27C9B01AC01C301B2010E94267B6987ED
:1042C0007A878B879C8763E0462E512C4C0C5D1CB3
:1042D00053E0652E712C680C791CE4E0F0E08E0E42
:1042E0009F1ECE0EDF1E60E070E080E89FE3298510
:1042F0003A854B855C850E94267B6D877E878F87FC
:10430000988B60E070E080E89FE32D813E814F81D3
:1043100058850E94267B698B7A8B8B8B9C8B8201C4
:1043200043E0000F111F4A95E1F704191509F80140
:10433000E60DF71DEE0FFF1FEE0FFF1FEC56FA4FB5
:104340006D857E858F859889208131814281538159
:104350000E94E07E1B012C01080D191D000F111F8A
:10436000000F111F0C561A4F69857A858B859C8525
:10437000D8012D913D914D915C910E94E07E9B0171
:10438000AC01C201B1010E94277B9B01AC0169898C
:104390007A898B899C890E94E07E1B012C01860111
:1043A00093E0000F111F9A95E1F70C191D09600E9B
:1043B000711E660C771C660C771CE4E9F5E06E0E46
:1043C0007F1E6D857E858F859889D3012D913D91C6
:1043D0004D915C910E94E07E6B017C01080D191DDE
:1043E000000F111F000F111F0C561A4F69857A8597
:1043F0008B859C85F80120813181428153810E9407
:10440000E07E9B01AC01C701B6010E94277B9B01A6
:10441000AC016D817E818F8198850E94E07E9B0139
:10442000AC01C201B1010E94277B2B013C0120910C
:1044300088053091890540918A0550918B050E942D
:10444000277B7B018C0120E23FE542E054E40E949F
:104450000E7E181654F40F2EF0E2EF2EFFE5FF2E1D
:10446000F2E00F2FF4E41F2FF02DE0928805F09278
:10447000890500938A0510938B05C301B201209131
:104480008C0530918D0540918E0550918F050E94CD
:10449000277B7B018C0120E23FE542E054E40E944F
:1044A0000E7E181654F40F2EF0E2EF2EFFE5FF2ECD
:1044B000F2E00F2FF4E41F2FF02DE0928C05F09224
:1044C0008D0500938E0510938F05C301B2012091D5
:1044D00090053091910540919205509193050E946D
:1044E000277B7B018C0120E23FE542E054E40E94FF
:1044F0000E7E181654F40F2EF0E2EF2EFFE5FF2E7D
:10450000F2E00F2FF4E41F2FF02DE0929005F092CF
:104510009105009392051093930564960FB6F89455
:10452000DEBF0FBECDBFCF91DF911F910F91FF90E6
:10453000EF90DF90CF90BF90AF909F908F907F9043
:104540006F905F904F903F902F9008952F923F92E1
:104550004F925F926F927F928F929F92AF92BF9293
:10456000CF92DF92EF92FF920F931F93DF93CF933F
:10457000CDB7DEB7A6970FB6F894DEBF0FBECDBF9E
:1045800083E497E0D3D90E945D7860932F077093FE
:1045900030078093310790933207EE24FF246E0199
:1045A0000894C11CD11C86010E0D1F1DF701ED5B87
:1045B000F84FD701AA5ABA4F6081718182819381E5
:1045C0002D913D914D915C910E94267BD8016D9378
:1045D0007D938D939C931397E4E0F0E0EE0EFF1E25
:1045E000F0E1EF16F104F9F689819A81AB81BC8183
:1045F0008B8F9C8FAD8FBE8F8D819E81AF81B88553
:104600008F8B988FA98FBA8F89859A85AB85BC854A
:104610008B8B9C8BAD8BBE8B6B8D7C8D8D8D9E8D96
:104620009B01AC010E94E07E7B018C016F89788D3B
:10463000898D9A8D9B01AC010E94E07E9B01AC01AB
:10464000C801B7010E94277B7B018C016B897C89A3
:104650008D899E899B01AC010E94E07E9B01AC018B
:10466000C801B7010E94277B0E944D7F7B018C010E
:104670002DEB37E346E855E30E94007C882394F451
:10468000ED84FE840F851889C801B70120E030E071
:1046900040E050E00E940E7E181624F017FB1095A3
:1046A00017F91095C801B7012DEB37E346E855E33C
:1046B0000E94007C87FD71C1C801B70120E030E88D
:1046C0004BEB55E40E94E07E2091B9033091BA0390
:1046D0004091BB035091BC030E94077C7B018C017D
:1046E0006091940370919503882777FD8095982FAA
:1046F0000E94A27C9B01AC01C801B7010E94077C0B
:1047000020E030E040E253E40E94E07E0E946F7CB3
:104710007A8B698B1616170624F0A1E0B0E0BA8BED
:10472000A98BF1E02F2E312C89899A89AA2797FD30
:10473000A095BA2F8BA39CA3ADA3BEA3E8C0B101E3
:10474000882777FD8095982F0E94A27C7B018C01A1
:104750006BA17CA18DA19EA10E94A27C9B01AC01BA
:10476000C801B7010E94077C7B018C016B8D7C8D99
:104770008D8D9E8DA80197010E94E07E9B01AC016A
:104780006091560570915705809158059091590593
:104790000E94277B609343077093440780934507EB
:1047A000909346076F89788D898D9A8DA80197011E
:1047B0000E94E07E9B01AC0160915A0570915B05FF
:1047C00080915C0590915D050E94277B609347076F
:1047D000709348078093490790934A076B897C89B7
:1047E0008D899E89A80197010E94E07E9B01AC0102
:1047F00060915E0570915F05809160059091610503
:104800000E94277B60934B0770934C0780934D0762
:1048100090934E07C801B7012D853E854F85588975
:104820000E94E07E9B01AC0160916205709163057E
:1048300080916405909165050E94277B60934F07E6
:1048400070935007809351079093520783E497E049
:10485000C3DA83E497E080DC0F920F92CDB6DEB628
:104860000894C11CD11C4090880550908905609027
:104870008A0570908B0580918C0590918D05A09193
:104880008E05B0918F058F8F98A3A9A3BAA3E0904E
:104890009005F0909105009192051091930560911B
:1048A000940370919503882777FD8095982F0E9437
:1048B000A27C2091B9033091BA034091BB0350917F
:1048C000BC030E94E07E20E030E040E752E40E941A
:1048D000077C20E030E048EC52E40E94077C4B016A
:1048E0005C01E5E8F5E0D601ED93FC93C301B2016C
:1048F0002F8D38A149A15AA1EFE4CE2EE7E0DE2E9C
:104900000E94C5530894211C311C0F900F90898977
:104910009A89821593050CF012CF809143079091EC
:104920004407A0914507B0914607809356059093A0
:104930005705A0935805B09359058091470790916A
:104940004807A0914907B0914A0780935A05909370
:104950005B05A0935C05B0935D0580914B0790913A
:104960004C07A0914D07B0914E0780935E05909340
:104970005F05A0936005B093610580914F0790910A
:104980005007A0915107B091520780936205909310
:104990006305A0936405B0936505A6960FB6F894D9
:1049A000DEBF0FBECDBFCF91DF911F910F91FF9062
:1049B000EF90DF90CF90BF90AF909F908F907F90BF
:1049C0006F905F904F903F902F90089584E799E00B
:1049D0000E94AB47E7E1F4E0949108C08091C000E9
:1049E00085FFFCCF9093C600319694919923B1F73F
:1049F00040912707509128076091290770912A0755
:104A00004F5F5F4F6F4F7F4F84E799E02AE030E0C0
:104A10000E9469488091C00085FFFCCF8AE08093A6
:104A2000C60093C88091840390918503A09186036A
:104A3000B09187038093B9039093BA03A093BB030B
:104A4000B093BC0380E090E0A0E0B0E08093430727
:104A500090934407A0934507B09346078093470778
:104A600090934807A0934907B0934A0780E090E0ED
:104A7000A0EFB1E480934B0790934C07A0934D07B0
:104A8000B0934E0794DA0C94336180918403909133
:104A90008503A0918603B09187038093B903909317
:104AA000BA03A093BB03B093BC0360915E05709101
:104AB0005F05809160059091610520E030E040EA5B
:104AC00051E40E94277B60934B0770934C078093BF
:104AD0004D0790934E076BDA80E090E0A0E0B0E0E5
:104AE0008093430790934407A0934507B0934607EC
:104AF0008093470790934807A0934907B0934A07CC
:104B000080E090E0A0EFB1E480934B0790934C07D6
:104B1000A0934D07B0934E074ADA0C94336180E0BE
:104B20000E9448608091580790915907A0915A07B8
:104B3000B0915B078093B9039093BA03A093BB0332
:104B4000B093BC03809154059091550590939503C3
:104B5000809394030E945D7860932F0770933007D1
:104B6000809331079093320708952F923F924F928E
:104B70005F926F927F928F929F92AF92BF92CF92ED
:104B8000DF92EF92FF920F931F93DF93CF93CDB7F6
:104B9000DEB7A0970FB6F894DEBF0FBECDBF9E83E1
:104BA0008D838330910508F0D4C2FC01E156FA4FA1
:104BB000B490880F991F880F991F98A38F8FB6E51F
:104BC0002B2EB5E03B2E280E391E20E030E040E0D1
:104BD00050E0D1012D933D934D935C9313976091D9
:104BE000560570915705809158059091590520916F
:104BF0005A0530915B0540915C0550915D05E09050
:104C00005E05F0905F050091600510916105A2E6D8
:104C1000CA2EA5E0DA2E0E94774E20E030E040E078
:104C200050E0D1012D933D934D935C931397609188
:104C3000560570915705809158059091590520911E
:104C40005A0530915B0540915C0550915D05E090FF
:104C50005E05F0905F0500916005109161050E946E
:104C6000774EEF8DF8A1EE55FA4FE590F59005914E
:104C700014916B2D772767FD7095882777FD8095B8
:104C8000982F0E94A27C69837A838B839C83EF8D0B
:104C9000F8A1ED5BF84FF887EF83C801B70120E07A
:104CA00030E040EC5FE30E94E07E29813A814B8155
:104CB0005C810E94E07EAF81B8856D937D938D937A
:104CC0009C931397EF8DF8A1EC57FC4FFA87E98777
:104CD00060817181828193816093B9037093BA037B
:104CE0008093BB039093BC030F920F92CDB6DEB6B8
:104CF0000894C11CD11C4090430750904407609019
:104D0000450770904607209147073091480740912A
:104D1000490750914A072B873C874D875E87E09073
:104D20004B07F0904C0700914D0710914E0720E083
:104D300030E040E752E40E94077C4B015C01E5E86B
:104D4000F5E0D601ED93FC93C301B2012B853C85C0
:104D50004D855E85FFE4CF2EF7E0DF2E0E94C55320
:104D60000F900F900E94336180E00E94486020E025
:104D700030E040E050E0D1012D933D934D935C93A2
:104D80001397609156057091570580915805909141
:104D9000590520915A0530915B0540915C05509171
:104DA0005D05E0905E05F0905F0500916005109153
:104DB0006105E2E6CE2EE5E0DE2E0E94774EEF8D15
:104DC000F8A1E255FA4F4590559065907490C30153
:104DD000B201905829813A814B815C810E94E07E2A
:104DE000EF81F88560837183828393830F920F92A2
:104DF000CDB6DEB60894C11CD11C2091430730917A
:104E0000440740914507509146072F87388B498BBF
:104E10005A8B8091470790914807A0914907B0911C
:104E20004A078B8B9C8BAD8BBE8BE0904B07F09031
:104E30004C0700914D0710914E076091B903709196
:104E4000BA038091BB039091BC0320E030E040E7BF
:104E500052E40E94077C4B015C01E5E8F5E0D601D5
:104E6000ED93FC936F85788989899A892B893C8990
:104E70004D895E89BFE4CB2EB7E0DB2E0E94C5537F
:104E80000F900F900E94336181E00E944860C3013F
:104E9000B201A30192010E94277B29813A814B81B3
:104EA0005C810E94E07EAF81B8856D937D938D9388
:104EB0009C931397E985FA85608171818281938142
:104EC00020E030E040E85EE30E94E07E6093B903BA
:104ED0007093BA038093BB039093BC030F920F921D
:104EE000CDB6DEB60894C11CD11C4090430750904B
:104EF000440760904507709046072091470730911E
:104F000048074091490750914A072F8B388F498FA6
:104F10005A8FE0904B07F0904C0700914D0710918D
:104F20004E0720E030E040E752E40E94077C4B014E
:104F30005C01E5E8F5E0D601ED93FC93C301B20115
:104F40002F89388D498D5A8DAFE4CA2EA7E0DA2E0D
:104F50000E94C5530F900F900E943361AF8CB8A090
:104F600022E735E0A20EB31E69817A818B819C8194
:104F7000D5012D913D914D915C910E94E07E20E004
:104F800030E040E050E00E94007C88230CF071C0CB
:104F9000609156057091570580915805909159057B
:104FA00020915A0530915B0540915C0550915D055B
:104FB000E0905E05F0905F0500916005109161053D
:104FC000F2E6CF2EF5E0DF2E0E94774EF5018081CC
:104FD0009181A281B381EF81F88580839183A2833F
:104FE000B3830F920F92CDB6DEB60894C11CD11CCC
:104FF00040904307509044076090450770904607E3
:1050000020914707309148074091490750914A073E
:105010002B8F3C8F4D8F5E8FE0904B07F0904C07AD
:1050200000914D0710914E076091B9037091BA033A
:105030008091BB039091BC0320E030E040E752E454
:105040000E94077C4B015C01E5E8F5E0D601ED9399
:10505000FC93C301B2012B8D3C8D4D8D5E8DEFE431
:10506000CE2EE7E0DE2E0E94C5530F900F900E94D7
:105070003361CD80DE80CC0CDD1CCC0CDD1CF60158
:10508000E654FA4F6591759185919491F601EA592C
:10509000FA4F80809180A280B380A50194010E9484
:1050A000277B7B018C01F601EA5AFA4FCB01D8012C
:1050B00080839183A283B383F601EA53FA4F65910B
:1050C000759185919491BCE96B2EB3E07B2E6C0CAD
:1050D0007D1CA50194010E94277BD3016D937D93D4
:1050E0008D939C931397F601EE52FA4F659175914B
:1050F00085919491A8EA6A2EA3E07A2E6C0C7D1C0F
:10510000A50194010E94277BF30160837183828350
:10511000938323E437E0C20ED31EC701D801F60102
:1051200080839183A283B38380E090E0A0E0B0E02D
:105130008093B9039093BA03A093BB03B093BC03CD
:105140000E9441602D813E8122583A4F81E0D90171
:105150008C93A0960FB6F894DEBF0FBECDBFCF9153
:10516000DF911F910F91FF90EF90DF90CF90BF9054
:10517000AF909F908F907F906F905F904F903F90F7
:105180002F900895CF92DF92EF92FF920F931F938B
:10519000CF93DF93EE24FF24E3EFF5E0D4908AE091
:1051A000C82E38C0488159816A817B8184E799E0A3
:1051B00022E030E00E946F499D2DE3EFF5E008C04A
:1051C0008091C00085FFFCCF9093C60031969491EA
:1051D0009923B1F70F5F1F4F6C960730110511F738
:1051E000E9E0F2E007C08091C00085FFFCCF319676
:1051F0009093C60090819923B1F78091C00085FFFC
:10520000FCCFC092C6000894E11CF11C87E0E816B0
:10521000F10451F0E701CC0FDD1FCC0FDD1FCC56A0
:10522000DA4F00E010E0BECFDF91CF911F910F91D8
:10523000FF90EF90DF90CF900895BF92CF92DF92D2
:10524000EF92FF920F931F93CF93DF93EE24FF24EF
:10525000E7EFF5E0C490E5EFF5E0D4902AE0B22E58
:1052600049C0488159816A817B8184E799E022E0C5
:1052700030E00E946F490630110571F09C2DE7EF78
:10528000F5E008C08091C00085FFFCCF9093C60078
:10529000319694919923B1F79D2DE5EFF5E008C083
:1052A0008091C00085FFFCCF9093C6003196949109
:1052B0009923B1F70F5F1F4F6C960730110589F6E0
:1052C000E9E0F2E007C08091C00085FFFCCF319695
:1052D0009093C60090819923B1F78091C00085FF1B
:1052E000FCCFB092C6000894E11CF11C87E0E816E0
:1052F000F10451F0E701CC0FDD1FCC0FDD1FC85AC0
:10530000D94F00E010E0ADCFDF91CF911F910F9109
:10531000FF90EF90DF90CF90BF900895FC019491A3
:1053200008C08091C00085FFFCCF9093C6003196E5
:1053300094919923B1F784E799E022E030E00C944E
:105340006F498F929F92AF92BF92CF92DF92EF926E
:10535000FF920F931F93CF93DF93EC014B01590101
:105360006A018330910521F46330710509F4A1C00D
:105370008E0173E0000F111F7A95E1F70C1B1D0BD6
:10538000080D191D000F111F000F111F54E9E52E04
:1053900055E0F52EE00EF11EF701608171818281EA
:1053A0009381A60195010E94277BF7016083718399
:1053B00082839383085A194FF80160817181828139
:1053C0009381A60195010E94277BF8016083718378
:1053D00082839383E5E0F6E0949108C08091C00059
:1053E00085FFFCCF9093C600319694919923B1F735
:1053F00084E799E0BE014AE050E00E949C48E2E068
:10540000F6E0949108C08091C00085FFFCCF909396
:10541000C600319694919923B1F784E799E0B401DD
:105420004AE050E00E949C48EDEFF5E0949108C0FE
:105430008091C00085FFFCCF9093C6003196949177
:105440009923B1F784E799E0B601A50122E030E0A5
:105450000E946F49E9EFF5E0949108C08091C00087
:1054600085FFFCCF9093C600319694919923B1F7B4
:10547000FE0143E0EE0FFF1F4A95E1F7EC1BFD0B29
:10548000E80DF91DEE0FFF1FEE0FFF1FE85AF94F51
:10549000408151816281738184E799E022E030E0AC
:1054A0000E946F498091C00085FFFCCF8AE0809305
:1054B000C600DF91CF911F910F91FF90EF90DF9089
:1054C000CF90BF90AF909F908F9008952F923F9272
:1054D0004F925F926F927F928F929F92AF92BF9204
:1054E000CF92DF92EF92FF920F931F93DF93CF93B0
:1054F000CDB7DEB72C970FB6F894DEBF0FBECDBF89
:1055000069837A838B839C83E0905605F0905705DE
:105510000091580510915905C801B70120E030E00D
:1055200040E050E00E940E7E18161CF4370148013E
:1055300006C03701480197FA909497F89094A0908C
:105540005A05B0905B05C0905C05D0905D05C60122
:10555000B50120E030E040E050E00E940E7E1816D9
:105560001CF4A601950103C0A60195015058C40181
:10557000B3010E94277B20E030E040E85FE30E9417
:10558000007C87FD03C0EAE0F2E065C0E1E2F2E002
:1055900007C08091C00085FFFCCF31969093C60074
:1055A00090819923B1F78091C00085FFFCCF8AE0FC
:1055B0008093C600EE24FF2433C0F6016081718120
:1055C0008281938129813A814B815C810E94277B72
:1055D000F6016083718382839383F5016081718119
:1055E0008281938129813A814B815C810E94277B52
:1055F000F50160837183828393830F5F1F4F8CE17A
:1056000090E0C80ED91EA80EB91E07301105A9F6E4
:105610000894E11CF11C97E0E916F10409F4DEC0DE
:10562000C701880F991F880F991FF4E9CF2EF5E065
:10563000DF2EC80ED91EE8E5AE2EE6E0BE2EA80E7F
:10564000B91E00E010E0B9CF8091C00085FFFCCF0B
:1056500031969093C60090819923B1F78091C00054
:1056600085FFFCCF8AE08093C600C801B70120E027
:1056700030E040EF52E40E94277B20E030E040E23F
:1056800052E40E94077C7B018C01C601B50120E039
:1056900030E040EF52E40E94277B20E030E040E21F
:1056A00052E40E94077C5B016C01C801B7010E94B3
:1056B0006F7C3B014C014B01B401882777FD80953D
:1056C000982F0E94A27C9B01AC01C801B7010E94E7
:1056D000267B6D837E838F839887C601B5010E94E8
:1056E0006F7C1B012C012B01B201882777FD80956F
:1056F000982F0E94A27C9B01AC01C601B5010E94BB
:10570000267B5B016C0160E070E080E89FE32D8107
:105710003E814F8158850E94267B69877A878B87D7
:105720009C8760E070E080E89FE3A60195010E94FD
:10573000267B7B018C0169857A858B859C85A801F8
:1057400097010E94E07E29813A814B815C810E9411
:10575000E07E9B01AC01C301B101F3DD0894411C63
:10576000511C6D817E818F819885A80197010E94CF
:10577000E07E29813A814B815C810E94E07E9B0121
:10578000AC01C301B201DDDD34010894611C711C60
:1057900069857A858B859C85A60195010E94E07EAE
:1057A00029813A814B815C810E94E07E9B01AC01A2
:1057B000C301B101C6DD6D817E818F819885A6010F
:1057C00095010E94E07E29813A814B815C810E9493
:1057D000E07E9B01AC01C301B201B3DD2C960FB694
:1057E000F894DEBF0FBECDBFCF91DF911F910F9117
:1057F000FF90EF90DF90CF90BF90AF909F908F90F1
:105800007F906F905F904F903F902F900895FC0194
:10581000949108C08091C00085FFFCCF9093C60092
:10582000319694919923B1F784E799E02AE030E02A
:105830000C944D48EF92FF920F931F937C0184E0EC
:1058400060E00E94B77A0027F7FC0095102FC8018E
:10585000B7010E946B781F910F91FF90EF90089510
:10586000EF92FF920F931F937C0184E061E00E940E
:10587000B77A0027F7FC0095102FC801B7010E94E6
:105880006B781F910F91FF90EF900895CF93DF9366
:10589000C4E1D0E08BE490E0E3DF4A9902C081E00C
:1058A0001AC086E990E0C6DF2197A1F7E7E3F2E0AE
:1058B00007C08091C00085FFFCCF31969093C60051
:1058C00090819923B1F78091C00085FFFCCF8AE0D9
:1058D0008093C60080E0DF91CF9108951F93D6DFBB
:1058E000182F86E990E0A6DF1123A1F0E9E4F2E0A9
:1058F00007C08091C00085FFFCCF31969093C60011
:1059000090819923B1F78091C00085FFFCCF8AE098
:105910008093C600812F1F91089540915E0750919A
:105920005F0720E630E0B901469F9001479F300DA8
:10593000569F300D1124682F772767FD7095C90198
:10594000805A984F0E943C0D9C0190935D07809374
:105950005C0780E0232B09F081E008958F929F92ED
:10596000AF92BF92CF92DF92EF92FF920F931F936D
:105970008DEB93E00E94917589DF81E00E94486081
:105980001EE5C12E15E0D12E80905E0590905F053A
:10599000A0906005B090610582E00E9421617B01CA
:1059A0008C0160918C0370918D0380918E03909196
:1059B0008F0320E030E040E85EE30E94E07E6093E9
:1059C000B9037093BA038093BB039093BC0380E048
:1059D00090E0A0E2B1EC80934B0790934C07A0932A
:1059E0004D07B0934E070E94D71F0E9433610E945B
:1059F000416080E00E94486082E00E942161E61AD6
:105A0000F70A080B190BC801B7010E94A27C20916C
:105A100091093091920940919309509194090E9403
:105A2000077C9B01AC01C501B4010E94267B6093F9
:105A30005E0570935F058093600590936105C601D4
:105A400008970E94EC1E60918805709189058091ED
:105A50008A0590918B0520918C0530918D054091A0
:105A60008E0550918F05E0909005F0909105009182
:105A7000920510919305E4E0F0E0CE0EDF1E0E9447
:105A8000774E86E990E0D6DE1F910F91FF90EF9060
:105A9000DF90CF90BF90AF909F908F9008952F92FE
:105AA0003F924F925F926F927F928F929F92AF92AE
:105AB000BF92CF92DF92EF92FF920F931F93DF93EB
:105AC000CF9300D00F92CDB7DEB71B012C012983F5
:105AD0003A834B835C838091560590915705A09142
